{
  "contractName": "Marketplace",
  "abi": [
    {
      "anonymous": false,
      "inputs": [
        {
          "indexed": true,
          "internalType": "address",
          "name": "account",
          "type": "address"
        },
        {
          "indexed": true,
          "internalType": "address",
          "name": "operator",
          "type": "address"
        },
        {
          "indexed": false,
          "internalType": "bool",
          "name": "approved",
          "type": "bool"
        }
      ],
      "name": "ApprovalForAll",
      "type": "event"
    },
    {
      "anonymous": false,
      "inputs": [
        {
          "indexed": true,
          "internalType": "uint256[]",
          "name": "tokenId",
          "type": "uint256[]"
        },
        {
          "indexed": true,
          "internalType": "address",
          "name": "buyer",
          "type": "address"
        },
        {
          "indexed": true,
          "internalType": "address",
          "name": "seller",
          "type": "address"
        },
        {
          "indexed": false,
          "internalType": "uint256[]",
          "name": "cardsId",
          "type": "uint256[]"
        },
        {
          "indexed": false,
          "internalType": "uint256[]",
          "name": "quantities",
          "type": "uint256[]"
        },
        {
          "indexed": false,
          "internalType": "uint256",
          "name": "totalPrice",
          "type": "uint256"
        }
      ],
      "name": "CardPurchased",
      "type": "event"
    },
    {
      "anonymous": false,
      "inputs": [
        {
          "indexed": true,
          "internalType": "address",
          "name": "previousOwner",
          "type": "address"
        },
        {
          "indexed": true,
          "internalType": "address",
          "name": "newOwner",
          "type": "address"
        }
      ],
      "name": "OwnershipTransferred",
      "type": "event"
    },
    {
      "anonymous": false,
      "inputs": [
        {
          "indexed": false,
          "internalType": "uint256",
          "name": "idRealEstate",
          "type": "uint256"
        }
      ],
      "name": "RealEstateAdded",
      "type": "event"
    },
    {
      "anonymous": false,
      "inputs": [
        {
          "indexed": true,
          "internalType": "address",
          "name": "operator",
          "type": "address"
        },
        {
          "indexed": true,
          "internalType": "address",
          "name": "from",
          "type": "address"
        },
        {
          "indexed": true,
          "internalType": "address",
          "name": "to",
          "type": "address"
        },
        {
          "indexed": false,
          "internalType": "uint256[]",
          "name": "ids",
          "type": "uint256[]"
        },
        {
          "indexed": false,
          "internalType": "uint256[]",
          "name": "values",
          "type": "uint256[]"
        }
      ],
      "name": "TransferBatch",
      "type": "event"
    },
    {
      "anonymous": false,
      "inputs": [
        {
          "indexed": true,
          "internalType": "address",
          "name": "operator",
          "type": "address"
        },
        {
          "indexed": true,
          "internalType": "address",
          "name": "from",
          "type": "address"
        },
        {
          "indexed": true,
          "internalType": "address",
          "name": "to",
          "type": "address"
        },
        {
          "indexed": false,
          "internalType": "uint256",
          "name": "id",
          "type": "uint256"
        },
        {
          "indexed": false,
          "internalType": "uint256",
          "name": "value",
          "type": "uint256"
        }
      ],
      "name": "TransferSingle",
      "type": "event"
    },
    {
      "anonymous": false,
      "inputs": [
        {
          "indexed": false,
          "internalType": "string",
          "name": "value",
          "type": "string"
        },
        {
          "indexed": true,
          "internalType": "uint256",
          "name": "id",
          "type": "uint256"
        }
      ],
      "name": "URI",
      "type": "event"
    },
    {
      "anonymous": false,
      "inputs": [
        {
          "indexed": false,
          "internalType": "uint256",
          "name": "idToken",
          "type": "uint256"
        },
        {
          "indexed": false,
          "internalType": "uint256",
          "name": "supplyCottage",
          "type": "uint256"
        },
        {
          "indexed": false,
          "internalType": "uint256",
          "name": "supplyVilla",
          "type": "uint256"
        },
        {
          "indexed": false,
          "internalType": "uint256",
          "name": "supplyMansion",
          "type": "uint256"
        },
        {
          "indexed": false,
          "internalType": "uint256",
          "name": "supplyHighRise",
          "type": "uint256"
        }
      ],
      "name": "supplyCardsCalculated",
      "type": "event"
    },
    {
      "anonymous": false,
      "inputs": [
        {
          "indexed": false,
          "internalType": "uint256",
          "name": "idRealEstate",
          "type": "uint256"
        }
      ],
      "name": "tokenMinted",
      "type": "event"
    },
    {
      "inputs": [
        {
          "internalType": "uint256",
          "name": "",
          "type": "uint256"
        }
      ],
      "name": "Listings",
      "outputs": [
        {
          "internalType": "uint256",
          "name": "tokenId",
          "type": "uint256"
        },
        {
          "internalType": "uint256",
          "name": "price",
          "type": "uint256"
        },
        {
          "internalType": "uint256",
          "name": "quantity",
          "type": "uint256"
        },
        {
          "internalType": "address payable",
          "name": "seller",
          "type": "address"
        },
        {
          "internalType": "address payable",
          "name": "owner",
          "type": "address"
        }
      ],
      "stateMutability": "view",
      "type": "function"
    },
    {
      "inputs": [
        {
          "internalType": "string",
          "name": "_name",
          "type": "string"
        },
        {
          "internalType": "string",
          "name": "_location",
          "type": "string"
        },
        {
          "internalType": "string",
          "name": "_city",
          "type": "string"
        },
        {
          "internalType": "string",
          "name": "_cid",
          "type": "string"
        },
        {
          "internalType": "uint256",
          "name": "_price",
          "type": "uint256"
        }
      ],
      "name": "addRealEstate",
      "outputs": [],
      "stateMutability": "nonpayable",
      "type": "function"
    },
    {
      "inputs": [
        {
          "internalType": "address",
          "name": "account",
          "type": "address"
        },
        {
          "internalType": "uint256",
          "name": "id",
          "type": "uint256"
        }
      ],
      "name": "balanceOf",
      "outputs": [
        {
          "internalType": "uint256",
          "name": "",
          "type": "uint256"
        }
      ],
      "stateMutability": "view",
      "type": "function"
    },
    {
      "inputs": [
        {
          "internalType": "address[]",
          "name": "accounts",
          "type": "address[]"
        },
        {
          "internalType": "uint256[]",
          "name": "ids",
          "type": "uint256[]"
        }
      ],
      "name": "balanceOfBatch",
      "outputs": [
        {
          "internalType": "uint256[]",
          "name": "",
          "type": "uint256[]"
        }
      ],
      "stateMutability": "view",
      "type": "function"
    },
    {
      "inputs": [
        {
          "internalType": "uint256",
          "name": "_indexRealEstateInCollection",
          "type": "uint256"
        },
        {
          "internalType": "bool",
          "name": "_isDefaultSupply",
          "type": "bool"
        },
        {
          "internalType": "uint256",
          "name": "_ratioTokenCottage",
          "type": "uint256"
        },
        {
          "internalType": "uint256",
          "name": "_ratioTokenVilla",
          "type": "uint256"
        },
        {
          "internalType": "uint256",
          "name": "_ratioTokenMansion",
          "type": "uint256"
        },
        {
          "internalType": "uint256",
          "name": "_prixTokenCottage",
          "type": "uint256"
        },
        {
          "internalType": "uint256",
          "name": "_prixTokenVilla",
          "type": "uint256"
        },
        {
          "internalType": "uint256",
          "name": "_prixTokenMansion",
          "type": "uint256"
        },
        {
          "internalType": "uint256",
          "name": "_prixTokenHighRise",
          "type": "uint256"
        }
      ],
      "name": "calculateNumberOfTokens",
      "outputs": [],
      "stateMutability": "nonpayable",
      "type": "function"
    },
    {
      "inputs": [
        {
          "internalType": "uint256",
          "name": "_indexRealEstateInCollection",
          "type": "uint256"
        },
        {
          "internalType": "uint256",
          "name": "_cardId",
          "type": "uint256"
        }
      ],
      "name": "getCard",
      "outputs": [
        {
          "components": [
            {
              "internalType": "uint256",
              "name": "tokenId",
              "type": "uint256"
            },
            {
              "internalType": "uint256",
              "name": "cardId",
              "type": "uint256"
            },
            {
              "internalType": "uint256",
              "name": "price",
              "type": "uint256"
            },
            {
              "internalType": "uint256",
              "name": "numberOfTokens",
              "type": "uint256"
            },
            {
              "internalType": "uint256",
              "name": "ratioOfTokensInPercent",
              "type": "uint256"
            },
            {
              "internalType": "uint256",
              "name": "royalty",
              "type": "uint256"
            },
            {
              "internalType": "uint256",
              "name": "balance",
              "type": "uint256"
            }
          ],
          "internalType": "struct Rock.Card",
          "name": "",
          "type": "tuple"
        }
      ],
      "stateMutability": "view",
      "type": "function"
    },
    {
      "inputs": [],
      "name": "getLatestPrice",
      "outputs": [
        {
          "internalType": "int256",
          "name": "",
          "type": "int256"
        }
      ],
      "stateMutability": "view",
      "type": "function"
    },
    {
      "inputs": [],
      "name": "getOwner",
      "outputs": [
        {
          "internalType": "address",
          "name": "",
          "type": "address"
        }
      ],
      "stateMutability": "view",
      "type": "function"
    },
    {
      "inputs": [],
      "name": "getRealEstatesCollectionCount",
      "outputs": [
        {
          "internalType": "uint256",
          "name": "",
          "type": "uint256"
        }
      ],
      "stateMutability": "view",
      "type": "function"
    },
    {
      "inputs": [
        {
          "internalType": "uint256",
          "name": "_index",
          "type": "uint256"
        }
      ],
      "name": "getRealStateById",
      "outputs": [
        {
          "components": [
            {
              "internalType": "uint256",
              "name": "id",
              "type": "uint256"
            },
            {
              "internalType": "string",
              "name": "name",
              "type": "string"
            },
            {
              "internalType": "string",
              "name": "location",
              "type": "string"
            },
            {
              "internalType": "string",
              "name": "city",
              "type": "string"
            },
            {
              "internalType": "string",
              "name": "cid",
              "type": "string"
            },
            {
              "internalType": "uint256",
              "name": "price",
              "type": "uint256"
            }
          ],
          "internalType": "struct Rock.RealEstate",
          "name": "",
          "type": "tuple"
        }
      ],
      "stateMutability": "view",
      "type": "function"
    },
    {
      "inputs": [
        {
          "internalType": "address",
          "name": "account",
          "type": "address"
        },
        {
          "internalType": "address",
          "name": "operator",
          "type": "address"
        }
      ],
      "name": "isApprovedForAll",
      "outputs": [
        {
          "internalType": "bool",
          "name": "",
          "type": "bool"
        }
      ],
      "stateMutability": "view",
      "type": "function"
    },
    {
      "inputs": [
        {
          "internalType": "uint256",
          "name": "_indexRealEstateInCollection",
          "type": "uint256"
        }
      ],
      "name": "mintRealEstateCollection",
      "outputs": [],
      "stateMutability": "nonpayable",
      "type": "function"
    },
    {
      "inputs": [],
      "name": "name",
      "outputs": [
        {
          "internalType": "string",
          "name": "",
          "type": "string"
        }
      ],
      "stateMutability": "view",
      "type": "function"
    },
    {
      "inputs": [],
      "name": "owner",
      "outputs": [
        {
          "internalType": "address",
          "name": "",
          "type": "address"
        }
      ],
      "stateMutability": "view",
      "type": "function"
    },
    {
      "inputs": [
        {
          "internalType": "uint256",
          "name": "",
          "type": "uint256"
        }
      ],
      "name": "realEstatesCollection",
      "outputs": [
        {
          "internalType": "uint256",
          "name": "id",
          "type": "uint256"
        },
        {
          "internalType": "string",
          "name": "name",
          "type": "string"
        },
        {
          "internalType": "string",
          "name": "location",
          "type": "string"
        },
        {
          "internalType": "string",
          "name": "city",
          "type": "string"
        },
        {
          "internalType": "string",
          "name": "cid",
          "type": "string"
        },
        {
          "internalType": "uint256",
          "name": "price",
          "type": "uint256"
        }
      ],
      "stateMutability": "view",
      "type": "function"
    },
    {
      "inputs": [],
      "name": "renounceOwnership",
      "outputs": [],
      "stateMutability": "nonpayable",
      "type": "function"
    },
    {
      "inputs": [
        {
          "internalType": "uint256",
          "name": "_tokenId",
          "type": "uint256"
        },
        {
          "internalType": "uint256",
          "name": "_salePrice",
          "type": "uint256"
        }
      ],
      "name": "royaltyInfo",
      "outputs": [
        {
          "internalType": "address",
          "name": "",
          "type": "address"
        },
        {
          "internalType": "uint256",
          "name": "",
          "type": "uint256"
        }
      ],
      "stateMutability": "view",
      "type": "function"
    },
    {
      "inputs": [
        {
          "internalType": "address",
          "name": "from",
          "type": "address"
        },
        {
          "internalType": "address",
          "name": "to",
          "type": "address"
        },
        {
          "internalType": "uint256[]",
          "name": "ids",
          "type": "uint256[]"
        },
        {
          "internalType": "uint256[]",
          "name": "amounts",
          "type": "uint256[]"
        },
        {
          "internalType": "bytes",
          "name": "data",
          "type": "bytes"
        }
      ],
      "name": "safeBatchTransferFrom",
      "outputs": [],
      "stateMutability": "nonpayable",
      "type": "function"
    },
    {
      "inputs": [
        {
          "internalType": "address",
          "name": "from",
          "type": "address"
        },
        {
          "internalType": "address",
          "name": "to",
          "type": "address"
        },
        {
          "internalType": "uint256",
          "name": "id",
          "type": "uint256"
        },
        {
          "internalType": "uint256",
          "name": "amount",
          "type": "uint256"
        },
        {
          "internalType": "bytes",
          "name": "data",
          "type": "bytes"
        }
      ],
      "name": "safeTransferFrom",
      "outputs": [],
      "stateMutability": "nonpayable",
      "type": "function"
    },
    {
      "inputs": [
        {
          "internalType": "address",
          "name": "operator",
          "type": "address"
        },
        {
          "internalType": "bool",
          "name": "approved",
          "type": "bool"
        }
      ],
      "name": "setApprovalForAll",
      "outputs": [],
      "stateMutability": "nonpayable",
      "type": "function"
    },
    {
      "inputs": [
        {
          "internalType": "uint256",
          "name": "_fee",
          "type": "uint256"
        }
      ],
      "name": "setFee",
      "outputs": [],
      "stateMutability": "nonpayable",
      "type": "function"
    },
    {
      "inputs": [
        {
          "internalType": "bytes4",
          "name": "interfaceId",
          "type": "bytes4"
        }
      ],
      "name": "supportsInterface",
      "outputs": [
        {
          "internalType": "bool",
          "name": "",
          "type": "bool"
        }
      ],
      "stateMutability": "view",
      "type": "function"
    },
    {
      "inputs": [],
      "name": "symbol",
      "outputs": [
        {
          "internalType": "string",
          "name": "",
          "type": "string"
        }
      ],
      "stateMutability": "view",
      "type": "function"
    },
    {
      "inputs": [
        {
          "internalType": "address",
          "name": "newOwner",
          "type": "address"
        }
      ],
      "name": "transferOwnership",
      "outputs": [],
      "stateMutability": "nonpayable",
      "type": "function"
    },
    {
      "inputs": [
        {
          "internalType": "uint256",
          "name": "",
          "type": "uint256"
        }
      ],
      "name": "uri",
      "outputs": [
        {
          "internalType": "string",
          "name": "",
          "type": "string"
        }
      ],
      "stateMutability": "view",
      "type": "function"
    },
    {
      "inputs": [
        {
          "internalType": "uint256",
          "name": "",
          "type": "uint256"
        },
        {
          "internalType": "uint256",
          "name": "",
          "type": "uint256"
        },
        {
          "internalType": "address",
          "name": "",
          "type": "address"
        }
      ],
      "name": "usersCardsNfts",
      "outputs": [
        {
          "internalType": "uint256",
          "name": "tokenId",
          "type": "uint256"
        },
        {
          "internalType": "uint256",
          "name": "price",
          "type": "uint256"
        },
        {
          "internalType": "uint256",
          "name": "quantity",
          "type": "uint256"
        },
        {
          "internalType": "address payable",
          "name": "seller",
          "type": "address"
        },
        {
          "internalType": "address payable",
          "name": "owner",
          "type": "address"
        }
      ],
      "stateMutability": "view",
      "type": "function"
    },
    {
      "inputs": [],
      "name": "withdraw",
      "outputs": [],
      "stateMutability": "nonpayable",
      "type": "function"
    },
    {
      "stateMutability": "payable",
      "type": "receive"
    },
    {
      "inputs": [
        {
          "internalType": "uint256",
          "name": "_indexRealEstateInCollection",
          "type": "uint256"
        },
        {
          "internalType": "uint256",
          "name": "tokenId",
          "type": "uint256"
        },
        {
          "internalType": "address",
          "name": "sellerAddress",
          "type": "address"
        },
        {
          "internalType": "uint256",
          "name": "askedQuantity",
          "type": "uint256"
        }
      ],
      "name": "verifyUserQuantityIsAvailable",
      "outputs": [
        {
          "internalType": "bool",
          "name": "",
          "type": "bool"
        }
      ],
      "stateMutability": "view",
      "type": "function"
    },
    {
      "inputs": [
        {
          "internalType": "uint256[]",
          "name": "_cardsId",
          "type": "uint256[]"
        },
        {
          "internalType": "uint256[]",
          "name": "_quantities",
          "type": "uint256[]"
        },
        {
          "internalType": "uint256",
          "name": "_indexRealEstateInCollection",
          "type": "uint256"
        }
      ],
      "name": "confirmBuy",
      "outputs": [],
      "stateMutability": "payable",
      "type": "function"
    },
    {
      "inputs": [
        {
          "internalType": "address",
          "name": "_from",
          "type": "address"
        },
        {
          "internalType": "address",
          "name": "_to",
          "type": "address"
        },
        {
          "internalType": "uint256",
          "name": "_id",
          "type": "uint256"
        },
        {
          "internalType": "uint256",
          "name": "_amount",
          "type": "uint256"
        }
      ],
      "name": "sellTokens",
      "outputs": [
        {
          "internalType": "uint256",
          "name": "",
          "type": "uint256"
        }
      ],
      "stateMutability": "nonpayable",
      "type": "function"
    },
    {
      "inputs": [],
      "name": "fetchAll",
      "outputs": [],
      "stateMutability": "view",
      "type": "function"
    },
    {
      "inputs": [],
      "name": "fetchMyNfts",
      "outputs": [],
      "stateMutability": "view",
      "type": "function"
    }
  ],
  "bytecode": "0x61138860095560c0604052600f60809081526e2937b1b59021b7b63632b1ba34b7b760891b60a052600a90620000369082620002ee565b50604080518082019091526004815263526f636b60e01b6020820152600b90620000619082620002ee565b503480156200006f57600080fd5b506040518060800160405280605a815260200162004884605a91396200009581620000e0565b50620000a133620000f2565b6001600655620000b433611f4062000144565b601080546001600160a01b03191673d4a33860578de61dbabdc8bfdb98fd742fa7028e179055620003ba565b6002620000ee8282620002ee565b5050565b600580546001600160a01b038381166001600160a01b0319831681179093556040519116919082907f8be0079c531659141344cd1fd0a4f28419497f9722a3daafe3b4186f6b6457e090600090a35050565b6127106001600160601b0382161115620001b85760405162461bcd60e51b815260206004820152602a60248201527f455243323938313a20726f79616c7479206665652077696c6c206578636565646044820152692073616c65507269636560b01b60648201526084015b60405180910390fd5b6001600160a01b038216620002105760405162461bcd60e51b815260206004820152601960248201527f455243323938313a20696e76616c6964207265636569766572000000000000006044820152606401620001af565b604080518082019091526001600160a01b039092168083526001600160601b039091166020909201829052600160a01b90910217600355565b634e487b7160e01b600052604160045260246000fd5b600181811c908216806200027457607f821691505b6020821081036200029557634e487b7160e01b600052602260045260246000fd5b50919050565b601f821115620002e957600081815260208120601f850160051c81016020861015620002c45750805b601f850160051c820191505b81811015620002e557828155600101620002d0565b5050505b505050565b81516001600160401b038111156200030a576200030a62000249565b62000322816200031b84546200025f565b846200029b565b602080601f8311600181146200035a5760008415620003415750858301515b600019600386901b1c1916600185901b178555620002e5565b600085815260208120601f198616915b828110156200038b578886015182559484019460019091019084016200036a565b5085821015620003aa5787850151600019600388901b60f8161c191681555b5050505050600190811b01905550565b6144ba80620003ca6000396000f3fe6080604052600436106101e65760003560e01c8063715018a611610102578063a22cb46511610095578063f242432a11610064578063f242432a14610674578063f2a54c0414610694578063f2fde38b146106a9578063fdac310f146106c957600080fd5b8063a22cb465146105c6578063d1e8c4aa146105e6578063e60aae9814610606578063e985e9c51461062b57600080fd5b80638e15f473116100d15780638e15f4731461054a578063944060981461055f57806395d89b411461057f578063a0f4651a1461059457600080fd5b8063715018a6146104d75780637ae48938146104ec578063893d20e8146104ff5780638da5cb5b1461052c57600080fd5b80632a55205a1161017a5780633ccfd60b116101495780633ccfd60b146104555780634e1273f41461046a57806369fe0e2d146104975780636f7789a6146104b757600080fd5b80632a55205a146103605780632eb2c2d61461039f5780633079a8dd146103bf57806333caeb941461043557600080fd5b806306fdde03116101b657806306fdde03146103125780630e89341c14610334578063128ae7121461035457806327ec486c1461035457600080fd5b8062fdd58e146101f2578063012f375f1461022557806301ffc9a714610247578063046437551461027757600080fd5b366101ed57005b600080fd5b3480156101fe57600080fd5b5061021261020d366004613659565b6106f6565b6040519081526020015b60405180910390f35b34801561023157600080fd5b50610245610240366004613753565b6107a2565b005b34801561025357600080fd5b50610267610262366004613836565b610c5f565b604051901515815260200161021c565b34801561028357600080fd5b506102de61029236600461385a565b600e602090815260009384526040808520825292845282842090528252902080546001820154600283015460038401546004909401549293919290916001600160a01b03908116911685565b604080519586526020860194909452928401919091526001600160a01b03908116606084015216608082015260a00161021c565b34801561031e57600080fd5b50610327610c6a565b60405161021c91906138d5565b34801561034057600080fd5b5061032761034f3660046138e8565b610cf8565b34801561024557600080fd5b34801561036c57600080fd5b5061038061037b366004613901565b610d8e565b604080516001600160a01b03909316835260208301919091520161021c565b3480156103ab57600080fd5b506102456103ba3660046139b8565b610e6d565b3480156103cb57600080fd5b506103df6103da366004613901565b610f0f565b60405161021c9190600060e082019050825182526020830151602083015260408301516040830152606083015160608301526080830151608083015260a083015160a083015260c083015160c083015292915050565b34801561044157600080fd5b506102de6104503660046138e8565b610fcf565b34801561046157600080fd5b5061024561101d565b34801561047657600080fd5b5061048a610485366004613a62565b6110b1565b60405161021c9190613b68565b3480156104a357600080fd5b506102456104b23660046138e8565b6111ef565b3480156104c357600080fd5b506102456104d23660046138e8565b6111fc565b3480156104e357600080fd5b5061024561133e565b6102456104fa366004613bc0565b611350565b34801561050b57600080fd5b506105146119d0565b6040516001600160a01b03909116815260200161021c565b34801561053857600080fd5b506005546001600160a01b0316610514565b34801561055657600080fd5b506102126119e9565b34801561056b57600080fd5b5061026761057a366004613c34565b611a6e565b34801561058b57600080fd5b50610327611abb565b3480156105a057600080fd5b506105b46105af3660046138e8565b611ac8565b60405161021c96959493929190613c71565b3480156105d257600080fd5b506102456105e1366004613ce8565b611d30565b3480156105f257600080fd5b50610245610601366004613d1b565b611d3f565b34801561061257600080fd5b50610212610621366004613d85565b6000949350505050565b34801561063757600080fd5b50610267610646366004613dc7565b6001600160a01b03918216600090815260016020908152604080832093909416825291909152205460ff1690565b34801561068057600080fd5b5061024561068f366004613df1565b6123bc565b3480156106a057600080fd5b50600c54610212565b3480156106b557600080fd5b506102456106c4366004613e56565b612457565b3480156106d557600080fd5b506106e96106e43660046138e8565b6124e4565b60405161021c9190613e71565b60006001600160a01b0383166107795760405162461bcd60e51b815260206004820152602a60248201527f455243313135353a2061646472657373207a65726f206973206e6f742061207660448201527f616c6964206f776e65720000000000000000000000000000000000000000000060648201526084015b60405180910390fd5b506000818152602081815260408083206001600160a01b03861684529091529020545b92915050565b6107aa6127fd565b6040516020016107c590602080825260009082015260400190565b60405160208183030381529060405280519060200120856040516020016107ec91906138d5565b60405160208183030381529060405280519060200120036108755760405162461bcd60e51b815260206004820152602e60248201527f4c65206e6f6d2064752070726f6772616d6d6520696d6d6f62696c696572206560448201527f7374206f626c696761746f6972650000000000000000000000000000000000006064820152608401610770565b60405160200161089090602080825260009082015260400190565b60405160208183030381529060405280519060200120846040516020016108b791906138d5565b604051602081830303815290604052805190602001200361091a5760405162461bcd60e51b815260206004820152601c60248201527f4c6120736974756174696f6e20657374206f626c696761746f697265000000006044820152606401610770565b60405160200161093590602080825260009082015260400190565b604051602081830303815290604052805190602001208360405160200161095c91906138d5565b60405160208183030381529060405280519060200120036109bf5760405162461bcd60e51b815260206004820152601860248201527f4c612076696c6c6520657374206f626c696761746f69726500000000000000006044820152606401610770565b6040516020016109da90602080825260009082015260400190565b6040516020818303038152906040528051906020012082604051602001610a0191906138d5565b6040516020818303038152906040528051906020012003610a645760405162461bcd60e51b815260206004820152601660248201527f4c652063696420657374206f626c696761746f697265000000000000000000006044820152606401610770565b61c3508111610adb5760405162461bcd60e51b815260206004820152603860248201527f4572726575722c206c652070726978206475206269656e20696d6d6f20646f6960448201527f74206574726520737570657269657572206120353030303000000000000000006064820152608401610770565b610ae9600880546001019055565b610b226040518060c001604052806000815260200160608152602001606081526020016060815260200160608152602001600081525090565b60085481526020810186815260408201869052606082018590526080820184905260a08201839052600c8054600181018255600091909152825160069091027fdf6966c971051c3d54ec59162606531493a51404a002842f56009d7e5cf4a8c78101918255915183927fdf6966c971051c3d54ec59162606531493a51404a002842f56009d7e5cf4a8c80190610bb89082613fa5565b5060408201516002820190610bcd9082613fa5565b5060608201516003820190610be29082613fa5565b5060808201516004820190610bf79082613fa5565b5060a08201518160050155505060006001610c1160085490565b610c1b91906140d0565b90507ff25ea05cc68cbe6d2d1abce09caf6545e2282a00caed6975ebba55f38de5372081604051610c4e91815260200190565b60405180910390a150505050505050565b600061079c82612857565b600a8054610c7790613f07565b80601f0160208091040260200160405190810160405280929190818152602001828054610ca390613f07565b8015610cf05780601f10610cc557610100808354040283529160200191610cf0565b820191906000526020600020905b815481529060010190602001808311610cd357829003601f168201915b505050505081565b606060028054610d0790613f07565b80601f0160208091040260200160405190810160405280929190818152602001828054610d3390613f07565b8015610d805780601f10610d5557610100808354040283529160200191610d80565b820191906000526020600020905b815481529060010190602001808311610d6357829003601f168201915b50505050509050919050565b565b60008281526004602090815260408083208151808301909252546001600160a01b038116808352740100000000000000000000000000000000000000009091046bffffffffffffffffffffffff16928201929092528291610e2f5750604080518082019091526003546001600160a01b03811682527401000000000000000000000000000000000000000090046bffffffffffffffffffffffff1660208201525b602081015160009061271090610e53906bffffffffffffffffffffffff16876140e3565b610e5d91906140fa565b91519350909150505b9250929050565b6001600160a01b038516331480610e895750610e898533610646565b610efb5760405162461bcd60e51b815260206004820152602e60248201527f455243313135353a2063616c6c6572206973206e6f7420746f6b656e206f776e60448201527f6572206f7220617070726f7665640000000000000000000000000000000000006064820152608401610770565b610f0885858585856128ad565b5050505050565b610f4f6040518060e00160405280600081526020016000815260200160008152602001600081526020016000815260200160008152602001600081525090565b6000838152600f602052604081208360048110610f6e57610f6e614135565b600702016040518060e001604052908160008201548152602001600182015481526020016002820154815260200160038201548152602001600482015481526020016005820154815260200160068201548152505090508091505092915050565b600d8181548110610fdf57600080fd5b600091825260209091206005909102018054600182015460028301546003840154600490940154929450909290916001600160a01b03918216911685565b6110256127fd565b600047116110755760405162461bcd60e51b815260206004820152600b60248201527f42616c616e6365206120300000000000000000000000000000000000000000006044820152606401610770565b6005546040516001600160a01b03909116904780156108fc02916000818181858888f193505050501580156110ae573d6000803e3d6000fd5b50565b6060815183511461112a5760405162461bcd60e51b815260206004820152602960248201527f455243313135353a206163636f756e747320616e6420696473206c656e67746860448201527f206d69736d6174636800000000000000000000000000000000000000000000006064820152608401610770565b6000835167ffffffffffffffff81111561114657611146613683565b60405190808252806020026020018201604052801561116f578160200160208202803683370190505b50905060005b84518110156111e7576111ba85828151811061119357611193614135565b60200260200101518583815181106111ad576111ad614135565b60200260200101516106f6565b8282815181106111cc576111cc614135565b60209081029190910101526111e081614164565b9050611175565b509392505050565b6111f76127fd565b600955565b6112046127fd565b600c5481111561127c5760405162461bcd60e51b815260206004820152602d60248201527f496e646578206475206269656e20696d6d6f62696c69657220656e206465686f60448201527f7273206475207461626c656175000000000000000000000000000000000000006064820152608401610770565b6000818152600f6020526040902054156112d85760405162461bcd60e51b815260206004820152601b60248201527f4c65206d696e7420612064656a612065746520656666656374756500000000006044820152606401610770565b6112e3600082612b4b565b506112ef600182612b4b565b506112fb600282612b4b565b50611307600382612b4b565b506040518181527fff4078d3a7633c1bd56ae05b46cf944f917a32264ef635cbc026a7efe2e473689060200160405180910390a150565b6113466127fd565b610d8c6000612d2e565b831580159061135e57508115155b801561136957508382145b6114015760405162461bcd60e51b815260206004820152604260248201527f496e636f686572656e636520656e747265206c6573206361727465732063686f60448201527f6973696573206574206c6573207175616e74697465732072656e736569676e6560648201527f6573000000000000000000000000000000000000000000000000000000000000608482015260a401610770565b336114745760405162461bcd60e51b815260206004820152602360248201527f596f752063616e6e6f74206f726465722066726f6d207468697320616464726560448201527f73732100000000000000000000000000000000000000000000000000000000006064820152608401610770565b3360006114896005546001600160a01b031690565b905060606000805b8881101561161f5760008888838181106114ad576114ad614135565b90506020020135116115275760405162461bcd60e51b815260206004820152602d60248201527f4c61207175616e7469746520646520746f6b656e20646f69742065747265207360448201527f75706572696575726520612030000000000000000000000000000000000000006064820152608401610770565b60008a8a8381811061153b5761153b614135565b9050602002013590506000600f6000898152602001908152602001600020826004811061156a5761156a614135565b600702015490506115958882888d8d8881811061158957611589614135565b90506020020135611a6e565b93508361160a5760405162461bcd60e51b815260206004820152602e60248201527f4c61207175616e7469746520646520746f6b656e7320646574656e756520657360448201527f7420696e737566666973616e74650000000000000000000000000000000000006064820152608401610770565b5050808061161790614164565b915050611491565b506002348111156116725760405162461bcd60e51b815260206004820152601260248201527f466f6e647320696e737566666973616e747300000000000000000000000000006044820152606401610770565b6000846001600160a01b03163460405160006040518083038185875af1925050503d80600081146116bf576040519150601f19603f3d011682016040523d82523d6000602084013e6116c4565b606091505b505090508061173b5760405162461bcd60e51b815260206004820152603660248201527f4c6520706169656d656e74206465206c61207472616e73616374696f6e20766560448201527f7273206c6520636f6e747261742061206563686f7565000000000000000000006064820152608401610770565b6117888587868c8c80806020026020016040519081016040528093929190818152602001838360200280828437600092018290525060408051602081019091529081529250610e6d915050565b60005b8451811015611959576000888152600e60205260408120865182908890859081106117b8576117b8614135565b602002602001015181526020019081526020016000206000886001600160a01b03166001600160a01b0316815260200190815260200160002090508a8a8381811061180557611805614135565b9050602002013581600201600082825461181f91906140d0565b90915550506003810180546001600160a01b03808a167fffffffffffffffffffffffff000000000000000000000000000000000000000092831617909255600483018054928b16929091169190911790556000898152600e602052604081208751829089908690811061189457611894614135565b6020026020010151815260200190815260200160002060008a6001600160a01b03166001600160a01b0316815260200190815260200160002090508b8b848181106118e1576118e1614135565b905060200201358160020160008282546118fb919061419c565b90915550506003810180546001600160a01b038b167fffffffffffffffffffffffff0000000000000000000000000000000000000000918216811790925560049092018054909216179055508061195181614164565b91505061178b565b50846001600160a01b0316866001600160a01b03168560405161197c91906141af565b60405180910390207ffc0eefd40bfb4ffff328e5ca79242ab8b399ebfc364dcff5974f0718f9441a398e8e8e8e896040516119bb959493929190614230565b60405180910390a45050505050505050505050565b60006119e46005546001600160a01b031690565b905090565b600080601060009054906101000a90046001600160a01b03166001600160a01b031663feaf968c6040518163ffffffff1660e01b815260040160a060405180830381865afa158015611a3f573d6000803e3d6000fd5b505050506040513d601f19601f82011682018060405250810190611a639190614284565b509195945050505050565b6000848152600e6020908152604080832086845282528083206001600160a01b0386168452909152812060028101548311611aad576001915050611ab3565b60009150505b949350505050565b600b8054610c7790613f07565b600c8181548110611ad857600080fd5b60009182526020909120600690910201805460018201805491935090611afd90613f07565b80601f0160208091040260200160405190810160405280929190818152602001828054611b2990613f07565b8015611b765780601f10611b4b57610100808354040283529160200191611b76565b820191906000526020600020905b815481529060010190602001808311611b5957829003601f168201915b505050505090806002018054611b8b90613f07565b80601f0160208091040260200160405190810160405280929190818152602001828054611bb790613f07565b8015611c045780601f10611bd957610100808354040283529160200191611c04565b820191906000526020600020905b815481529060010190602001808311611be757829003601f168201915b505050505090806003018054611c1990613f07565b80601f0160208091040260200160405190810160405280929190818152602001828054611c4590613f07565b8015611c925780601f10611c6757610100808354040283529160200191611c92565b820191906000526020600020905b815481529060010190602001808311611c7557829003601f168201915b505050505090806004018054611ca790613f07565b80601f0160208091040260200160405190810160405280929190818152602001828054611cd390613f07565b8015611d205780601f10611cf557610100808354040283529160200191611d20565b820191906000526020600020905b815481529060010190602001808311611d0357829003601f168201915b5050505050908060050154905086565b611d3b338383612d98565b5050565b611d476127fd565b600c54891115611dbf5760405162461bcd60e51b815260206004820152602d60248201527f496e646578206475206269656e20696d6d6f62696c69657220656e206465686f60448201527f7273206475207461626c656175000000000000000000000000000000000000006064820152608401610770565b606487108015611dcf5750606486105b8015611ddb5750606485105b611e4d5760405162461bcd60e51b815260206004820152602360248201527f4572726575722c20756e2064657320706f757263656e7461676573206573742060448201527f61203000000000000000000000000000000000000000000000000000000000006064820152608401610770565b6032841015611ec45760405162461bcd60e51b815260206004820152603b60248201527f4572726575722c206c652070726978206d696e696d756d206465206c6120636160448201527f72746520434f545441474520646f6974206574726520646520353000000000006064820152608401610770565b6064831015611f3b5760405162461bcd60e51b815260206004820152603a60248201527f4572726575722c206c652070726978206d696e696d756d206465206c6120636160448201527f7274652056494c4c4120646f69742065747265206465203130300000000000006064820152608401610770565b6096821015611fb25760405162461bcd60e51b815260206004820152603c60248201527f4572726575722c206c652070726978206d696e696d756d206465206c6120636160448201527f727465204d414e53494f4e20646f6974206574726520646520313530000000006064820152608401610770565b8780611fcf575086158015611fc5575085155b8015611fcf575084155b15611fe15760329650601e9550601494505b6000898152600f60209081526040808320815160e08101835284815292830184905290820187905260608201839052608082018a9052601e60a083015260c0820183905291829060070201600082015181600001556020820151816001015560408201518160020155606082015181600301556080820151816004015560a0820151816005015560c082015181600601559050506040518060e00160405280600181526020016000815260200185815260200160008152602001888152602001601e81526020016000815250816001600481106120c0576120c0614135565b60070201600082015181600001556020820151816001015560408201518160020155606082015181600301556080820151816004015560a0820151816005015560c082015181600601559050506040518060e00160405280600281526020016000815260200184815260200160008152602001878152602001601e815260200160008152508160026004811061215857612158614135565b60070201600082015181600001556020820151816001015560408201518160020155606082015181600301556080820151816004015560a0820151816005015560c082015181600601559050506040518060e0016040528060038152602001600081526020018381526020016001815260200160008152602001601e81526020016000815250816003600481106121f1576121f1614135565b60070201600082015181600001556020820151816001015560408201518160020155606082015181600301556080820151816004015560a0820151816005015560c08201518160060155905050600082600161224d91906140e3565b600c8c8154811061226057612260614135565b90600052602060002090600602016005015461227c91906140d0565b9050606460005b60038110156123225760008d8152600f6020526040812082600481106122ab576122ab614135565b600702019050806003015460000361230f5760008382600401546122cf91906140e3565b905060006122de8560646140e3565b6122e883886140e3565b6122f291906140fa565b9050600083600201548261230691906140fa565b60038501555050505b508061231a81614164565b915050612283565b506003830154600a8401547f01f6ecbad523aa4ebc65b0e3c80ebd687c182bea84d78431cac0754a2fd7c192918e9186600260070201600301548760036004811061236f5761236f614135565b60070201600301546040516123a6959493929190948552602085019390935260408401919091526060830152608082015260a00190565b60405180910390a1505050505050505050505050565b6001600160a01b0385163314806123d857506123d88533610646565b61244a5760405162461bcd60e51b815260206004820152602e60248201527f455243313135353a2063616c6c6572206973206e6f7420746f6b656e206f776e60448201527f6572206f7220617070726f7665640000000000000000000000000000000000006064820152608401610770565b610f088585858585612eaa565b61245f6127fd565b6001600160a01b0381166124db5760405162461bcd60e51b815260206004820152602660248201527f4f776e61626c653a206e6577206f776e657220697320746865207a65726f206160448201527f64647265737300000000000000000000000000000000000000000000000000006064820152608401610770565b6110ae81612d2e565b61251d6040518060c001604052806000815260200160608152602001606081526020016060815260200160608152602001600081525090565b600c54821061256e5760405162461bcd60e51b815260206004820152601a60248201527f4269656e20696d6d6f62696c69657220696e6578697374616e740000000000006044820152606401610770565b600c828154811061258157612581614135565b90600052602060002090600602016040518060c0016040529081600082015481526020016001820180546125b490613f07565b80601f01602080910402602001604051908101604052809291908181526020018280546125e090613f07565b801561262d5780601f106126025761010080835404028352916020019161262d565b820191906000526020600020905b81548152906001019060200180831161261057829003601f168201915b5050505050815260200160028201805461264690613f07565b80601f016020809104026020016040519081016040528092919081815260200182805461267290613f07565b80156126bf5780601f10612694576101008083540402835291602001916126bf565b820191906000526020600020905b8154815290600101906020018083116126a257829003601f168201915b505050505081526020016003820180546126d890613f07565b80601f016020809104026020016040519081016040528092919081815260200182805461270490613f07565b80156127515780601f1061272657610100808354040283529160200191612751565b820191906000526020600020905b81548152906001019060200180831161273457829003601f168201915b5050505050815260200160048201805461276a90613f07565b80601f016020809104026020016040519081016040528092919081815260200182805461279690613f07565b80156127e35780601f106127b8576101008083540402835291602001916127e3565b820191906000526020600020905b8154815290600101906020018083116127c657829003601f168201915b505050505081526020016005820154815250509050919050565b6005546001600160a01b03163314610d8c5760405162461bcd60e51b815260206004820181905260248201527f4f776e61626c653a2063616c6c6572206973206e6f7420746865206f776e65726044820152606401610770565b60007fffffffff0000000000000000000000000000000000000000000000000000000082167f2a55205a00000000000000000000000000000000000000000000000000000000148061079c575061079c82613080565b81518351146129245760405162461bcd60e51b815260206004820152602860248201527f455243313135353a2069647320616e6420616d6f756e7473206c656e6774682060448201527f6d69736d617463680000000000000000000000000000000000000000000000006064820152608401610770565b6001600160a01b0384166129a05760405162461bcd60e51b815260206004820152602560248201527f455243313135353a207472616e7366657220746f20746865207a65726f20616460448201527f64726573730000000000000000000000000000000000000000000000000000006064820152608401610770565b3360005b8451811015612add5760008582815181106129c1576129c1614135565b6020026020010151905060008583815181106129df576129df614135565b602090810291909101810151600084815280835260408082206001600160a01b038e168352909352919091205490915081811015612a855760405162461bcd60e51b815260206004820152602a60248201527f455243313135353a20696e73756666696369656e742062616c616e636520666f60448201527f72207472616e73666572000000000000000000000000000000000000000000006064820152608401610770565b6000838152602081815260408083206001600160a01b038e8116855292528083208585039055908b16825281208054849290612ac290849061419c565b9250508190555050505080612ad690614164565b90506129a4565b50846001600160a01b0316866001600160a01b0316826001600160a01b03167f4a39dc06d4c0dbc64b70af90fd698a233a518aa5d07e595d983b8c0526c8f7fb8787604051612b2d9291906142d4565b60405180910390a4612b43818787878787613163565b505050505050565b6000612b556127fd565b612b63600780546001019055565b6000612b6e60075490565b90506000612b846005546001600160a01b031690565b6000858152600f60205260408120919250908660048110612ba757612ba7614135565b6007020160030154905082600f60008781526020019081526020016000208760048110612bd657612bd6614135565b6007020155604080516020810190915260008152612bf990839085908490613370565b6000858152600f60205260408120612c289084908960048110612c1e57612c1e614135565b60070201546106f6565b6000878152600e6020908152604080832088845282528083206001600160a01b038816845282528083208a8452600f909252909120919250908860048110612c7257612c72614135565b600702015481556000878152600f602052604090208860048110612c9857612c98614135565b6007020160029081015460018301558101829055600480820180547fffffffffffffffffffffffff00000000000000000000000000000000000000009081166001600160a01b03881690811790925560038401805490911690911790556000888152600f6020526040902083918a908110612d1557612d15614135565b6007020160060181905550849550505050505092915050565b600580546001600160a01b038381167fffffffffffffffffffffffff0000000000000000000000000000000000000000831681179093556040519116919082907f8be0079c531659141344cd1fd0a4f28419497f9722a3daafe3b4186f6b6457e090600090a35050565b816001600160a01b0316836001600160a01b031603612e1f5760405162461bcd60e51b815260206004820152602960248201527f455243313135353a2073657474696e6720617070726f76616c2073746174757360448201527f20666f722073656c6600000000000000000000000000000000000000000000006064820152608401610770565b6001600160a01b0383811660008181526001602090815260408083209487168084529482529182902080547fffffffffffffffffffffffffffffffffffffffffffffffffffffffffffffff001686151590811790915591519182527f17307eab39ab6107e8899845ad3d59bd9653f200f220920489ca2b5937696c31910160405180910390a3505050565b6001600160a01b038416612f265760405162461bcd60e51b815260206004820152602560248201527f455243313135353a207472616e7366657220746f20746865207a65726f20616460448201527f64726573730000000000000000000000000000000000000000000000000000006064820152608401610770565b336000612f3285613497565b90506000612f3f85613497565b90506000868152602081815260408083206001600160a01b038c16845290915290205485811015612fd85760405162461bcd60e51b815260206004820152602a60248201527f455243313135353a20696e73756666696369656e742062616c616e636520666f60448201527f72207472616e73666572000000000000000000000000000000000000000000006064820152608401610770565b6000878152602081815260408083206001600160a01b038d8116855292528083208985039055908a1682528120805488929061301590849061419c565b909155505060408051888152602081018890526001600160a01b03808b16928c821692918816917fc3d58168c5ae7397731d063d5bbf3d657854427343f4c083240f7aacaa2d0f62910160405180910390a4613075848a8a8a8a8a6134e2565b505050505050505050565b60007fffffffff0000000000000000000000000000000000000000000000000000000082167fd9b67a2600000000000000000000000000000000000000000000000000000000148061311357507fffffffff0000000000000000000000000000000000000000000000000000000082167f0e89341c00000000000000000000000000000000000000000000000000000000145b8061079c57507f01ffc9a7000000000000000000000000000000000000000000000000000000007fffffffff0000000000000000000000000000000000000000000000000000000083161461079c565b6001600160a01b0384163b15612b43576040517fbc197c810000000000000000000000000000000000000000000000000000000081526001600160a01b0385169063bc197c81906131c09089908990889088908890600401614302565b6020604051808303816000875af19250505080156131fb575060408051601f3d908101601f191682019092526131f891810190614360565b60015b6132b05761320761437d565b806308c379a003613240575061321b614399565b806132265750613242565b8060405162461bcd60e51b815260040161077091906138d5565b505b60405162461bcd60e51b815260206004820152603460248201527f455243313135353a207472616e7366657220746f206e6f6e2d4552433131353560448201527f526563656976657220696d706c656d656e7465720000000000000000000000006064820152608401610770565b7fffffffff0000000000000000000000000000000000000000000000000000000081167fbc197c8100000000000000000000000000000000000000000000000000000000146133675760405162461bcd60e51b815260206004820152602860248201527f455243313135353a204552433131353552656365697665722072656a6563746560448201527f6420746f6b656e730000000000000000000000000000000000000000000000006064820152608401610770565b50505050505050565b6001600160a01b0384166133ec5760405162461bcd60e51b815260206004820152602160248201527f455243313135353a206d696e7420746f20746865207a65726f2061646472657360448201527f73000000000000000000000000000000000000000000000000000000000000006064820152608401610770565b3360006133f885613497565b9050600061340585613497565b90506000868152602081815260408083206001600160a01b038b1684529091528120805487929061343790849061419c565b909155505060408051878152602081018790526001600160a01b03808a1692600092918716917fc3d58168c5ae7397731d063d5bbf3d657854427343f4c083240f7aacaa2d0f62910160405180910390a4613367836000898989896134e2565b604080516001808252818301909252606091600091906020808301908036833701905050905082816000815181106134d1576134d1614135565b602090810291909101015292915050565b6001600160a01b0384163b15612b43576040517ff23a6e610000000000000000000000000000000000000000000000000000000081526001600160a01b0385169063f23a6e619061353f9089908990889088908890600401614441565b6020604051808303816000875af192505050801561357a575060408051601f3d908101601f1916820190925261357791810190614360565b60015b6135865761320761437d565b7fffffffff0000000000000000000000000000000000000000000000000000000081167ff23a6e6100000000000000000000000000000000000000000000000000000000146133675760405162461bcd60e51b815260206004820152602860248201527f455243313135353a204552433131353552656365697665722072656a6563746560448201527f6420746f6b656e730000000000000000000000000000000000000000000000006064820152608401610770565b80356001600160a01b038116811461365457600080fd5b919050565b6000806040838503121561366c57600080fd5b6136758361363d565b946020939093013593505050565b7f4e487b7100000000000000000000000000000000000000000000000000000000600052604160045260246000fd5b601f19601f830116810181811067ffffffffffffffff821117156136d8576136d8613683565b6040525050565b600082601f8301126136f057600080fd5b813567ffffffffffffffff81111561370a5761370a613683565b6040516137216020601f19601f85011601826136b2565b81815284602083860101111561373657600080fd5b816020850160208301376000918101602001919091529392505050565b600080600080600060a0868803121561376b57600080fd5b853567ffffffffffffffff8082111561378357600080fd5b61378f89838a016136df565b965060208801359150808211156137a557600080fd5b6137b189838a016136df565b955060408801359150808211156137c757600080fd5b6137d389838a016136df565b945060608801359150808211156137e957600080fd5b506137f6888289016136df565b95989497509295608001359392505050565b7fffffffff00000000000000000000000000000000000000000000000000000000811681146110ae57600080fd5b60006020828403121561384857600080fd5b813561385381613808565b9392505050565b60008060006060848603121561386f57600080fd5b83359250602084013591506138866040850161363d565b90509250925092565b6000815180845260005b818110156138b557602081850181015186830182015201613899565b506000602082860101526020601f19601f83011685010191505092915050565b602081526000613853602083018461388f565b6000602082840312156138fa57600080fd5b5035919050565b6000806040838503121561391457600080fd5b50508035926020909101359150565b600067ffffffffffffffff82111561393d5761393d613683565b5060051b60200190565b600082601f83011261395857600080fd5b8135602061396582613923565b60405161397282826136b2565b83815260059390931b850182019282810191508684111561399257600080fd5b8286015b848110156139ad5780358352918301918301613996565b509695505050505050565b600080600080600060a086880312156139d057600080fd5b6139d98661363d565b94506139e76020870161363d565b9350604086013567ffffffffffffffff80821115613a0457600080fd5b613a1089838a01613947565b94506060880135915080821115613a2657600080fd5b613a3289838a01613947565b93506080880135915080821115613a4857600080fd5b50613a55888289016136df565b9150509295509295909350565b60008060408385031215613a7557600080fd5b823567ffffffffffffffff80821115613a8d57600080fd5b818501915085601f830112613aa157600080fd5b81356020613aae82613923565b604051613abb82826136b2565b83815260059390931b8501820192828101915089841115613adb57600080fd5b948201945b83861015613b0057613af18661363d565b82529482019490820190613ae0565b96505086013592505080821115613b1657600080fd5b50613b2385828601613947565b9150509250929050565b600081518084526020808501945080840160005b83811015613b5d57815187529582019590820190600101613b41565b509495945050505050565b6020815260006138536020830184613b2d565b60008083601f840112613b8d57600080fd5b50813567ffffffffffffffff811115613ba557600080fd5b6020830191508360208260051b8501011115610e6657600080fd5b600080600080600060608688031215613bd857600080fd5b853567ffffffffffffffff80821115613bf057600080fd5b613bfc89838a01613b7b565b90975095506020880135915080821115613c1557600080fd5b50613c2288828901613b7b565b96999598509660400135949350505050565b60008060008060808587031215613c4a57600080fd5b8435935060208501359250613c616040860161363d565b9396929550929360600135925050565b86815260c060208201526000613c8a60c083018861388f565b8281036040840152613c9c818861388f565b90508281036060840152613cb0818761388f565b90508281036080840152613cc4818661388f565b9150508260a0830152979650505050505050565b8035801515811461365457600080fd5b60008060408385031215613cfb57600080fd5b613d048361363d565b9150613d1260208401613cd8565b90509250929050565b60008060008060008060008060006101208a8c031215613d3a57600080fd5b89359850613d4a60208b01613cd8565b989b989a505050506040870135966060810135966080820135965060a0820135955060c0820135945060e08201359350610100909101359150565b60008060008060808587031215613d9b57600080fd5b613da48561363d565b9350613db26020860161363d565b93969395505050506040820135916060013590565b60008060408385031215613dda57600080fd5b613de38361363d565b9150613d126020840161363d565b600080600080600060a08688031215613e0957600080fd5b613e128661363d565b9450613e206020870161363d565b93506040860135925060608601359150608086013567ffffffffffffffff811115613e4a57600080fd5b613a55888289016136df565b600060208284031215613e6857600080fd5b6138538261363d565b60208152815160208201526000602083015160c06040840152613e9760e084018261388f565b90506040840151601f1980858403016060860152613eb5838361388f565b92506060860151915080858403016080860152613ed2838361388f565b925060808601519150808584030160a086015250613ef0828261388f565b91505060a084015160c08401528091505092915050565b600181811c90821680613f1b57607f821691505b602082108103613f54577f4e487b7100000000000000000000000000000000000000000000000000000000600052602260045260246000fd5b50919050565b601f821115613fa057600081815260208120601f850160051c81016020861015613f815750805b601f850160051c820191505b81811015612b4357828155600101613f8d565b505050565b815167ffffffffffffffff811115613fbf57613fbf613683565b613fd381613fcd8454613f07565b84613f5a565b602080601f8311600181146140265760008415613ff05750858301515b7fffffffffffffffffffffffffffffffffffffffffffffffffffffffffffffffff600386901b1c1916600185901b178555612b43565b600085815260208120601f198616915b8281101561405557888601518255948401946001909101908401614036565b508582101561409157878501517fffffffffffffffffffffffffffffffffffffffffffffffffffffffffffffffff600388901b60f8161c191681555b5050505050600190811b01905550565b7f4e487b7100000000000000000000000000000000000000000000000000000000600052601160045260246000fd5b8181038181111561079c5761079c6140a1565b808202811582820484141761079c5761079c6140a1565b600082614130577f4e487b7100000000000000000000000000000000000000000000000000000000600052601260045260246000fd5b500490565b7f4e487b7100000000000000000000000000000000000000000000000000000000600052603260045260246000fd5b60007fffffffffffffffffffffffffffffffffffffffffffffffffffffffffffffffff8203614195576141956140a1565b5060010190565b8082018082111561079c5761079c6140a1565b815160009082906020808601845b838110156141d9578151855293820193908201906001016141bd565b50929695505050505050565b81835260007f07ffffffffffffffffffffffffffffffffffffffffffffffffffffffffffffff83111561421757600080fd5b8260051b80836020870137939093016020019392505050565b6060815260006142446060830187896141e5565b82810360208401526142578186886141e5565b9150508260408301529695505050505050565b805169ffffffffffffffffffff8116811461365457600080fd5b600080600080600060a0868803121561429c57600080fd5b6142a58661426a565b94506020860151935060408601519250606086015191506142c86080870161426a565b90509295509295909350565b6040815260006142e76040830185613b2d565b82810360208401526142f98185613b2d565b95945050505050565b60006001600160a01b03808816835280871660208401525060a0604083015261432e60a0830186613b2d565b82810360608401526143408186613b2d565b90508281036080840152614354818561388f565b98975050505050505050565b60006020828403121561437257600080fd5b815161385381613808565b600060033d11156143965760046000803e5060005160e01c5b90565b600060443d10156143a75790565b6040517ffffffffffffffffffffffffffffffffffffffffffffffffffffffffffffffffc803d016004833e81513d67ffffffffffffffff81602484011181841117156143f557505050505090565b828501915081518181111561440d5750505050505090565b843d87010160208285010111156144275750505050505090565b614436602082860101876136b2565b509095945050505050565b60006001600160a01b03808816835280871660208401525084604083015283606083015260a0608083015261447960a083018461388f565b97965050505050505056fea264697066735822122077ceaf0ce8cb2c48b90f63dbcffbeec6e28d06b8f891dfcfa2c4f11cbd3ef15564736f6c6343000811003368747470733a2f2f676174657761792e70696e6174612e636c6f75642f697066732f516d57513567624468463539766f6e6753676d514a4d595269695670586d647559415539676666774454776e63612f7b69647d2e6a736f6e",
  "immutableReferences": {},
  "source": "// SPDX-License-Identifier: MIT\npragma solidity 0.8.17;\n\nimport \"../node_modules/@openzeppelin/contracts/token/ERC1155/IERC1155.sol\";\nimport \"../node_modules/@openzeppelin/contracts/utils/Counters.sol\";\n// import \"@openzeppelin/contracts/utils/introspection/ERC165.sol\";\nimport \"../node_modules/@openzeppelin/contracts/access/Ownable.sol\";\nimport \"../node_modules/@chainlink/contracts/src/v0.8/interfaces/AggregatorV3Interface.sol\";\nimport \"../node_modules/@openzeppelin/contracts/security/ReentrancyGuard.sol\";\n\nimport \"./Rock.sol\";\n\ncontract Marketplace is Rock {\n    // Events\n    event CardPurchased(\n        uint256[] indexed tokenId,\n        address indexed buyer,\n        address indexed seller,\n        uint256[] cardsId,\n        uint256[] quantities,\n        uint256 totalPrice\n    );\n\n    // Cette fonction doit mettre  jour les differentes balances aprs un achat ou aprs une vente\n    function updateBalances() private onlyOwner {}\n\n    function distribute() private onlyOwner {}\n\n    // Dans le cadre d'une vente, si Alice achete 2 cartes COTTAGE  BOB, on vrifie que Bob dtient bien ces 2 cartes\n    function verifyUserQuantityIsAvailable(\n        uint256 _indexRealEstateInCollection,\n        uint256 tokenId,\n        address sellerAddress,\n        uint256 askedQuantity\n    ) public view returns (bool) {\n        NFTCard storage userCard = usersCardsNfts[_indexRealEstateInCollection][\n            tokenId\n        ][sellerAddress];\n        if (askedQuantity <= userCard.quantity) {\n            return true;\n        }\n        return false;\n    }\n\n    /// Fonction permettant d'acheter une ou plusieurs cartes NFT\n    function confirmBuy(\n        uint256[] calldata _cardsId,\n        uint256[] calldata _quantities,\n        uint256 _indexRealEstateInCollection\n    ) external payable {\n        require(\n            _cardsId.length > 0 &&\n                _quantities.length > 0 &&\n                _cardsId.length == _quantities.length,\n            \"Incoherence entre les cartes choisies et les quantites renseignees\"\n        );\n        require(\n            msg.sender != address(0),\n            \"You cannot order from this address!\"\n        );\n\n        address buyer = payable(msg.sender);\n        address seller = payable(owner());\n\n        uint256[] memory tokenIds;\n        bool amountAvailable = false;\n        for (uint256 i = 0; i < _cardsId.length; i++) {\n            require(\n                _quantities[i] > 0,\n                \"La quantite de token doit etre superieure a 0\"\n            );\n            // Carte achete\n            uint256 cardId = _cardsId[i];\n            // Token id correspondant pour pouvoir etre transfert a l'acheteur\n            uint256 tokenId = cards[_indexRealEstateInCollection][cardId]\n                .tokenId;\n\n            // Vrification de la balance du vendeur\n            amountAvailable = verifyUserQuantityIsAvailable(\n                _indexRealEstateInCollection,\n                tokenId,\n                seller,\n                _quantities[i]\n            );\n            require(\n                amountAvailable,\n                \"La quantite de tokens detenue est insuffisante\"\n            );\n        }\n\n        // Calcul du prix total et on vrifie que la balance est suffisante pour procder au transfert des tokens\n        // uint256 totalPrice = calculeTotalPrice(_indexRealEstateInCollection, _cardsId, _quantities);\n        uint256 totalPrice = 2;\n        require(msg.value >= totalPrice, \"Fonds insuffisants\");\n\n        // L'acheteur (msg.sender) envoie 2 ethers au propitaire du NFT\n        (bool sentToPlateform, ) = payable(seller).call{value: msg.value}(\"\");\n        // La transaction doit avoir reussi pour ontinuer le transfert des NFT\n        require(\n            sentToPlateform,\n            \"Le paiement de la transaction vers le contrat a echoue\"\n        );\n\n        // Transfert des tokens vers l'acheteur\n        safeBatchTransferFrom(seller, buyer, tokenIds, _quantities, \"\");\n\n        // MAJ des balances\n        for (uint256 i = 0; i < tokenIds.length; i++) {\n            // Mise  jour de la balance du vendeur\n            NFTCard storage sellerTokens = usersCardsNfts[\n                _indexRealEstateInCollection\n            ][tokenIds[i]][seller];\n            sellerTokens.quantity -= _quantities[i];\n            sellerTokens.seller = payable(seller);\n            sellerTokens.owner = payable(buyer);\n\n            // Mise  jour de la balance de l'acheteur\n            NFTCard storage buyTokens = usersCardsNfts[\n                _indexRealEstateInCollection\n            ][tokenIds[i]][buyer];\n            buyTokens.quantity += _quantities[i];\n            buyTokens.seller = payable(buyer);\n            buyTokens.owner = payable(buyer);\n        }\n\n        emit CardPurchased(\n            tokenIds,\n            buyer,\n            seller,\n            _cardsId,\n            _quantities,\n            totalPrice\n        );\n    }\n\n    function sellTokens(\n        address _from,\n        address _to,\n        uint256 _id,\n        uint256 _amount\n    ) public returns (uint256) {\n        // Une vente peut tre ralise si les tokens detenus par le vendeur ont plus de 6 mois ?\n\n        return 0;\n    }\n\n    function fetchAll() public view {}\n\n    function fetchMyNfts() public view {}\n\n    // Le contrat pourra recevoir des fonds\n    receive() external payable {}\n}\n",
  "sourcePath": "/home/anicaise/Formation/Alyra/Rock/truffle/contracts/Marketplace.sol",
  "compiler": {
    "name": "solc",
    "version": "0.8.17+commit.8df45f5f.Emscripten.clang"
  },
  "schemaVersion": "3.4.10",
  "updatedAt": "2022-12-09T22:09:09.380Z",
  "devdoc": {
    "kind": "dev",
    "methods": {
      "balanceOf(address,uint256)": {
        "details": "See {IERC1155-balanceOf}. Requirements: - `account` cannot be the zero address."
      },
      "balanceOfBatch(address[],uint256[])": {
        "details": "See {IERC1155-balanceOfBatch}. Requirements: - `accounts` and `ids` must have the same length."
      },
      "getRealEstatesCollectionCount()": {
        "returns": {
          "_0": "uint256 Count of proposals"
        }
      },
      "isApprovedForAll(address,address)": {
        "details": "See {IERC1155-isApprovedForAll}."
      },
      "owner()": {
        "details": "Returns the address of the current owner."
      },
      "renounceOwnership()": {
        "details": "Leaves the contract without owner. It will not be possible to call `onlyOwner` functions anymore. Can only be called by the current owner. NOTE: Renouncing ownership will leave the contract without an owner, thereby removing any functionality that is only available to the owner."
      },
      "royaltyInfo(uint256,uint256)": {
        "details": "Returns how much royalty is owed and to whom, based on a sale price that may be denominated in any unit of exchange. The royalty amount is denominated and should be paid in that same unit of exchange."
      },
      "safeBatchTransferFrom(address,address,uint256[],uint256[],bytes)": {
        "details": "See {IERC1155-safeBatchTransferFrom}."
      },
      "safeTransferFrom(address,address,uint256,uint256,bytes)": {
        "details": "See {IERC1155-safeTransferFrom}."
      },
      "setApprovalForAll(address,bool)": {
        "details": "See {IERC1155-setApprovalForAll}."
      },
      "transferOwnership(address)": {
        "details": "Transfers ownership of the contract to a new account (`newOwner`). Can only be called by the current owner."
      },
      "uri(uint256)": {
        "details": "See {IERC1155MetadataURI-uri}. This implementation returns the same URI for *all* token types. It relies on the token type ID substitution mechanism https://eips.ethereum.org/EIPS/eip-1155#metadata[defined in the EIP]. Clients calling this function must replace the `\\{id\\}` substring with the actual token type ID."
      }
    },
    "version": 1
  },
  "userdoc": {
    "kind": "user",
    "methods": {
      "confirmBuy(uint256[],uint256[],uint256)": {
        "notice": "Fonction permettant d'acheter une ou plusieurs cartes NFT"
      },
      "getLatestPrice()": {
        "notice": "Returns the latest price MATIC/USD"
      },
      "getRealEstatesCollectionCount()": {
        "notice": "Return the count of proposals"
      }
    },
    "version": 1
  }
}