{
  "contractName": "Marketplace",
  "abi": [
    {
      "anonymous": false,
      "inputs": [
        {
          "indexed": true,
          "internalType": "address",
          "name": "account",
          "type": "address"
        },
        {
          "indexed": true,
          "internalType": "address",
          "name": "operator",
          "type": "address"
        },
        {
          "indexed": false,
          "internalType": "bool",
          "name": "approved",
          "type": "bool"
        }
      ],
      "name": "ApprovalForAll",
      "type": "event"
    },
    {
      "anonymous": false,
      "inputs": [
        {
          "indexed": true,
          "internalType": "uint256[]",
          "name": "tokenId",
          "type": "uint256[]"
        },
        {
          "indexed": true,
          "internalType": "address",
          "name": "buyer",
          "type": "address"
        },
        {
          "indexed": true,
          "internalType": "address",
          "name": "seller",
          "type": "address"
        },
        {
          "indexed": false,
          "internalType": "uint256[]",
          "name": "cardsId",
          "type": "uint256[]"
        },
        {
          "indexed": false,
          "internalType": "uint256[]",
          "name": "quantities",
          "type": "uint256[]"
        },
        {
          "indexed": false,
          "internalType": "uint256",
          "name": "totalPrice",
          "type": "uint256"
        }
      ],
      "name": "CardPurchased",
      "type": "event"
    },
    {
      "anonymous": false,
      "inputs": [
        {
          "indexed": true,
          "internalType": "address",
          "name": "previousOwner",
          "type": "address"
        },
        {
          "indexed": true,
          "internalType": "address",
          "name": "newOwner",
          "type": "address"
        }
      ],
      "name": "OwnershipTransferred",
      "type": "event"
    },
    {
      "anonymous": false,
      "inputs": [
        {
          "indexed": false,
          "internalType": "uint256",
          "name": "idRealEstate",
          "type": "uint256"
        }
      ],
      "name": "RealEstateAdded",
      "type": "event"
    },
    {
      "anonymous": false,
      "inputs": [
        {
          "indexed": true,
          "internalType": "address",
          "name": "operator",
          "type": "address"
        },
        {
          "indexed": true,
          "internalType": "address",
          "name": "from",
          "type": "address"
        },
        {
          "indexed": true,
          "internalType": "address",
          "name": "to",
          "type": "address"
        },
        {
          "indexed": false,
          "internalType": "uint256[]",
          "name": "ids",
          "type": "uint256[]"
        },
        {
          "indexed": false,
          "internalType": "uint256[]",
          "name": "values",
          "type": "uint256[]"
        }
      ],
      "name": "TransferBatch",
      "type": "event"
    },
    {
      "anonymous": false,
      "inputs": [
        {
          "indexed": true,
          "internalType": "address",
          "name": "operator",
          "type": "address"
        },
        {
          "indexed": true,
          "internalType": "address",
          "name": "from",
          "type": "address"
        },
        {
          "indexed": true,
          "internalType": "address",
          "name": "to",
          "type": "address"
        },
        {
          "indexed": false,
          "internalType": "uint256",
          "name": "id",
          "type": "uint256"
        },
        {
          "indexed": false,
          "internalType": "uint256",
          "name": "value",
          "type": "uint256"
        }
      ],
      "name": "TransferSingle",
      "type": "event"
    },
    {
      "anonymous": false,
      "inputs": [
        {
          "indexed": false,
          "internalType": "string",
          "name": "value",
          "type": "string"
        },
        {
          "indexed": true,
          "internalType": "uint256",
          "name": "id",
          "type": "uint256"
        }
      ],
      "name": "URI",
      "type": "event"
    },
    {
      "anonymous": false,
      "inputs": [
        {
          "indexed": false,
          "internalType": "uint256",
          "name": "idToken",
          "type": "uint256"
        },
        {
          "indexed": false,
          "internalType": "uint256",
          "name": "supplyCottage",
          "type": "uint256"
        },
        {
          "indexed": false,
          "internalType": "uint256",
          "name": "supplyVilla",
          "type": "uint256"
        },
        {
          "indexed": false,
          "internalType": "uint256",
          "name": "supplyMansion",
          "type": "uint256"
        },
        {
          "indexed": false,
          "internalType": "uint256",
          "name": "supplyHighRise",
          "type": "uint256"
        }
      ],
      "name": "supplyCardsCalculated",
      "type": "event"
    },
    {
      "anonymous": false,
      "inputs": [
        {
          "indexed": false,
          "internalType": "uint256",
          "name": "idRealEstate",
          "type": "uint256"
        }
      ],
      "name": "tokenMinted",
      "type": "event"
    },
    {
      "inputs": [
        {
          "internalType": "uint256",
          "name": "",
          "type": "uint256"
        }
      ],
      "name": "Listings",
      "outputs": [
        {
          "internalType": "uint256",
          "name": "tokenId",
          "type": "uint256"
        },
        {
          "internalType": "uint256",
          "name": "price",
          "type": "uint256"
        },
        {
          "internalType": "uint256",
          "name": "quantity",
          "type": "uint256"
        },
        {
          "internalType": "address payable",
          "name": "seller",
          "type": "address"
        },
        {
          "internalType": "address payable",
          "name": "owner",
          "type": "address"
        }
      ],
      "stateMutability": "view",
      "type": "function"
    },
    {
      "inputs": [
        {
          "internalType": "string",
          "name": "_name",
          "type": "string"
        },
        {
          "internalType": "string",
          "name": "_location",
          "type": "string"
        },
        {
          "internalType": "string",
          "name": "_city",
          "type": "string"
        },
        {
          "internalType": "string",
          "name": "_cid",
          "type": "string"
        },
        {
          "internalType": "uint256",
          "name": "_price",
          "type": "uint256"
        }
      ],
      "name": "addRealEstate",
      "outputs": [],
      "stateMutability": "nonpayable",
      "type": "function"
    },
    {
      "inputs": [
        {
          "internalType": "address",
          "name": "account",
          "type": "address"
        },
        {
          "internalType": "uint256",
          "name": "id",
          "type": "uint256"
        }
      ],
      "name": "balanceOf",
      "outputs": [
        {
          "internalType": "uint256",
          "name": "",
          "type": "uint256"
        }
      ],
      "stateMutability": "view",
      "type": "function"
    },
    {
      "inputs": [
        {
          "internalType": "address[]",
          "name": "accounts",
          "type": "address[]"
        },
        {
          "internalType": "uint256[]",
          "name": "ids",
          "type": "uint256[]"
        }
      ],
      "name": "balanceOfBatch",
      "outputs": [
        {
          "internalType": "uint256[]",
          "name": "",
          "type": "uint256[]"
        }
      ],
      "stateMutability": "view",
      "type": "function"
    },
    {
      "inputs": [
        {
          "internalType": "uint256",
          "name": "_indexRealEstateInCollection",
          "type": "uint256"
        },
        {
          "internalType": "bool",
          "name": "_isDefaultSupply",
          "type": "bool"
        },
        {
          "internalType": "uint256",
          "name": "_ratioTokenCottage",
          "type": "uint256"
        },
        {
          "internalType": "uint256",
          "name": "_ratioTokenVilla",
          "type": "uint256"
        },
        {
          "internalType": "uint256",
          "name": "_ratioTokenMansion",
          "type": "uint256"
        },
        {
          "internalType": "uint256",
          "name": "_prixTokenCottage",
          "type": "uint256"
        },
        {
          "internalType": "uint256",
          "name": "_prixTokenVilla",
          "type": "uint256"
        },
        {
          "internalType": "uint256",
          "name": "_prixTokenMansion",
          "type": "uint256"
        },
        {
          "internalType": "uint256",
          "name": "_prixTokenHighRise",
          "type": "uint256"
        }
      ],
      "name": "calculateNumberOfTokens",
      "outputs": [],
      "stateMutability": "nonpayable",
      "type": "function"
    },
    {
      "inputs": [
        {
          "internalType": "uint256",
          "name": "_indexRealEstateInCollection",
          "type": "uint256"
        },
        {
          "internalType": "uint256[]",
          "name": "_cardsId",
          "type": "uint256[]"
        },
        {
          "internalType": "uint256[]",
          "name": "_amounts",
          "type": "uint256[]"
        }
      ],
      "name": "calculeTotalPrice",
      "outputs": [
        {
          "internalType": "uint256",
          "name": "",
          "type": "uint256"
        }
      ],
      "stateMutability": "view",
      "type": "function"
    },
    {
      "inputs": [
        {
          "internalType": "uint256",
          "name": "_indexRealEstateInCollection",
          "type": "uint256"
        }
      ],
      "name": "getCards",
      "outputs": [
        {
          "components": [
            {
              "internalType": "uint256",
              "name": "tokenId",
              "type": "uint256"
            },
            {
              "internalType": "uint256",
              "name": "cardId",
              "type": "uint256"
            },
            {
              "internalType": "uint256",
              "name": "price",
              "type": "uint256"
            },
            {
              "internalType": "uint256",
              "name": "numberOfTokens",
              "type": "uint256"
            },
            {
              "internalType": "uint256",
              "name": "ratioOfTokensInPercent",
              "type": "uint256"
            },
            {
              "internalType": "uint256",
              "name": "royalty",
              "type": "uint256"
            },
            {
              "internalType": "uint256",
              "name": "balance",
              "type": "uint256"
            }
          ],
          "internalType": "struct Rock.Card[4]",
          "name": "",
          "type": "tuple[4]"
        }
      ],
      "stateMutability": "view",
      "type": "function"
    },
    {
      "inputs": [
        {
          "internalType": "uint256",
          "name": "_amount",
          "type": "uint256"
        }
      ],
      "name": "getLastPairMaticUsd",
      "outputs": [
        {
          "internalType": "uint256",
          "name": "",
          "type": "uint256"
        }
      ],
      "stateMutability": "view",
      "type": "function"
    },
    {
      "inputs": [],
      "name": "getLatestPrice",
      "outputs": [
        {
          "internalType": "uint256",
          "name": "",
          "type": "uint256"
        }
      ],
      "stateMutability": "view",
      "type": "function"
    },
    {
      "inputs": [],
      "name": "getOwner",
      "outputs": [
        {
          "internalType": "address",
          "name": "",
          "type": "address"
        }
      ],
      "stateMutability": "view",
      "type": "function"
    },
    {
      "inputs": [],
      "name": "getRealEstatesCollectionCount",
      "outputs": [
        {
          "internalType": "uint256",
          "name": "",
          "type": "uint256"
        }
      ],
      "stateMutability": "view",
      "type": "function"
    },
    {
      "inputs": [
        {
          "internalType": "uint256",
          "name": "_index",
          "type": "uint256"
        }
      ],
      "name": "getRealStateById",
      "outputs": [
        {
          "components": [
            {
              "internalType": "uint256",
              "name": "id",
              "type": "uint256"
            },
            {
              "internalType": "string",
              "name": "name",
              "type": "string"
            },
            {
              "internalType": "string",
              "name": "location",
              "type": "string"
            },
            {
              "internalType": "string",
              "name": "city",
              "type": "string"
            },
            {
              "internalType": "string",
              "name": "cid",
              "type": "string"
            },
            {
              "internalType": "uint256",
              "name": "price",
              "type": "uint256"
            }
          ],
          "internalType": "struct Rock.RealEstate",
          "name": "",
          "type": "tuple"
        }
      ],
      "stateMutability": "view",
      "type": "function"
    },
    {
      "inputs": [
        {
          "internalType": "address",
          "name": "account",
          "type": "address"
        },
        {
          "internalType": "address",
          "name": "operator",
          "type": "address"
        }
      ],
      "name": "isApprovedForAll",
      "outputs": [
        {
          "internalType": "bool",
          "name": "",
          "type": "bool"
        }
      ],
      "stateMutability": "view",
      "type": "function"
    },
    {
      "inputs": [
        {
          "internalType": "uint256",
          "name": "_indexRealEstateInCollection",
          "type": "uint256"
        }
      ],
      "name": "mintRealEstateCollection",
      "outputs": [],
      "stateMutability": "nonpayable",
      "type": "function"
    },
    {
      "inputs": [],
      "name": "name",
      "outputs": [
        {
          "internalType": "string",
          "name": "",
          "type": "string"
        }
      ],
      "stateMutability": "view",
      "type": "function"
    },
    {
      "inputs": [],
      "name": "owner",
      "outputs": [
        {
          "internalType": "address",
          "name": "",
          "type": "address"
        }
      ],
      "stateMutability": "view",
      "type": "function"
    },
    {
      "inputs": [
        {
          "internalType": "uint256",
          "name": "",
          "type": "uint256"
        }
      ],
      "name": "realEstatesCollection",
      "outputs": [
        {
          "internalType": "uint256",
          "name": "id",
          "type": "uint256"
        },
        {
          "internalType": "string",
          "name": "name",
          "type": "string"
        },
        {
          "internalType": "string",
          "name": "location",
          "type": "string"
        },
        {
          "internalType": "string",
          "name": "city",
          "type": "string"
        },
        {
          "internalType": "string",
          "name": "cid",
          "type": "string"
        },
        {
          "internalType": "uint256",
          "name": "price",
          "type": "uint256"
        }
      ],
      "stateMutability": "view",
      "type": "function"
    },
    {
      "inputs": [],
      "name": "renounceOwnership",
      "outputs": [],
      "stateMutability": "nonpayable",
      "type": "function"
    },
    {
      "inputs": [
        {
          "internalType": "uint256",
          "name": "_tokenId",
          "type": "uint256"
        },
        {
          "internalType": "uint256",
          "name": "_salePrice",
          "type": "uint256"
        }
      ],
      "name": "royaltyInfo",
      "outputs": [
        {
          "internalType": "address",
          "name": "",
          "type": "address"
        },
        {
          "internalType": "uint256",
          "name": "",
          "type": "uint256"
        }
      ],
      "stateMutability": "view",
      "type": "function"
    },
    {
      "inputs": [
        {
          "internalType": "address",
          "name": "from",
          "type": "address"
        },
        {
          "internalType": "address",
          "name": "to",
          "type": "address"
        },
        {
          "internalType": "uint256[]",
          "name": "ids",
          "type": "uint256[]"
        },
        {
          "internalType": "uint256[]",
          "name": "amounts",
          "type": "uint256[]"
        },
        {
          "internalType": "bytes",
          "name": "data",
          "type": "bytes"
        }
      ],
      "name": "safeBatchTransferFrom",
      "outputs": [],
      "stateMutability": "nonpayable",
      "type": "function"
    },
    {
      "inputs": [
        {
          "internalType": "address",
          "name": "from",
          "type": "address"
        },
        {
          "internalType": "address",
          "name": "to",
          "type": "address"
        },
        {
          "internalType": "uint256",
          "name": "id",
          "type": "uint256"
        },
        {
          "internalType": "uint256",
          "name": "amount",
          "type": "uint256"
        },
        {
          "internalType": "bytes",
          "name": "data",
          "type": "bytes"
        }
      ],
      "name": "safeTransferFrom",
      "outputs": [],
      "stateMutability": "nonpayable",
      "type": "function"
    },
    {
      "inputs": [
        {
          "internalType": "address",
          "name": "operator",
          "type": "address"
        },
        {
          "internalType": "bool",
          "name": "approved",
          "type": "bool"
        }
      ],
      "name": "setApprovalForAll",
      "outputs": [],
      "stateMutability": "nonpayable",
      "type": "function"
    },
    {
      "inputs": [
        {
          "internalType": "uint256",
          "name": "_fee",
          "type": "uint256"
        }
      ],
      "name": "setFee",
      "outputs": [],
      "stateMutability": "nonpayable",
      "type": "function"
    },
    {
      "inputs": [
        {
          "internalType": "bytes4",
          "name": "interfaceId",
          "type": "bytes4"
        }
      ],
      "name": "supportsInterface",
      "outputs": [
        {
          "internalType": "bool",
          "name": "",
          "type": "bool"
        }
      ],
      "stateMutability": "view",
      "type": "function"
    },
    {
      "inputs": [],
      "name": "symbol",
      "outputs": [
        {
          "internalType": "string",
          "name": "",
          "type": "string"
        }
      ],
      "stateMutability": "view",
      "type": "function"
    },
    {
      "inputs": [
        {
          "internalType": "address",
          "name": "newOwner",
          "type": "address"
        }
      ],
      "name": "transferOwnership",
      "outputs": [],
      "stateMutability": "nonpayable",
      "type": "function"
    },
    {
      "inputs": [
        {
          "internalType": "uint256",
          "name": "",
          "type": "uint256"
        }
      ],
      "name": "uri",
      "outputs": [
        {
          "internalType": "string",
          "name": "",
          "type": "string"
        }
      ],
      "stateMutability": "view",
      "type": "function"
    },
    {
      "inputs": [
        {
          "internalType": "uint256",
          "name": "",
          "type": "uint256"
        },
        {
          "internalType": "uint256",
          "name": "",
          "type": "uint256"
        },
        {
          "internalType": "address",
          "name": "",
          "type": "address"
        }
      ],
      "name": "usersCardsNfts",
      "outputs": [
        {
          "internalType": "uint256",
          "name": "tokenId",
          "type": "uint256"
        },
        {
          "internalType": "uint256",
          "name": "price",
          "type": "uint256"
        },
        {
          "internalType": "uint256",
          "name": "quantity",
          "type": "uint256"
        },
        {
          "internalType": "address payable",
          "name": "seller",
          "type": "address"
        },
        {
          "internalType": "address payable",
          "name": "owner",
          "type": "address"
        }
      ],
      "stateMutability": "view",
      "type": "function"
    },
    {
      "inputs": [],
      "name": "withdraw",
      "outputs": [],
      "stateMutability": "nonpayable",
      "type": "function"
    },
    {
      "stateMutability": "payable",
      "type": "receive"
    },
    {
      "inputs": [
        {
          "internalType": "uint256",
          "name": "_indexRealEstateInCollection",
          "type": "uint256"
        },
        {
          "internalType": "uint256",
          "name": "tokenId",
          "type": "uint256"
        },
        {
          "internalType": "address",
          "name": "sellerAddress",
          "type": "address"
        },
        {
          "internalType": "uint256",
          "name": "askedQuantity",
          "type": "uint256"
        }
      ],
      "name": "verifyUserQuantityIsAvailable",
      "outputs": [
        {
          "internalType": "bool",
          "name": "",
          "type": "bool"
        }
      ],
      "stateMutability": "view",
      "type": "function"
    },
    {
      "inputs": [
        {
          "internalType": "uint256[]",
          "name": "_cardsId",
          "type": "uint256[]"
        },
        {
          "internalType": "uint256[]",
          "name": "_quantities",
          "type": "uint256[]"
        },
        {
          "internalType": "uint256",
          "name": "_indexRealEstateInCollection",
          "type": "uint256"
        }
      ],
      "name": "confirmBuy",
      "outputs": [],
      "stateMutability": "payable",
      "type": "function"
    },
    {
      "inputs": [
        {
          "internalType": "address",
          "name": "_from",
          "type": "address"
        },
        {
          "internalType": "address",
          "name": "_to",
          "type": "address"
        },
        {
          "internalType": "uint256",
          "name": "_id",
          "type": "uint256"
        },
        {
          "internalType": "uint256",
          "name": "_amount",
          "type": "uint256"
        }
      ],
      "name": "sellTokens",
      "outputs": [
        {
          "internalType": "uint256",
          "name": "",
          "type": "uint256"
        }
      ],
      "stateMutability": "nonpayable",
      "type": "function"
    },
    {
      "inputs": [],
      "name": "fetchAll",
      "outputs": [],
      "stateMutability": "view",
      "type": "function"
    },
    {
      "inputs": [],
      "name": "fetchMyNfts",
      "outputs": [],
      "stateMutability": "view",
      "type": "function"
    }
  ],
  "bytecode": "0x61138860095560c0604052600f60809081526e2937b1b59021b7b63632b1ba34b7b760891b60a052600a90620000369082620002ee565b50604080518082019091526004815263526f636b60e01b6020820152600b90620000619082620002ee565b503480156200006f57600080fd5b506040518060800160405280605a815260200162004de6605a91396200009581620000e0565b50620000a133620000f2565b6001600655620000b433611f4062000144565b601080546001600160a01b03191673d4a33860578de61dbabdc8bfdb98fd742fa7028e179055620003ba565b6002620000ee8282620002ee565b5050565b600580546001600160a01b038381166001600160a01b0319831681179093556040519116919082907f8be0079c531659141344cd1fd0a4f28419497f9722a3daafe3b4186f6b6457e090600090a35050565b6127106001600160601b0382161115620001b85760405162461bcd60e51b815260206004820152602a60248201527f455243323938313a20726f79616c7479206665652077696c6c206578636565646044820152692073616c65507269636560b01b60648201526084015b60405180910390fd5b6001600160a01b038216620002105760405162461bcd60e51b815260206004820152601960248201527f455243323938313a20696e76616c6964207265636569766572000000000000006044820152606401620001af565b604080518082019091526001600160a01b039092168083526001600160601b039091166020909201829052600160a01b90910217600355565b634e487b7160e01b600052604160045260246000fd5b600181811c908216806200027457607f821691505b6020821081036200029557634e487b7160e01b600052602260045260246000fd5b50919050565b601f821115620002e957600081815260208120601f850160051c81016020861015620002c45750805b601f850160051c820191505b81811015620002e557828155600101620002d0565b5050505b505050565b81516001600160401b038111156200030a576200030a62000249565b62000322816200031b84546200025f565b846200029b565b602080601f8311600181146200035a5760008415620003415750858301515b600019600386901b1c1916600185901b178555620002e5565b600085815260208120601f198616915b828110156200038b578886015182559484019460019091019084016200036a565b5085821015620003aa5787850151600019600388901b60f8161c191681555b5050505050600190811b01905550565b614a1c80620003ca6000396000f3fe60806040526004361061021c5760003560e01c8063715018a61161011d578063a22cb465116100b0578063e985e9c51161007f578063f2a54c0411610064578063f2a54c04146106c1578063f2fde38b146106d6578063fdac310f146106f657600080fd5b8063e985e9c514610658578063f242432a146106a157600080fd5b8063a22cb465146105d3578063d1e8c4aa146105f3578063d3eb414814610613578063e60aae981461063357600080fd5b80638e15f473116100ec5780638e15f47314610557578063944060981461056c57806395d89b411461058c578063a0f4651a146105a157600080fd5b8063715018a6146104e45780637ae48938146104f9578063893d20e81461050c5780638da5cb5b1461053957600080fd5b806327ec486c116101b057806338d913bc1161017f5780634e1273f4116101645780634e1273f41461047757806369fe0e2d146104a45780636f7789a6146104c457600080fd5b806338d913bc146104425780633ccfd60b1461046257600080fd5b806327ec486c146103b75780632a55205a146103c35780632eb2c2d61461040257806333caeb941461042257600080fd5b806304ed02f6116101ec57806304ed02f61461034857806306fdde03146103755780630e89341c14610397578063128ae712146103b757600080fd5b8062fdd58e14610228578063012f375f1461025b57806301ffc9a71461027d57806304643755146102ad57600080fd5b3661022357005b600080fd5b34801561023457600080fd5b50610248610243366004613987565b610723565b6040519081526020015b60405180910390f35b34801561026757600080fd5b5061027b610276366004613a81565b6107cf565b005b34801561028957600080fd5b5061029d610298366004613b64565b610c8c565b6040519015158152602001610252565b3480156102b957600080fd5b506103146102c8366004613b88565b600e602090815260009384526040808520825292845282842090528252902080546001820154600283015460038401546004909401549293919290916001600160a01b03908116911685565b604080519586526020860194909452928401919091526001600160a01b03908116606084015216608082015260a001610252565b34801561035457600080fd5b50610368610363366004613bbd565b610c97565b6040516102529190613bd6565b34801561038157600080fd5b5061038a610d37565b6040516102529190613c8f565b3480156103a357600080fd5b5061038a6103b2366004613bbd565b610dc5565b34801561027b57600080fd5b3480156103cf57600080fd5b506103e36103de366004613ca2565b610e5b565b604080516001600160a01b039093168352602083019190915201610252565b34801561040e57600080fd5b5061027b61041d366004613d4e565b610f3a565b34801561042e57600080fd5b5061031461043d366004613bbd565b610fdc565b34801561044e57600080fd5b5061024861045d366004613e3d565b61102a565b34801561046e57600080fd5b5061027b611248565b34801561048357600080fd5b50610497610492366004613eb7565b6112dc565b6040516102529190613fbd565b3480156104b057600080fd5b5061027b6104bf366004613bbd565b61141a565b3480156104d057600080fd5b5061027b6104df366004613bbd565b611427565b3480156104f057600080fd5b5061027b611569565b61027b610507366004613fd0565b61157b565b34801561051857600080fd5b50610521611bfb565b6040516001600160a01b039091168152602001610252565b34801561054557600080fd5b506005546001600160a01b0316610521565b34801561056357600080fd5b50610248611c14565b34801561057857600080fd5b5061029d610587366004614044565b611d2d565b34801561059857600080fd5b5061038a611d7a565b3480156105ad57600080fd5b506105c16105bc366004613bbd565b611d87565b60405161025296959493929190614081565b3480156105df57600080fd5b5061027b6105ee3660046140f8565b611fef565b3480156105ff57600080fd5b5061027b61060e36600461412b565b611ffe565b34801561061f57600080fd5b5061024861062e366004613bbd565b61267b565b34801561063f57600080fd5b5061024861064e366004614195565b6000949350505050565b34801561066457600080fd5b5061029d6106733660046141d7565b6001600160a01b03918216600090815260016020908152604080832093909416825291909152205460ff1690565b3480156106ad57600080fd5b5061027b6106bc366004614201565b612685565b3480156106cd57600080fd5b50600c54610248565b3480156106e257600080fd5b5061027b6106f1366004614266565b612720565b34801561070257600080fd5b50610716610711366004613bbd565b6127ad565b6040516102529190614281565b60006001600160a01b0383166107a65760405162461bcd60e51b815260206004820152602a60248201527f455243313135353a2061646472657373207a65726f206973206e6f742061207660448201527f616c6964206f776e65720000000000000000000000000000000000000000000060648201526084015b60405180910390fd5b506000818152602081815260408083206001600160a01b03861684529091529020545b92915050565b6107d7612ac6565b6040516020016107f290602080825260009082015260400190565b60405160208183030381529060405280519060200120856040516020016108199190613c8f565b60405160208183030381529060405280519060200120036108a25760405162461bcd60e51b815260206004820152602e60248201527f4c65206e6f6d2064752070726f6772616d6d6520696d6d6f62696c696572206560448201527f7374206f626c696761746f697265000000000000000000000000000000000000606482015260840161079d565b6040516020016108bd90602080825260009082015260400190565b60405160208183030381529060405280519060200120846040516020016108e49190613c8f565b60405160208183030381529060405280519060200120036109475760405162461bcd60e51b815260206004820152601c60248201527f4c6120736974756174696f6e20657374206f626c696761746f69726500000000604482015260640161079d565b60405160200161096290602080825260009082015260400190565b60405160208183030381529060405280519060200120836040516020016109899190613c8f565b60405160208183030381529060405280519060200120036109ec5760405162461bcd60e51b815260206004820152601860248201527f4c612076696c6c6520657374206f626c696761746f6972650000000000000000604482015260640161079d565b604051602001610a0790602080825260009082015260400190565b6040516020818303038152906040528051906020012082604051602001610a2e9190613c8f565b6040516020818303038152906040528051906020012003610a915760405162461bcd60e51b815260206004820152601660248201527f4c652063696420657374206f626c696761746f69726500000000000000000000604482015260640161079d565b61c3508111610b085760405162461bcd60e51b815260206004820152603860248201527f4572726575722c206c652070726978206475206269656e20696d6d6f20646f6960448201527f7420657472652073757065726965757220612035303030300000000000000000606482015260840161079d565b610b16600880546001019055565b610b4f6040518060c001604052806000815260200160608152602001606081526020016060815260200160608152602001600081525090565b60085481526020810186815260408201869052606082018590526080820184905260a08201839052600c8054600181018255600091909152825160069091027fdf6966c971051c3d54ec59162606531493a51404a002842f56009d7e5cf4a8c78101918255915183927fdf6966c971051c3d54ec59162606531493a51404a002842f56009d7e5cf4a8c80190610be590826143b5565b5060408201516002820190610bfa90826143b5565b5060608201516003820190610c0f90826143b5565b5060808201516004820190610c2490826143b5565b5060a08201518160050155505060006001610c3e60085490565b610c4891906144e0565b90507ff25ea05cc68cbe6d2d1abce09caf6545e2282a00caed6975ebba55f38de5372081604051610c7b91815260200190565b60405180910390a150505050505050565b60006107c982612b20565b610c9f613906565b6000828152600f60205260408082208151608081019092529091600490835b82821015610d2c578382600702016040518060e001604052908160008201548152602001600182015481526020016002820154815260200160038201548152602001600482015481526020016005820154815260200160068201548152505081526020019060010190610cbe565b505050509050919050565b600a8054610d4490614317565b80601f0160208091040260200160405190810160405280929190818152602001828054610d7090614317565b8015610dbd5780601f10610d9257610100808354040283529160200191610dbd565b820191906000526020600020905b815481529060010190602001808311610da057829003601f168201915b505050505081565b606060028054610dd490614317565b80601f0160208091040260200160405190810160405280929190818152602001828054610e0090614317565b8015610e4d5780601f10610e2257610100808354040283529160200191610e4d565b820191906000526020600020905b815481529060010190602001808311610e3057829003601f168201915b50505050509050919050565b565b60008281526004602090815260408083208151808301909252546001600160a01b038116808352740100000000000000000000000000000000000000009091046bffffffffffffffffffffffff16928201929092528291610efc5750604080518082019091526003546001600160a01b03811682527401000000000000000000000000000000000000000090046bffffffffffffffffffffffff1660208201525b602081015160009061271090610f20906bffffffffffffffffffffffff16876144f3565b610f2a919061450a565b91519350909150505b9250929050565b6001600160a01b038516331480610f565750610f568533610673565b610fc85760405162461bcd60e51b815260206004820152602e60248201527f455243313135353a2063616c6c6572206973206e6f7420746f6b656e206f776e60448201527f6572206f7220617070726f766564000000000000000000000000000000000000606482015260840161079d565b610fd58585858585612b76565b5050505050565b600d8181548110610fec57600080fd5b600091825260209091206005909102018054600182015460028301546003840154600490940154929450909290916001600160a01b03918216911685565b6000816110795760405162461bcd60e51b815260206004820152601760248201527f417563756e206d6f6e74616e742072656e736569676e65000000000000000000604482015260640161079d565b836110c65760405162461bcd60e51b815260206004820152601860248201527f417563756e2063617274652073656c656374696f6e6e65650000000000000000604482015260640161079d565b600c5486106111175760405162461bcd60e51b815260206004820152601a60248201527f4269656e20696d6d6f62696c69657220696e6578697374616e74000000000000604482015260640161079d565b6000805b8581101561123d57600087878381811061113757611137614545565b90506020020135101580156111655750600387878381811061115b5761115b614545565b9050602002013511155b6111b15760405162461bcd60e51b815260206004820152600e60248201527f436172746520696e636f6e6e7565000000000000000000000000000000000000604482015260640161079d565b60008787838181106111c5576111c5614545565b9050602002013590508585838181106111e0576111e0614545565b90506020020135600f60008b8152602001908152602001600020826004811061120b5761120b614545565b600702016002015461121d91906144f3565b6112279084614574565b925050808061123590614587565b91505061111b565b509695505050505050565b611250612ac6565b600047116112a05760405162461bcd60e51b815260206004820152600b60248201527f42616c616e636520612030000000000000000000000000000000000000000000604482015260640161079d565b6005546040516001600160a01b03909116904780156108fc02916000818181858888f193505050501580156112d9573d6000803e3d6000fd5b50565b606081518351146113555760405162461bcd60e51b815260206004820152602960248201527f455243313135353a206163636f756e747320616e6420696473206c656e67746860448201527f206d69736d617463680000000000000000000000000000000000000000000000606482015260840161079d565b6000835167ffffffffffffffff811115611371576113716139b1565b60405190808252806020026020018201604052801561139a578160200160208202803683370190505b50905060005b8451811015611412576113e58582815181106113be576113be614545565b60200260200101518583815181106113d8576113d8614545565b6020026020010151610723565b8282815181106113f7576113f7614545565b602090810291909101015261140b81614587565b90506113a0565b509392505050565b611422612ac6565b600955565b61142f612ac6565b600c548111156114a75760405162461bcd60e51b815260206004820152602d60248201527f496e646578206475206269656e20696d6d6f62696c69657220656e206465686f60448201527f7273206475207461626c65617500000000000000000000000000000000000000606482015260840161079d565b6000818152600f6020526040902054156115035760405162461bcd60e51b815260206004820152601b60248201527f4c65206d696e7420612064656a61206574652065666665637475650000000000604482015260640161079d565b61150e600082612e14565b5061151a600182612e14565b50611526600282612e14565b50611532600382612e14565b506040518181527fff4078d3a7633c1bd56ae05b46cf944f917a32264ef635cbc026a7efe2e473689060200160405180910390a150565b611571612ac6565b610e596000612ff7565b831580159061158957508115155b801561159457508382145b61162c5760405162461bcd60e51b815260206004820152604260248201527f496e636f686572656e636520656e747265206c6573206361727465732063686f60448201527f6973696573206574206c6573207175616e74697465732072656e736569676e6560648201527f6573000000000000000000000000000000000000000000000000000000000000608482015260a40161079d565b3361169f5760405162461bcd60e51b815260206004820152602360248201527f596f752063616e6e6f74206f726465722066726f6d207468697320616464726560448201527f7373210000000000000000000000000000000000000000000000000000000000606482015260840161079d565b3360006116b46005546001600160a01b031690565b905060606000805b8881101561184a5760008888838181106116d8576116d8614545565b90506020020135116117525760405162461bcd60e51b815260206004820152602d60248201527f4c61207175616e7469746520646520746f6b656e20646f69742065747265207360448201527f7570657269657572652061203000000000000000000000000000000000000000606482015260840161079d565b60008a8a8381811061176657611766614545565b9050602002013590506000600f6000898152602001908152602001600020826004811061179557611795614545565b600702015490506117c08882888d8d888181106117b4576117b4614545565b90506020020135611d2d565b9350836118355760405162461bcd60e51b815260206004820152602e60248201527f4c61207175616e7469746520646520746f6b656e7320646574656e756520657360448201527f7420696e737566666973616e7465000000000000000000000000000000000000606482015260840161079d565b5050808061184290614587565b9150506116bc565b5060023481111561189d5760405162461bcd60e51b815260206004820152601260248201527f466f6e647320696e737566666973616e74730000000000000000000000000000604482015260640161079d565b6000846001600160a01b03163460405160006040518083038185875af1925050503d80600081146118ea576040519150601f19603f3d011682016040523d82523d6000602084013e6118ef565b606091505b50509050806119665760405162461bcd60e51b815260206004820152603660248201527f4c6520706169656d656e74206465206c61207472616e73616374696f6e20766560448201527f7273206c6520636f6e747261742061206563686f756500000000000000000000606482015260840161079d565b6119b38587868c8c80806020026020016040519081016040528093929190818152602001838360200280828437600092018290525060408051602081019091529081529250610f3a915050565b60005b8451811015611b84576000888152600e60205260408120865182908890859081106119e3576119e3614545565b602002602001015181526020019081526020016000206000886001600160a01b03166001600160a01b0316815260200190815260200160002090508a8a83818110611a3057611a30614545565b90506020020135816002016000828254611a4a91906144e0565b90915550506003810180546001600160a01b03808a167fffffffffffffffffffffffff000000000000000000000000000000000000000092831617909255600483018054928b16929091169190911790556000898152600e6020526040812087518290899086908110611abf57611abf614545565b6020026020010151815260200190815260200160002060008a6001600160a01b03166001600160a01b0316815260200190815260200160002090508b8b84818110611b0c57611b0c614545565b90506020020135816002016000828254611b269190614574565b90915550506003810180546001600160a01b038b167fffffffffffffffffffffffff00000000000000000000000000000000000000009182168117909255600490920180549092161790555080611b7c81614587565b9150506119b6565b50846001600160a01b0316866001600160a01b031685604051611ba791906145bf565b60405180910390207ffc0eefd40bfb4ffff328e5ca79242ab8b399ebfc364dcff5974f0718f9441a398e8e8e8e89604051611be6959493929190614640565b60405180910390a45050505050505050505050565b6000611c0f6005546001600160a01b031690565b905090565b600080601060009054906101000a90046001600160a01b03166001600160a01b031663feaf968c6040518163ffffffff1660e01b815260040160a060405180830381865afa158015611c6a573d6000803e3d6000fd5b505050506040513d601f19601f82011682018060405250810190611c8e9190614694565b5050509150506000601060009054906101000a90046001600160a01b03166001600160a01b031663313ce5676040518163ffffffff1660e01b8152600401602060405180830381865afa158015611ce9573d6000803e3d6000fd5b505050506040513d601f19601f82011682018060405250810190611d0d91906146e4565b905081611d1b82600a614827565b611d25908261450a565b935050505090565b6000848152600e6020908152604080832086845282528083206001600160a01b0386168452909152812060028101548311611d6c576001915050611d72565b60009150505b949350505050565b600b8054610d4490614317565b600c8181548110611d9757600080fd5b60009182526020909120600690910201805460018201805491935090611dbc90614317565b80601f0160208091040260200160405190810160405280929190818152602001828054611de890614317565b8015611e355780601f10611e0a57610100808354040283529160200191611e35565b820191906000526020600020905b815481529060010190602001808311611e1857829003601f168201915b505050505090806002018054611e4a90614317565b80601f0160208091040260200160405190810160405280929190818152602001828054611e7690614317565b8015611ec35780601f10611e9857610100808354040283529160200191611ec3565b820191906000526020600020905b815481529060010190602001808311611ea657829003601f168201915b505050505090806003018054611ed890614317565b80601f0160208091040260200160405190810160405280929190818152602001828054611f0490614317565b8015611f515780601f10611f2657610100808354040283529160200191611f51565b820191906000526020600020905b815481529060010190602001808311611f3457829003601f168201915b505050505090806004018054611f6690614317565b80601f0160208091040260200160405190810160405280929190818152602001828054611f9290614317565b8015611fdf5780601f10611fb457610100808354040283529160200191611fdf565b820191906000526020600020905b815481529060010190602001808311611fc257829003601f168201915b5050505050908060050154905086565b611ffa338383613061565b5050565b612006612ac6565b600c5489111561207e5760405162461bcd60e51b815260206004820152602d60248201527f496e646578206475206269656e20696d6d6f62696c69657220656e206465686f60448201527f7273206475207461626c65617500000000000000000000000000000000000000606482015260840161079d565b60648710801561208e5750606486105b801561209a5750606485105b61210c5760405162461bcd60e51b815260206004820152602360248201527f4572726575722c20756e2064657320706f757263656e7461676573206573742060448201527f6120300000000000000000000000000000000000000000000000000000000000606482015260840161079d565b60328410156121835760405162461bcd60e51b815260206004820152603b60248201527f4572726575722c206c652070726978206d696e696d756d206465206c6120636160448201527f72746520434f545441474520646f697420657472652064652035300000000000606482015260840161079d565b60648310156121fa5760405162461bcd60e51b815260206004820152603a60248201527f4572726575722c206c652070726978206d696e696d756d206465206c6120636160448201527f7274652056494c4c4120646f6974206574726520646520313030000000000000606482015260840161079d565b60968210156122715760405162461bcd60e51b815260206004820152603c60248201527f4572726575722c206c652070726978206d696e696d756d206465206c6120636160448201527f727465204d414e53494f4e20646f697420657472652064652031353000000000606482015260840161079d565b878061228e575086158015612284575085155b801561228e575084155b156122a05760329650601e9550601494505b6000898152600f60209081526040808320815160e08101835284815292830184905290820187905260608201839052608082018a9052601e60a083015260c0820183905291829060070201600082015181600001556020820151816001015560408201518160020155606082015181600301556080820151816004015560a0820151816005015560c082015181600601559050506040518060e00160405280600181526020016000815260200185815260200160008152602001888152602001601e815260200160008152508160016004811061237f5761237f614545565b60070201600082015181600001556020820151816001015560408201518160020155606082015181600301556080820151816004015560a0820151816005015560c082015181600601559050506040518060e00160405280600281526020016000815260200184815260200160008152602001878152602001601e815260200160008152508160026004811061241757612417614545565b60070201600082015181600001556020820151816001015560408201518160020155606082015181600301556080820151816004015560a0820151816005015560c082015181600601559050506040518060e0016040528060038152602001600081526020018381526020016001815260200160008152602001601e81526020016000815250816003600481106124b0576124b0614545565b60070201600082015181600001556020820151816001015560408201518160020155606082015181600301556080820151816004015560a0820151816005015560c08201518160060155905050600082600161250c91906144f3565b600c8c8154811061251f5761251f614545565b90600052602060002090600602016005015461253b91906144e0565b9050606460005b60038110156125e15760008d8152600f60205260408120826004811061256a5761256a614545565b60070201905080600301546000036125ce57600083826004015461258e91906144f3565b9050600061259d8560646144f3565b6125a783886144f3565b6125b1919061450a565b905060008360020154826125c5919061450a565b60038501555050505b50806125d981614587565b915050612542565b506003830154600a8401547f01f6ecbad523aa4ebc65b0e3c80ebd687c182bea84d78431cac0754a2fd7c192918e9186600260070201600301548760036004811061262e5761262e614545565b6007020160030154604051612665959493929190948552602085019390935260408401919091526060830152608082015260a00190565b60405180910390a1505050505050505050505050565b60006107c9611c14565b6001600160a01b0385163314806126a157506126a18533610673565b6127135760405162461bcd60e51b815260206004820152602e60248201527f455243313135353a2063616c6c6572206973206e6f7420746f6b656e206f776e60448201527f6572206f7220617070726f766564000000000000000000000000000000000000606482015260840161079d565b610fd58585858585613173565b612728612ac6565b6001600160a01b0381166127a45760405162461bcd60e51b815260206004820152602660248201527f4f776e61626c653a206e6577206f776e657220697320746865207a65726f206160448201527f6464726573730000000000000000000000000000000000000000000000000000606482015260840161079d565b6112d981612ff7565b6127e66040518060c001604052806000815260200160608152602001606081526020016060815260200160608152602001600081525090565b600c5482106128375760405162461bcd60e51b815260206004820152601a60248201527f4269656e20696d6d6f62696c69657220696e6578697374616e74000000000000604482015260640161079d565b600c828154811061284a5761284a614545565b90600052602060002090600602016040518060c00160405290816000820154815260200160018201805461287d90614317565b80601f01602080910402602001604051908101604052809291908181526020018280546128a990614317565b80156128f65780601f106128cb576101008083540402835291602001916128f6565b820191906000526020600020905b8154815290600101906020018083116128d957829003601f168201915b5050505050815260200160028201805461290f90614317565b80601f016020809104026020016040519081016040528092919081815260200182805461293b90614317565b80156129885780601f1061295d57610100808354040283529160200191612988565b820191906000526020600020905b81548152906001019060200180831161296b57829003601f168201915b505050505081526020016003820180546129a190614317565b80601f01602080910402602001604051908101604052809291908181526020018280546129cd90614317565b8015612a1a5780601f106129ef57610100808354040283529160200191612a1a565b820191906000526020600020905b8154815290600101906020018083116129fd57829003601f168201915b50505050508152602001600482018054612a3390614317565b80601f0160208091040260200160405190810160405280929190818152602001828054612a5f90614317565b8015612aac5780601f10612a8157610100808354040283529160200191612aac565b820191906000526020600020905b815481529060010190602001808311612a8f57829003601f168201915b505050505081526020016005820154815250509050919050565b6005546001600160a01b03163314610e595760405162461bcd60e51b815260206004820181905260248201527f4f776e61626c653a2063616c6c6572206973206e6f7420746865206f776e6572604482015260640161079d565b60007fffffffff0000000000000000000000000000000000000000000000000000000082167f2a55205a0000000000000000000000000000000000000000000000000000000014806107c957506107c982613349565b8151835114612bed5760405162461bcd60e51b815260206004820152602860248201527f455243313135353a2069647320616e6420616d6f756e7473206c656e6774682060448201527f6d69736d61746368000000000000000000000000000000000000000000000000606482015260840161079d565b6001600160a01b038416612c695760405162461bcd60e51b815260206004820152602560248201527f455243313135353a207472616e7366657220746f20746865207a65726f20616460448201527f6472657373000000000000000000000000000000000000000000000000000000606482015260840161079d565b3360005b8451811015612da6576000858281518110612c8a57612c8a614545565b602002602001015190506000858381518110612ca857612ca8614545565b602090810291909101810151600084815280835260408082206001600160a01b038e168352909352919091205490915081811015612d4e5760405162461bcd60e51b815260206004820152602a60248201527f455243313135353a20696e73756666696369656e742062616c616e636520666f60448201527f72207472616e7366657200000000000000000000000000000000000000000000606482015260840161079d565b6000838152602081815260408083206001600160a01b038e8116855292528083208585039055908b16825281208054849290612d8b908490614574565b9250508190555050505080612d9f90614587565b9050612c6d565b50846001600160a01b0316866001600160a01b0316826001600160a01b03167f4a39dc06d4c0dbc64b70af90fd698a233a518aa5d07e595d983b8c0526c8f7fb8787604051612df6929190614836565b60405180910390a4612e0c81878787878761342c565b505050505050565b6000612e1e612ac6565b612e2c600780546001019055565b6000612e3760075490565b90506000612e4d6005546001600160a01b031690565b6000858152600f60205260408120919250908660048110612e7057612e70614545565b6007020160030154905082600f60008781526020019081526020016000208760048110612e9f57612e9f614545565b6007020155604080516020810190915260008152612ec290839085908490613639565b6000858152600f60205260408120612ef19084908960048110612ee757612ee7614545565b6007020154610723565b6000878152600e6020908152604080832088845282528083206001600160a01b038816845282528083208a8452600f909252909120919250908860048110612f3b57612f3b614545565b600702015481556000878152600f602052604090208860048110612f6157612f61614545565b6007020160029081015460018301558101829055600480820180547fffffffffffffffffffffffff00000000000000000000000000000000000000009081166001600160a01b03881690811790925560038401805490911690911790556000888152600f6020526040902083918a908110612fde57612fde614545565b6007020160060181905550849550505050505092915050565b600580546001600160a01b038381167fffffffffffffffffffffffff0000000000000000000000000000000000000000831681179093556040519116919082907f8be0079c531659141344cd1fd0a4f28419497f9722a3daafe3b4186f6b6457e090600090a35050565b816001600160a01b0316836001600160a01b0316036130e85760405162461bcd60e51b815260206004820152602960248201527f455243313135353a2073657474696e6720617070726f76616c2073746174757360448201527f20666f722073656c660000000000000000000000000000000000000000000000606482015260840161079d565b6001600160a01b0383811660008181526001602090815260408083209487168084529482529182902080547fffffffffffffffffffffffffffffffffffffffffffffffffffffffffffffff001686151590811790915591519182527f17307eab39ab6107e8899845ad3d59bd9653f200f220920489ca2b5937696c31910160405180910390a3505050565b6001600160a01b0384166131ef5760405162461bcd60e51b815260206004820152602560248201527f455243313135353a207472616e7366657220746f20746865207a65726f20616460448201527f6472657373000000000000000000000000000000000000000000000000000000606482015260840161079d565b3360006131fb85613760565b9050600061320885613760565b90506000868152602081815260408083206001600160a01b038c168452909152902054858110156132a15760405162461bcd60e51b815260206004820152602a60248201527f455243313135353a20696e73756666696369656e742062616c616e636520666f60448201527f72207472616e7366657200000000000000000000000000000000000000000000606482015260840161079d565b6000878152602081815260408083206001600160a01b038d8116855292528083208985039055908a168252812080548892906132de908490614574565b909155505060408051888152602081018890526001600160a01b03808b16928c821692918816917fc3d58168c5ae7397731d063d5bbf3d657854427343f4c083240f7aacaa2d0f62910160405180910390a461333e848a8a8a8a8a6137ab565b505050505050505050565b60007fffffffff0000000000000000000000000000000000000000000000000000000082167fd9b67a260000000000000000000000000000000000000000000000000000000014806133dc57507fffffffff0000000000000000000000000000000000000000000000000000000082167f0e89341c00000000000000000000000000000000000000000000000000000000145b806107c957507f01ffc9a7000000000000000000000000000000000000000000000000000000007fffffffff000000000000000000000000000000000000000000000000000000008316146107c9565b6001600160a01b0384163b15612e0c576040517fbc197c810000000000000000000000000000000000000000000000000000000081526001600160a01b0385169063bc197c81906134899089908990889088908890600401614864565b6020604051808303816000875af19250505080156134c4575060408051601f3d908101601f191682019092526134c1918101906148c2565b60015b613579576134d06148df565b806308c379a00361350957506134e46148fb565b806134ef575061350b565b8060405162461bcd60e51b815260040161079d9190613c8f565b505b60405162461bcd60e51b815260206004820152603460248201527f455243313135353a207472616e7366657220746f206e6f6e2d4552433131353560448201527f526563656976657220696d706c656d656e746572000000000000000000000000606482015260840161079d565b7fffffffff0000000000000000000000000000000000000000000000000000000081167fbc197c8100000000000000000000000000000000000000000000000000000000146136305760405162461bcd60e51b815260206004820152602860248201527f455243313135353a204552433131353552656365697665722072656a6563746560448201527f6420746f6b656e73000000000000000000000000000000000000000000000000606482015260840161079d565b50505050505050565b6001600160a01b0384166136b55760405162461bcd60e51b815260206004820152602160248201527f455243313135353a206d696e7420746f20746865207a65726f2061646472657360448201527f7300000000000000000000000000000000000000000000000000000000000000606482015260840161079d565b3360006136c185613760565b905060006136ce85613760565b90506000868152602081815260408083206001600160a01b038b16845290915281208054879290613700908490614574565b909155505060408051878152602081018790526001600160a01b03808a1692600092918716917fc3d58168c5ae7397731d063d5bbf3d657854427343f4c083240f7aacaa2d0f62910160405180910390a4613630836000898989896137ab565b6040805160018082528183019092526060916000919060208083019080368337019050509050828160008151811061379a5761379a614545565b602090810291909101015292915050565b6001600160a01b0384163b15612e0c576040517ff23a6e610000000000000000000000000000000000000000000000000000000081526001600160a01b0385169063f23a6e619061380890899089908890889088906004016149a3565b6020604051808303816000875af1925050508015613843575060408051601f3d908101601f19168201909252613840918101906148c2565b60015b61384f576134d06148df565b7fffffffff0000000000000000000000000000000000000000000000000000000081167ff23a6e6100000000000000000000000000000000000000000000000000000000146136305760405162461bcd60e51b815260206004820152602860248201527f455243313135353a204552433131353552656365697665722072656a6563746560448201527f6420746f6b656e73000000000000000000000000000000000000000000000000606482015260840161079d565b60405180608001604052806004905b6139556040518060e00160405280600081526020016000815260200160008152602001600081526020016000815260200160008152602001600081525090565b8152602001906001900390816139155790505090565b80356001600160a01b038116811461398257600080fd5b919050565b6000806040838503121561399a57600080fd5b6139a38361396b565b946020939093013593505050565b7f4e487b7100000000000000000000000000000000000000000000000000000000600052604160045260246000fd5b601f19601f830116810181811067ffffffffffffffff82111715613a0657613a066139b1565b6040525050565b600082601f830112613a1e57600080fd5b813567ffffffffffffffff811115613a3857613a386139b1565b604051613a4f6020601f19601f85011601826139e0565b818152846020838601011115613a6457600080fd5b816020850160208301376000918101602001919091529392505050565b600080600080600060a08688031215613a9957600080fd5b853567ffffffffffffffff80821115613ab157600080fd5b613abd89838a01613a0d565b96506020880135915080821115613ad357600080fd5b613adf89838a01613a0d565b95506040880135915080821115613af557600080fd5b613b0189838a01613a0d565b94506060880135915080821115613b1757600080fd5b50613b2488828901613a0d565b95989497509295608001359392505050565b7fffffffff00000000000000000000000000000000000000000000000000000000811681146112d957600080fd5b600060208284031215613b7657600080fd5b8135613b8181613b36565b9392505050565b600080600060608486031215613b9d57600080fd5b8335925060208401359150613bb46040850161396b565b90509250925092565b600060208284031215613bcf57600080fd5b5035919050565b6103808101818360005b6004811015613c40578151805184526020808201518186015260408083015190860152606080830151908601526080808301519086015260a0808301519086015260c0918201519185019190915260e09093019290910190600101613be0565b50505092915050565b6000815180845260005b81811015613c6f57602081850181015186830182015201613c53565b506000602082860101526020601f19601f83011685010191505092915050565b602081526000613b816020830184613c49565b60008060408385031215613cb557600080fd5b50508035926020909101359150565b600067ffffffffffffffff821115613cde57613cde6139b1565b5060051b60200190565b600082601f830112613cf957600080fd5b81356020613d0682613cc4565b604051613d1382826139e0565b83815260059390931b8501820192828101915086841115613d3357600080fd5b8286015b8481101561123d5780358352918301918301613d37565b600080600080600060a08688031215613d6657600080fd5b613d6f8661396b565b9450613d7d6020870161396b565b9350604086013567ffffffffffffffff80821115613d9a57600080fd5b613da689838a01613ce8565b94506060880135915080821115613dbc57600080fd5b613dc889838a01613ce8565b93506080880135915080821115613dde57600080fd5b50613deb88828901613a0d565b9150509295509295909350565b60008083601f840112613e0a57600080fd5b50813567ffffffffffffffff811115613e2257600080fd5b6020830191508360208260051b8501011115610f3357600080fd5b600080600080600060608688031215613e5557600080fd5b85359450602086013567ffffffffffffffff80821115613e7457600080fd5b613e8089838a01613df8565b90965094506040880135915080821115613e9957600080fd5b50613ea688828901613df8565b969995985093965092949392505050565b60008060408385031215613eca57600080fd5b823567ffffffffffffffff80821115613ee257600080fd5b818501915085601f830112613ef657600080fd5b81356020613f0382613cc4565b604051613f1082826139e0565b83815260059390931b8501820192828101915089841115613f3057600080fd5b948201945b83861015613f5557613f468661396b565b82529482019490820190613f35565b96505086013592505080821115613f6b57600080fd5b50613f7885828601613ce8565b9150509250929050565b600081518084526020808501945080840160005b83811015613fb257815187529582019590820190600101613f96565b509495945050505050565b602081526000613b816020830184613f82565b600080600080600060608688031215613fe857600080fd5b853567ffffffffffffffff8082111561400057600080fd5b61400c89838a01613df8565b9097509550602088013591508082111561402557600080fd5b5061403288828901613df8565b96999598509660400135949350505050565b6000806000806080858703121561405a57600080fd5b84359350602085013592506140716040860161396b565b9396929550929360600135925050565b86815260c06020820152600061409a60c0830188613c49565b82810360408401526140ac8188613c49565b905082810360608401526140c08187613c49565b905082810360808401526140d48186613c49565b9150508260a0830152979650505050505050565b8035801515811461398257600080fd5b6000806040838503121561410b57600080fd5b6141148361396b565b9150614122602084016140e8565b90509250929050565b60008060008060008060008060006101208a8c03121561414a57600080fd5b8935985061415a60208b016140e8565b989b989a505050506040870135966060810135966080820135965060a0820135955060c0820135945060e08201359350610100909101359150565b600080600080608085870312156141ab57600080fd5b6141b48561396b565b93506141c26020860161396b565b93969395505050506040820135916060013590565b600080604083850312156141ea57600080fd5b6141f38361396b565b91506141226020840161396b565b600080600080600060a0868803121561421957600080fd5b6142228661396b565b94506142306020870161396b565b93506040860135925060608601359150608086013567ffffffffffffffff81111561425a57600080fd5b613deb88828901613a0d565b60006020828403121561427857600080fd5b613b818261396b565b60208152815160208201526000602083015160c060408401526142a760e0840182613c49565b90506040840151601f19808584030160608601526142c58383613c49565b925060608601519150808584030160808601526142e28383613c49565b925060808601519150808584030160a0860152506143008282613c49565b91505060a084015160c08401528091505092915050565b600181811c9082168061432b57607f821691505b602082108103614364577f4e487b7100000000000000000000000000000000000000000000000000000000600052602260045260246000fd5b50919050565b601f8211156143b057600081815260208120601f850160051c810160208610156143915750805b601f850160051c820191505b81811015612e0c5782815560010161439d565b505050565b815167ffffffffffffffff8111156143cf576143cf6139b1565b6143e3816143dd8454614317565b8461436a565b602080601f83116001811461443657600084156144005750858301515b7fffffffffffffffffffffffffffffffffffffffffffffffffffffffffffffffff600386901b1c1916600185901b178555612e0c565b600085815260208120601f198616915b8281101561446557888601518255948401946001909101908401614446565b50858210156144a157878501517fffffffffffffffffffffffffffffffffffffffffffffffffffffffffffffffff600388901b60f8161c191681555b5050505050600190811b01905550565b7f4e487b7100000000000000000000000000000000000000000000000000000000600052601160045260246000fd5b818103818111156107c9576107c96144b1565b80820281158282048414176107c9576107c96144b1565b600082614540577f4e487b7100000000000000000000000000000000000000000000000000000000600052601260045260246000fd5b500490565b7f4e487b7100000000000000000000000000000000000000000000000000000000600052603260045260246000fd5b808201808211156107c9576107c96144b1565b60007fffffffffffffffffffffffffffffffffffffffffffffffffffffffffffffffff82036145b8576145b86144b1565b5060010190565b815160009082906020808601845b838110156145e9578151855293820193908201906001016145cd565b50929695505050505050565b81835260007f07ffffffffffffffffffffffffffffffffffffffffffffffffffffffffffffff83111561462757600080fd5b8260051b80836020870137939093016020019392505050565b6060815260006146546060830187896145f5565b82810360208401526146678186886145f5565b9150508260408301529695505050505050565b805169ffffffffffffffffffff8116811461398257600080fd5b600080600080600060a086880312156146ac57600080fd5b6146b58661467a565b94506020860151935060408601519250606086015191506146d86080870161467a565b90509295509295909350565b6000602082840312156146f657600080fd5b815160ff81168114613b8157600080fd5b600181815b8085111561476057817fffffffffffffffffffffffffffffffffffffffffffffffffffffffffffffffff04821115614746576147466144b1565b8085161561475357918102915b93841c939080029061470c565b509250929050565b600082614777575060016107c9565b81614784575060006107c9565b816001811461479a57600281146147a4576147c0565b60019150506107c9565b60ff8411156147b5576147b56144b1565b50506001821b6107c9565b5060208310610133831016604e8410600b84101617156147e3575081810a6107c9565b6147ed8383614707565b807fffffffffffffffffffffffffffffffffffffffffffffffffffffffffffffffff0482111561481f5761481f6144b1565b029392505050565b6000613b8160ff841683614768565b6040815260006148496040830185613f82565b828103602084015261485b8185613f82565b95945050505050565b60006001600160a01b03808816835280871660208401525060a0604083015261489060a0830186613f82565b82810360608401526148a28186613f82565b905082810360808401526148b68185613c49565b98975050505050505050565b6000602082840312156148d457600080fd5b8151613b8181613b36565b600060033d11156148f85760046000803e5060005160e01c5b90565b600060443d10156149095790565b6040517ffffffffffffffffffffffffffffffffffffffffffffffffffffffffffffffffc803d016004833e81513d67ffffffffffffffff816024840111818411171561495757505050505090565b828501915081518181111561496f5750505050505090565b843d87010160208285010111156149895750505050505090565b614998602082860101876139e0565b509095945050505050565b60006001600160a01b03808816835280871660208401525084604083015283606083015260a060808301526149db60a0830184613c49565b97965050505050505056fea2646970667358221220e6f3d877e5700d5879db594e4d1006bff0b7711a542034b12e921a709020d5cc64736f6c6343000811003368747470733a2f2f676174657761792e70696e6174612e636c6f75642f697066732f516d57513567624468463539766f6e6753676d514a4d595269695670586d647559415539676666774454776e63612f7b69647d2e6a736f6e",
  "immutableReferences": {},
  "source": "// SPDX-License-Identifier: MIT\npragma solidity 0.8.17;\n\nimport \"../node_modules/@openzeppelin/contracts/token/ERC1155/IERC1155.sol\";\nimport \"../node_modules/@openzeppelin/contracts/utils/Counters.sol\";\n// import \"@openzeppelin/contracts/utils/introspection/ERC165.sol\";\nimport \"../node_modules/@openzeppelin/contracts/access/Ownable.sol\";\nimport \"../node_modules/@chainlink/contracts/src/v0.8/interfaces/AggregatorV3Interface.sol\";\nimport \"../node_modules/@openzeppelin/contracts/security/ReentrancyGuard.sol\";\n\nimport \"./Rock.sol\";\n\ncontract Marketplace is Rock {\n    // Events\n    event CardPurchased(\n        uint256[] indexed tokenId,\n        address indexed buyer,\n        address indexed seller,\n        uint256[] cardsId,\n        uint256[] quantities,\n        uint256 totalPrice\n    );\n\n    // Cette fonction doit mettre  jour les differentes balances aprs un achat ou aprs une vente\n    function updateBalances() private onlyOwner {}\n\n    function distribute() private onlyOwner {}\n\n    // Dans le cadre d'une vente, si Alice achete 2 cartes COTTAGE  BOB, on vrifie que Bob dtient bien ces 2 cartes\n    function verifyUserQuantityIsAvailable(\n        uint256 _indexRealEstateInCollection,\n        uint256 tokenId,\n        address sellerAddress,\n        uint256 askedQuantity\n    ) public view returns (bool) {\n        NFTCard storage userCard = usersCardsNfts[_indexRealEstateInCollection][\n            tokenId\n        ][sellerAddress];\n        if (askedQuantity <= userCard.quantity) {\n            return true;\n        }\n        return false;\n    }\n\n    /// Fonction permettant d'acheter une ou plusieurs cartes NFT\n    function confirmBuy(\n        uint256[] calldata _cardsId,\n        uint256[] calldata _quantities,\n        uint256 _indexRealEstateInCollection\n    ) external payable {\n        require(\n            _cardsId.length > 0 &&\n                _quantities.length > 0 &&\n                _cardsId.length == _quantities.length,\n            \"Incoherence entre les cartes choisies et les quantites renseignees\"\n        );\n        require(\n            msg.sender != address(0),\n            \"You cannot order from this address!\"\n        );\n\n        address buyer = payable(msg.sender);\n        address seller = payable(owner());\n\n        uint256[] memory tokenIds;\n        bool amountAvailable = false;\n        for (uint256 i = 0; i < _cardsId.length; i++) {\n            require(\n                _quantities[i] > 0,\n                \"La quantite de token doit etre superieure a 0\"\n            );\n            // Carte achete\n            uint256 cardId = _cardsId[i];\n            // Token id correspondant pour pouvoir etre transfert a l'acheteur\n            uint256 tokenId = cards[_indexRealEstateInCollection][cardId]\n                .tokenId;\n\n            // Vrification de la balance du vendeur\n            amountAvailable = verifyUserQuantityIsAvailable(\n                _indexRealEstateInCollection,\n                tokenId,\n                seller,\n                _quantities[i]\n            );\n            require(\n                amountAvailable,\n                \"La quantite de tokens detenue est insuffisante\"\n            );\n        }\n\n        // Calcul du prix total et on vrifie que la balance est suffisante pour procder au transfert des tokens\n        // uint256 totalPrice = calculeTotalPrice(_indexRealEstateInCollection, _cardsId, _quantities);\n        uint256 totalPrice = 2;\n        require(msg.value >= totalPrice, \"Fonds insuffisants\");\n\n        // L'acheteur (msg.sender) envoie 2 ethers au propitaire du NFT\n        (bool sentToPlateform, ) = payable(seller).call{value: msg.value}(\"\");\n        // La transaction doit avoir reussi pour ontinuer le transfert des NFT\n        require(\n            sentToPlateform,\n            \"Le paiement de la transaction vers le contrat a echoue\"\n        );\n\n        // Transfert des tokens vers l'acheteur\n        safeBatchTransferFrom(seller, buyer, tokenIds, _quantities, \"\");\n\n        // MAJ des balances\n        for (uint256 i = 0; i < tokenIds.length; i++) {\n            // Mise  jour de la balance du vendeur\n            NFTCard storage sellerTokens = usersCardsNfts[\n                _indexRealEstateInCollection\n            ][tokenIds[i]][seller];\n            sellerTokens.quantity -= _quantities[i];\n            sellerTokens.seller = payable(seller);\n            sellerTokens.owner = payable(buyer);\n\n            // Mise  jour de la balance de l'acheteur\n            NFTCard storage buyTokens = usersCardsNfts[\n                _indexRealEstateInCollection\n            ][tokenIds[i]][buyer];\n            buyTokens.quantity += _quantities[i];\n            buyTokens.seller = payable(buyer);\n            buyTokens.owner = payable(buyer);\n        }\n\n        emit CardPurchased(\n            tokenIds,\n            buyer,\n            seller,\n            _cardsId,\n            _quantities,\n            totalPrice\n        );\n    }\n\n    function sellTokens(\n        address _from,\n        address _to,\n        uint256 _id,\n        uint256 _amount\n    ) public returns (uint256) {\n        // Une vente peut tre ralise si les tokens detenus par le vendeur ont plus de 6 mois ?\n\n        return 0;\n    }\n\n    function fetchAll() public view {}\n\n    function fetchMyNfts() public view {}\n\n    // Le contrat pourra recevoir des fonds\n    receive() external payable {}\n}\n",
  "sourcePath": "/home/anicaise/Formation/Alyra/Rock/truffle/contracts/Marketplace.sol",
  "compiler": {
    "name": "solc",
    "version": "0.8.17+commit.8df45f5f.Emscripten.clang"
  },
  "schemaVersion": "3.4.10",
  "updatedAt": "2022-12-07T22:32:38.777Z",
  "devdoc": {
    "kind": "dev",
    "methods": {
      "balanceOf(address,uint256)": {
        "details": "See {IERC1155-balanceOf}. Requirements: - `account` cannot be the zero address."
      },
      "balanceOfBatch(address[],uint256[])": {
        "details": "See {IERC1155-balanceOfBatch}. Requirements: - `accounts` and `ids` must have the same length."
      },
      "getRealEstatesCollectionCount()": {
        "returns": {
          "_0": "uint256 Count of proposals"
        }
      },
      "isApprovedForAll(address,address)": {
        "details": "See {IERC1155-isApprovedForAll}."
      },
      "owner()": {
        "details": "Returns the address of the current owner."
      },
      "renounceOwnership()": {
        "details": "Leaves the contract without owner. It will not be possible to call `onlyOwner` functions anymore. Can only be called by the current owner. NOTE: Renouncing ownership will leave the contract without an owner, thereby removing any functionality that is only available to the owner."
      },
      "royaltyInfo(uint256,uint256)": {
        "details": "Returns how much royalty is owed and to whom, based on a sale price that may be denominated in any unit of exchange. The royalty amount is denominated and should be paid in that same unit of exchange."
      },
      "safeBatchTransferFrom(address,address,uint256[],uint256[],bytes)": {
        "details": "See {IERC1155-safeBatchTransferFrom}."
      },
      "safeTransferFrom(address,address,uint256,uint256,bytes)": {
        "details": "See {IERC1155-safeTransferFrom}."
      },
      "setApprovalForAll(address,bool)": {
        "details": "See {IERC1155-setApprovalForAll}."
      },
      "transferOwnership(address)": {
        "details": "Transfers ownership of the contract to a new account (`newOwner`). Can only be called by the current owner."
      },
      "uri(uint256)": {
        "details": "See {IERC1155MetadataURI-uri}. This implementation returns the same URI for *all* token types. It relies on the token type ID substitution mechanism https://eips.ethereum.org/EIPS/eip-1155#metadata[defined in the EIP]. Clients calling this function must replace the `\\{id\\}` substring with the actual token type ID."
      }
    },
    "version": 1
  },
  "userdoc": {
    "kind": "user",
    "methods": {
      "confirmBuy(uint256[],uint256[],uint256)": {
        "notice": "Fonction permettant d'acheter une ou plusieurs cartes NFT"
      },
      "getLatestPrice()": {
        "notice": "Returns the latest price MATIC/USD"
      },
      "getRealEstatesCollectionCount()": {
        "notice": "Return the count of proposals"
      }
    },
    "version": 1
  }
}