{
  "contractName": "Marketplace",
  "abi": [
    {
      "anonymous": false,
      "inputs": [
        {
          "indexed": true,
          "internalType": "address",
          "name": "account",
          "type": "address"
        },
        {
          "indexed": true,
          "internalType": "address",
          "name": "operator",
          "type": "address"
        },
        {
          "indexed": false,
          "internalType": "bool",
          "name": "approved",
          "type": "bool"
        }
      ],
      "name": "ApprovalForAll",
      "type": "event"
    },
    {
      "anonymous": false,
      "inputs": [
        {
          "indexed": true,
          "internalType": "uint256[]",
          "name": "tokenId",
          "type": "uint256[]"
        },
        {
          "indexed": true,
          "internalType": "address",
          "name": "buyer",
          "type": "address"
        },
        {
          "indexed": true,
          "internalType": "address",
          "name": "seller",
          "type": "address"
        },
        {
          "indexed": false,
          "internalType": "uint256[]",
          "name": "cardsId",
          "type": "uint256[]"
        },
        {
          "indexed": false,
          "internalType": "uint256[]",
          "name": "quantities",
          "type": "uint256[]"
        },
        {
          "indexed": false,
          "internalType": "uint256",
          "name": "totalPrice",
          "type": "uint256"
        }
      ],
      "name": "CardPurchased",
      "type": "event"
    },
    {
      "anonymous": false,
      "inputs": [
        {
          "indexed": true,
          "internalType": "address",
          "name": "previousOwner",
          "type": "address"
        },
        {
          "indexed": true,
          "internalType": "address",
          "name": "newOwner",
          "type": "address"
        }
      ],
      "name": "OwnershipTransferred",
      "type": "event"
    },
    {
      "anonymous": false,
      "inputs": [
        {
          "indexed": false,
          "internalType": "uint256",
          "name": "idRealEstate",
          "type": "uint256"
        }
      ],
      "name": "RealEstateAdded",
      "type": "event"
    },
    {
      "anonymous": false,
      "inputs": [
        {
          "indexed": true,
          "internalType": "address",
          "name": "operator",
          "type": "address"
        },
        {
          "indexed": true,
          "internalType": "address",
          "name": "from",
          "type": "address"
        },
        {
          "indexed": true,
          "internalType": "address",
          "name": "to",
          "type": "address"
        },
        {
          "indexed": false,
          "internalType": "uint256[]",
          "name": "ids",
          "type": "uint256[]"
        },
        {
          "indexed": false,
          "internalType": "uint256[]",
          "name": "values",
          "type": "uint256[]"
        }
      ],
      "name": "TransferBatch",
      "type": "event"
    },
    {
      "anonymous": false,
      "inputs": [
        {
          "indexed": true,
          "internalType": "address",
          "name": "operator",
          "type": "address"
        },
        {
          "indexed": true,
          "internalType": "address",
          "name": "from",
          "type": "address"
        },
        {
          "indexed": true,
          "internalType": "address",
          "name": "to",
          "type": "address"
        },
        {
          "indexed": false,
          "internalType": "uint256",
          "name": "id",
          "type": "uint256"
        },
        {
          "indexed": false,
          "internalType": "uint256",
          "name": "value",
          "type": "uint256"
        }
      ],
      "name": "TransferSingle",
      "type": "event"
    },
    {
      "anonymous": false,
      "inputs": [
        {
          "indexed": false,
          "internalType": "string",
          "name": "value",
          "type": "string"
        },
        {
          "indexed": true,
          "internalType": "uint256",
          "name": "id",
          "type": "uint256"
        }
      ],
      "name": "URI",
      "type": "event"
    },
    {
      "anonymous": false,
      "inputs": [
        {
          "indexed": false,
          "internalType": "uint256",
          "name": "idToken",
          "type": "uint256"
        },
        {
          "indexed": false,
          "internalType": "uint256",
          "name": "supplyCottage",
          "type": "uint256"
        },
        {
          "indexed": false,
          "internalType": "uint256",
          "name": "supplyVilla",
          "type": "uint256"
        },
        {
          "indexed": false,
          "internalType": "uint256",
          "name": "supplyMansion",
          "type": "uint256"
        },
        {
          "indexed": false,
          "internalType": "uint256",
          "name": "supplyHighRise",
          "type": "uint256"
        }
      ],
      "name": "supplyCardsCalculated",
      "type": "event"
    },
    {
      "anonymous": false,
      "inputs": [
        {
          "indexed": false,
          "internalType": "uint256",
          "name": "idRealEstate",
          "type": "uint256"
        }
      ],
      "name": "tokenMinted",
      "type": "event"
    },
    {
      "inputs": [
        {
          "internalType": "uint256",
          "name": "",
          "type": "uint256"
        }
      ],
      "name": "Listings",
      "outputs": [
        {
          "internalType": "uint256",
          "name": "tokenId",
          "type": "uint256"
        },
        {
          "internalType": "uint256",
          "name": "price",
          "type": "uint256"
        },
        {
          "internalType": "uint256",
          "name": "quantity",
          "type": "uint256"
        },
        {
          "internalType": "address payable",
          "name": "seller",
          "type": "address"
        },
        {
          "internalType": "address payable",
          "name": "owner",
          "type": "address"
        }
      ],
      "stateMutability": "view",
      "type": "function"
    },
    {
      "inputs": [
        {
          "internalType": "string",
          "name": "_name",
          "type": "string"
        },
        {
          "internalType": "string",
          "name": "_location",
          "type": "string"
        },
        {
          "internalType": "string",
          "name": "_city",
          "type": "string"
        },
        {
          "internalType": "string",
          "name": "_cid",
          "type": "string"
        },
        {
          "internalType": "uint256",
          "name": "_price",
          "type": "uint256"
        }
      ],
      "name": "addRealEstate",
      "outputs": [],
      "stateMutability": "nonpayable",
      "type": "function"
    },
    {
      "inputs": [
        {
          "internalType": "address",
          "name": "account",
          "type": "address"
        },
        {
          "internalType": "uint256",
          "name": "id",
          "type": "uint256"
        }
      ],
      "name": "balanceOf",
      "outputs": [
        {
          "internalType": "uint256",
          "name": "",
          "type": "uint256"
        }
      ],
      "stateMutability": "view",
      "type": "function"
    },
    {
      "inputs": [
        {
          "internalType": "address[]",
          "name": "accounts",
          "type": "address[]"
        },
        {
          "internalType": "uint256[]",
          "name": "ids",
          "type": "uint256[]"
        }
      ],
      "name": "balanceOfBatch",
      "outputs": [
        {
          "internalType": "uint256[]",
          "name": "",
          "type": "uint256[]"
        }
      ],
      "stateMutability": "view",
      "type": "function"
    },
    {
      "inputs": [
        {
          "internalType": "uint256",
          "name": "_indexRealEstateInCollection",
          "type": "uint256"
        },
        {
          "internalType": "bool",
          "name": "_isDefaultSupply",
          "type": "bool"
        },
        {
          "internalType": "uint256",
          "name": "_ratioTokenCottage",
          "type": "uint256"
        },
        {
          "internalType": "uint256",
          "name": "_ratioTokenVilla",
          "type": "uint256"
        },
        {
          "internalType": "uint256",
          "name": "_ratioTokenMansion",
          "type": "uint256"
        },
        {
          "internalType": "uint256",
          "name": "_prixTokenCottage",
          "type": "uint256"
        },
        {
          "internalType": "uint256",
          "name": "_prixTokenVilla",
          "type": "uint256"
        },
        {
          "internalType": "uint256",
          "name": "_prixTokenMansion",
          "type": "uint256"
        },
        {
          "internalType": "uint256",
          "name": "_prixTokenHighRise",
          "type": "uint256"
        }
      ],
      "name": "calculateNumberOfTokens",
      "outputs": [],
      "stateMutability": "nonpayable",
      "type": "function"
    },
    {
      "inputs": [
        {
          "internalType": "uint256",
          "name": "_indexRealEstateInCollection",
          "type": "uint256"
        },
        {
          "internalType": "uint256[]",
          "name": "_cardsId",
          "type": "uint256[]"
        },
        {
          "internalType": "uint256[]",
          "name": "_amounts",
          "type": "uint256[]"
        }
      ],
      "name": "calculeTotalPrice",
      "outputs": [
        {
          "internalType": "uint256",
          "name": "",
          "type": "uint256"
        }
      ],
      "stateMutability": "view",
      "type": "function"
    },
    {
      "inputs": [
        {
          "internalType": "uint256",
          "name": "_indexRealEstateInCollection",
          "type": "uint256"
        },
        {
          "internalType": "uint256",
          "name": "_cardId",
          "type": "uint256"
        }
      ],
      "name": "getCard",
      "outputs": [
        {
          "components": [
            {
              "internalType": "uint256",
              "name": "tokenId",
              "type": "uint256"
            },
            {
              "internalType": "uint256",
              "name": "cardId",
              "type": "uint256"
            },
            {
              "internalType": "uint256",
              "name": "price",
              "type": "uint256"
            },
            {
              "internalType": "uint256",
              "name": "numberOfTokens",
              "type": "uint256"
            },
            {
              "internalType": "uint256",
              "name": "ratioOfTokensInPercent",
              "type": "uint256"
            },
            {
              "internalType": "uint256",
              "name": "royalty",
              "type": "uint256"
            },
            {
              "internalType": "uint256",
              "name": "balance",
              "type": "uint256"
            }
          ],
          "internalType": "struct Rock.Card",
          "name": "",
          "type": "tuple"
        }
      ],
      "stateMutability": "view",
      "type": "function"
    },
    {
      "inputs": [],
      "name": "getLatestPrice",
      "outputs": [
        {
          "internalType": "int256",
          "name": "",
          "type": "int256"
        }
      ],
      "stateMutability": "view",
      "type": "function"
    },
    {
      "inputs": [],
      "name": "getOwner",
      "outputs": [
        {
          "internalType": "address",
          "name": "",
          "type": "address"
        }
      ],
      "stateMutability": "view",
      "type": "function"
    },
    {
      "inputs": [],
      "name": "getRealEstatesCollectionCount",
      "outputs": [
        {
          "internalType": "uint256",
          "name": "",
          "type": "uint256"
        }
      ],
      "stateMutability": "view",
      "type": "function"
    },
    {
      "inputs": [
        {
          "internalType": "uint256",
          "name": "_index",
          "type": "uint256"
        }
      ],
      "name": "getRealStateById",
      "outputs": [
        {
          "components": [
            {
              "internalType": "uint256",
              "name": "id",
              "type": "uint256"
            },
            {
              "internalType": "string",
              "name": "name",
              "type": "string"
            },
            {
              "internalType": "string",
              "name": "location",
              "type": "string"
            },
            {
              "internalType": "string",
              "name": "city",
              "type": "string"
            },
            {
              "internalType": "string",
              "name": "cid",
              "type": "string"
            },
            {
              "internalType": "uint256",
              "name": "price",
              "type": "uint256"
            }
          ],
          "internalType": "struct Rock.RealEstate",
          "name": "",
          "type": "tuple"
        }
      ],
      "stateMutability": "view",
      "type": "function"
    },
    {
      "inputs": [
        {
          "internalType": "address",
          "name": "account",
          "type": "address"
        },
        {
          "internalType": "address",
          "name": "operator",
          "type": "address"
        }
      ],
      "name": "isApprovedForAll",
      "outputs": [
        {
          "internalType": "bool",
          "name": "",
          "type": "bool"
        }
      ],
      "stateMutability": "view",
      "type": "function"
    },
    {
      "inputs": [
        {
          "internalType": "uint256",
          "name": "_indexRealEstateInCollection",
          "type": "uint256"
        }
      ],
      "name": "mintRealEstateCollection",
      "outputs": [],
      "stateMutability": "nonpayable",
      "type": "function"
    },
    {
      "inputs": [],
      "name": "name",
      "outputs": [
        {
          "internalType": "string",
          "name": "",
          "type": "string"
        }
      ],
      "stateMutability": "view",
      "type": "function"
    },
    {
      "inputs": [],
      "name": "owner",
      "outputs": [
        {
          "internalType": "address",
          "name": "",
          "type": "address"
        }
      ],
      "stateMutability": "view",
      "type": "function"
    },
    {
      "inputs": [
        {
          "internalType": "uint256",
          "name": "",
          "type": "uint256"
        }
      ],
      "name": "realEstatesCollection",
      "outputs": [
        {
          "internalType": "uint256",
          "name": "id",
          "type": "uint256"
        },
        {
          "internalType": "string",
          "name": "name",
          "type": "string"
        },
        {
          "internalType": "string",
          "name": "location",
          "type": "string"
        },
        {
          "internalType": "string",
          "name": "city",
          "type": "string"
        },
        {
          "internalType": "string",
          "name": "cid",
          "type": "string"
        },
        {
          "internalType": "uint256",
          "name": "price",
          "type": "uint256"
        }
      ],
      "stateMutability": "view",
      "type": "function"
    },
    {
      "inputs": [],
      "name": "renounceOwnership",
      "outputs": [],
      "stateMutability": "nonpayable",
      "type": "function"
    },
    {
      "inputs": [
        {
          "internalType": "uint256",
          "name": "_tokenId",
          "type": "uint256"
        },
        {
          "internalType": "uint256",
          "name": "_salePrice",
          "type": "uint256"
        }
      ],
      "name": "royaltyInfo",
      "outputs": [
        {
          "internalType": "address",
          "name": "",
          "type": "address"
        },
        {
          "internalType": "uint256",
          "name": "",
          "type": "uint256"
        }
      ],
      "stateMutability": "view",
      "type": "function"
    },
    {
      "inputs": [
        {
          "internalType": "address",
          "name": "from",
          "type": "address"
        },
        {
          "internalType": "address",
          "name": "to",
          "type": "address"
        },
        {
          "internalType": "uint256[]",
          "name": "ids",
          "type": "uint256[]"
        },
        {
          "internalType": "uint256[]",
          "name": "amounts",
          "type": "uint256[]"
        },
        {
          "internalType": "bytes",
          "name": "data",
          "type": "bytes"
        }
      ],
      "name": "safeBatchTransferFrom",
      "outputs": [],
      "stateMutability": "nonpayable",
      "type": "function"
    },
    {
      "inputs": [
        {
          "internalType": "address",
          "name": "from",
          "type": "address"
        },
        {
          "internalType": "address",
          "name": "to",
          "type": "address"
        },
        {
          "internalType": "uint256",
          "name": "id",
          "type": "uint256"
        },
        {
          "internalType": "uint256",
          "name": "amount",
          "type": "uint256"
        },
        {
          "internalType": "bytes",
          "name": "data",
          "type": "bytes"
        }
      ],
      "name": "safeTransferFrom",
      "outputs": [],
      "stateMutability": "nonpayable",
      "type": "function"
    },
    {
      "inputs": [
        {
          "internalType": "address",
          "name": "operator",
          "type": "address"
        },
        {
          "internalType": "bool",
          "name": "approved",
          "type": "bool"
        }
      ],
      "name": "setApprovalForAll",
      "outputs": [],
      "stateMutability": "nonpayable",
      "type": "function"
    },
    {
      "inputs": [
        {
          "internalType": "uint256",
          "name": "_fee",
          "type": "uint256"
        }
      ],
      "name": "setFee",
      "outputs": [],
      "stateMutability": "nonpayable",
      "type": "function"
    },
    {
      "inputs": [
        {
          "internalType": "bytes4",
          "name": "interfaceId",
          "type": "bytes4"
        }
      ],
      "name": "supportsInterface",
      "outputs": [
        {
          "internalType": "bool",
          "name": "",
          "type": "bool"
        }
      ],
      "stateMutability": "view",
      "type": "function"
    },
    {
      "inputs": [],
      "name": "symbol",
      "outputs": [
        {
          "internalType": "string",
          "name": "",
          "type": "string"
        }
      ],
      "stateMutability": "view",
      "type": "function"
    },
    {
      "inputs": [
        {
          "internalType": "address",
          "name": "newOwner",
          "type": "address"
        }
      ],
      "name": "transferOwnership",
      "outputs": [],
      "stateMutability": "nonpayable",
      "type": "function"
    },
    {
      "inputs": [
        {
          "internalType": "uint256",
          "name": "",
          "type": "uint256"
        }
      ],
      "name": "uri",
      "outputs": [
        {
          "internalType": "string",
          "name": "",
          "type": "string"
        }
      ],
      "stateMutability": "view",
      "type": "function"
    },
    {
      "inputs": [
        {
          "internalType": "uint256",
          "name": "",
          "type": "uint256"
        },
        {
          "internalType": "uint256",
          "name": "",
          "type": "uint256"
        },
        {
          "internalType": "address",
          "name": "",
          "type": "address"
        }
      ],
      "name": "usersCardsNfts",
      "outputs": [
        {
          "internalType": "uint256",
          "name": "tokenId",
          "type": "uint256"
        },
        {
          "internalType": "uint256",
          "name": "price",
          "type": "uint256"
        },
        {
          "internalType": "uint256",
          "name": "quantity",
          "type": "uint256"
        },
        {
          "internalType": "address payable",
          "name": "seller",
          "type": "address"
        },
        {
          "internalType": "address payable",
          "name": "owner",
          "type": "address"
        }
      ],
      "stateMutability": "view",
      "type": "function"
    },
    {
      "inputs": [],
      "name": "withdraw",
      "outputs": [],
      "stateMutability": "nonpayable",
      "type": "function"
    },
    {
      "stateMutability": "payable",
      "type": "receive"
    },
    {
      "inputs": [
        {
          "internalType": "uint256",
          "name": "_indexRealEstateInCollection",
          "type": "uint256"
        },
        {
          "internalType": "uint256",
          "name": "tokenId",
          "type": "uint256"
        },
        {
          "internalType": "address",
          "name": "sellerAddress",
          "type": "address"
        },
        {
          "internalType": "uint256",
          "name": "askedQuantity",
          "type": "uint256"
        }
      ],
      "name": "verifyUserQuantityIsAvailable",
      "outputs": [
        {
          "internalType": "bool",
          "name": "",
          "type": "bool"
        }
      ],
      "stateMutability": "view",
      "type": "function"
    },
    {
      "inputs": [
        {
          "internalType": "uint256[]",
          "name": "_cardsId",
          "type": "uint256[]"
        },
        {
          "internalType": "uint256[]",
          "name": "_quantities",
          "type": "uint256[]"
        },
        {
          "internalType": "uint256",
          "name": "_indexRealEstateInCollection",
          "type": "uint256"
        }
      ],
      "name": "confirmBuy",
      "outputs": [],
      "stateMutability": "payable",
      "type": "function"
    },
    {
      "inputs": [
        {
          "internalType": "address",
          "name": "_from",
          "type": "address"
        },
        {
          "internalType": "address",
          "name": "_to",
          "type": "address"
        },
        {
          "internalType": "uint256",
          "name": "_id",
          "type": "uint256"
        },
        {
          "internalType": "uint256",
          "name": "_amount",
          "type": "uint256"
        }
      ],
      "name": "sellTokens",
      "outputs": [
        {
          "internalType": "uint256",
          "name": "",
          "type": "uint256"
        }
      ],
      "stateMutability": "nonpayable",
      "type": "function"
    },
    {
      "inputs": [],
      "name": "fetchAll",
      "outputs": [],
      "stateMutability": "view",
      "type": "function"
    },
    {
      "inputs": [],
      "name": "fetchMyNfts",
      "outputs": [],
      "stateMutability": "view",
      "type": "function"
    }
  ],
  "bytecode": "0x61138860095560c0604052600f60809081526e2937b1b59021b7b63632b1ba34b7b760891b60a052600a90620000369082620002ee565b50604080518082019091526004815263526f636b60e01b6020820152600b90620000619082620002ee565b503480156200006f57600080fd5b506040518060800160405280605a815260200162004b4c605a91396200009581620000e0565b50620000a133620000f2565b6001600655620000b433611f4062000144565b601080546001600160a01b03191673d4a33860578de61dbabdc8bfdb98fd742fa7028e179055620003ba565b6002620000ee8282620002ee565b5050565b600580546001600160a01b038381166001600160a01b0319831681179093556040519116919082907f8be0079c531659141344cd1fd0a4f28419497f9722a3daafe3b4186f6b6457e090600090a35050565b6127106001600160601b0382161115620001b85760405162461bcd60e51b815260206004820152602a60248201527f455243323938313a20726f79616c7479206665652077696c6c206578636565646044820152692073616c65507269636560b01b60648201526084015b60405180910390fd5b6001600160a01b038216620002105760405162461bcd60e51b815260206004820152601960248201527f455243323938313a20696e76616c6964207265636569766572000000000000006044820152606401620001af565b604080518082019091526001600160a01b039092168083526001600160601b039091166020909201829052600160a01b90910217600355565b634e487b7160e01b600052604160045260246000fd5b600181811c908216806200027457607f821691505b6020821081036200029557634e487b7160e01b600052602260045260246000fd5b50919050565b601f821115620002e957600081815260208120601f850160051c81016020861015620002c45750805b601f850160051c820191505b81811015620002e557828155600101620002d0565b5050505b505050565b81516001600160401b038111156200030a576200030a62000249565b62000322816200031b84546200025f565b846200029b565b602080601f8311600181146200035a5760008415620003415750858301515b600019600386901b1c1916600185901b178555620002e5565b600085815260208120601f198616915b828110156200038b578886015182559484019460019091019084016200036a565b5085821015620003aa5787850151600019600388901b60f8161c191681555b5050505050600190811b01905550565b61478280620003ca6000396000f3fe6080604052600436106102015760003560e01c80636f7789a61161011d578063a0f4651a116100b0578063e985e9c51161007f578063f2a54c0411610064578063f2a54c04146106cf578063f2fde38b146106e4578063fdac310f1461070457600080fd5b8063e985e9c514610666578063f242432a146106af57600080fd5b8063a0f4651a146105cf578063a22cb46514610601578063d1e8c4aa14610621578063e60aae981461064157600080fd5b80638da5cb5b116100ec5780638da5cb5b146105675780638e15f47314610585578063944060981461059a57806395d89b41146105ba57600080fd5b80636f7789a6146104f2578063715018a6146105125780637ae4893814610527578063893d20e81461053a57600080fd5b80632a55205a1161019557806338d913bc1161016457806338d913bc146104705780633ccfd60b146104905780634e1273f4146104a557806369fe0e2d146104d257600080fd5b80632a55205a1461037b5780632eb2c2d6146103ba5780633079a8dd146103da57806333caeb941461045057600080fd5b806306fdde03116101d157806306fdde031461032d5780630e89341c1461034f578063128ae7121461036f57806327ec486c1461036f57600080fd5b8062fdd58e1461020d578063012f375f1461024057806301ffc9a714610262578063046437551461029257600080fd5b3661020857005b600080fd5b34801561021957600080fd5b5061022d6102283660046138b2565b610731565b6040519081526020015b60405180910390f35b34801561024c57600080fd5b5061026061025b3660046139ac565b6107dd565b005b34801561026e57600080fd5b5061028261027d366004613a8f565b610c9a565b6040519015158152602001610237565b34801561029e57600080fd5b506102f96102ad366004613ab3565b600e602090815260009384526040808520825292845282842090528252902080546001820154600283015460038401546004909401549293919290916001600160a01b03908116911685565b604080519586526020860194909452928401919091526001600160a01b03908116606084015216608082015260a001610237565b34801561033957600080fd5b50610342610ca5565b6040516102379190613b2e565b34801561035b57600080fd5b5061034261036a366004613b41565b610d33565b34801561026057600080fd5b34801561038757600080fd5b5061039b610396366004613b5a565b610dc9565b604080516001600160a01b039093168352602083019190915201610237565b3480156103c657600080fd5b506102606103d5366004613c06565b610ea8565b3480156103e657600080fd5b506103fa6103f5366004613b5a565b610f4a565b6040516102379190600060e082019050825182526020830151602083015260408301516040830152606083015160608301526080830151608083015260a083015160a083015260c083015160c083015292915050565b34801561045c57600080fd5b506102f961046b366004613b41565b61100a565b34801561047c57600080fd5b5061022d61048b366004613cf5565b611058565b34801561049c57600080fd5b50610260611276565b3480156104b157600080fd5b506104c56104c0366004613d6f565b61130a565b6040516102379190613e75565b3480156104de57600080fd5b506102606104ed366004613b41565b611448565b3480156104fe57600080fd5b5061026061050d366004613b41565b611455565b34801561051e57600080fd5b50610260611597565b610260610535366004613e88565b6115a9565b34801561054657600080fd5b5061054f611c29565b6040516001600160a01b039091168152602001610237565b34801561057357600080fd5b506005546001600160a01b031661054f565b34801561059157600080fd5b5061022d611c42565b3480156105a657600080fd5b506102826105b5366004613efc565b611cc7565b3480156105c657600080fd5b50610342611d14565b3480156105db57600080fd5b506105ef6105ea366004613b41565b611d21565b60405161023796959493929190613f39565b34801561060d57600080fd5b5061026061061c366004613fb0565b611f89565b34801561062d57600080fd5b5061026061063c366004613fe3565b611f98565b34801561064d57600080fd5b5061022d61065c36600461404d565b6000949350505050565b34801561067257600080fd5b5061028261068136600461408f565b6001600160a01b03918216600090815260016020908152604080832093909416825291909152205460ff1690565b3480156106bb57600080fd5b506102606106ca3660046140b9565b612615565b3480156106db57600080fd5b50600c5461022d565b3480156106f057600080fd5b506102606106ff36600461411e565b6126b0565b34801561071057600080fd5b5061072461071f366004613b41565b61273d565b6040516102379190614139565b60006001600160a01b0383166107b45760405162461bcd60e51b815260206004820152602a60248201527f455243313135353a2061646472657373207a65726f206973206e6f742061207660448201527f616c6964206f776e65720000000000000000000000000000000000000000000060648201526084015b60405180910390fd5b506000818152602081815260408083206001600160a01b03861684529091529020545b92915050565b6107e5612a56565b60405160200161080090602080825260009082015260400190565b60405160208183030381529060405280519060200120856040516020016108279190613b2e565b60405160208183030381529060405280519060200120036108b05760405162461bcd60e51b815260206004820152602e60248201527f4c65206e6f6d2064752070726f6772616d6d6520696d6d6f62696c696572206560448201527f7374206f626c696761746f69726500000000000000000000000000000000000060648201526084016107ab565b6040516020016108cb90602080825260009082015260400190565b60405160208183030381529060405280519060200120846040516020016108f29190613b2e565b60405160208183030381529060405280519060200120036109555760405162461bcd60e51b815260206004820152601c60248201527f4c6120736974756174696f6e20657374206f626c696761746f6972650000000060448201526064016107ab565b60405160200161097090602080825260009082015260400190565b60405160208183030381529060405280519060200120836040516020016109979190613b2e565b60405160208183030381529060405280519060200120036109fa5760405162461bcd60e51b815260206004820152601860248201527f4c612076696c6c6520657374206f626c696761746f697265000000000000000060448201526064016107ab565b604051602001610a1590602080825260009082015260400190565b6040516020818303038152906040528051906020012082604051602001610a3c9190613b2e565b6040516020818303038152906040528051906020012003610a9f5760405162461bcd60e51b815260206004820152601660248201527f4c652063696420657374206f626c696761746f6972650000000000000000000060448201526064016107ab565b61c3508111610b165760405162461bcd60e51b815260206004820152603860248201527f4572726575722c206c652070726978206475206269656e20696d6d6f20646f6960448201527f742065747265207375706572696575722061203530303030000000000000000060648201526084016107ab565b610b24600880546001019055565b610b5d6040518060c001604052806000815260200160608152602001606081526020016060815260200160608152602001600081525090565b60085481526020810186815260408201869052606082018590526080820184905260a08201839052600c8054600181018255600091909152825160069091027fdf6966c971051c3d54ec59162606531493a51404a002842f56009d7e5cf4a8c78101918255915183927fdf6966c971051c3d54ec59162606531493a51404a002842f56009d7e5cf4a8c80190610bf3908261426d565b5060408201516002820190610c08908261426d565b5060608201516003820190610c1d908261426d565b5060808201516004820190610c32908261426d565b5060a08201518160050155505060006001610c4c60085490565b610c569190614398565b90507ff25ea05cc68cbe6d2d1abce09caf6545e2282a00caed6975ebba55f38de5372081604051610c8991815260200190565b60405180910390a150505050505050565b60006107d782612ab0565b600a8054610cb2906141cf565b80601f0160208091040260200160405190810160405280929190818152602001828054610cde906141cf565b8015610d2b5780601f10610d0057610100808354040283529160200191610d2b565b820191906000526020600020905b815481529060010190602001808311610d0e57829003601f168201915b505050505081565b606060028054610d42906141cf565b80601f0160208091040260200160405190810160405280929190818152602001828054610d6e906141cf565b8015610dbb5780601f10610d9057610100808354040283529160200191610dbb565b820191906000526020600020905b815481529060010190602001808311610d9e57829003601f168201915b50505050509050919050565b565b60008281526004602090815260408083208151808301909252546001600160a01b038116808352740100000000000000000000000000000000000000009091046bffffffffffffffffffffffff16928201929092528291610e6a5750604080518082019091526003546001600160a01b03811682527401000000000000000000000000000000000000000090046bffffffffffffffffffffffff1660208201525b602081015160009061271090610e8e906bffffffffffffffffffffffff16876143ab565b610e9891906143c2565b91519350909150505b9250929050565b6001600160a01b038516331480610ec45750610ec48533610681565b610f365760405162461bcd60e51b815260206004820152602e60248201527f455243313135353a2063616c6c6572206973206e6f7420746f6b656e206f776e60448201527f6572206f7220617070726f76656400000000000000000000000000000000000060648201526084016107ab565b610f438585858585612b06565b5050505050565b610f8a6040518060e00160405280600081526020016000815260200160008152602001600081526020016000815260200160008152602001600081525090565b6000838152600f602052604081208360048110610fa957610fa96143fd565b600702016040518060e001604052908160008201548152602001600182015481526020016002820154815260200160038201548152602001600482015481526020016005820154815260200160068201548152505090508091505092915050565b600d818154811061101a57600080fd5b600091825260209091206005909102018054600182015460028301546003840154600490940154929450909290916001600160a01b03918216911685565b6000816110a75760405162461bcd60e51b815260206004820152601760248201527f417563756e206d6f6e74616e742072656e736569676e6500000000000000000060448201526064016107ab565b836110f45760405162461bcd60e51b815260206004820152601860248201527f417563756e2063617274652073656c656374696f6e6e6565000000000000000060448201526064016107ab565b600c5486106111455760405162461bcd60e51b815260206004820152601a60248201527f4269656e20696d6d6f62696c69657220696e6578697374616e7400000000000060448201526064016107ab565b6000805b8581101561126b576000878783818110611165576111656143fd565b905060200201351015801561119357506003878783818110611189576111896143fd565b9050602002013511155b6111df5760405162461bcd60e51b815260206004820152600e60248201527f436172746520696e636f6e6e756500000000000000000000000000000000000060448201526064016107ab565b60008787838181106111f3576111f36143fd565b90506020020135905085858381811061120e5761120e6143fd565b90506020020135600f60008b81526020019081526020016000208260048110611239576112396143fd565b600702016002015461124b91906143ab565b611255908461442c565b92505080806112639061443f565b915050611149565b509695505050505050565b61127e612a56565b600047116112ce5760405162461bcd60e51b815260206004820152600b60248201527f42616c616e63652061203000000000000000000000000000000000000000000060448201526064016107ab565b6005546040516001600160a01b03909116904780156108fc02916000818181858888f19350505050158015611307573d6000803e3d6000fd5b50565b606081518351146113835760405162461bcd60e51b815260206004820152602960248201527f455243313135353a206163636f756e747320616e6420696473206c656e67746860448201527f206d69736d61746368000000000000000000000000000000000000000000000060648201526084016107ab565b6000835167ffffffffffffffff81111561139f5761139f6138dc565b6040519080825280602002602001820160405280156113c8578160200160208202803683370190505b50905060005b8451811015611440576114138582815181106113ec576113ec6143fd565b6020026020010151858381518110611406576114066143fd565b6020026020010151610731565b828281518110611425576114256143fd565b60209081029190910101526114398161443f565b90506113ce565b509392505050565b611450612a56565b600955565b61145d612a56565b600c548111156114d55760405162461bcd60e51b815260206004820152602d60248201527f496e646578206475206269656e20696d6d6f62696c69657220656e206465686f60448201527f7273206475207461626c6561750000000000000000000000000000000000000060648201526084016107ab565b6000818152600f6020526040902054156115315760405162461bcd60e51b815260206004820152601b60248201527f4c65206d696e7420612064656a6120657465206566666563747565000000000060448201526064016107ab565b61153c600082612da4565b50611548600182612da4565b50611554600282612da4565b50611560600382612da4565b506040518181527fff4078d3a7633c1bd56ae05b46cf944f917a32264ef635cbc026a7efe2e473689060200160405180910390a150565b61159f612a56565b610dc76000612f87565b83158015906115b757508115155b80156115c257508382145b61165a5760405162461bcd60e51b815260206004820152604260248201527f496e636f686572656e636520656e747265206c6573206361727465732063686f60448201527f6973696573206574206c6573207175616e74697465732072656e736569676e6560648201527f6573000000000000000000000000000000000000000000000000000000000000608482015260a4016107ab565b336116cd5760405162461bcd60e51b815260206004820152602360248201527f596f752063616e6e6f74206f726465722066726f6d207468697320616464726560448201527f737321000000000000000000000000000000000000000000000000000000000060648201526084016107ab565b3360006116e26005546001600160a01b031690565b905060606000805b88811015611878576000888883818110611706576117066143fd565b90506020020135116117805760405162461bcd60e51b815260206004820152602d60248201527f4c61207175616e7469746520646520746f6b656e20646f69742065747265207360448201527f757065726965757265206120300000000000000000000000000000000000000060648201526084016107ab565b60008a8a83818110611794576117946143fd565b9050602002013590506000600f600089815260200190815260200160002082600481106117c3576117c36143fd565b600702015490506117ee8882888d8d888181106117e2576117e26143fd565b90506020020135611cc7565b9350836118635760405162461bcd60e51b815260206004820152602e60248201527f4c61207175616e7469746520646520746f6b656e7320646574656e756520657360448201527f7420696e737566666973616e746500000000000000000000000000000000000060648201526084016107ab565b505080806118709061443f565b9150506116ea565b506002348111156118cb5760405162461bcd60e51b815260206004820152601260248201527f466f6e647320696e737566666973616e7473000000000000000000000000000060448201526064016107ab565b6000846001600160a01b03163460405160006040518083038185875af1925050503d8060008114611918576040519150601f19603f3d011682016040523d82523d6000602084013e61191d565b606091505b50509050806119945760405162461bcd60e51b815260206004820152603660248201527f4c6520706169656d656e74206465206c61207472616e73616374696f6e20766560448201527f7273206c6520636f6e747261742061206563686f75650000000000000000000060648201526084016107ab565b6119e18587868c8c80806020026020016040519081016040528093929190818152602001838360200280828437600092018290525060408051602081019091529081529250610ea8915050565b60005b8451811015611bb2576000888152600e6020526040812086518290889085908110611a1157611a116143fd565b602002602001015181526020019081526020016000206000886001600160a01b03166001600160a01b0316815260200190815260200160002090508a8a83818110611a5e57611a5e6143fd565b90506020020135816002016000828254611a789190614398565b90915550506003810180546001600160a01b03808a167fffffffffffffffffffffffff000000000000000000000000000000000000000092831617909255600483018054928b16929091169190911790556000898152600e6020526040812087518290899086908110611aed57611aed6143fd565b6020026020010151815260200190815260200160002060008a6001600160a01b03166001600160a01b0316815260200190815260200160002090508b8b84818110611b3a57611b3a6143fd565b90506020020135816002016000828254611b54919061442c565b90915550506003810180546001600160a01b038b167fffffffffffffffffffffffff00000000000000000000000000000000000000009182168117909255600490920180549092161790555080611baa8161443f565b9150506119e4565b50846001600160a01b0316866001600160a01b031685604051611bd59190614477565b60405180910390207ffc0eefd40bfb4ffff328e5ca79242ab8b399ebfc364dcff5974f0718f9441a398e8e8e8e89604051611c149594939291906144f8565b60405180910390a45050505050505050505050565b6000611c3d6005546001600160a01b031690565b905090565b600080601060009054906101000a90046001600160a01b03166001600160a01b031663feaf968c6040518163ffffffff1660e01b815260040160a060405180830381865afa158015611c98573d6000803e3d6000fd5b505050506040513d601f19601f82011682018060405250810190611cbc919061454c565b509195945050505050565b6000848152600e6020908152604080832086845282528083206001600160a01b0386168452909152812060028101548311611d06576001915050611d0c565b60009150505b949350505050565b600b8054610cb2906141cf565b600c8181548110611d3157600080fd5b60009182526020909120600690910201805460018201805491935090611d56906141cf565b80601f0160208091040260200160405190810160405280929190818152602001828054611d82906141cf565b8015611dcf5780601f10611da457610100808354040283529160200191611dcf565b820191906000526020600020905b815481529060010190602001808311611db257829003601f168201915b505050505090806002018054611de4906141cf565b80601f0160208091040260200160405190810160405280929190818152602001828054611e10906141cf565b8015611e5d5780601f10611e3257610100808354040283529160200191611e5d565b820191906000526020600020905b815481529060010190602001808311611e4057829003601f168201915b505050505090806003018054611e72906141cf565b80601f0160208091040260200160405190810160405280929190818152602001828054611e9e906141cf565b8015611eeb5780601f10611ec057610100808354040283529160200191611eeb565b820191906000526020600020905b815481529060010190602001808311611ece57829003601f168201915b505050505090806004018054611f00906141cf565b80601f0160208091040260200160405190810160405280929190818152602001828054611f2c906141cf565b8015611f795780601f10611f4e57610100808354040283529160200191611f79565b820191906000526020600020905b815481529060010190602001808311611f5c57829003601f168201915b5050505050908060050154905086565b611f94338383612ff1565b5050565b611fa0612a56565b600c548911156120185760405162461bcd60e51b815260206004820152602d60248201527f496e646578206475206269656e20696d6d6f62696c69657220656e206465686f60448201527f7273206475207461626c6561750000000000000000000000000000000000000060648201526084016107ab565b6064871080156120285750606486105b80156120345750606485105b6120a65760405162461bcd60e51b815260206004820152602360248201527f4572726575722c20756e2064657320706f757263656e7461676573206573742060448201527f612030000000000000000000000000000000000000000000000000000000000060648201526084016107ab565b603284101561211d5760405162461bcd60e51b815260206004820152603b60248201527f4572726575722c206c652070726978206d696e696d756d206465206c6120636160448201527f72746520434f545441474520646f69742065747265206465203530000000000060648201526084016107ab565b60648310156121945760405162461bcd60e51b815260206004820152603a60248201527f4572726575722c206c652070726978206d696e696d756d206465206c6120636160448201527f7274652056494c4c4120646f697420657472652064652031303000000000000060648201526084016107ab565b609682101561220b5760405162461bcd60e51b815260206004820152603c60248201527f4572726575722c206c652070726978206d696e696d756d206465206c6120636160448201527f727465204d414e53494f4e20646f69742065747265206465203135300000000060648201526084016107ab565b878061222857508615801561221e575085155b8015612228575084155b1561223a5760329650601e9550601494505b6000898152600f60209081526040808320815160e08101835284815292830184905290820187905260608201839052608082018a9052601e60a083015260c0820183905291829060070201600082015181600001556020820151816001015560408201518160020155606082015181600301556080820151816004015560a0820151816005015560c082015181600601559050506040518060e00160405280600181526020016000815260200185815260200160008152602001888152602001601e8152602001600081525081600160048110612319576123196143fd565b60070201600082015181600001556020820151816001015560408201518160020155606082015181600301556080820151816004015560a0820151816005015560c082015181600601559050506040518060e00160405280600281526020016000815260200184815260200160008152602001878152602001601e81526020016000815250816002600481106123b1576123b16143fd565b60070201600082015181600001556020820151816001015560408201518160020155606082015181600301556080820151816004015560a0820151816005015560c082015181600601559050506040518060e0016040528060038152602001600081526020018381526020016001815260200160008152602001601e815260200160008152508160036004811061244a5761244a6143fd565b60070201600082015181600001556020820151816001015560408201518160020155606082015181600301556080820151816004015560a0820151816005015560c0820151816006015590505060008260016124a691906143ab565b600c8c815481106124b9576124b96143fd565b9060005260206000209060060201600501546124d59190614398565b9050606460005b600381101561257b5760008d8152600f602052604081208260048110612504576125046143fd565b600702019050806003015460000361256857600083826004015461252891906143ab565b905060006125378560646143ab565b61254183886143ab565b61254b91906143c2565b9050600083600201548261255f91906143c2565b60038501555050505b50806125738161443f565b9150506124dc565b506003830154600a8401547f01f6ecbad523aa4ebc65b0e3c80ebd687c182bea84d78431cac0754a2fd7c192918e918660026007020160030154876003600481106125c8576125c86143fd565b60070201600301546040516125ff959493929190948552602085019390935260408401919091526060830152608082015260a00190565b60405180910390a1505050505050505050505050565b6001600160a01b03851633148061263157506126318533610681565b6126a35760405162461bcd60e51b815260206004820152602e60248201527f455243313135353a2063616c6c6572206973206e6f7420746f6b656e206f776e60448201527f6572206f7220617070726f76656400000000000000000000000000000000000060648201526084016107ab565b610f438585858585613103565b6126b8612a56565b6001600160a01b0381166127345760405162461bcd60e51b815260206004820152602660248201527f4f776e61626c653a206e6577206f776e657220697320746865207a65726f206160448201527f646472657373000000000000000000000000000000000000000000000000000060648201526084016107ab565b61130781612f87565b6127766040518060c001604052806000815260200160608152602001606081526020016060815260200160608152602001600081525090565b600c5482106127c75760405162461bcd60e51b815260206004820152601a60248201527f4269656e20696d6d6f62696c69657220696e6578697374616e7400000000000060448201526064016107ab565b600c82815481106127da576127da6143fd565b90600052602060002090600602016040518060c00160405290816000820154815260200160018201805461280d906141cf565b80601f0160208091040260200160405190810160405280929190818152602001828054612839906141cf565b80156128865780601f1061285b57610100808354040283529160200191612886565b820191906000526020600020905b81548152906001019060200180831161286957829003601f168201915b5050505050815260200160028201805461289f906141cf565b80601f01602080910402602001604051908101604052809291908181526020018280546128cb906141cf565b80156129185780601f106128ed57610100808354040283529160200191612918565b820191906000526020600020905b8154815290600101906020018083116128fb57829003601f168201915b50505050508152602001600382018054612931906141cf565b80601f016020809104026020016040519081016040528092919081815260200182805461295d906141cf565b80156129aa5780601f1061297f576101008083540402835291602001916129aa565b820191906000526020600020905b81548152906001019060200180831161298d57829003601f168201915b505050505081526020016004820180546129c3906141cf565b80601f01602080910402602001604051908101604052809291908181526020018280546129ef906141cf565b8015612a3c5780601f10612a1157610100808354040283529160200191612a3c565b820191906000526020600020905b815481529060010190602001808311612a1f57829003601f168201915b505050505081526020016005820154815250509050919050565b6005546001600160a01b03163314610dc75760405162461bcd60e51b815260206004820181905260248201527f4f776e61626c653a2063616c6c6572206973206e6f7420746865206f776e657260448201526064016107ab565b60007fffffffff0000000000000000000000000000000000000000000000000000000082167f2a55205a0000000000000000000000000000000000000000000000000000000014806107d757506107d7826132d9565b8151835114612b7d5760405162461bcd60e51b815260206004820152602860248201527f455243313135353a2069647320616e6420616d6f756e7473206c656e6774682060448201527f6d69736d6174636800000000000000000000000000000000000000000000000060648201526084016107ab565b6001600160a01b038416612bf95760405162461bcd60e51b815260206004820152602560248201527f455243313135353a207472616e7366657220746f20746865207a65726f20616460448201527f647265737300000000000000000000000000000000000000000000000000000060648201526084016107ab565b3360005b8451811015612d36576000858281518110612c1a57612c1a6143fd565b602002602001015190506000858381518110612c3857612c386143fd565b602090810291909101810151600084815280835260408082206001600160a01b038e168352909352919091205490915081811015612cde5760405162461bcd60e51b815260206004820152602a60248201527f455243313135353a20696e73756666696369656e742062616c616e636520666f60448201527f72207472616e736665720000000000000000000000000000000000000000000060648201526084016107ab565b6000838152602081815260408083206001600160a01b038e8116855292528083208585039055908b16825281208054849290612d1b90849061442c565b9250508190555050505080612d2f9061443f565b9050612bfd565b50846001600160a01b0316866001600160a01b0316826001600160a01b03167f4a39dc06d4c0dbc64b70af90fd698a233a518aa5d07e595d983b8c0526c8f7fb8787604051612d8692919061459c565b60405180910390a4612d9c8187878787876133bc565b505050505050565b6000612dae612a56565b612dbc600780546001019055565b6000612dc760075490565b90506000612ddd6005546001600160a01b031690565b6000858152600f60205260408120919250908660048110612e0057612e006143fd565b6007020160030154905082600f60008781526020019081526020016000208760048110612e2f57612e2f6143fd565b6007020155604080516020810190915260008152612e52908390859084906135c9565b6000858152600f60205260408120612e819084908960048110612e7757612e776143fd565b6007020154610731565b6000878152600e6020908152604080832088845282528083206001600160a01b038816845282528083208a8452600f909252909120919250908860048110612ecb57612ecb6143fd565b600702015481556000878152600f602052604090208860048110612ef157612ef16143fd565b6007020160029081015460018301558101829055600480820180547fffffffffffffffffffffffff00000000000000000000000000000000000000009081166001600160a01b03881690811790925560038401805490911690911790556000888152600f6020526040902083918a908110612f6e57612f6e6143fd565b6007020160060181905550849550505050505092915050565b600580546001600160a01b038381167fffffffffffffffffffffffff0000000000000000000000000000000000000000831681179093556040519116919082907f8be0079c531659141344cd1fd0a4f28419497f9722a3daafe3b4186f6b6457e090600090a35050565b816001600160a01b0316836001600160a01b0316036130785760405162461bcd60e51b815260206004820152602960248201527f455243313135353a2073657474696e6720617070726f76616c2073746174757360448201527f20666f722073656c66000000000000000000000000000000000000000000000060648201526084016107ab565b6001600160a01b0383811660008181526001602090815260408083209487168084529482529182902080547fffffffffffffffffffffffffffffffffffffffffffffffffffffffffffffff001686151590811790915591519182527f17307eab39ab6107e8899845ad3d59bd9653f200f220920489ca2b5937696c31910160405180910390a3505050565b6001600160a01b03841661317f5760405162461bcd60e51b815260206004820152602560248201527f455243313135353a207472616e7366657220746f20746865207a65726f20616460448201527f647265737300000000000000000000000000000000000000000000000000000060648201526084016107ab565b33600061318b856136f0565b90506000613198856136f0565b90506000868152602081815260408083206001600160a01b038c168452909152902054858110156132315760405162461bcd60e51b815260206004820152602a60248201527f455243313135353a20696e73756666696369656e742062616c616e636520666f60448201527f72207472616e736665720000000000000000000000000000000000000000000060648201526084016107ab565b6000878152602081815260408083206001600160a01b038d8116855292528083208985039055908a1682528120805488929061326e90849061442c565b909155505060408051888152602081018890526001600160a01b03808b16928c821692918816917fc3d58168c5ae7397731d063d5bbf3d657854427343f4c083240f7aacaa2d0f62910160405180910390a46132ce848a8a8a8a8a61373b565b505050505050505050565b60007fffffffff0000000000000000000000000000000000000000000000000000000082167fd9b67a2600000000000000000000000000000000000000000000000000000000148061336c57507fffffffff0000000000000000000000000000000000000000000000000000000082167f0e89341c00000000000000000000000000000000000000000000000000000000145b806107d757507f01ffc9a7000000000000000000000000000000000000000000000000000000007fffffffff000000000000000000000000000000000000000000000000000000008316146107d7565b6001600160a01b0384163b15612d9c576040517fbc197c810000000000000000000000000000000000000000000000000000000081526001600160a01b0385169063bc197c819061341990899089908890889088906004016145ca565b6020604051808303816000875af1925050508015613454575060408051601f3d908101601f1916820190925261345191810190614628565b60015b61350957613460614645565b806308c379a0036134995750613474614661565b8061347f575061349b565b8060405162461bcd60e51b81526004016107ab9190613b2e565b505b60405162461bcd60e51b815260206004820152603460248201527f455243313135353a207472616e7366657220746f206e6f6e2d4552433131353560448201527f526563656976657220696d706c656d656e74657200000000000000000000000060648201526084016107ab565b7fffffffff0000000000000000000000000000000000000000000000000000000081167fbc197c8100000000000000000000000000000000000000000000000000000000146135c05760405162461bcd60e51b815260206004820152602860248201527f455243313135353a204552433131353552656365697665722072656a6563746560448201527f6420746f6b656e7300000000000000000000000000000000000000000000000060648201526084016107ab565b50505050505050565b6001600160a01b0384166136455760405162461bcd60e51b815260206004820152602160248201527f455243313135353a206d696e7420746f20746865207a65726f2061646472657360448201527f730000000000000000000000000000000000000000000000000000000000000060648201526084016107ab565b336000613651856136f0565b9050600061365e856136f0565b90506000868152602081815260408083206001600160a01b038b1684529091528120805487929061369090849061442c565b909155505060408051878152602081018790526001600160a01b03808a1692600092918716917fc3d58168c5ae7397731d063d5bbf3d657854427343f4c083240f7aacaa2d0f62910160405180910390a46135c08360008989898961373b565b6040805160018082528183019092526060916000919060208083019080368337019050509050828160008151811061372a5761372a6143fd565b602090810291909101015292915050565b6001600160a01b0384163b15612d9c576040517ff23a6e610000000000000000000000000000000000000000000000000000000081526001600160a01b0385169063f23a6e61906137989089908990889088908890600401614709565b6020604051808303816000875af19250505080156137d3575060408051601f3d908101601f191682019092526137d091810190614628565b60015b6137df57613460614645565b7fffffffff0000000000000000000000000000000000000000000000000000000081167ff23a6e6100000000000000000000000000000000000000000000000000000000146135c05760405162461bcd60e51b815260206004820152602860248201527f455243313135353a204552433131353552656365697665722072656a6563746560448201527f6420746f6b656e7300000000000000000000000000000000000000000000000060648201526084016107ab565b80356001600160a01b03811681146138ad57600080fd5b919050565b600080604083850312156138c557600080fd5b6138ce83613896565b946020939093013593505050565b7f4e487b7100000000000000000000000000000000000000000000000000000000600052604160045260246000fd5b601f19601f830116810181811067ffffffffffffffff82111715613931576139316138dc565b6040525050565b600082601f83011261394957600080fd5b813567ffffffffffffffff811115613963576139636138dc565b60405161397a6020601f19601f850116018261390b565b81815284602083860101111561398f57600080fd5b816020850160208301376000918101602001919091529392505050565b600080600080600060a086880312156139c457600080fd5b853567ffffffffffffffff808211156139dc57600080fd5b6139e889838a01613938565b965060208801359150808211156139fe57600080fd5b613a0a89838a01613938565b95506040880135915080821115613a2057600080fd5b613a2c89838a01613938565b94506060880135915080821115613a4257600080fd5b50613a4f88828901613938565b95989497509295608001359392505050565b7fffffffff000000000000000000000000000000000000000000000000000000008116811461130757600080fd5b600060208284031215613aa157600080fd5b8135613aac81613a61565b9392505050565b600080600060608486031215613ac857600080fd5b8335925060208401359150613adf60408501613896565b90509250925092565b6000815180845260005b81811015613b0e57602081850181015186830182015201613af2565b506000602082860101526020601f19601f83011685010191505092915050565b602081526000613aac6020830184613ae8565b600060208284031215613b5357600080fd5b5035919050565b60008060408385031215613b6d57600080fd5b50508035926020909101359150565b600067ffffffffffffffff821115613b9657613b966138dc565b5060051b60200190565b600082601f830112613bb157600080fd5b81356020613bbe82613b7c565b604051613bcb828261390b565b83815260059390931b8501820192828101915086841115613beb57600080fd5b8286015b8481101561126b5780358352918301918301613bef565b600080600080600060a08688031215613c1e57600080fd5b613c2786613896565b9450613c3560208701613896565b9350604086013567ffffffffffffffff80821115613c5257600080fd5b613c5e89838a01613ba0565b94506060880135915080821115613c7457600080fd5b613c8089838a01613ba0565b93506080880135915080821115613c9657600080fd5b50613ca388828901613938565b9150509295509295909350565b60008083601f840112613cc257600080fd5b50813567ffffffffffffffff811115613cda57600080fd5b6020830191508360208260051b8501011115610ea157600080fd5b600080600080600060608688031215613d0d57600080fd5b85359450602086013567ffffffffffffffff80821115613d2c57600080fd5b613d3889838a01613cb0565b90965094506040880135915080821115613d5157600080fd5b50613d5e88828901613cb0565b969995985093965092949392505050565b60008060408385031215613d8257600080fd5b823567ffffffffffffffff80821115613d9a57600080fd5b818501915085601f830112613dae57600080fd5b81356020613dbb82613b7c565b604051613dc8828261390b565b83815260059390931b8501820192828101915089841115613de857600080fd5b948201945b83861015613e0d57613dfe86613896565b82529482019490820190613ded565b96505086013592505080821115613e2357600080fd5b50613e3085828601613ba0565b9150509250929050565b600081518084526020808501945080840160005b83811015613e6a57815187529582019590820190600101613e4e565b509495945050505050565b602081526000613aac6020830184613e3a565b600080600080600060608688031215613ea057600080fd5b853567ffffffffffffffff80821115613eb857600080fd5b613ec489838a01613cb0565b90975095506020880135915080821115613edd57600080fd5b50613eea88828901613cb0565b96999598509660400135949350505050565b60008060008060808587031215613f1257600080fd5b8435935060208501359250613f2960408601613896565b9396929550929360600135925050565b86815260c060208201526000613f5260c0830188613ae8565b8281036040840152613f648188613ae8565b90508281036060840152613f788187613ae8565b90508281036080840152613f8c8186613ae8565b9150508260a0830152979650505050505050565b803580151581146138ad57600080fd5b60008060408385031215613fc357600080fd5b613fcc83613896565b9150613fda60208401613fa0565b90509250929050565b60008060008060008060008060006101208a8c03121561400257600080fd5b8935985061401260208b01613fa0565b989b989a505050506040870135966060810135966080820135965060a0820135955060c0820135945060e08201359350610100909101359150565b6000806000806080858703121561406357600080fd5b61406c85613896565b935061407a60208601613896565b93969395505050506040820135916060013590565b600080604083850312156140a257600080fd5b6140ab83613896565b9150613fda60208401613896565b600080600080600060a086880312156140d157600080fd5b6140da86613896565b94506140e860208701613896565b93506040860135925060608601359150608086013567ffffffffffffffff81111561411257600080fd5b613ca388828901613938565b60006020828403121561413057600080fd5b613aac82613896565b60208152815160208201526000602083015160c0604084015261415f60e0840182613ae8565b90506040840151601f198085840301606086015261417d8383613ae8565b9250606086015191508085840301608086015261419a8383613ae8565b925060808601519150808584030160a0860152506141b88282613ae8565b91505060a084015160c08401528091505092915050565b600181811c908216806141e357607f821691505b60208210810361421c577f4e487b7100000000000000000000000000000000000000000000000000000000600052602260045260246000fd5b50919050565b601f82111561426857600081815260208120601f850160051c810160208610156142495750805b601f850160051c820191505b81811015612d9c57828155600101614255565b505050565b815167ffffffffffffffff811115614287576142876138dc565b61429b8161429584546141cf565b84614222565b602080601f8311600181146142ee57600084156142b85750858301515b7fffffffffffffffffffffffffffffffffffffffffffffffffffffffffffffffff600386901b1c1916600185901b178555612d9c565b600085815260208120601f198616915b8281101561431d578886015182559484019460019091019084016142fe565b508582101561435957878501517fffffffffffffffffffffffffffffffffffffffffffffffffffffffffffffffff600388901b60f8161c191681555b5050505050600190811b01905550565b7f4e487b7100000000000000000000000000000000000000000000000000000000600052601160045260246000fd5b818103818111156107d7576107d7614369565b80820281158282048414176107d7576107d7614369565b6000826143f8577f4e487b7100000000000000000000000000000000000000000000000000000000600052601260045260246000fd5b500490565b7f4e487b7100000000000000000000000000000000000000000000000000000000600052603260045260246000fd5b808201808211156107d7576107d7614369565b60007fffffffffffffffffffffffffffffffffffffffffffffffffffffffffffffffff820361447057614470614369565b5060010190565b815160009082906020808601845b838110156144a157815185529382019390820190600101614485565b50929695505050505050565b81835260007f07ffffffffffffffffffffffffffffffffffffffffffffffffffffffffffffff8311156144df57600080fd5b8260051b80836020870137939093016020019392505050565b60608152600061450c6060830187896144ad565b828103602084015261451f8186886144ad565b9150508260408301529695505050505050565b805169ffffffffffffffffffff811681146138ad57600080fd5b600080600080600060a0868803121561456457600080fd5b61456d86614532565b945060208601519350604086015192506060860151915061459060808701614532565b90509295509295909350565b6040815260006145af6040830185613e3a565b82810360208401526145c18185613e3a565b95945050505050565b60006001600160a01b03808816835280871660208401525060a060408301526145f660a0830186613e3a565b82810360608401526146088186613e3a565b9050828103608084015261461c8185613ae8565b98975050505050505050565b60006020828403121561463a57600080fd5b8151613aac81613a61565b600060033d111561465e5760046000803e5060005160e01c5b90565b600060443d101561466f5790565b6040517ffffffffffffffffffffffffffffffffffffffffffffffffffffffffffffffffc803d016004833e81513d67ffffffffffffffff81602484011181841117156146bd57505050505090565b82850191508151818111156146d55750505050505090565b843d87010160208285010111156146ef5750505050505090565b6146fe6020828601018761390b565b509095945050505050565b60006001600160a01b03808816835280871660208401525084604083015283606083015260a0608083015261474160a0830184613ae8565b97965050505050505056fea26469706673582212205454e48bd9d28813e9f5a6ed6cb025b3bfd0d31c65e6464eba1075ca03f5b53064736f6c6343000811003368747470733a2f2f676174657761792e70696e6174612e636c6f75642f697066732f516d57513567624468463539766f6e6753676d514a4d595269695670586d647559415539676666774454776e63612f7b69647d2e6a736f6e",
  "immutableReferences": {},
  "source": "// SPDX-License-Identifier: MIT\npragma solidity 0.8.17;\n\nimport \"../node_modules/@openzeppelin/contracts/token/ERC1155/IERC1155.sol\";\nimport \"../node_modules/@openzeppelin/contracts/utils/Counters.sol\";\n// import \"@openzeppelin/contracts/utils/introspection/ERC165.sol\";\nimport \"../node_modules/@openzeppelin/contracts/access/Ownable.sol\";\nimport \"../node_modules/@chainlink/contracts/src/v0.8/interfaces/AggregatorV3Interface.sol\";\nimport \"../node_modules/@openzeppelin/contracts/security/ReentrancyGuard.sol\";\n\nimport \"./Rock.sol\";\n\ncontract Marketplace is Rock {\n    // Events\n    event CardPurchased(\n        uint256[] indexed tokenId,\n        address indexed buyer,\n        address indexed seller,\n        uint256[] cardsId,\n        uint256[] quantities,\n        uint256 totalPrice\n    );\n\n    // Cette fonction doit mettre  jour les differentes balances aprs un achat ou aprs une vente\n    function updateBalances() private onlyOwner {}\n\n    function distribute() private onlyOwner {}\n\n    // Dans le cadre d'une vente, si Alice achete 2 cartes COTTAGE  BOB, on vrifie que Bob dtient bien ces 2 cartes\n    function verifyUserQuantityIsAvailable(\n        uint256 _indexRealEstateInCollection,\n        uint256 tokenId,\n        address sellerAddress,\n        uint256 askedQuantity\n    ) public view returns (bool) {\n        NFTCard storage userCard = usersCardsNfts[_indexRealEstateInCollection][\n            tokenId\n        ][sellerAddress];\n        if (askedQuantity <= userCard.quantity) {\n            return true;\n        }\n        return false;\n    }\n\n    /// Fonction permettant d'acheter une ou plusieurs cartes NFT\n    function confirmBuy(\n        uint256[] calldata _cardsId,\n        uint256[] calldata _quantities,\n        uint256 _indexRealEstateInCollection\n    ) external payable {\n        require(\n            _cardsId.length > 0 &&\n                _quantities.length > 0 &&\n                _cardsId.length == _quantities.length,\n            \"Incoherence entre les cartes choisies et les quantites renseignees\"\n        );\n        require(\n            msg.sender != address(0),\n            \"You cannot order from this address!\"\n        );\n\n        address buyer = payable(msg.sender);\n        address seller = payable(owner());\n\n        uint256[] memory tokenIds;\n        bool amountAvailable = false;\n        for (uint256 i = 0; i < _cardsId.length; i++) {\n            require(\n                _quantities[i] > 0,\n                \"La quantite de token doit etre superieure a 0\"\n            );\n            // Carte achete\n            uint256 cardId = _cardsId[i];\n            // Token id correspondant pour pouvoir etre transfert a l'acheteur\n            uint256 tokenId = cards[_indexRealEstateInCollection][cardId]\n                .tokenId;\n\n            // Vrification de la balance du vendeur\n            amountAvailable = verifyUserQuantityIsAvailable(\n                _indexRealEstateInCollection,\n                tokenId,\n                seller,\n                _quantities[i]\n            );\n            require(\n                amountAvailable,\n                \"La quantite de tokens detenue est insuffisante\"\n            );\n        }\n\n        // Calcul du prix total et on vrifie que la balance est suffisante pour procder au transfert des tokens\n        // uint256 totalPrice = calculeTotalPrice(_indexRealEstateInCollection, _cardsId, _quantities);\n        uint256 totalPrice = 2;\n        require(msg.value >= totalPrice, \"Fonds insuffisants\");\n\n        // L'acheteur (msg.sender) envoie 2 ethers au propitaire du NFT\n        (bool sentToPlateform, ) = payable(seller).call{value: msg.value}(\"\");\n        // La transaction doit avoir reussi pour ontinuer le transfert des NFT\n        require(\n            sentToPlateform,\n            \"Le paiement de la transaction vers le contrat a echoue\"\n        );\n\n        // Transfert des tokens vers l'acheteur\n        safeBatchTransferFrom(seller, buyer, tokenIds, _quantities, \"\");\n\n        // MAJ des balances\n        for (uint256 i = 0; i < tokenIds.length; i++) {\n            // Mise  jour de la balance du vendeur\n            NFTCard storage sellerTokens = usersCardsNfts[\n                _indexRealEstateInCollection\n            ][tokenIds[i]][seller];\n            sellerTokens.quantity -= _quantities[i];\n            sellerTokens.seller = payable(seller);\n            sellerTokens.owner = payable(buyer);\n\n            // Mise  jour de la balance de l'acheteur\n            NFTCard storage buyTokens = usersCardsNfts[\n                _indexRealEstateInCollection\n            ][tokenIds[i]][buyer];\n            buyTokens.quantity += _quantities[i];\n            buyTokens.seller = payable(buyer);\n            buyTokens.owner = payable(buyer);\n        }\n\n        emit CardPurchased(\n            tokenIds,\n            buyer,\n            seller,\n            _cardsId,\n            _quantities,\n            totalPrice\n        );\n    }\n\n    function sellTokens(\n        address _from,\n        address _to,\n        uint256 _id,\n        uint256 _amount\n    ) public returns (uint256) {\n        // Une vente peut tre ralise si les tokens detenus par le vendeur ont plus de 6 mois ?\n\n        return 0;\n    }\n\n    function fetchAll() public view {}\n\n    function fetchMyNfts() public view {}\n\n    // Le contrat pourra recevoir des fonds\n    receive() external payable {}\n}\n",
  "sourcePath": "/home/anicaise/Formation/Alyra/Rock/truffle/contracts/Marketplace.sol",
  "compiler": {
    "name": "solc",
    "version": "0.8.17+commit.8df45f5f.Emscripten.clang"
  },
  "schemaVersion": "3.4.10",
  "updatedAt": "2022-12-09T18:14:59.746Z",
  "devdoc": {
    "kind": "dev",
    "methods": {
      "balanceOf(address,uint256)": {
        "details": "See {IERC1155-balanceOf}. Requirements: - `account` cannot be the zero address."
      },
      "balanceOfBatch(address[],uint256[])": {
        "details": "See {IERC1155-balanceOfBatch}. Requirements: - `accounts` and `ids` must have the same length."
      },
      "getRealEstatesCollectionCount()": {
        "returns": {
          "_0": "uint256 Count of proposals"
        }
      },
      "isApprovedForAll(address,address)": {
        "details": "See {IERC1155-isApprovedForAll}."
      },
      "owner()": {
        "details": "Returns the address of the current owner."
      },
      "renounceOwnership()": {
        "details": "Leaves the contract without owner. It will not be possible to call `onlyOwner` functions anymore. Can only be called by the current owner. NOTE: Renouncing ownership will leave the contract without an owner, thereby removing any functionality that is only available to the owner."
      },
      "royaltyInfo(uint256,uint256)": {
        "details": "Returns how much royalty is owed and to whom, based on a sale price that may be denominated in any unit of exchange. The royalty amount is denominated and should be paid in that same unit of exchange."
      },
      "safeBatchTransferFrom(address,address,uint256[],uint256[],bytes)": {
        "details": "See {IERC1155-safeBatchTransferFrom}."
      },
      "safeTransferFrom(address,address,uint256,uint256,bytes)": {
        "details": "See {IERC1155-safeTransferFrom}."
      },
      "setApprovalForAll(address,bool)": {
        "details": "See {IERC1155-setApprovalForAll}."
      },
      "transferOwnership(address)": {
        "details": "Transfers ownership of the contract to a new account (`newOwner`). Can only be called by the current owner."
      },
      "uri(uint256)": {
        "details": "See {IERC1155MetadataURI-uri}. This implementation returns the same URI for *all* token types. It relies on the token type ID substitution mechanism https://eips.ethereum.org/EIPS/eip-1155#metadata[defined in the EIP]. Clients calling this function must replace the `\\{id\\}` substring with the actual token type ID."
      }
    },
    "version": 1
  },
  "userdoc": {
    "kind": "user",
    "methods": {
      "confirmBuy(uint256[],uint256[],uint256)": {
        "notice": "Fonction permettant d'acheter une ou plusieurs cartes NFT"
      },
      "getLatestPrice()": {
        "notice": "Returns the latest price MATIC/USD"
      },
      "getRealEstatesCollectionCount()": {
        "notice": "Return the count of proposals"
      }
    },
    "version": 1
  }
}