{
  "contractName": "Marketplace",
  "abi": [
    {
      "anonymous": false,
      "inputs": [
        {
          "indexed": true,
          "internalType": "address",
          "name": "account",
          "type": "address"
        },
        {
          "indexed": true,
          "internalType": "address",
          "name": "operator",
          "type": "address"
        },
        {
          "indexed": false,
          "internalType": "bool",
          "name": "approved",
          "type": "bool"
        }
      ],
      "name": "ApprovalForAll",
      "type": "event"
    },
    {
      "anonymous": false,
      "inputs": [
        {
          "indexed": true,
          "internalType": "uint256[]",
          "name": "tokenId",
          "type": "uint256[]"
        },
        {
          "indexed": true,
          "internalType": "address",
          "name": "buyer",
          "type": "address"
        },
        {
          "indexed": true,
          "internalType": "address",
          "name": "seller",
          "type": "address"
        },
        {
          "indexed": false,
          "internalType": "uint256[]",
          "name": "cardsId",
          "type": "uint256[]"
        },
        {
          "indexed": false,
          "internalType": "uint256[]",
          "name": "quantities",
          "type": "uint256[]"
        },
        {
          "indexed": false,
          "internalType": "uint256",
          "name": "totalPrice",
          "type": "uint256"
        }
      ],
      "name": "CardPurchased",
      "type": "event"
    },
    {
      "anonymous": false,
      "inputs": [
        {
          "indexed": true,
          "internalType": "address",
          "name": "previousOwner",
          "type": "address"
        },
        {
          "indexed": true,
          "internalType": "address",
          "name": "newOwner",
          "type": "address"
        }
      ],
      "name": "OwnershipTransferred",
      "type": "event"
    },
    {
      "anonymous": false,
      "inputs": [
        {
          "indexed": false,
          "internalType": "uint256",
          "name": "idRealEstate",
          "type": "uint256"
        }
      ],
      "name": "RealEstateAdded",
      "type": "event"
    },
    {
      "anonymous": false,
      "inputs": [
        {
          "indexed": true,
          "internalType": "address",
          "name": "operator",
          "type": "address"
        },
        {
          "indexed": true,
          "internalType": "address",
          "name": "from",
          "type": "address"
        },
        {
          "indexed": true,
          "internalType": "address",
          "name": "to",
          "type": "address"
        },
        {
          "indexed": false,
          "internalType": "uint256[]",
          "name": "ids",
          "type": "uint256[]"
        },
        {
          "indexed": false,
          "internalType": "uint256[]",
          "name": "values",
          "type": "uint256[]"
        }
      ],
      "name": "TransferBatch",
      "type": "event"
    },
    {
      "anonymous": false,
      "inputs": [
        {
          "indexed": true,
          "internalType": "address",
          "name": "operator",
          "type": "address"
        },
        {
          "indexed": true,
          "internalType": "address",
          "name": "from",
          "type": "address"
        },
        {
          "indexed": true,
          "internalType": "address",
          "name": "to",
          "type": "address"
        },
        {
          "indexed": false,
          "internalType": "uint256",
          "name": "id",
          "type": "uint256"
        },
        {
          "indexed": false,
          "internalType": "uint256",
          "name": "value",
          "type": "uint256"
        }
      ],
      "name": "TransferSingle",
      "type": "event"
    },
    {
      "anonymous": false,
      "inputs": [
        {
          "indexed": false,
          "internalType": "string",
          "name": "value",
          "type": "string"
        },
        {
          "indexed": true,
          "internalType": "uint256",
          "name": "id",
          "type": "uint256"
        }
      ],
      "name": "URI",
      "type": "event"
    },
    {
      "anonymous": false,
      "inputs": [
        {
          "indexed": false,
          "internalType": "uint256",
          "name": "idToken",
          "type": "uint256"
        },
        {
          "indexed": false,
          "internalType": "uint256",
          "name": "supplyCottage",
          "type": "uint256"
        },
        {
          "indexed": false,
          "internalType": "uint256",
          "name": "supplyVilla",
          "type": "uint256"
        },
        {
          "indexed": false,
          "internalType": "uint256",
          "name": "supplyMansion",
          "type": "uint256"
        },
        {
          "indexed": false,
          "internalType": "uint256",
          "name": "supplyHighRise",
          "type": "uint256"
        }
      ],
      "name": "supplyCardsCalculated",
      "type": "event"
    },
    {
      "anonymous": false,
      "inputs": [
        {
          "indexed": false,
          "internalType": "uint256",
          "name": "idRealEstate",
          "type": "uint256"
        }
      ],
      "name": "tokenMinted",
      "type": "event"
    },
    {
      "inputs": [
        {
          "internalType": "uint256",
          "name": "",
          "type": "uint256"
        }
      ],
      "name": "Listings",
      "outputs": [
        {
          "internalType": "uint256",
          "name": "tokenId",
          "type": "uint256"
        },
        {
          "internalType": "uint256",
          "name": "price",
          "type": "uint256"
        },
        {
          "internalType": "uint256",
          "name": "quantity",
          "type": "uint256"
        },
        {
          "internalType": "address payable",
          "name": "seller",
          "type": "address"
        },
        {
          "internalType": "address payable",
          "name": "owner",
          "type": "address"
        }
      ],
      "stateMutability": "view",
      "type": "function"
    },
    {
      "inputs": [
        {
          "internalType": "string",
          "name": "_name",
          "type": "string"
        },
        {
          "internalType": "string",
          "name": "_location",
          "type": "string"
        },
        {
          "internalType": "string",
          "name": "_city",
          "type": "string"
        },
        {
          "internalType": "uint256",
          "name": "_price",
          "type": "uint256"
        }
      ],
      "name": "addRealEstate",
      "outputs": [],
      "stateMutability": "nonpayable",
      "type": "function"
    },
    {
      "inputs": [
        {
          "internalType": "address",
          "name": "account",
          "type": "address"
        },
        {
          "internalType": "uint256",
          "name": "id",
          "type": "uint256"
        }
      ],
      "name": "balanceOf",
      "outputs": [
        {
          "internalType": "uint256",
          "name": "",
          "type": "uint256"
        }
      ],
      "stateMutability": "view",
      "type": "function"
    },
    {
      "inputs": [
        {
          "internalType": "address[]",
          "name": "accounts",
          "type": "address[]"
        },
        {
          "internalType": "uint256[]",
          "name": "ids",
          "type": "uint256[]"
        }
      ],
      "name": "balanceOfBatch",
      "outputs": [
        {
          "internalType": "uint256[]",
          "name": "",
          "type": "uint256[]"
        }
      ],
      "stateMutability": "view",
      "type": "function"
    },
    {
      "inputs": [
        {
          "internalType": "uint256",
          "name": "_indexRealEstateInCollection",
          "type": "uint256"
        },
        {
          "internalType": "bool",
          "name": "_isDefaultSupply",
          "type": "bool"
        },
        {
          "internalType": "uint256",
          "name": "_ratioTokenCottage",
          "type": "uint256"
        },
        {
          "internalType": "uint256",
          "name": "_ratioTokenVilla",
          "type": "uint256"
        },
        {
          "internalType": "uint256",
          "name": "_ratioTokenMansion",
          "type": "uint256"
        },
        {
          "internalType": "uint256",
          "name": "_prixTokenCottage",
          "type": "uint256"
        },
        {
          "internalType": "uint256",
          "name": "_prixTokenVilla",
          "type": "uint256"
        },
        {
          "internalType": "uint256",
          "name": "_prixTokenMansion",
          "type": "uint256"
        },
        {
          "internalType": "uint256",
          "name": "_prixTokenHighRise",
          "type": "uint256"
        }
      ],
      "name": "calculateNumberOfTokens",
      "outputs": [],
      "stateMutability": "nonpayable",
      "type": "function"
    },
    {
      "inputs": [
        {
          "internalType": "uint256",
          "name": "_indexRealEstateInCollection",
          "type": "uint256"
        },
        {
          "internalType": "uint256[]",
          "name": "_cardsId",
          "type": "uint256[]"
        },
        {
          "internalType": "uint256[]",
          "name": "_amounts",
          "type": "uint256[]"
        }
      ],
      "name": "calculeTotalPrice",
      "outputs": [
        {
          "internalType": "uint256",
          "name": "",
          "type": "uint256"
        }
      ],
      "stateMutability": "view",
      "type": "function"
    },
    {
      "inputs": [
        {
          "internalType": "uint256",
          "name": "_amount",
          "type": "uint256"
        }
      ],
      "name": "getLastPairMaticUsd",
      "outputs": [
        {
          "internalType": "uint256",
          "name": "",
          "type": "uint256"
        }
      ],
      "stateMutability": "view",
      "type": "function"
    },
    {
      "inputs": [],
      "name": "getLatestPrice",
      "outputs": [
        {
          "internalType": "uint256",
          "name": "",
          "type": "uint256"
        }
      ],
      "stateMutability": "view",
      "type": "function"
    },
    {
      "inputs": [
        {
          "internalType": "uint256",
          "name": "_index",
          "type": "uint256"
        }
      ],
      "name": "getRealStateById",
      "outputs": [
        {
          "components": [
            {
              "internalType": "uint256",
              "name": "id",
              "type": "uint256"
            },
            {
              "internalType": "string",
              "name": "name",
              "type": "string"
            },
            {
              "internalType": "string",
              "name": "location",
              "type": "string"
            },
            {
              "internalType": "string",
              "name": "city",
              "type": "string"
            },
            {
              "internalType": "uint256",
              "name": "price",
              "type": "uint256"
            },
            {
              "internalType": "uint256",
              "name": "numberOfLike",
              "type": "uint256"
            }
          ],
          "internalType": "struct Rock.RealEstate",
          "name": "",
          "type": "tuple"
        }
      ],
      "stateMutability": "view",
      "type": "function"
    },
    {
      "inputs": [
        {
          "internalType": "address",
          "name": "account",
          "type": "address"
        },
        {
          "internalType": "address",
          "name": "operator",
          "type": "address"
        }
      ],
      "name": "isApprovedForAll",
      "outputs": [
        {
          "internalType": "bool",
          "name": "",
          "type": "bool"
        }
      ],
      "stateMutability": "view",
      "type": "function"
    },
    {
      "inputs": [
        {
          "internalType": "uint256",
          "name": "_indexRealEstateInCollection",
          "type": "uint256"
        }
      ],
      "name": "mintRealEstateCollection",
      "outputs": [],
      "stateMutability": "nonpayable",
      "type": "function"
    },
    {
      "inputs": [],
      "name": "name",
      "outputs": [
        {
          "internalType": "string",
          "name": "",
          "type": "string"
        }
      ],
      "stateMutability": "view",
      "type": "function"
    },
    {
      "inputs": [],
      "name": "owner",
      "outputs": [
        {
          "internalType": "address",
          "name": "",
          "type": "address"
        }
      ],
      "stateMutability": "view",
      "type": "function"
    },
    {
      "inputs": [
        {
          "internalType": "uint256",
          "name": "",
          "type": "uint256"
        }
      ],
      "name": "realEstatesCollection",
      "outputs": [
        {
          "internalType": "uint256",
          "name": "id",
          "type": "uint256"
        },
        {
          "internalType": "string",
          "name": "name",
          "type": "string"
        },
        {
          "internalType": "string",
          "name": "location",
          "type": "string"
        },
        {
          "internalType": "string",
          "name": "city",
          "type": "string"
        },
        {
          "internalType": "uint256",
          "name": "price",
          "type": "uint256"
        },
        {
          "internalType": "uint256",
          "name": "numberOfLike",
          "type": "uint256"
        }
      ],
      "stateMutability": "view",
      "type": "function"
    },
    {
      "inputs": [],
      "name": "renounceOwnership",
      "outputs": [],
      "stateMutability": "nonpayable",
      "type": "function"
    },
    {
      "inputs": [
        {
          "internalType": "uint256",
          "name": "_tokenId",
          "type": "uint256"
        },
        {
          "internalType": "uint256",
          "name": "_salePrice",
          "type": "uint256"
        }
      ],
      "name": "royaltyInfo",
      "outputs": [
        {
          "internalType": "address",
          "name": "",
          "type": "address"
        },
        {
          "internalType": "uint256",
          "name": "",
          "type": "uint256"
        }
      ],
      "stateMutability": "view",
      "type": "function"
    },
    {
      "inputs": [
        {
          "internalType": "address",
          "name": "from",
          "type": "address"
        },
        {
          "internalType": "address",
          "name": "to",
          "type": "address"
        },
        {
          "internalType": "uint256[]",
          "name": "ids",
          "type": "uint256[]"
        },
        {
          "internalType": "uint256[]",
          "name": "amounts",
          "type": "uint256[]"
        },
        {
          "internalType": "bytes",
          "name": "data",
          "type": "bytes"
        }
      ],
      "name": "safeBatchTransferFrom",
      "outputs": [],
      "stateMutability": "nonpayable",
      "type": "function"
    },
    {
      "inputs": [
        {
          "internalType": "address",
          "name": "from",
          "type": "address"
        },
        {
          "internalType": "address",
          "name": "to",
          "type": "address"
        },
        {
          "internalType": "uint256",
          "name": "id",
          "type": "uint256"
        },
        {
          "internalType": "uint256",
          "name": "amount",
          "type": "uint256"
        },
        {
          "internalType": "bytes",
          "name": "data",
          "type": "bytes"
        }
      ],
      "name": "safeTransferFrom",
      "outputs": [],
      "stateMutability": "nonpayable",
      "type": "function"
    },
    {
      "inputs": [
        {
          "internalType": "address",
          "name": "operator",
          "type": "address"
        },
        {
          "internalType": "bool",
          "name": "approved",
          "type": "bool"
        }
      ],
      "name": "setApprovalForAll",
      "outputs": [],
      "stateMutability": "nonpayable",
      "type": "function"
    },
    {
      "inputs": [
        {
          "internalType": "uint256",
          "name": "_fee",
          "type": "uint256"
        }
      ],
      "name": "setFee",
      "outputs": [],
      "stateMutability": "nonpayable",
      "type": "function"
    },
    {
      "inputs": [
        {
          "internalType": "bytes4",
          "name": "interfaceId",
          "type": "bytes4"
        }
      ],
      "name": "supportsInterface",
      "outputs": [
        {
          "internalType": "bool",
          "name": "",
          "type": "bool"
        }
      ],
      "stateMutability": "view",
      "type": "function"
    },
    {
      "inputs": [],
      "name": "symbol",
      "outputs": [
        {
          "internalType": "string",
          "name": "",
          "type": "string"
        }
      ],
      "stateMutability": "view",
      "type": "function"
    },
    {
      "inputs": [
        {
          "internalType": "address",
          "name": "newOwner",
          "type": "address"
        }
      ],
      "name": "transferOwnership",
      "outputs": [],
      "stateMutability": "nonpayable",
      "type": "function"
    },
    {
      "inputs": [
        {
          "internalType": "uint256",
          "name": "",
          "type": "uint256"
        }
      ],
      "name": "uri",
      "outputs": [
        {
          "internalType": "string",
          "name": "",
          "type": "string"
        }
      ],
      "stateMutability": "view",
      "type": "function"
    },
    {
      "inputs": [
        {
          "internalType": "uint256",
          "name": "",
          "type": "uint256"
        },
        {
          "internalType": "uint256",
          "name": "",
          "type": "uint256"
        },
        {
          "internalType": "address",
          "name": "",
          "type": "address"
        }
      ],
      "name": "usersCardsNfts",
      "outputs": [
        {
          "internalType": "uint256",
          "name": "tokenId",
          "type": "uint256"
        },
        {
          "internalType": "uint256",
          "name": "price",
          "type": "uint256"
        },
        {
          "internalType": "uint256",
          "name": "quantity",
          "type": "uint256"
        },
        {
          "internalType": "address payable",
          "name": "seller",
          "type": "address"
        },
        {
          "internalType": "address payable",
          "name": "owner",
          "type": "address"
        }
      ],
      "stateMutability": "view",
      "type": "function"
    },
    {
      "inputs": [],
      "name": "withdraw",
      "outputs": [],
      "stateMutability": "nonpayable",
      "type": "function"
    },
    {
      "stateMutability": "payable",
      "type": "receive"
    },
    {
      "inputs": [
        {
          "internalType": "uint256",
          "name": "_indexRealEstateInCollection",
          "type": "uint256"
        },
        {
          "internalType": "uint256",
          "name": "tokenId",
          "type": "uint256"
        },
        {
          "internalType": "address",
          "name": "sellerAddress",
          "type": "address"
        },
        {
          "internalType": "uint256",
          "name": "askedQuantity",
          "type": "uint256"
        }
      ],
      "name": "verifyUserQuantityIsAvailable",
      "outputs": [
        {
          "internalType": "bool",
          "name": "",
          "type": "bool"
        }
      ],
      "stateMutability": "view",
      "type": "function"
    },
    {
      "inputs": [
        {
          "internalType": "uint256[]",
          "name": "_cardsId",
          "type": "uint256[]"
        },
        {
          "internalType": "uint256[]",
          "name": "_quantities",
          "type": "uint256[]"
        },
        {
          "internalType": "uint256",
          "name": "_indexRealEstateInCollection",
          "type": "uint256"
        }
      ],
      "name": "confirmBuy",
      "outputs": [],
      "stateMutability": "payable",
      "type": "function"
    },
    {
      "inputs": [
        {
          "internalType": "address",
          "name": "_from",
          "type": "address"
        },
        {
          "internalType": "address",
          "name": "_to",
          "type": "address"
        },
        {
          "internalType": "uint256",
          "name": "_id",
          "type": "uint256"
        },
        {
          "internalType": "uint256",
          "name": "_amount",
          "type": "uint256"
        }
      ],
      "name": "sellTokens",
      "outputs": [
        {
          "internalType": "uint256",
          "name": "",
          "type": "uint256"
        }
      ],
      "stateMutability": "nonpayable",
      "type": "function"
    },
    {
      "inputs": [],
      "name": "fetchAll",
      "outputs": [],
      "stateMutability": "view",
      "type": "function"
    },
    {
      "inputs": [],
      "name": "fetchMyNfts",
      "outputs": [],
      "stateMutability": "view",
      "type": "function"
    }
  ],
  "bytecode": "0x60806040526113886009556040518060400160405280600f81526020017f526f636b20436f6c6c656374696f6e0000000000000000000000000000000000815250600a908162000050919062000673565b506040518060400160405280600481526020017f526f636b00000000000000000000000000000000000000000000000000000000815250600b908162000097919062000673565b50348015620000a557600080fd5b506040518060800160405280605a81526020016200748b605a9139620000d1816200016960201b60201c565b50620000f2620000e66200017e60201b60201c565b6200018660201b60201c565b60016006819055506200010e33611f406200024c60201b60201c565b73d0d5e3db44de05e9f294bb0a3beeaf030de24ada601060006101000a81548173ffffffffffffffffffffffffffffffffffffffff021916908373ffffffffffffffffffffffffffffffffffffffff16021790555062000875565b80600290816200017a919062000673565b5050565b600033905090565b6000600560009054906101000a900473ffffffffffffffffffffffffffffffffffffffff16905081600560006101000a81548173ffffffffffffffffffffffffffffffffffffffff021916908373ffffffffffffffffffffffffffffffffffffffff1602179055508173ffffffffffffffffffffffffffffffffffffffff168173ffffffffffffffffffffffffffffffffffffffff167f8be0079c531659141344cd1fd0a4f28419497f9722a3daafe3b4186f6b6457e060405160405180910390a35050565b6200025c620003ef60201b60201c565b6bffffffffffffffffffffffff16816bffffffffffffffffffffffff161115620002bd576040517f08c379a0000000000000000000000000000000000000000000000000000000008152600401620002b490620007e1565b60405180910390fd5b600073ffffffffffffffffffffffffffffffffffffffff168273ffffffffffffffffffffffffffffffffffffffff16036200032f576040517f08c379a0000000000000000000000000000000000000000000000000000000008152600401620003269062000853565b60405180910390fd5b60405180604001604052808373ffffffffffffffffffffffffffffffffffffffff168152602001826bffffffffffffffffffffffff16815250600360008201518160000160006101000a81548173ffffffffffffffffffffffffffffffffffffffff021916908373ffffffffffffffffffffffffffffffffffffffff16021790555060208201518160000160146101000a8154816bffffffffffffffffffffffff02191690836bffffffffffffffffffffffff1602179055509050505050565b6000612710905090565b600081519050919050565b7f4e487b7100000000000000000000000000000000000000000000000000000000600052604160045260246000fd5b7f4e487b7100000000000000000000000000000000000000000000000000000000600052602260045260246000fd5b600060028204905060018216806200047b57607f821691505b60208210810362000491576200049062000433565b5b50919050565b60008190508160005260206000209050919050565b60006020601f8301049050919050565b600082821b905092915050565b600060088302620004fb7fffffffffffffffffffffffffffffffffffffffffffffffffffffffffffffffff82620004bc565b620005078683620004bc565b95508019841693508086168417925050509392505050565b6000819050919050565b6000819050919050565b6000620005546200054e62000548846200051f565b62000529565b6200051f565b9050919050565b6000819050919050565b620005708362000533565b620005886200057f826200055b565b848454620004c9565b825550505050565b600090565b6200059f62000590565b620005ac81848462000565565b505050565b5b81811015620005d457620005c860008262000595565b600181019050620005b2565b5050565b601f8211156200062357620005ed8162000497565b620005f884620004ac565b8101602085101562000608578190505b620006206200061785620004ac565b830182620005b1565b50505b505050565b600082821c905092915050565b6000620006486000198460080262000628565b1980831691505092915050565b600062000663838362000635565b9150826002028217905092915050565b6200067e82620003f9565b67ffffffffffffffff8111156200069a576200069962000404565b5b620006a6825462000462565b620006b3828285620005d8565b600060209050601f831160018114620006eb5760008415620006d6578287015190505b620006e2858262000655565b86555062000752565b601f198416620006fb8662000497565b60005b828110156200072557848901518255600182019150602085019450602081019050620006fe565b8683101562000745578489015162000741601f89168262000635565b8355505b6001600288020188555050505b505050505050565b600082825260208201905092915050565b7f455243323938313a20726f79616c7479206665652077696c6c2065786365656460008201527f2073616c65507269636500000000000000000000000000000000000000000000602082015250565b6000620007c9602a836200075a565b9150620007d6826200076b565b604082019050919050565b60006020820190508181036000830152620007fc81620007ba565b9050919050565b7f455243323938313a20696e76616c696420726563656976657200000000000000600082015250565b60006200083b6019836200075a565b9150620008488262000803565b602082019050919050565b600060208201905081810360008301526200086e816200082c565b9050919050565b616c0680620008856000396000f3fe6080604052600436106101db5760003560e01c80636f7789a611610102578063a22cb46511610095578063e985e9c511610064578063e985e9c5146106eb578063f242432a14610728578063f2fde38b14610751578063fdac310f1461077a576101e2565b8063a22cb4651461061f578063d1e8c4aa14610648578063d3eb414814610671578063e60aae98146106ae576101e2565b80638e15f473116100d15780638e15f4731461054a578063944060981461057557806395d89b41146105b2578063a0f4651a146105dd576101e2565b80636f7789a6146104c3578063715018a6146104ec5780637ae48938146105035780638da5cb5b1461051f576101e2565b806327ec486c1161017a57806338d913bc1161014957806338d913bc146104095780633ccfd60b146104465780634e1273f41461045d57806369fe0e2d1461049a576101e2565b806327ec486c1461034a5780632a55205a146103615780632eb2c2d61461039f57806333caeb94146103c8576101e2565b806306fdde03116101b657806306fdde03146102a25780630e0db4fb146102cd5780630e89341c146102f6578063128ae71214610333576101e2565b8062fdd58e146101e757806301ffc9a7146102245780630464375514610261576101e2565b366101e257005b600080fd5b3480156101f357600080fd5b5061020e60048036038101906102099190613e85565b6107b7565b60405161021b9190613ed4565b60405180910390f35b34801561023057600080fd5b5061024b60048036038101906102469190613f47565b61087f565b6040516102589190613f8f565b60405180910390f35b34801561026d57600080fd5b5061028860048036038101906102839190613faa565b610891565b60405161029995949392919061401e565b60405180910390f35b3480156102ae57600080fd5b506102b7610921565b6040516102c49190614101565b60405180910390f35b3480156102d957600080fd5b506102f460048036038101906102ef9190614258565b6109af565b005b34801561030257600080fd5b5061031d60048036038101906103189190614313565b610cd0565b60405161032a9190614101565b60405180910390f35b34801561033f57600080fd5b50610348610d64565b005b34801561035657600080fd5b5061035f610d66565b005b34801561036d57600080fd5b5061038860048036038101906103839190614340565b610d68565b60405161039692919061438f565b60405180910390f35b3480156103ab57600080fd5b506103c660048036038101906103c19190614521565b610f52565b005b3480156103d457600080fd5b506103ef60048036038101906103ea9190614313565b610ff3565b60405161040095949392919061401e565b60405180910390f35b34801561041557600080fd5b50610430600480360381019061042b919061464b565b611079565b60405161043d9190613ed4565b60405180910390f35b34801561045257600080fd5b5061045b611281565b005b34801561046957600080fd5b50610484600480360381019061047f91906147a3565b61131c565b60405161049191906148d9565b60405180910390f35b3480156104a657600080fd5b506104c160048036038101906104bc9190614313565b611435565b005b3480156104cf57600080fd5b506104ea60048036038101906104e59190614313565b611447565b005b3480156104f857600080fd5b50610501611571565b005b61051d600480360381019061051891906148fb565b611585565b005b34801561052b57600080fd5b50610534611c1a565b6040516105419190614990565b60405180910390f35b34801561055657600080fd5b5061055f611c44565b60405161056c9190613ed4565b60405180910390f35b34801561058157600080fd5b5061059c600480360381019061059791906149ab565b611d98565b6040516105a99190613f8f565b60405180910390f35b3480156105be57600080fd5b506105c7611e21565b6040516105d49190614101565b60405180910390f35b3480156105e957600080fd5b5061060460048036038101906105ff9190614313565b611eaf565b60405161061696959493929190614a12565b60405180910390f35b34801561062b57600080fd5b5061064660048036038101906106419190614ab4565b612093565b005b34801561065457600080fd5b5061066f600480360381019061066a9190614af4565b6120a9565b005b34801561067d57600080fd5b5061069860048036038101906106939190614313565b612688565b6040516106a59190613ed4565b60405180910390f35b3480156106ba57600080fd5b506106d560048036038101906106d09190614bbe565b612699565b6040516106e29190613ed4565b60405180910390f35b3480156106f757600080fd5b50610712600480360381019061070d9190614c25565b6126a3565b60405161071f9190613f8f565b60405180910390f35b34801561073457600080fd5b5061074f600480360381019061074a9190614c65565b612737565b005b34801561075d57600080fd5b5061077860048036038101906107739190614cfc565b6127d8565b005b34801561078657600080fd5b506107a1600480360381019061079c9190614313565b61285b565b6040516107ae9190614e0a565b60405180910390f35b60008073ffffffffffffffffffffffffffffffffffffffff168373ffffffffffffffffffffffffffffffffffffffff1603610827576040517f08c379a000000000000000000000000000000000000000000000000000000000815260040161081e90614e9e565b60405180910390fd5b60008083815260200190815260200160002060008473ffffffffffffffffffffffffffffffffffffffff1673ffffffffffffffffffffffffffffffffffffffff16815260200190815260200160002054905092915050565b600061088a82612ab2565b9050919050565b600e60205282600052604060002060205281600052604060002060205280600052604060002060009250925050508060000154908060010154908060020154908060030160009054906101000a900473ffffffffffffffffffffffffffffffffffffffff16908060040160009054906101000a900473ffffffffffffffffffffffffffffffffffffffff16905085565b600a805461092e90614eed565b80601f016020809104026020016040519081016040528092919081815260200182805461095a90614eed565b80156109a75780601f1061097c576101008083540402835291602001916109a7565b820191906000526020600020905b81548152906001019060200180831161098a57829003601f168201915b505050505081565b6109b7612b2c565b6040516020016109c690614f44565b60405160208183030381529060405280519060200120846040516020016109ed9190614101565b6040516020818303038152906040528051906020012003610a43576040517f08c379a0000000000000000000000000000000000000000000000000000000008152600401610a3a90614fd6565b60405180910390fd5b604051602001610a5290614f44565b6040516020818303038152906040528051906020012083604051602001610a799190614101565b6040516020818303038152906040528051906020012003610acf576040517f08c379a0000000000000000000000000000000000000000000000000000000008152600401610ac690615042565b60405180910390fd5b604051602001610ade90614f44565b6040516020818303038152906040528051906020012082604051602001610b059190614101565b6040516020818303038152906040528051906020012003610b5b576040517f08c379a0000000000000000000000000000000000000000000000000000000008152600401610b52906150ae565b60405180910390fd5b61c3508111610b9f576040517f08c379a0000000000000000000000000000000000000000000000000000000008152600401610b9690615140565b60405180910390fd5b610ba96008612baa565b610bb1613da7565b610bbb6008612bc0565b81600001818152505084816020018190525083816040018190525082816060018190525081816080018181525050600c819080600181540180825580915050600190039060005260206000209060060201600090919091909150600082015181600001556020820151816001019081610c34919061530c565b506040820151816002019081610c4a919061530c565b506060820151816003019081610c60919061530c565b506080820151816004015560a08201518160050155505060006001610c856008612bc0565b610c8f919061540d565b90507ff25ea05cc68cbe6d2d1abce09caf6545e2282a00caed6975ebba55f38de5372081604051610cc09190613ed4565b60405180910390a1505050505050565b606060028054610cdf90614eed565b80601f0160208091040260200160405190810160405280929190818152602001828054610d0b90614eed565b8015610d585780601f10610d2d57610100808354040283529160200191610d58565b820191906000526020600020905b815481529060010190602001808311610d3b57829003601f168201915b50505050509050919050565b565b565b6000806000600460008681526020019081526020016000206040518060400160405290816000820160009054906101000a900473ffffffffffffffffffffffffffffffffffffffff1673ffffffffffffffffffffffffffffffffffffffff1673ffffffffffffffffffffffffffffffffffffffff1681526020016000820160149054906101000a90046bffffffffffffffffffffffff166bffffffffffffffffffffffff166bffffffffffffffffffffffff16815250509050600073ffffffffffffffffffffffffffffffffffffffff16816000015173ffffffffffffffffffffffffffffffffffffffff1603610efd5760036040518060400160405290816000820160009054906101000a900473ffffffffffffffffffffffffffffffffffffffff1673ffffffffffffffffffffffffffffffffffffffff1673ffffffffffffffffffffffffffffffffffffffff1681526020016000820160149054906101000a90046bffffffffffffffffffffffff166bffffffffffffffffffffffff166bffffffffffffffffffffffff168152505090505b6000610f07612bce565b6bffffffffffffffffffffffff1682602001516bffffffffffffffffffffffff1686610f339190615441565b610f3d91906154b2565b90508160000151819350935050509250929050565b610f5a612bd8565b73ffffffffffffffffffffffffffffffffffffffff168573ffffffffffffffffffffffffffffffffffffffff161480610fa05750610f9f85610f9a612bd8565b6126a3565b5b610fdf576040517f08c379a0000000000000000000000000000000000000000000000000000000008152600401610fd690615555565b60405180910390fd5b610fec8585858585612be0565b5050505050565b600d818154811061100357600080fd5b90600052602060002090600502016000915090508060000154908060010154908060020154908060030160009054906101000a900473ffffffffffffffffffffffffffffffffffffffff16908060040160009054906101000a900473ffffffffffffffffffffffffffffffffffffffff16905085565b60008083839050116110c0576040517f08c379a00000000000000000000000000000000000000000000000000000000081526004016110b7906155c1565b60405180910390fd5b60008585905011611106576040517f08c379a00000000000000000000000000000000000000000000000000000000081526004016110fd9061562d565b60405180910390fd5b600c80549050861061114d576040517f08c379a000000000000000000000000000000000000000000000000000000000815260040161114490615699565b60405180910390fd5b600080600090505b86869050811015611273576000878783818110611175576111746156b9565b5b90506020020135101580156111a45750600387878381811061119a576111996156b9565b5b9050602002013511155b6111e3576040517f08c379a00000000000000000000000000000000000000000000000000000000081526004016111da90615734565b60405180910390fd5b60008787838181106111f8576111f76156b9565b5b905060200201359050858583818110611214576112136156b9565b5b90506020020135600f60008b815260200190815260200160002082600481106112405761123f6156b9565b5b60070201600201546112529190615441565b8361125d9190615754565b925050808061126b90615788565b915050611155565b508091505095945050505050565b611289612b2c565b600047116112cc576040517f08c379a00000000000000000000000000000000000000000000000000000000081526004016112c39061581c565b60405180910390fd5b6112d4611c1a565b73ffffffffffffffffffffffffffffffffffffffff166108fc479081150290604051600060405180830381858888f19350505050158015611319573d6000803e3d6000fd5b50565b60608151835114611362576040517f08c379a0000000000000000000000000000000000000000000000000000000008152600401611359906158ae565b60405180910390fd5b6000835167ffffffffffffffff81111561137f5761137e61412d565b5b6040519080825280602002602001820160405280156113ad5781602001602082028036833780820191505090505b50905060005b845181101561142a576113fa8582815181106113d2576113d16156b9565b5b60200260200101518583815181106113ed576113ec6156b9565b5b60200260200101516107b7565b82828151811061140d5761140c6156b9565b5b6020026020010181815250508061142390615788565b90506113b3565b508091505092915050565b61143d612b2c565b8060098190555050565b61144f612b2c565b600c80549050811115611497576040517f08c379a000000000000000000000000000000000000000000000000000000000815260040161148e90615940565b60405180910390fd5b6000600f60008381526020019081526020016000206000600481106114bf576114be6156b9565b5b600702016000015414611507576040517f08c379a00000000000000000000000000000000000000000000000000000000081526004016114fe906159ac565b60405180910390fd5b611512600082612f01565b5061151e600182612f01565b5061152a600282612f01565b50611536600382612f01565b507fff4078d3a7633c1bd56ae05b46cf944f917a32264ef635cbc026a7efe2e47368816040516115669190613ed4565b60405180910390a150565b611579612b2c565b6115836000613183565b565b60008585905011801561159b5750600083839050115b80156115ac57508282905085859050145b6115eb576040517f08c379a00000000000000000000000000000000000000000000000000000000081526004016115e290615a64565b60405180910390fd5b600073ffffffffffffffffffffffffffffffffffffffff163373ffffffffffffffffffffffffffffffffffffffff160361165a576040517f08c379a000000000000000000000000000000000000000000000000000000000815260040161165190615af6565b60405180910390fd5b60003390506000611669611c1a565b905060606000805b898990508110156117a3576000888883818110611691576116906156b9565b5b90506020020135116116d8576040517f08c379a00000000000000000000000000000000000000000000000000000000081526004016116cf90615b88565b60405180910390fd5b60008a8a838181106116ed576116ec6156b9565b5b9050602002013590506000600f6000898152602001908152602001600020826004811061171d5761171c6156b9565b5b6007020160000154905061174c8882888d8d888181106117405761173f6156b9565b5b90506020020135611d98565b93508361178e576040517f08c379a000000000000000000000000000000000000000000000000000000000815260040161178590615c1a565b60405180910390fd5b5050808061179b90615788565b915050611671565b50600060029050803410156117ed576040517f08c379a00000000000000000000000000000000000000000000000000000000081526004016117e490615c86565b60405180910390fd5b60008473ffffffffffffffffffffffffffffffffffffffff163460405161181390615cd4565b60006040518083038185875af1925050503d8060008114611850576040519150601f19603f3d011682016040523d82523d6000602084013e611855565b606091505b5050905080611899576040517f08c379a000000000000000000000000000000000000000000000000000000000815260040161189090615d5b565b60405180910390fd5b6118f68587868c8c80806020026020016040519081016040528093929190818152602001838360200280828437600081840152601f19601f8201169050808301925050505050505060405180602001604052806000815250610f52565b60005b8451811015611b89576000600e60008a8152602001908152602001600020600087848151811061192c5761192b6156b9565b5b6020026020010151815260200190815260200160002060008873ffffffffffffffffffffffffffffffffffffffff1673ffffffffffffffffffffffffffffffffffffffff16815260200190815260200160002090508a8a83818110611994576119936156b9565b5b905060200201358160020160008282546119ae919061540d565b92505081905550868160030160006101000a81548173ffffffffffffffffffffffffffffffffffffffff021916908373ffffffffffffffffffffffffffffffffffffffff160217905550878160040160006101000a81548173ffffffffffffffffffffffffffffffffffffffff021916908373ffffffffffffffffffffffffffffffffffffffff1602179055506000600e60008b81526020019081526020016000206000888581518110611a6557611a646156b9565b5b6020026020010151815260200190815260200160002060008a73ffffffffffffffffffffffffffffffffffffffff1673ffffffffffffffffffffffffffffffffffffffff16815260200190815260200160002090508b8b84818110611acd57611acc6156b9565b5b90506020020135816002016000828254611ae79190615754565b92505081905550888160030160006101000a81548173ffffffffffffffffffffffffffffffffffffffff021916908373ffffffffffffffffffffffffffffffffffffffff160217905550888160040160006101000a81548173ffffffffffffffffffffffffffffffffffffffff021916908373ffffffffffffffffffffffffffffffffffffffff16021790555050508080611b8190615788565b9150506118f9565b508473ffffffffffffffffffffffffffffffffffffffff168673ffffffffffffffffffffffffffffffffffffffff1685604051611bc69190615e0b565b60405180910390207ffc0eefd40bfb4ffff328e5ca79242ab8b399ebfc364dcff5974f0718f9441a398e8e8e8e89604051611c05959493929190615e8c565b60405180910390a45050505050505050505050565b6000600560009054906101000a900473ffffffffffffffffffffffffffffffffffffffff16905090565b600080601060009054906101000a900473ffffffffffffffffffffffffffffffffffffffff1673ffffffffffffffffffffffffffffffffffffffff1663feaf968c6040518163ffffffff1660e01b815260040160a060405180830381865afa158015611cb4573d6000803e3d6000fd5b505050506040513d601f19601f82011682018060405250810190611cd89190615f62565b5050509150506000601060009054906101000a900473ffffffffffffffffffffffffffffffffffffffff1673ffffffffffffffffffffffffffffffffffffffff1663313ce5676040518163ffffffff1660e01b8152600401602060405180830381865afa158015611d4d573d6000803e3d6000fd5b505050506040513d601f19601f82011682018060405250810190611d719190616016565b9050600082905081600a611d859190616176565b81611d9091906154b2565b935050505090565b600080600e6000878152602001908152602001600020600086815260200190815260200160002060008573ffffffffffffffffffffffffffffffffffffffff1673ffffffffffffffffffffffffffffffffffffffff168152602001908152602001600020905080600201548311611e13576001915050611e19565b60009150505b949350505050565b600b8054611e2e90614eed565b80601f0160208091040260200160405190810160405280929190818152602001828054611e5a90614eed565b8015611ea75780601f10611e7c57610100808354040283529160200191611ea7565b820191906000526020600020905b815481529060010190602001808311611e8a57829003601f168201915b505050505081565b600c8181548110611ebf57600080fd5b9060005260206000209060060201600091509050806000015490806001018054611ee890614eed565b80601f0160208091040260200160405190810160405280929190818152602001828054611f1490614eed565b8015611f615780601f10611f3657610100808354040283529160200191611f61565b820191906000526020600020905b815481529060010190602001808311611f4457829003601f168201915b505050505090806002018054611f7690614eed565b80601f0160208091040260200160405190810160405280929190818152602001828054611fa290614eed565b8015611fef5780601f10611fc457610100808354040283529160200191611fef565b820191906000526020600020905b815481529060010190602001808311611fd257829003601f168201915b50505050509080600301805461200490614eed565b80601f016020809104026020016040519081016040528092919081815260200182805461203090614eed565b801561207d5780601f106120525761010080835404028352916020019161207d565b820191906000526020600020905b81548152906001019060200180831161206057829003601f168201915b5050505050908060040154908060050154905086565b6120a561209e612bd8565b8383613249565b5050565b6120b1612b2c565b600c805490508911156120f9576040517f08c379a00000000000000000000000000000000000000000000000000000000081526004016120f090615940565b60405180910390fd5b6064871080156121095750606486105b80156121155750606485105b612154576040517f08c379a000000000000000000000000000000000000000000000000000000000815260040161214b90616233565b60405180910390fd5b6032841015612198576040517f08c379a000000000000000000000000000000000000000000000000000000000815260040161218f906162c5565b60405180910390fd5b60648310156121dc576040517f08c379a00000000000000000000000000000000000000000000000000000000081526004016121d390616357565b60405180910390fd5b6096821015612220576040517f08c379a0000000000000000000000000000000000000000000000000000000008152600401612217906163e9565b60405180910390fd5b878061224457506000871480156122375750600086145b80156122435750600085145b5b156122565760329650601e9550601494505b6000600f60008b815260200190815260200160002090506040518060e00160405280600081526020016000815260200186815260200160008152602001898152602001601e81526020016000815250816000600481106122b9576122b86156b9565b5b60070201600082015181600001556020820151816001015560408201518160020155606082015181600301556080820151816004015560a0820151816005015560c082015181600601559050506040518060e00160405280600181526020016000815260200185815260200160008152602001888152602001601e8152602001600081525081600160048110612352576123516156b9565b5b60070201600082015181600001556020820151816001015560408201518160020155606082015181600301556080820151816004015560a0820151816005015560c082015181600601559050506040518060e00160405280600281526020016000815260200184815260200160008152602001878152602001601e81526020016000815250816002600481106123eb576123ea6156b9565b5b60070201600082015181600001556020820151816001015560408201518160020155606082015181600301556080820151816004015560a0820151816005015560c082015181600601559050506040518060e0016040528060038152602001600081526020018381526020016001815260200160008152602001601e8152602001600081525081600360048110612485576124846156b9565b5b60070201600082015181600001556020820151816001015560408201518160020155606082015181600301556080820151816004015560a0820151816005015560c0820151816006015590505060008260016124e19190615441565b600c8c815481106124f5576124f46156b9565b5b906000526020600020906006020160040154612511919061540d565b905060006064905060005b60038110156125ce576000600f60008f8152602001908152602001600020826004811061254c5761254b6156b9565b5b60070201905060008160030154036125ba5760008382600401546125709190615441565b905060008460646125819190615441565b828761258d9190615441565b61259791906154b2565b905060008360020154826125ab91906154b2565b90508084600301819055505050505b5080806125c690615788565b91505061251c565b507f01f6ecbad523aa4ebc65b0e3c80ebd687c182bea84d78431cac0754a2fd7c1928c84600060048110612605576126046156b9565b5b600702016003015485600160048110612621576126206156b9565b5b60070201600301548660026004811061263d5761263c6156b9565b5b600702016003015487600360048110612659576126586156b9565b5b6007020160030154604051612672959493929190616409565b60405180910390a1505050505050505050505050565b6000612692611c44565b9050919050565b6000949350505050565b6000600160008473ffffffffffffffffffffffffffffffffffffffff1673ffffffffffffffffffffffffffffffffffffffff16815260200190815260200160002060008373ffffffffffffffffffffffffffffffffffffffff1673ffffffffffffffffffffffffffffffffffffffff16815260200190815260200160002060009054906101000a900460ff16905092915050565b61273f612bd8565b73ffffffffffffffffffffffffffffffffffffffff168573ffffffffffffffffffffffffffffffffffffffff16148061278557506127848561277f612bd8565b6126a3565b5b6127c4576040517f08c379a00000000000000000000000000000000000000000000000000000000081526004016127bb90615555565b60405180910390fd5b6127d185858585856133b5565b5050505050565b6127e0612b2c565b600073ffffffffffffffffffffffffffffffffffffffff168173ffffffffffffffffffffffffffffffffffffffff160361284f576040517f08c379a0000000000000000000000000000000000000000000000000000000008152600401612846906164ce565b60405180910390fd5b61285881613183565b50565b612863613da7565b600c8054905082106128aa576040517f08c379a00000000000000000000000000000000000000000000000000000000081526004016128a190615699565b60405180910390fd5b600c82815481106128be576128bd6156b9565b5b90600052602060002090600602016040518060c0016040529081600082015481526020016001820180546128f190614eed565b80601f016020809104026020016040519081016040528092919081815260200182805461291d90614eed565b801561296a5780601f1061293f5761010080835404028352916020019161296a565b820191906000526020600020905b81548152906001019060200180831161294d57829003601f168201915b5050505050815260200160028201805461298390614eed565b80601f01602080910402602001604051908101604052809291908181526020018280546129af90614eed565b80156129fc5780601f106129d1576101008083540402835291602001916129fc565b820191906000526020600020905b8154815290600101906020018083116129df57829003601f168201915b50505050508152602001600382018054612a1590614eed565b80601f0160208091040260200160405190810160405280929190818152602001828054612a4190614eed565b8015612a8e5780601f10612a6357610100808354040283529160200191612a8e565b820191906000526020600020905b815481529060010190602001808311612a7157829003601f168201915b50505050508152602001600482015481526020016005820154815250509050919050565b60007f2a55205a000000000000000000000000000000000000000000000000000000007bffffffffffffffffffffffffffffffffffffffffffffffffffffffff1916827bffffffffffffffffffffffffffffffffffffffffffffffffffffffff19161480612b255750612b2482613650565b5b9050919050565b612b34612bd8565b73ffffffffffffffffffffffffffffffffffffffff16612b52611c1a565b73ffffffffffffffffffffffffffffffffffffffff1614612ba8576040517f08c379a0000000000000000000000000000000000000000000000000000000008152600401612b9f9061653a565b60405180910390fd5b565b6001816000016000828254019250508190555050565b600081600001549050919050565b6000612710905090565b600033905090565b8151835114612c24576040517f08c379a0000000000000000000000000000000000000000000000000000000008152600401612c1b906165cc565b60405180910390fd5b600073ffffffffffffffffffffffffffffffffffffffff168473ffffffffffffffffffffffffffffffffffffffff1603612c93576040517f08c379a0000000000000000000000000000000000000000000000000000000008152600401612c8a9061665e565b60405180910390fd5b6000612c9d612bd8565b9050612cad818787878787613732565b60005b8451811015612e5e576000858281518110612cce57612ccd6156b9565b5b602002602001015190506000858381518110612ced57612cec6156b9565b5b60200260200101519050600080600084815260200190815260200160002060008b73ffffffffffffffffffffffffffffffffffffffff1673ffffffffffffffffffffffffffffffffffffffff16815260200190815260200160002054905081811015612d8e576040517f08c379a0000000000000000000000000000000000000000000000000000000008152600401612d85906166f0565b60405180910390fd5b81810360008085815260200190815260200160002060008c73ffffffffffffffffffffffffffffffffffffffff1673ffffffffffffffffffffffffffffffffffffffff168152602001908152602001600020819055508160008085815260200190815260200160002060008b73ffffffffffffffffffffffffffffffffffffffff1673ffffffffffffffffffffffffffffffffffffffff1681526020019081526020016000206000828254612e439190615754565b9250508190555050505080612e5790615788565b9050612cb0565b508473ffffffffffffffffffffffffffffffffffffffff168673ffffffffffffffffffffffffffffffffffffffff168273ffffffffffffffffffffffffffffffffffffffff167f4a39dc06d4c0dbc64b70af90fd698a233a518aa5d07e595d983b8c0526c8f7fb8787604051612ed5929190616710565b60405180910390a4612eeb81878787878761373a565b612ef9818787878787613742565b505050505050565b6000612f0b612b2c565b612f156007612baa565b6000612f216007612bc0565b90506000612f2d611c1a565b90506000600f60008681526020019081526020016000208660048110612f5657612f556156b9565b5b6007020160030154905082600f60008781526020019081526020016000208760048110612f8657612f856156b9565b5b6007020160000181905550612fac82848360405180602001604052806000815250613919565b6000612fe483600f60008981526020019081526020016000208960048110612fd757612fd66156b9565b5b60070201600001546107b7565b90506000600e6000888152602001908152602001600020600086815260200190815260200160002060008573ffffffffffffffffffffffffffffffffffffffff1673ffffffffffffffffffffffffffffffffffffffff1681526020019081526020016000209050600f600088815260200190815260200160002088600481106130705761306f6156b9565b5b60070201600001548160000181905550600f600088815260200190815260200160002088600481106130a5576130a46156b9565b5b60070201600201548160010181905550818160020181905550838160040160006101000a81548173ffffffffffffffffffffffffffffffffffffffff021916908373ffffffffffffffffffffffffffffffffffffffff160217905550838160030160006101000a81548173ffffffffffffffffffffffffffffffffffffffff021916908373ffffffffffffffffffffffffffffffffffffffff16021790555081600f6000898152602001908152602001600020896004811061316a576131696156b9565b5b6007020160060181905550849550505050505092915050565b6000600560009054906101000a900473ffffffffffffffffffffffffffffffffffffffff16905081600560006101000a81548173ffffffffffffffffffffffffffffffffffffffff021916908373ffffffffffffffffffffffffffffffffffffffff1602179055508173ffffffffffffffffffffffffffffffffffffffff168173ffffffffffffffffffffffffffffffffffffffff167f8be0079c531659141344cd1fd0a4f28419497f9722a3daafe3b4186f6b6457e060405160405180910390a35050565b8173ffffffffffffffffffffffffffffffffffffffff168373ffffffffffffffffffffffffffffffffffffffff16036132b7576040517f08c379a00000000000000000000000000000000000000000000000000000000081526004016132ae906167b9565b60405180910390fd5b80600160008573ffffffffffffffffffffffffffffffffffffffff1673ffffffffffffffffffffffffffffffffffffffff16815260200190815260200160002060008473ffffffffffffffffffffffffffffffffffffffff1673ffffffffffffffffffffffffffffffffffffffff16815260200190815260200160002060006101000a81548160ff0219169083151502179055508173ffffffffffffffffffffffffffffffffffffffff168373ffffffffffffffffffffffffffffffffffffffff167f17307eab39ab6107e8899845ad3d59bd9653f200f220920489ca2b5937696c31836040516133a89190613f8f565b60405180910390a3505050565b600073ffffffffffffffffffffffffffffffffffffffff168473ffffffffffffffffffffffffffffffffffffffff1603613424576040517f08c379a000000000000000000000000000000000000000000000000000000000815260040161341b9061665e565b60405180910390fd5b600061342e612bd8565b9050600061343b85613ac9565b9050600061344885613ac9565b9050613458838989858589613732565b600080600088815260200190815260200160002060008a73ffffffffffffffffffffffffffffffffffffffff1673ffffffffffffffffffffffffffffffffffffffff168152602001908152602001600020549050858110156134ef576040517f08c379a00000000000000000000000000000000000000000000000000000000081526004016134e6906166f0565b60405180910390fd5b85810360008089815260200190815260200160002060008b73ffffffffffffffffffffffffffffffffffffffff1673ffffffffffffffffffffffffffffffffffffffff168152602001908152602001600020819055508560008089815260200190815260200160002060008a73ffffffffffffffffffffffffffffffffffffffff1673ffffffffffffffffffffffffffffffffffffffff16815260200190815260200160002060008282546135a49190615754565b925050819055508773ffffffffffffffffffffffffffffffffffffffff168973ffffffffffffffffffffffffffffffffffffffff168573ffffffffffffffffffffffffffffffffffffffff167fc3d58168c5ae7397731d063d5bbf3d657854427343f4c083240f7aacaa2d0f628a8a6040516136219291906167d9565b60405180910390a4613637848a8a86868a61373a565b613645848a8a8a8a8a613b43565b505050505050505050565b60007fd9b67a26000000000000000000000000000000000000000000000000000000007bffffffffffffffffffffffffffffffffffffffffffffffffffffffff1916827bffffffffffffffffffffffffffffffffffffffffffffffffffffffff1916148061371b57507f0e89341c000000000000000000000000000000000000000000000000000000007bffffffffffffffffffffffffffffffffffffffffffffffffffffffff1916827bffffffffffffffffffffffffffffffffffffffffffffffffffffffff1916145b8061372b575061372a82613d1a565b5b9050919050565b505050505050565b505050505050565b6137618473ffffffffffffffffffffffffffffffffffffffff16613d84565b15613911578373ffffffffffffffffffffffffffffffffffffffff1663bc197c8187878686866040518663ffffffff1660e01b81526004016137a7959493929190616857565b6020604051808303816000875af19250505080156137e357506040513d601f19601f820116820180604052508101906137e091906168d4565b60015b613888576137ef61690e565b806308c379a00361384b5750613803616930565b8061380e575061384d565b806040517f08c379a00000000000000000000000000000000000000000000000000000000081526004016138429190614101565b60405180910390fd5b505b6040517f08c379a000000000000000000000000000000000000000000000000000000000815260040161387f90616a32565b60405180910390fd5b63bc197c8160e01b7bffffffffffffffffffffffffffffffffffffffffffffffffffffffff1916817bffffffffffffffffffffffffffffffffffffffffffffffffffffffff19161461390f576040517f08c379a000000000000000000000000000000000000000000000000000000000815260040161390690616ac4565b60405180910390fd5b505b505050505050565b600073ffffffffffffffffffffffffffffffffffffffff168473ffffffffffffffffffffffffffffffffffffffff1603613988576040517f08c379a000000000000000000000000000000000000000000000000000000000815260040161397f90616b56565b60405180910390fd5b6000613992612bd8565b9050600061399f85613ac9565b905060006139ac85613ac9565b90506139bd83600089858589613732565b8460008088815260200190815260200160002060008973ffffffffffffffffffffffffffffffffffffffff1673ffffffffffffffffffffffffffffffffffffffff1681526020019081526020016000206000828254613a1c9190615754565b925050819055508673ffffffffffffffffffffffffffffffffffffffff16600073ffffffffffffffffffffffffffffffffffffffff168473ffffffffffffffffffffffffffffffffffffffff167fc3d58168c5ae7397731d063d5bbf3d657854427343f4c083240f7aacaa2d0f628989604051613a9a9291906167d9565b60405180910390a4613ab18360008985858961373a565b613ac083600089898989613b43565b50505050505050565b60606000600167ffffffffffffffff811115613ae857613ae761412d565b5b604051908082528060200260200182016040528015613b165781602001602082028036833780820191505090505b5090508281600081518110613b2e57613b2d6156b9565b5b60200260200101818152505080915050919050565b613b628473ffffffffffffffffffffffffffffffffffffffff16613d84565b15613d12578373ffffffffffffffffffffffffffffffffffffffff1663f23a6e6187878686866040518663ffffffff1660e01b8152600401613ba8959493929190616b76565b6020604051808303816000875af1925050508015613be457506040513d601f19601f82011682018060405250810190613be191906168d4565b60015b613c8957613bf061690e565b806308c379a003613c4c5750613c04616930565b80613c0f5750613c4e565b806040517f08c379a0000000000000000000000000000000000000000000000000000000008152600401613c439190614101565b60405180910390fd5b505b6040517f08c379a0000000000000000000000000000000000000000000000000000000008152600401613c8090616a32565b60405180910390fd5b63f23a6e6160e01b7bffffffffffffffffffffffffffffffffffffffffffffffffffffffff1916817bffffffffffffffffffffffffffffffffffffffffffffffffffffffff191614613d10576040517f08c379a0000000000000000000000000000000000000000000000000000000008152600401613d0790616ac4565b60405180910390fd5b505b505050505050565b60007f01ffc9a7000000000000000000000000000000000000000000000000000000007bffffffffffffffffffffffffffffffffffffffffffffffffffffffff1916827bffffffffffffffffffffffffffffffffffffffffffffffffffffffff1916149050919050565b6000808273ffffffffffffffffffffffffffffffffffffffff163b119050919050565b6040518060c001604052806000815260200160608152602001606081526020016060815260200160008152602001600081525090565b6000604051905090565b600080fd5b600080fd5b600073ffffffffffffffffffffffffffffffffffffffff82169050919050565b6000613e1c82613df1565b9050919050565b613e2c81613e11565b8114613e3757600080fd5b50565b600081359050613e4981613e23565b92915050565b6000819050919050565b613e6281613e4f565b8114613e6d57600080fd5b50565b600081359050613e7f81613e59565b92915050565b60008060408385031215613e9c57613e9b613de7565b5b6000613eaa85828601613e3a565b9250506020613ebb85828601613e70565b9150509250929050565b613ece81613e4f565b82525050565b6000602082019050613ee96000830184613ec5565b92915050565b60007fffffffff0000000000000000000000000000000000000000000000000000000082169050919050565b613f2481613eef565b8114613f2f57600080fd5b50565b600081359050613f4181613f1b565b92915050565b600060208284031215613f5d57613f5c613de7565b5b6000613f6b84828501613f32565b91505092915050565b60008115159050919050565b613f8981613f74565b82525050565b6000602082019050613fa46000830184613f80565b92915050565b600080600060608486031215613fc357613fc2613de7565b5b6000613fd186828701613e70565b9350506020613fe286828701613e70565b9250506040613ff386828701613e3a565b9150509250925092565b600061400882613df1565b9050919050565b61401881613ffd565b82525050565b600060a0820190506140336000830188613ec5565b6140406020830187613ec5565b61404d6040830186613ec5565b61405a606083018561400f565b614067608083018461400f565b9695505050505050565b600081519050919050565b600082825260208201905092915050565b60005b838110156140ab578082015181840152602081019050614090565b60008484015250505050565b6000601f19601f8301169050919050565b60006140d382614071565b6140dd818561407c565b93506140ed81856020860161408d565b6140f6816140b7565b840191505092915050565b6000602082019050818103600083015261411b81846140c8565b905092915050565b600080fd5b600080fd5b7f4e487b7100000000000000000000000000000000000000000000000000000000600052604160045260246000fd5b614165826140b7565b810181811067ffffffffffffffff821117156141845761418361412d565b5b80604052505050565b6000614197613ddd565b90506141a3828261415c565b919050565b600067ffffffffffffffff8211156141c3576141c261412d565b5b6141cc826140b7565b9050602081019050919050565b82818337600083830152505050565b60006141fb6141f6846141a8565b61418d565b90508281526020810184848401111561421757614216614128565b5b6142228482856141d9565b509392505050565b600082601f83011261423f5761423e614123565b5b813561424f8482602086016141e8565b91505092915050565b6000806000806080858703121561427257614271613de7565b5b600085013567ffffffffffffffff8111156142905761428f613dec565b5b61429c8782880161422a565b945050602085013567ffffffffffffffff8111156142bd576142bc613dec565b5b6142c98782880161422a565b935050604085013567ffffffffffffffff8111156142ea576142e9613dec565b5b6142f68782880161422a565b925050606061430787828801613e70565b91505092959194509250565b60006020828403121561432957614328613de7565b5b600061433784828501613e70565b91505092915050565b6000806040838503121561435757614356613de7565b5b600061436585828601613e70565b925050602061437685828601613e70565b9150509250929050565b61438981613e11565b82525050565b60006040820190506143a46000830185614380565b6143b16020830184613ec5565b9392505050565b600067ffffffffffffffff8211156143d3576143d261412d565b5b602082029050602081019050919050565b600080fd5b60006143fc6143f7846143b8565b61418d565b9050808382526020820190506020840283018581111561441f5761441e6143e4565b5b835b8181101561444857806144348882613e70565b845260208401935050602081019050614421565b5050509392505050565b600082601f83011261446757614466614123565b5b81356144778482602086016143e9565b91505092915050565b600067ffffffffffffffff82111561449b5761449a61412d565b5b6144a4826140b7565b9050602081019050919050565b60006144c46144bf84614480565b61418d565b9050828152602081018484840111156144e0576144df614128565b5b6144eb8482856141d9565b509392505050565b600082601f83011261450857614507614123565b5b81356145188482602086016144b1565b91505092915050565b600080600080600060a0868803121561453d5761453c613de7565b5b600061454b88828901613e3a565b955050602061455c88828901613e3a565b945050604086013567ffffffffffffffff81111561457d5761457c613dec565b5b61458988828901614452565b935050606086013567ffffffffffffffff8111156145aa576145a9613dec565b5b6145b688828901614452565b925050608086013567ffffffffffffffff8111156145d7576145d6613dec565b5b6145e3888289016144f3565b9150509295509295909350565b600080fd5b60008083601f84011261460b5761460a614123565b5b8235905067ffffffffffffffff811115614628576146276145f0565b5b602083019150836020820283011115614644576146436143e4565b5b9250929050565b60008060008060006060868803121561466757614666613de7565b5b600061467588828901613e70565b955050602086013567ffffffffffffffff81111561469657614695613dec565b5b6146a2888289016145f5565b9450945050604086013567ffffffffffffffff8111156146c5576146c4613dec565b5b6146d1888289016145f5565b92509250509295509295909350565b600067ffffffffffffffff8211156146fb576146fa61412d565b5b602082029050602081019050919050565b600061471f61471a846146e0565b61418d565b90508083825260208201905060208402830185811115614742576147416143e4565b5b835b8181101561476b57806147578882613e3a565b845260208401935050602081019050614744565b5050509392505050565b600082601f83011261478a57614789614123565b5b813561479a84826020860161470c565b91505092915050565b600080604083850312156147ba576147b9613de7565b5b600083013567ffffffffffffffff8111156147d8576147d7613dec565b5b6147e485828601614775565b925050602083013567ffffffffffffffff81111561480557614804613dec565b5b61481185828601614452565b9150509250929050565b600081519050919050565b600082825260208201905092915050565b6000819050602082019050919050565b61485081613e4f565b82525050565b60006148628383614847565b60208301905092915050565b6000602082019050919050565b60006148868261481b565b6148908185614826565b935061489b83614837565b8060005b838110156148cc5781516148b38882614856565b97506148be8361486e565b92505060018101905061489f565b5085935050505092915050565b600060208201905081810360008301526148f3818461487b565b905092915050565b60008060008060006060868803121561491757614916613de7565b5b600086013567ffffffffffffffff81111561493557614934613dec565b5b614941888289016145f5565b9550955050602086013567ffffffffffffffff81111561496457614963613dec565b5b614970888289016145f5565b9350935050604061498388828901613e70565b9150509295509295909350565b60006020820190506149a56000830184614380565b92915050565b600080600080608085870312156149c5576149c4613de7565b5b60006149d387828801613e70565b94505060206149e487828801613e70565b93505060406149f587828801613e3a565b9250506060614a0687828801613e70565b91505092959194509250565b600060c082019050614a276000830189613ec5565b8181036020830152614a3981886140c8565b90508181036040830152614a4d81876140c8565b90508181036060830152614a6181866140c8565b9050614a706080830185613ec5565b614a7d60a0830184613ec5565b979650505050505050565b614a9181613f74565b8114614a9c57600080fd5b50565b600081359050614aae81614a88565b92915050565b60008060408385031215614acb57614aca613de7565b5b6000614ad985828601613e3a565b9250506020614aea85828601614a9f565b9150509250929050565b60008060008060008060008060006101208a8c031215614b1757614b16613de7565b5b6000614b258c828d01613e70565b9950506020614b368c828d01614a9f565b9850506040614b478c828d01613e70565b9750506060614b588c828d01613e70565b9650506080614b698c828d01613e70565b95505060a0614b7a8c828d01613e70565b94505060c0614b8b8c828d01613e70565b93505060e0614b9c8c828d01613e70565b925050610100614bae8c828d01613e70565b9150509295985092959850929598565b60008060008060808587031215614bd857614bd7613de7565b5b6000614be687828801613e3a565b9450506020614bf787828801613e3a565b9350506040614c0887828801613e70565b9250506060614c1987828801613e70565b91505092959194509250565b60008060408385031215614c3c57614c3b613de7565b5b6000614c4a85828601613e3a565b9250506020614c5b85828601613e3a565b9150509250929050565b600080600080600060a08688031215614c8157614c80613de7565b5b6000614c8f88828901613e3a565b9550506020614ca088828901613e3a565b9450506040614cb188828901613e70565b9350506060614cc288828901613e70565b925050608086013567ffffffffffffffff811115614ce357614ce2613dec565b5b614cef888289016144f3565b9150509295509295909350565b600060208284031215614d1257614d11613de7565b5b6000614d2084828501613e3a565b91505092915050565b600082825260208201905092915050565b6000614d4582614071565b614d4f8185614d29565b9350614d5f81856020860161408d565b614d68816140b7565b840191505092915050565b600060c083016000830151614d8b6000860182614847565b5060208301518482036020860152614da38282614d3a565b91505060408301518482036040860152614dbd8282614d3a565b91505060608301518482036060860152614dd78282614d3a565b9150506080830151614dec6080860182614847565b5060a0830151614dff60a0860182614847565b508091505092915050565b60006020820190508181036000830152614e248184614d73565b905092915050565b7f455243313135353a2061646472657373207a65726f206973206e6f742061207660008201527f616c6964206f776e657200000000000000000000000000000000000000000000602082015250565b6000614e88602a8361407c565b9150614e9382614e2c565b604082019050919050565b60006020820190508181036000830152614eb781614e7b565b9050919050565b7f4e487b7100000000000000000000000000000000000000000000000000000000600052602260045260246000fd5b60006002820490506001821680614f0557607f821691505b602082108103614f1857614f17614ebe565b5b50919050565b50565b6000614f2e60008361407c565b9150614f3982614f1e565b600082019050919050565b60006020820190508181036000830152614f5d81614f21565b9050919050565b7f4c65206e6f6d2064752070726f6772616d6d6520696d6d6f62696c696572206560008201527f7374206f626c696761746f697265000000000000000000000000000000000000602082015250565b6000614fc0602e8361407c565b9150614fcb82614f64565b604082019050919050565b60006020820190508181036000830152614fef81614fb3565b9050919050565b7f4c6120736974756174696f6e20657374206f626c696761746f69726500000000600082015250565b600061502c601c8361407c565b915061503782614ff6565b602082019050919050565b6000602082019050818103600083015261505b8161501f565b9050919050565b7f4c612076696c6c6520657374206f626c696761746f6972650000000000000000600082015250565b600061509860188361407c565b91506150a382615062565b602082019050919050565b600060208201905081810360008301526150c78161508b565b9050919050565b7f4572726575722c206c652070726978206475206269656e20696d6d6f20646f6960008201527f7420657472652073757065726965757220612035303030300000000000000000602082015250565b600061512a60388361407c565b9150615135826150ce565b604082019050919050565b600060208201905081810360008301526151598161511d565b9050919050565b60008190508160005260206000209050919050565b60006020601f8301049050919050565b600082821b905092915050565b6000600883026151c27fffffffffffffffffffffffffffffffffffffffffffffffffffffffffffffffff82615185565b6151cc8683615185565b95508019841693508086168417925050509392505050565b6000819050919050565b60006152096152046151ff84613e4f565b6151e4565b613e4f565b9050919050565b6000819050919050565b615223836151ee565b61523761522f82615210565b848454615192565b825550505050565b600090565b61524c61523f565b61525781848461521a565b505050565b5b8181101561527b57615270600082615244565b60018101905061525d565b5050565b601f8211156152c05761529181615160565b61529a84615175565b810160208510156152a9578190505b6152bd6152b585615175565b83018261525c565b50505b505050565b600082821c905092915050565b60006152e3600019846008026152c5565b1980831691505092915050565b60006152fc83836152d2565b9150826002028217905092915050565b61531582614071565b67ffffffffffffffff81111561532e5761532d61412d565b5b6153388254614eed565b61534382828561527f565b600060209050601f8311600181146153765760008415615364578287015190505b61536e85826152f0565b8655506153d6565b601f19841661538486615160565b60005b828110156153ac57848901518255600182019150602085019450602081019050615387565b868310156153c957848901516153c5601f8916826152d2565b8355505b6001600288020188555050505b505050505050565b7f4e487b7100000000000000000000000000000000000000000000000000000000600052601160045260246000fd5b600061541882613e4f565b915061542383613e4f565b925082820390508181111561543b5761543a6153de565b5b92915050565b600061544c82613e4f565b915061545783613e4f565b925082820261546581613e4f565b9150828204841483151761547c5761547b6153de565b5b5092915050565b7f4e487b7100000000000000000000000000000000000000000000000000000000600052601260045260246000fd5b60006154bd82613e4f565b91506154c883613e4f565b9250826154d8576154d7615483565b5b828204905092915050565b7f455243313135353a2063616c6c6572206973206e6f7420746f6b656e206f776e60008201527f6572206f7220617070726f766564000000000000000000000000000000000000602082015250565b600061553f602e8361407c565b915061554a826154e3565b604082019050919050565b6000602082019050818103600083015261556e81615532565b9050919050565b7f417563756e206d6f6e74616e742072656e736569676e65000000000000000000600082015250565b60006155ab60178361407c565b91506155b682615575565b602082019050919050565b600060208201905081810360008301526155da8161559e565b9050919050565b7f417563756e2063617274652073656c656374696f6e6e65650000000000000000600082015250565b600061561760188361407c565b9150615622826155e1565b602082019050919050565b600060208201905081810360008301526156468161560a565b9050919050565b7f4269656e20696d6d6f62696c69657220696e6578697374616e74000000000000600082015250565b6000615683601a8361407c565b915061568e8261564d565b602082019050919050565b600060208201905081810360008301526156b281615676565b9050919050565b7f4e487b7100000000000000000000000000000000000000000000000000000000600052603260045260246000fd5b7f436172746520696e636f6e6e7565000000000000000000000000000000000000600082015250565b600061571e600e8361407c565b9150615729826156e8565b602082019050919050565b6000602082019050818103600083015261574d81615711565b9050919050565b600061575f82613e4f565b915061576a83613e4f565b9250828201905080821115615782576157816153de565b5b92915050565b600061579382613e4f565b91507fffffffffffffffffffffffffffffffffffffffffffffffffffffffffffffffff82036157c5576157c46153de565b5b600182019050919050565b7f42616c616e636520612030000000000000000000000000000000000000000000600082015250565b6000615806600b8361407c565b9150615811826157d0565b602082019050919050565b60006020820190508181036000830152615835816157f9565b9050919050565b7f455243313135353a206163636f756e747320616e6420696473206c656e67746860008201527f206d69736d617463680000000000000000000000000000000000000000000000602082015250565b600061589860298361407c565b91506158a38261583c565b604082019050919050565b600060208201905081810360008301526158c78161588b565b9050919050565b7f496e646578206475206269656e20696d6d6f62696c69657220656e206465686f60008201527f7273206475207461626c65617500000000000000000000000000000000000000602082015250565b600061592a602d8361407c565b9150615935826158ce565b604082019050919050565b600060208201905081810360008301526159598161591d565b9050919050565b7f4c65206d696e7420612064656a61206574652065666665637475650000000000600082015250565b6000615996601b8361407c565b91506159a182615960565b602082019050919050565b600060208201905081810360008301526159c581615989565b9050919050565b7f496e636f686572656e636520656e747265206c6573206361727465732063686f60008201527f6973696573206574206c6573207175616e74697465732072656e736569676e6560208201527f6573000000000000000000000000000000000000000000000000000000000000604082015250565b6000615a4e60428361407c565b9150615a59826159cc565b606082019050919050565b60006020820190508181036000830152615a7d81615a41565b9050919050565b7f596f752063616e6e6f74206f726465722066726f6d207468697320616464726560008201527f7373210000000000000000000000000000000000000000000000000000000000602082015250565b6000615ae060238361407c565b9150615aeb82615a84565b604082019050919050565b60006020820190508181036000830152615b0f81615ad3565b9050919050565b7f4c61207175616e7469746520646520746f6b656e20646f69742065747265207360008201527f7570657269657572652061203000000000000000000000000000000000000000602082015250565b6000615b72602d8361407c565b9150615b7d82615b16565b604082019050919050565b60006020820190508181036000830152615ba181615b65565b9050919050565b7f4c61207175616e7469746520646520746f6b656e7320646574656e756520657360008201527f7420696e737566666973616e7465000000000000000000000000000000000000602082015250565b6000615c04602e8361407c565b9150615c0f82615ba8565b604082019050919050565b60006020820190508181036000830152615c3381615bf7565b9050919050565b7f466f6e647320696e737566666973616e74730000000000000000000000000000600082015250565b6000615c7060128361407c565b9150615c7b82615c3a565b602082019050919050565b60006020820190508181036000830152615c9f81615c63565b9050919050565b600081905092915050565b6000615cbe600083615ca6565b9150615cc982614f1e565b600082019050919050565b6000615cdf82615cb1565b9150819050919050565b7f4c6520706169656d656e74206465206c61207472616e73616374696f6e20766560008201527f7273206c6520636f6e747261742061206563686f756500000000000000000000602082015250565b6000615d4560368361407c565b9150615d5082615ce9565b604082019050919050565b60006020820190508181036000830152615d7481615d38565b9050919050565b600081905092915050565b615d8f81613e4f565b82525050565b6000615da18383615d86565b60208301905092915050565b6000615db88261481b565b615dc28185615d7b565b9350615dcd83614837565b8060005b83811015615dfe578151615de58882615d95565b9750615df08361486e565b925050600181019050615dd1565b5085935050505092915050565b6000615e178284615dad565b915081905092915050565b600080fd5b82818337505050565b6000615e3c8385614826565b93507f07ffffffffffffffffffffffffffffffffffffffffffffffffffffffffffffff831115615e6f57615e6e615e22565b5b602083029250615e80838584615e27565b82840190509392505050565b60006060820190508181036000830152615ea7818789615e30565b90508181036020830152615ebc818587615e30565b9050615ecb6040830184613ec5565b9695505050505050565b600069ffffffffffffffffffff82169050919050565b615ef481615ed5565b8114615eff57600080fd5b50565b600081519050615f1181615eeb565b92915050565b6000819050919050565b615f2a81615f17565b8114615f3557600080fd5b50565b600081519050615f4781615f21565b92915050565b600081519050615f5c81613e59565b92915050565b600080600080600060a08688031215615f7e57615f7d613de7565b5b6000615f8c88828901615f02565b9550506020615f9d88828901615f38565b9450506040615fae88828901615f4d565b9350506060615fbf88828901615f4d565b9250506080615fd088828901615f02565b9150509295509295909350565b600060ff82169050919050565b615ff381615fdd565b8114615ffe57600080fd5b50565b60008151905061601081615fea565b92915050565b60006020828403121561602c5761602b613de7565b5b600061603a84828501616001565b91505092915050565b60008160011c9050919050565b6000808291508390505b600185111561609a57808604811115616076576160756153de565b5b60018516156160855780820291505b808102905061609385616043565b945061605a565b94509492505050565b6000826160b3576001905061616f565b816160c1576000905061616f565b81600181146160d757600281146160e157616110565b600191505061616f565b60ff8411156160f3576160f26153de565b5b8360020a91508482111561610a576161096153de565b5b5061616f565b5060208310610133831016604e8410600b84101617156161455782820a9050838111156161405761613f6153de565b5b61616f565b6161528484846001616050565b92509050818404811115616169576161686153de565b5b81810290505b9392505050565b600061618182613e4f565b915061618c83615fdd565b92506161b97fffffffffffffffffffffffffffffffffffffffffffffffffffffffffffffffff84846160a3565b905092915050565b7f4572726575722c20756e2064657320706f757263656e7461676573206573742060008201527f6120300000000000000000000000000000000000000000000000000000000000602082015250565b600061621d60238361407c565b9150616228826161c1565b604082019050919050565b6000602082019050818103600083015261624c81616210565b9050919050565b7f4572726575722c206c652070726978206d696e696d756d206465206c6120636160008201527f72746520434f545441474520646f697420657472652064652035300000000000602082015250565b60006162af603b8361407c565b91506162ba82616253565b604082019050919050565b600060208201905081810360008301526162de816162a2565b9050919050565b7f4572726575722c206c652070726978206d696e696d756d206465206c6120636160008201527f7274652056494c4c4120646f6974206574726520646520313030000000000000602082015250565b6000616341603a8361407c565b915061634c826162e5565b604082019050919050565b6000602082019050818103600083015261637081616334565b9050919050565b7f4572726575722c206c652070726978206d696e696d756d206465206c6120636160008201527f727465204d414e53494f4e20646f697420657472652064652031353000000000602082015250565b60006163d3603c8361407c565b91506163de82616377565b604082019050919050565b60006020820190508181036000830152616402816163c6565b9050919050565b600060a08201905061641e6000830188613ec5565b61642b6020830187613ec5565b6164386040830186613ec5565b6164456060830185613ec5565b6164526080830184613ec5565b9695505050505050565b7f4f776e61626c653a206e6577206f776e657220697320746865207a65726f206160008201527f6464726573730000000000000000000000000000000000000000000000000000602082015250565b60006164b860268361407c565b91506164c38261645c565b604082019050919050565b600060208201905081810360008301526164e7816164ab565b9050919050565b7f4f776e61626c653a2063616c6c6572206973206e6f7420746865206f776e6572600082015250565b600061652460208361407c565b915061652f826164ee565b602082019050919050565b6000602082019050818103600083015261655381616517565b9050919050565b7f455243313135353a2069647320616e6420616d6f756e7473206c656e6774682060008201527f6d69736d61746368000000000000000000000000000000000000000000000000602082015250565b60006165b660288361407c565b91506165c18261655a565b604082019050919050565b600060208201905081810360008301526165e5816165a9565b9050919050565b7f455243313135353a207472616e7366657220746f20746865207a65726f20616460008201527f6472657373000000000000000000000000000000000000000000000000000000602082015250565b600061664860258361407c565b9150616653826165ec565b604082019050919050565b600060208201905081810360008301526166778161663b565b9050919050565b7f455243313135353a20696e73756666696369656e742062616c616e636520666f60008201527f72207472616e7366657200000000000000000000000000000000000000000000602082015250565b60006166da602a8361407c565b91506166e58261667e565b604082019050919050565b60006020820190508181036000830152616709816166cd565b9050919050565b6000604082019050818103600083015261672a818561487b565b9050818103602083015261673e818461487b565b90509392505050565b7f455243313135353a2073657474696e6720617070726f76616c2073746174757360008201527f20666f722073656c660000000000000000000000000000000000000000000000602082015250565b60006167a360298361407c565b91506167ae82616747565b604082019050919050565b600060208201905081810360008301526167d281616796565b9050919050565b60006040820190506167ee6000830185613ec5565b6167fb6020830184613ec5565b9392505050565b600081519050919050565b600082825260208201905092915050565b600061682982616802565b616833818561680d565b935061684381856020860161408d565b61684c816140b7565b840191505092915050565b600060a08201905061686c6000830188614380565b6168796020830187614380565b818103604083015261688b818661487b565b9050818103606083015261689f818561487b565b905081810360808301526168b3818461681e565b90509695505050505050565b6000815190506168ce81613f1b565b92915050565b6000602082840312156168ea576168e9613de7565b5b60006168f8848285016168bf565b91505092915050565b60008160e01c9050919050565b600060033d111561692d5760046000803e61692a600051616901565b90505b90565b600060443d106169bd57616942613ddd565b60043d036004823e80513d602482011167ffffffffffffffff8211171561696a5750506169bd565b808201805167ffffffffffffffff81111561698857505050506169bd565b80602083010160043d0385018111156169a55750505050506169bd565b6169b48260200185018661415c565b82955050505050505b90565b7f455243313135353a207472616e7366657220746f206e6f6e2d4552433131353560008201527f526563656976657220696d706c656d656e746572000000000000000000000000602082015250565b6000616a1c60348361407c565b9150616a27826169c0565b604082019050919050565b60006020820190508181036000830152616a4b81616a0f565b9050919050565b7f455243313135353a204552433131353552656365697665722072656a6563746560008201527f6420746f6b656e73000000000000000000000000000000000000000000000000602082015250565b6000616aae60288361407c565b9150616ab982616a52565b604082019050919050565b60006020820190508181036000830152616add81616aa1565b9050919050565b7f455243313135353a206d696e7420746f20746865207a65726f2061646472657360008201527f7300000000000000000000000000000000000000000000000000000000000000602082015250565b6000616b4060218361407c565b9150616b4b82616ae4565b604082019050919050565b60006020820190508181036000830152616b6f81616b33565b9050919050565b600060a082019050616b8b6000830188614380565b616b986020830187614380565b616ba56040830186613ec5565b616bb26060830185613ec5565b8181036080830152616bc4818461681e565b9050969550505050505056fea264697066735822122044ed06622682fbea65622b5a6b23d328c39c2da4978460b3bd611bc79c770e9664736f6c6343000811003368747470733a2f2f676174657761792e70696e6174612e636c6f75642f697066732f516d5946347652415a67313941526953466f5865765a596b66395a703179566467586868347832326279704d63342f7b69647d2e6a736f6e",
  "immutableReferences": {},
  "source": "// SPDX-License-Identifier: MIT\npragma solidity 0.8.17;\n\nimport \"../node_modules/@openzeppelin/contracts/token/ERC1155/IERC1155.sol\";\nimport \"../node_modules/@openzeppelin/contracts/utils/Counters.sol\";\n// import \"@openzeppelin/contracts/utils/introspection/ERC165.sol\";\nimport \"../node_modules/@openzeppelin/contracts/access/Ownable.sol\";\nimport \"../node_modules/@chainlink/contracts/src/v0.8/interfaces/AggregatorV3Interface.sol\";\nimport \"../node_modules/@openzeppelin/contracts/security/ReentrancyGuard.sol\";\n\nimport \"./Rock.sol\";\n\ncontract Marketplace is Rock {\n    // Events\n    event CardPurchased(\n        uint256[] indexed tokenId,\n        address indexed buyer,\n        address indexed seller,\n        uint256[] cardsId,\n        uint256[] quantities,\n        uint256 totalPrice\n    );\n\n    // Cette fonction doit mettre  jour les differentes balances aprs un achat ou aprs une vente\n    function updateBalances() private onlyOwner {}\n\n    function distribute() private onlyOwner {}\n\n    // Dans le cadre d'une vente, si Alice achete 2 cartes COTTAGE  BOB, on vrifie que Bob dtient bien ces 2 cartes\n    function verifyUserQuantityIsAvailable(\n        uint256 _indexRealEstateInCollection,\n        uint256 tokenId,\n        address sellerAddress,\n        uint256 askedQuantity\n    ) public view returns (bool) {\n        NFTCard storage userCard = usersCardsNfts[_indexRealEstateInCollection][\n            tokenId\n        ][sellerAddress];\n        if (askedQuantity <= userCard.quantity) {\n            return true;\n        }\n        return false;\n    }\n\n    /// Fonction permettant d'acheter une ou plusieurs cartes NFT\n    function confirmBuy(\n        uint256[] calldata _cardsId,\n        uint256[] calldata _quantities,\n        uint256 _indexRealEstateInCollection\n    ) external payable {\n        require(\n            _cardsId.length > 0 &&\n                _quantities.length > 0 &&\n                _cardsId.length == _quantities.length,\n            \"Incoherence entre les cartes choisies et les quantites renseignees\"\n        );\n        require(\n            msg.sender != address(0),\n            \"You cannot order from this address!\"\n        );\n\n        address buyer = payable(msg.sender);\n        address seller = payable(owner());\n\n        uint256[] memory tokenIds;\n        bool amountAvailable = false;\n        for (uint256 i = 0; i < _cardsId.length; i++) {\n            require(\n                _quantities[i] > 0,\n                \"La quantite de token doit etre superieure a 0\"\n            );\n            // Carte achete\n            uint256 cardId = _cardsId[i];\n            // Token id correspondant pour pouvoir etre transfert a l'acheteur\n            uint256 tokenId = cards[_indexRealEstateInCollection][cardId]\n                .tokenId;\n\n            // Vrification de la balance du vendeur\n            amountAvailable = verifyUserQuantityIsAvailable(\n                _indexRealEstateInCollection,\n                tokenId,\n                seller,\n                _quantities[i]\n            );\n            require(\n                amountAvailable,\n                \"La quantite de tokens detenue est insuffisante\"\n            );\n        }\n\n        // Calcul du prix total et on vrifie que la balance est suffisante pour procder au transfert des tokens\n        // uint256 totalPrice = calculeTotalPrice(_indexRealEstateInCollection, _cardsId, _quantities);\n        uint256 totalPrice = 2;\n        require(msg.value >= totalPrice, \"Fonds insuffisants\");\n\n        // L'acheteur (msg.sender) envoie 2 ethers au propitaire du NFT\n        (bool sentToPlateform, ) = payable(seller).call{value: msg.value}(\"\");\n        // La transaction doit avoir reussi pour ontinuer le transfert des NFT\n        require(\n            sentToPlateform,\n            \"Le paiement de la transaction vers le contrat a echoue\"\n        );\n\n        // Transfert des tokens vers l'acheteur\n        safeBatchTransferFrom(seller, buyer, tokenIds, _quantities, \"\");\n\n        // MAJ des balances\n        for (uint256 i = 0; i < tokenIds.length; i++) {\n            // Mise  jour de la balance du vendeur\n            NFTCard storage sellerTokens = usersCardsNfts[\n                _indexRealEstateInCollection\n            ][tokenIds[i]][seller];\n            sellerTokens.quantity -= _quantities[i];\n            sellerTokens.seller = payable(seller);\n            sellerTokens.owner = payable(buyer);\n\n            // Mise  jour de la balance de l'acheteur\n            NFTCard storage buyTokens = usersCardsNfts[\n                _indexRealEstateInCollection\n            ][tokenIds[i]][buyer];\n            buyTokens.quantity += _quantities[i];\n            buyTokens.seller = payable(buyer);\n            buyTokens.owner = payable(buyer);\n        }\n\n        emit CardPurchased(\n            tokenIds,\n            buyer,\n            seller,\n            _cardsId,\n            _quantities,\n            totalPrice\n        );\n    }\n\n    function sellTokens(\n        address _from,\n        address _to,\n        uint256 _id,\n        uint256 _amount\n    ) public returns (uint256) {\n        // Une vente peut tre ralise si les tokens detenus par le vendeur ont plus de 6 mois ?\n\n        return 0;\n    }\n\n    function fetchAll() public view {}\n\n    function fetchMyNfts() public view {}\n\n    // Le contrat pourra recevoir des fonds\n    receive() external payable {}\n}\n",
  "sourcePath": "/home/anicaise/Formation/Alyra/Rock/truffle/contracts/Marketplace.sol",
  "compiler": {
    "name": "solc",
    "version": "0.8.17+commit.8df45f5f.Emscripten.clang"
  },
  "schemaVersion": "3.4.10",
  "updatedAt": "2022-12-05T20:56:18.526Z",
  "devdoc": {
    "kind": "dev",
    "methods": {
      "balanceOf(address,uint256)": {
        "details": "See {IERC1155-balanceOf}. Requirements: - `account` cannot be the zero address."
      },
      "balanceOfBatch(address[],uint256[])": {
        "details": "See {IERC1155-balanceOfBatch}. Requirements: - `accounts` and `ids` must have the same length."
      },
      "isApprovedForAll(address,address)": {
        "details": "See {IERC1155-isApprovedForAll}."
      },
      "owner()": {
        "details": "Returns the address of the current owner."
      },
      "renounceOwnership()": {
        "details": "Leaves the contract without owner. It will not be possible to call `onlyOwner` functions anymore. Can only be called by the current owner. NOTE: Renouncing ownership will leave the contract without an owner, thereby removing any functionality that is only available to the owner."
      },
      "royaltyInfo(uint256,uint256)": {
        "details": "Returns how much royalty is owed and to whom, based on a sale price that may be denominated in any unit of exchange. The royalty amount is denominated and should be paid in that same unit of exchange."
      },
      "safeBatchTransferFrom(address,address,uint256[],uint256[],bytes)": {
        "details": "See {IERC1155-safeBatchTransferFrom}."
      },
      "safeTransferFrom(address,address,uint256,uint256,bytes)": {
        "details": "See {IERC1155-safeTransferFrom}."
      },
      "setApprovalForAll(address,bool)": {
        "details": "See {IERC1155-setApprovalForAll}."
      },
      "transferOwnership(address)": {
        "details": "Transfers ownership of the contract to a new account (`newOwner`). Can only be called by the current owner."
      },
      "uri(uint256)": {
        "details": "See {IERC1155MetadataURI-uri}. This implementation returns the same URI for *all* token types. It relies on the token type ID substitution mechanism https://eips.ethereum.org/EIPS/eip-1155#metadata[defined in the EIP]. Clients calling this function must replace the `\\{id\\}` substring with the actual token type ID."
      }
    },
    "version": 1
  },
  "userdoc": {
    "kind": "user",
    "methods": {
      "confirmBuy(uint256[],uint256[],uint256)": {
        "notice": "Fonction permettant d'acheter une ou plusieurs cartes NFT"
      },
      "getLatestPrice()": {
        "notice": "Returns the latest price MATIC/USD"
      }
    },
    "version": 1
  }
}