{
  "contractName": "Marketplace",
  "abi": [
    {
      "anonymous": false,
      "inputs": [
        {
          "indexed": true,
          "internalType": "address",
          "name": "account",
          "type": "address"
        },
        {
          "indexed": true,
          "internalType": "address",
          "name": "operator",
          "type": "address"
        },
        {
          "indexed": false,
          "internalType": "bool",
          "name": "approved",
          "type": "bool"
        }
      ],
      "name": "ApprovalForAll",
      "type": "event"
    },
    {
      "anonymous": false,
      "inputs": [
        {
          "indexed": true,
          "internalType": "uint256[]",
          "name": "tokenId",
          "type": "uint256[]"
        },
        {
          "indexed": true,
          "internalType": "address",
          "name": "buyer",
          "type": "address"
        },
        {
          "indexed": true,
          "internalType": "address",
          "name": "seller",
          "type": "address"
        },
        {
          "indexed": false,
          "internalType": "uint256[]",
          "name": "quantities",
          "type": "uint256[]"
        },
        {
          "indexed": false,
          "internalType": "uint256",
          "name": "totalPrice",
          "type": "uint256"
        }
      ],
      "name": "CardPurchased",
      "type": "event"
    },
    {
      "anonymous": false,
      "inputs": [
        {
          "indexed": true,
          "internalType": "address",
          "name": "previousOwner",
          "type": "address"
        },
        {
          "indexed": true,
          "internalType": "address",
          "name": "newOwner",
          "type": "address"
        }
      ],
      "name": "OwnershipTransferred",
      "type": "event"
    },
    {
      "anonymous": false,
      "inputs": [
        {
          "indexed": false,
          "internalType": "uint256",
          "name": "idRealEstate",
          "type": "uint256"
        }
      ],
      "name": "RealEstateAdded",
      "type": "event"
    },
    {
      "anonymous": false,
      "inputs": [
        {
          "indexed": true,
          "internalType": "address",
          "name": "operator",
          "type": "address"
        },
        {
          "indexed": true,
          "internalType": "address",
          "name": "from",
          "type": "address"
        },
        {
          "indexed": true,
          "internalType": "address",
          "name": "to",
          "type": "address"
        },
        {
          "indexed": false,
          "internalType": "uint256[]",
          "name": "ids",
          "type": "uint256[]"
        },
        {
          "indexed": false,
          "internalType": "uint256[]",
          "name": "values",
          "type": "uint256[]"
        }
      ],
      "name": "TransferBatch",
      "type": "event"
    },
    {
      "anonymous": false,
      "inputs": [
        {
          "indexed": true,
          "internalType": "address",
          "name": "operator",
          "type": "address"
        },
        {
          "indexed": true,
          "internalType": "address",
          "name": "from",
          "type": "address"
        },
        {
          "indexed": true,
          "internalType": "address",
          "name": "to",
          "type": "address"
        },
        {
          "indexed": false,
          "internalType": "uint256",
          "name": "id",
          "type": "uint256"
        },
        {
          "indexed": false,
          "internalType": "uint256",
          "name": "value",
          "type": "uint256"
        }
      ],
      "name": "TransferSingle",
      "type": "event"
    },
    {
      "anonymous": false,
      "inputs": [
        {
          "indexed": false,
          "internalType": "string",
          "name": "value",
          "type": "string"
        },
        {
          "indexed": true,
          "internalType": "uint256",
          "name": "id",
          "type": "uint256"
        }
      ],
      "name": "URI",
      "type": "event"
    },
    {
      "anonymous": false,
      "inputs": [
        {
          "indexed": false,
          "internalType": "uint256",
          "name": "idToken",
          "type": "uint256"
        },
        {
          "indexed": false,
          "internalType": "uint256",
          "name": "supplyCottage",
          "type": "uint256"
        },
        {
          "indexed": false,
          "internalType": "uint256",
          "name": "supplyVilla",
          "type": "uint256"
        },
        {
          "indexed": false,
          "internalType": "uint256",
          "name": "supplyMansion",
          "type": "uint256"
        },
        {
          "indexed": false,
          "internalType": "uint256",
          "name": "supplyHighRise",
          "type": "uint256"
        }
      ],
      "name": "supplyCardsCalculated",
      "type": "event"
    },
    {
      "anonymous": false,
      "inputs": [
        {
          "indexed": false,
          "internalType": "uint256",
          "name": "idRealEstate",
          "type": "uint256"
        }
      ],
      "name": "tokenMinted",
      "type": "event"
    },
    {
      "inputs": [
        {
          "internalType": "string",
          "name": "_name",
          "type": "string"
        },
        {
          "internalType": "string",
          "name": "_location",
          "type": "string"
        },
        {
          "internalType": "string",
          "name": "_city",
          "type": "string"
        },
        {
          "internalType": "string",
          "name": "_cid",
          "type": "string"
        },
        {
          "internalType": "uint256",
          "name": "_price",
          "type": "uint256"
        }
      ],
      "name": "addRealEstate",
      "outputs": [],
      "stateMutability": "nonpayable",
      "type": "function"
    },
    {
      "inputs": [
        {
          "internalType": "address",
          "name": "account",
          "type": "address"
        },
        {
          "internalType": "uint256",
          "name": "id",
          "type": "uint256"
        }
      ],
      "name": "balanceOf",
      "outputs": [
        {
          "internalType": "uint256",
          "name": "",
          "type": "uint256"
        }
      ],
      "stateMutability": "view",
      "type": "function",
      "constant": true
    },
    {
      "inputs": [
        {
          "internalType": "address[]",
          "name": "accounts",
          "type": "address[]"
        },
        {
          "internalType": "uint256[]",
          "name": "ids",
          "type": "uint256[]"
        }
      ],
      "name": "balanceOfBatch",
      "outputs": [
        {
          "internalType": "uint256[]",
          "name": "",
          "type": "uint256[]"
        }
      ],
      "stateMutability": "view",
      "type": "function",
      "constant": true
    },
    {
      "inputs": [
        {
          "internalType": "uint256",
          "name": "_indexRealEstateInCollection",
          "type": "uint256"
        },
        {
          "internalType": "bool",
          "name": "_isDefaultSupply",
          "type": "bool"
        },
        {
          "internalType": "uint256",
          "name": "_ratioTokenCottage",
          "type": "uint256"
        },
        {
          "internalType": "uint256",
          "name": "_ratioTokenVilla",
          "type": "uint256"
        },
        {
          "internalType": "uint256",
          "name": "_ratioTokenMansion",
          "type": "uint256"
        },
        {
          "internalType": "uint256",
          "name": "_prixTokenCottage",
          "type": "uint256"
        },
        {
          "internalType": "uint256",
          "name": "_prixTokenVilla",
          "type": "uint256"
        },
        {
          "internalType": "uint256",
          "name": "_prixTokenMansion",
          "type": "uint256"
        },
        {
          "internalType": "uint256",
          "name": "_prixTokenHighRise",
          "type": "uint256"
        }
      ],
      "name": "calculateNumberOfTokens",
      "outputs": [],
      "stateMutability": "nonpayable",
      "type": "function"
    },
    {
      "inputs": [
        {
          "internalType": "uint256",
          "name": "_indexRealEstateInCollection",
          "type": "uint256"
        },
        {
          "internalType": "uint256",
          "name": "_cardId",
          "type": "uint256"
        }
      ],
      "name": "getCard",
      "outputs": [
        {
          "components": [
            {
              "internalType": "uint256",
              "name": "tokenId",
              "type": "uint256"
            },
            {
              "internalType": "uint256",
              "name": "cardId",
              "type": "uint256"
            },
            {
              "internalType": "uint256",
              "name": "price",
              "type": "uint256"
            },
            {
              "internalType": "uint256",
              "name": "numberOfTokens",
              "type": "uint256"
            },
            {
              "internalType": "uint256",
              "name": "ratioOfTokensInPercent",
              "type": "uint256"
            },
            {
              "internalType": "uint256",
              "name": "royalty",
              "type": "uint256"
            },
            {
              "internalType": "uint256",
              "name": "balance",
              "type": "uint256"
            }
          ],
          "internalType": "struct Rock.Card",
          "name": "",
          "type": "tuple"
        }
      ],
      "stateMutability": "view",
      "type": "function",
      "constant": true
    },
    {
      "inputs": [],
      "name": "getLatestPrice",
      "outputs": [
        {
          "internalType": "int256",
          "name": "",
          "type": "int256"
        }
      ],
      "stateMutability": "view",
      "type": "function",
      "constant": true
    },
    {
      "inputs": [],
      "name": "getOwner",
      "outputs": [
        {
          "internalType": "address",
          "name": "",
          "type": "address"
        }
      ],
      "stateMutability": "view",
      "type": "function",
      "constant": true
    },
    {
      "inputs": [],
      "name": "getRealEstatesCollectionCount",
      "outputs": [
        {
          "internalType": "uint256",
          "name": "",
          "type": "uint256"
        }
      ],
      "stateMutability": "view",
      "type": "function",
      "constant": true
    },
    {
      "inputs": [
        {
          "internalType": "uint256",
          "name": "_index",
          "type": "uint256"
        }
      ],
      "name": "getRealStateById",
      "outputs": [
        {
          "components": [
            {
              "internalType": "uint256",
              "name": "id",
              "type": "uint256"
            },
            {
              "internalType": "string",
              "name": "name",
              "type": "string"
            },
            {
              "internalType": "string",
              "name": "location",
              "type": "string"
            },
            {
              "internalType": "string",
              "name": "city",
              "type": "string"
            },
            {
              "internalType": "string",
              "name": "cid",
              "type": "string"
            },
            {
              "internalType": "uint256",
              "name": "price",
              "type": "uint256"
            }
          ],
          "internalType": "struct Rock.RealEstate",
          "name": "",
          "type": "tuple"
        }
      ],
      "stateMutability": "view",
      "type": "function",
      "constant": true
    },
    {
      "inputs": [
        {
          "internalType": "address",
          "name": "account",
          "type": "address"
        },
        {
          "internalType": "address",
          "name": "operator",
          "type": "address"
        }
      ],
      "name": "isApprovedForAll",
      "outputs": [
        {
          "internalType": "bool",
          "name": "",
          "type": "bool"
        }
      ],
      "stateMutability": "view",
      "type": "function",
      "constant": true
    },
    {
      "inputs": [
        {
          "internalType": "uint256",
          "name": "_indexRealEstateInCollection",
          "type": "uint256"
        }
      ],
      "name": "mintRealEstateCollection",
      "outputs": [],
      "stateMutability": "nonpayable",
      "type": "function"
    },
    {
      "inputs": [],
      "name": "name",
      "outputs": [
        {
          "internalType": "string",
          "name": "",
          "type": "string"
        }
      ],
      "stateMutability": "view",
      "type": "function",
      "constant": true
    },
    {
      "inputs": [],
      "name": "owner",
      "outputs": [
        {
          "internalType": "address",
          "name": "",
          "type": "address"
        }
      ],
      "stateMutability": "view",
      "type": "function",
      "constant": true
    },
    {
      "inputs": [],
      "name": "plateformFees",
      "outputs": [
        {
          "internalType": "uint256",
          "name": "",
          "type": "uint256"
        }
      ],
      "stateMutability": "view",
      "type": "function",
      "constant": true
    },
    {
      "inputs": [
        {
          "internalType": "uint256",
          "name": "",
          "type": "uint256"
        }
      ],
      "name": "realEstatesCollection",
      "outputs": [
        {
          "internalType": "uint256",
          "name": "id",
          "type": "uint256"
        },
        {
          "internalType": "string",
          "name": "name",
          "type": "string"
        },
        {
          "internalType": "string",
          "name": "location",
          "type": "string"
        },
        {
          "internalType": "string",
          "name": "city",
          "type": "string"
        },
        {
          "internalType": "string",
          "name": "cid",
          "type": "string"
        },
        {
          "internalType": "uint256",
          "name": "price",
          "type": "uint256"
        }
      ],
      "stateMutability": "view",
      "type": "function",
      "constant": true
    },
    {
      "inputs": [],
      "name": "renounceOwnership",
      "outputs": [],
      "stateMutability": "nonpayable",
      "type": "function"
    },
    {
      "inputs": [
        {
          "internalType": "uint256",
          "name": "_tokenId",
          "type": "uint256"
        },
        {
          "internalType": "uint256",
          "name": "_salePrice",
          "type": "uint256"
        }
      ],
      "name": "royaltyInfo",
      "outputs": [
        {
          "internalType": "address",
          "name": "",
          "type": "address"
        },
        {
          "internalType": "uint256",
          "name": "",
          "type": "uint256"
        }
      ],
      "stateMutability": "view",
      "type": "function",
      "constant": true
    },
    {
      "inputs": [
        {
          "internalType": "address",
          "name": "from",
          "type": "address"
        },
        {
          "internalType": "address",
          "name": "to",
          "type": "address"
        },
        {
          "internalType": "uint256[]",
          "name": "ids",
          "type": "uint256[]"
        },
        {
          "internalType": "uint256[]",
          "name": "amounts",
          "type": "uint256[]"
        },
        {
          "internalType": "bytes",
          "name": "data",
          "type": "bytes"
        }
      ],
      "name": "safeBatchTransferFrom",
      "outputs": [],
      "stateMutability": "nonpayable",
      "type": "function"
    },
    {
      "inputs": [
        {
          "internalType": "address",
          "name": "from",
          "type": "address"
        },
        {
          "internalType": "address",
          "name": "to",
          "type": "address"
        },
        {
          "internalType": "uint256",
          "name": "id",
          "type": "uint256"
        },
        {
          "internalType": "uint256",
          "name": "amount",
          "type": "uint256"
        },
        {
          "internalType": "bytes",
          "name": "data",
          "type": "bytes"
        }
      ],
      "name": "safeTransferFrom",
      "outputs": [],
      "stateMutability": "nonpayable",
      "type": "function"
    },
    {
      "inputs": [
        {
          "internalType": "address",
          "name": "operator",
          "type": "address"
        },
        {
          "internalType": "bool",
          "name": "approved",
          "type": "bool"
        }
      ],
      "name": "setApprovalForAll",
      "outputs": [],
      "stateMutability": "nonpayable",
      "type": "function"
    },
    {
      "inputs": [
        {
          "internalType": "uint256",
          "name": "_fee",
          "type": "uint256"
        }
      ],
      "name": "setPlateformFees",
      "outputs": [],
      "stateMutability": "nonpayable",
      "type": "function"
    },
    {
      "inputs": [
        {
          "internalType": "bytes4",
          "name": "interfaceId",
          "type": "bytes4"
        }
      ],
      "name": "supportsInterface",
      "outputs": [
        {
          "internalType": "bool",
          "name": "",
          "type": "bool"
        }
      ],
      "stateMutability": "view",
      "type": "function",
      "constant": true
    },
    {
      "inputs": [],
      "name": "symbol",
      "outputs": [
        {
          "internalType": "string",
          "name": "",
          "type": "string"
        }
      ],
      "stateMutability": "view",
      "type": "function",
      "constant": true
    },
    {
      "inputs": [
        {
          "internalType": "address",
          "name": "newOwner",
          "type": "address"
        }
      ],
      "name": "transferOwnership",
      "outputs": [],
      "stateMutability": "nonpayable",
      "type": "function"
    },
    {
      "inputs": [
        {
          "internalType": "uint256",
          "name": "",
          "type": "uint256"
        }
      ],
      "name": "uri",
      "outputs": [
        {
          "internalType": "string",
          "name": "",
          "type": "string"
        }
      ],
      "stateMutability": "view",
      "type": "function",
      "constant": true
    },
    {
      "inputs": [
        {
          "internalType": "uint256",
          "name": "",
          "type": "uint256"
        },
        {
          "internalType": "address",
          "name": "",
          "type": "address"
        },
        {
          "internalType": "uint256",
          "name": "",
          "type": "uint256"
        }
      ],
      "name": "usersCardsNfts",
      "outputs": [
        {
          "internalType": "uint256",
          "name": "tokenId",
          "type": "uint256"
        },
        {
          "internalType": "uint256",
          "name": "price",
          "type": "uint256"
        },
        {
          "internalType": "uint256",
          "name": "quantity",
          "type": "uint256"
        },
        {
          "internalType": "address payable",
          "name": "seller",
          "type": "address"
        },
        {
          "internalType": "address payable",
          "name": "owner",
          "type": "address"
        }
      ],
      "stateMutability": "view",
      "type": "function",
      "constant": true
    },
    {
      "inputs": [],
      "name": "withdraw",
      "outputs": [],
      "stateMutability": "nonpayable",
      "type": "function"
    },
    {
      "stateMutability": "payable",
      "type": "receive",
      "payable": true
    },
    {
      "inputs": [
        {
          "internalType": "uint256",
          "name": "_indexRealEstateInCollection",
          "type": "uint256"
        },
        {
          "internalType": "uint256",
          "name": "tokenId",
          "type": "uint256"
        },
        {
          "internalType": "address",
          "name": "sellerAddress",
          "type": "address"
        },
        {
          "internalType": "uint256",
          "name": "askedQuantity",
          "type": "uint256"
        }
      ],
      "name": "verifyUserQuantityIsAvailable",
      "outputs": [
        {
          "internalType": "bool",
          "name": "",
          "type": "bool"
        }
      ],
      "stateMutability": "view",
      "type": "function",
      "constant": true
    },
    {
      "inputs": [
        {
          "internalType": "uint256[]",
          "name": "_tokenIds",
          "type": "uint256[]"
        },
        {
          "internalType": "uint256[]",
          "name": "_quantities",
          "type": "uint256[]"
        },
        {
          "internalType": "uint256",
          "name": "_indexRealEstateInCollection",
          "type": "uint256"
        }
      ],
      "name": "confirmBuy",
      "outputs": [],
      "stateMutability": "payable",
      "type": "function",
      "payable": true
    },
    {
      "inputs": [],
      "name": "fetchAllAvailableyNfts",
      "outputs": [],
      "stateMutability": "view",
      "type": "function",
      "constant": true
    },
    {
      "inputs": [
        {
          "internalType": "uint256",
          "name": "_indexRealEstateInCollection",
          "type": "uint256"
        },
        {
          "internalType": "address",
          "name": "account",
          "type": "address"
        }
      ],
      "name": "fetchMyNfts",
      "outputs": [
        {
          "components": [
            {
              "internalType": "uint256",
              "name": "tokenId",
              "type": "uint256"
            },
            {
              "internalType": "uint256",
              "name": "price",
              "type": "uint256"
            },
            {
              "internalType": "uint256",
              "name": "quantity",
              "type": "uint256"
            },
            {
              "internalType": "address payable",
              "name": "seller",
              "type": "address"
            },
            {
              "internalType": "address payable",
              "name": "owner",
              "type": "address"
            }
          ],
          "internalType": "struct Rock.NFTCard[]",
          "name": "",
          "type": "tuple[]"
        }
      ],
      "stateMutability": "view",
      "type": "function",
      "constant": true
    }
  ],
  "bytecode": "0x600560095560c0604052600f60809081526e2937b1b59021b7b63632b1ba34b7b760891b60a052600a90620000359082620002ed565b50604080518082019091526004815263526f636b60e01b6020820152600b90620000609082620002ed565b503480156200006e57600080fd5b506040518060800160405280605a815260200162004802605a91396200009481620000df565b50620000a033620000f1565b6001600655620000b333611f4062000143565b600f80546001600160a01b03191673d4a33860578de61dbabdc8bfdb98fd742fa7028e179055620003b9565b6002620000ed8282620002ed565b5050565b600580546001600160a01b038381166001600160a01b0319831681179093556040519116919082907f8be0079c531659141344cd1fd0a4f28419497f9722a3daafe3b4186f6b6457e090600090a35050565b6127106001600160601b0382161115620001b75760405162461bcd60e51b815260206004820152602a60248201527f455243323938313a20726f79616c7479206665652077696c6c206578636565646044820152692073616c65507269636560b01b60648201526084015b60405180910390fd5b6001600160a01b0382166200020f5760405162461bcd60e51b815260206004820152601960248201527f455243323938313a20696e76616c6964207265636569766572000000000000006044820152606401620001ae565b604080518082019091526001600160a01b039092168083526001600160601b039091166020909201829052600160a01b90910217600355565b634e487b7160e01b600052604160045260246000fd5b600181811c908216806200027357607f821691505b6020821081036200029457634e487b7160e01b600052602260045260246000fd5b50919050565b601f821115620002e857600081815260208120601f850160051c81016020861015620002c35750805b601f850160051c820191505b81811015620002e457828155600101620002cf565b5050505b505050565b81516001600160401b0381111562000309576200030962000248565b62000321816200031a84546200025e565b846200029a565b602080601f831160018114620003595760008415620003405750858301515b600019600386901b1c1916600185901b178555620002e4565b600085815260208120601f198616915b828110156200038a5788860151825594840194600190910190840162000369565b5085821015620003a95787850151600019600388901b60f8161c191681555b5050505050600190811b01905550565b61443980620003c96000396000f3fe6080604052600436106101db5760003560e01c80637ae4893811610102578063a22cb46511610095578063f242432a11610064578063f242432a14610667578063f2a54c0414610687578063f2fde38b1461069c578063fdac310f146106bc57600080fd5b8063a22cb46514610543578063c23fd66614610563578063d1e8c4aa146105fe578063e985e9c51461061e57600080fd5b806394406098116100d157806394406098146104c657806395d89b41146104e65780639c2c0270146104fb578063a0f4651a1461051157600080fd5b80637ae4893814610453578063893d20e8146104665780638da5cb5b146104935780638e15f473146104b157600080fd5b80632beff5511161017a5780634e1273f4116101495780634e1273f4146103e55780636f7789a614610412578063715018a614610432578063717ec0a51461044757600080fd5b80632beff5511461031a5780632eb2c2d61461033a5780633079a8dd1461035a5780633ccfd60b146103d057600080fd5b8063065c0362116101b6578063065c03621461026c57806306fdde03146102995780630e89341c146102bb5780632a55205a146102db57600080fd5b8062fdd58e146101e7578063012f375f1461021a57806301ffc9a71461023c57600080fd5b366101e257005b600080fd5b3480156101f357600080fd5b5061020761020236600461359c565b6106e9565b6040519081526020015b60405180910390f35b34801561022657600080fd5b5061023a610235366004613696565b610795565b005b34801561024857600080fd5b5061025c610257366004613779565b610c52565b6040519015158152602001610211565b34801561027857600080fd5b5061028c61028736600461379d565b610c5d565b60405161021191906137c9565b3480156102a557600080fd5b506102ae610d0e565b604051610211919061388c565b3480156102c757600080fd5b506102ae6102d636600461389f565b610d9c565b3480156102e757600080fd5b506102fb6102f63660046138b8565b610e30565b604080516001600160a01b039093168352602083019190915201610211565b34801561032657600080fd5b5061023a61033536600461389f565b610f0f565b34801561034657600080fd5b5061023a61035536600461396f565b610f9f565b34801561036657600080fd5b5061037a6103753660046138b8565b611041565b6040516102119190600060e082019050825182526020830151602083015260408301516040830152606083015160608301526080830151608083015260a083015160a083015260c083015160c083015292915050565b3480156103dc57600080fd5b5061023a611101565b3480156103f157600080fd5b50610405610400366004613a19565b611195565b6040516102119190613b1f565b34801561041e57600080fd5b5061023a61042d36600461389f565b6112cb565b34801561043e57600080fd5b5061023a61140d565b34801561023a57600080fd5b61023a610461366004613b77565b611421565b34801561047257600080fd5b5061047b6116e0565b6040516001600160a01b039091168152602001610211565b34801561049f57600080fd5b506005546001600160a01b031661047b565b3480156104bd57600080fd5b506102076116f9565b3480156104d257600080fd5b5061025c6104e1366004613beb565b61177e565b3480156104f257600080fd5b506102ae6117cb565b34801561050757600080fd5b5061020760095481565b34801561051d57600080fd5b5061053161052c36600461389f565b6117d8565b60405161021196959493929190613c28565b34801561054f57600080fd5b5061023a61055e366004613c9f565b611a40565b34801561056f57600080fd5b506105ca61057e366004613cc9565b600d602090815260009384526040808520825292845282842090528252902080546001820154600283015460038401546004909401549293919290916001600160a01b03908116911685565b604080519586526020860194909452928401919091526001600160a01b03908116606084015216608082015260a001610211565b34801561060a57600080fd5b5061023a610619366004613cfe565b611a4f565b34801561062a57600080fd5b5061025c610639366004613d68565b6001600160a01b03918216600090815260016020908152604080832093909416825291909152205460ff1690565b34801561067357600080fd5b5061023a610682366004613d92565b6120cc565b34801561069357600080fd5b50600c54610207565b3480156106a857600080fd5b5061023a6106b7366004613df7565b612167565b3480156106c857600080fd5b506106dc6106d736600461389f565b6121f4565b6040516102119190613e12565b60006001600160a01b03831661076c5760405162461bcd60e51b815260206004820152602a60248201527f455243313135353a2061646472657373207a65726f206973206e6f742061207660448201527f616c6964206f776e65720000000000000000000000000000000000000000000060648201526084015b60405180910390fd5b506000818152602081815260408083206001600160a01b03861684529091529020545b92915050565b61079d61250d565b6040516020016107b890602080825260009082015260400190565b60405160208183030381529060405280519060200120856040516020016107df919061388c565b60405160208183030381529060405280519060200120036108685760405162461bcd60e51b815260206004820152602e60248201527f4c65206e6f6d2064752070726f6772616d6d6520696d6d6f62696c696572206560448201527f7374206f626c696761746f6972650000000000000000000000000000000000006064820152608401610763565b60405160200161088390602080825260009082015260400190565b60405160208183030381529060405280519060200120846040516020016108aa919061388c565b604051602081830303815290604052805190602001200361090d5760405162461bcd60e51b815260206004820152601c60248201527f4c6120736974756174696f6e20657374206f626c696761746f697265000000006044820152606401610763565b60405160200161092890602080825260009082015260400190565b604051602081830303815290604052805190602001208360405160200161094f919061388c565b60405160208183030381529060405280519060200120036109b25760405162461bcd60e51b815260206004820152601860248201527f4c612076696c6c6520657374206f626c696761746f69726500000000000000006044820152606401610763565b6040516020016109cd90602080825260009082015260400190565b60405160208183030381529060405280519060200120826040516020016109f4919061388c565b6040516020818303038152906040528051906020012003610a575760405162461bcd60e51b815260206004820152601660248201527f4c652063696420657374206f626c696761746f697265000000000000000000006044820152606401610763565b61c3508111610ace5760405162461bcd60e51b815260206004820152603860248201527f4572726575722c206c652070726978206475206269656e20696d6d6f20646f6960448201527f74206574726520737570657269657572206120353030303000000000000000006064820152608401610763565b610adc600880546001019055565b610b156040518060c001604052806000815260200160608152602001606081526020016060815260200160608152602001600081525090565b60085481526020810186815260408201869052606082018590526080820184905260a08201839052600c8054600181018255600091909152825160069091027fdf6966c971051c3d54ec59162606531493a51404a002842f56009d7e5cf4a8c78101918255915183927fdf6966c971051c3d54ec59162606531493a51404a002842f56009d7e5cf4a8c80190610bab9082613f46565b5060408201516002820190610bc09082613f46565b5060608201516003820190610bd59082613f46565b5060808201516004820190610bea9082613f46565b5060a08201518160050155505060006001610c0460085490565b610c0e9190614071565b90507ff25ea05cc68cbe6d2d1abce09caf6545e2282a00caed6975ebba55f38de5372081604051610c4191815260200190565b60405180910390a150505050505050565b600061078f82612567565b60608060015b60048111610d06576000858152600d602090815260408083206001600160a01b038089168552908352818420858552835292819020815160a081018352815481526001820154938101939093526002810154918301919091526003810154831660608301526004015490911660808201528251839083908110610ce857610ce8614084565b60200260200101819052508080610cfe906140b3565b915050610c63565b509392505050565b600a8054610d1b90613ea8565b80601f0160208091040260200160405190810160405280929190818152602001828054610d4790613ea8565b8015610d945780601f10610d6957610100808354040283529160200191610d94565b820191906000526020600020905b815481529060010190602001808311610d7757829003601f168201915b505050505081565b606060028054610dab90613ea8565b80601f0160208091040260200160405190810160405280929190818152602001828054610dd790613ea8565b8015610e245780601f10610df957610100808354040283529160200191610e24565b820191906000526020600020905b815481529060010190602001808311610e0757829003601f168201915b50505050509050919050565b60008281526004602090815260408083208151808301909252546001600160a01b038116808352740100000000000000000000000000000000000000009091046bffffffffffffffffffffffff16928201929092528291610ed15750604080518082019091526003546001600160a01b03811682527401000000000000000000000000000000000000000090046bffffffffffffffffffffffff1660208201525b602081015160009061271090610ef5906bffffffffffffffffffffffff16876140eb565b610eff9190614102565b91519350909150505b9250929050565b610f1761250d565b600081118015610f285750600a8111155b610f9a5760405162461bcd60e51b815260206004820152603660248201527f4c657320667261697320646f6976656e74206574726520636f6d70726973206560448201527f6e747265203020657420313020706f757263656e7473000000000000000000006064820152608401610763565b600955565b6001600160a01b038516331480610fbb5750610fbb8533610639565b61102d5760405162461bcd60e51b815260206004820152602e60248201527f455243313135353a2063616c6c6572206973206e6f7420746f6b656e206f776e60448201527f6572206f7220617070726f7665640000000000000000000000000000000000006064820152608401610763565b61103a85858585856125bd565b5050505050565b6110816040518060e00160405280600081526020016000815260200160008152602001600081526020016000815260200160008152602001600081525090565b6000838152600e6020526040812083600481106110a0576110a0614084565b600702016040518060e001604052908160008201548152602001600182015481526020016002820154815260200160038201548152602001600482015481526020016005820154815260200160068201548152505090508091505092915050565b61110961250d565b600047116111595760405162461bcd60e51b815260206004820152600b60248201527f42616c616e6365206120300000000000000000000000000000000000000000006044820152606401610763565b6005546040516001600160a01b03909116904780156108fc02916000818181858888f19350505050158015611192573d6000803e3d6000fd5b50565b6060815183511461120e5760405162461bcd60e51b815260206004820152602960248201527f455243313135353a206163636f756e747320616e6420696473206c656e67746860448201527f206d69736d6174636800000000000000000000000000000000000000000000006064820152608401610763565b6000835167ffffffffffffffff81111561122a5761122a6135c6565b604051908082528060200260200182016040528015611253578160200160208202803683370190505b50905060005b8451811015610d065761129e85828151811061127757611277614084565b602002602001015185838151811061129157611291614084565b60200260200101516106e9565b8282815181106112b0576112b0614084565b60209081029190910101526112c4816140b3565b9050611259565b6112d361250d565b600c5481111561134b5760405162461bcd60e51b815260206004820152602d60248201527f496e646578206475206269656e20696d6d6f62696c69657220656e206465686f60448201527f7273206475207461626c656175000000000000000000000000000000000000006064820152608401610763565b6000818152600e6020526040902054156113a75760405162461bcd60e51b815260206004820152601b60248201527f4c65206d696e7420612064656a612065746520656666656374756500000000006044820152606401610763565b6113b260008261285b565b506113be60018261285b565b506113ca60028261285b565b506113d660038261285b565b506040518181527fff4078d3a7633c1bd56ae05b46cf944f917a32264ef635cbc026a7efe2e473689060200160405180910390a150565b61141561250d565b61141f6000612a3e565b565b3360006114366005546001600160a01b031690565b90506000805b8781101561159557600087878381811061145857611458614084565b90506020020135116114d25760405162461bcd60e51b815260206004820152602d60248201527f4c61207175616e7469746520646520746f6b656e20646f69742065747265207360448201527f75706572696575726520612030000000000000000000000000000000000000006064820152608401610763565b61150e858a8a848181106114e8576114e8614084565b90506020020135858a8a8681811061150257611502614084565b9050602002013561177e565b9150816115835760405162461bcd60e51b815260206004820152602e60248201527f4c61207175616e7469746520646520746f6b656e7320646574656e756520657360448201527f7420696e737566666973616e74650000000000000000000000000000000000006064820152608401610763565b8061158d816140b3565b91505061143c565b506000826001600160a01b03163460405160006040518083038185875af1925050503d80600081146115e3576040519150601f19603f3d011682016040523d82523d6000602084013e6115e8565b606091505b505090508061165f5760405162461bcd60e51b815260206004820152603660248201527f4c6520706169656d656e74206465206c61207472616e73616374696f6e20766560448201527f7273206c6520636f6e747261742061206563686f7565000000000000000000006064820152608401610763565b61166e84848b8b8b8b8b612aa8565b826001600160a01b0316846001600160a01b03168a8a60405161169292919061413d565b60405180910390207fa49bf6fdd9a8666a8ab8eff7a909abdc2c06f905034d75c96c86bd9632915dfa8a8a346040516116cd9392919061417f565b60405180910390a4505050505050505050565b60006116f46005546001600160a01b031690565b905090565b600080600f60009054906101000a90046001600160a01b03166001600160a01b031663feaf968c6040518163ffffffff1660e01b815260040160a060405180830381865afa15801561174f573d6000803e3d6000fd5b505050506040513d601f19601f8201168201806040525081019061177391906141f0565b509195945050505050565b6000848152600d602090815260408083206001600160a01b038616845282528083208684529091528120600281015483116117bd5760019150506117c3565b60009150505b949350505050565b600b8054610d1b90613ea8565b600c81815481106117e857600080fd5b6000918252602090912060069091020180546001820180549193509061180d90613ea8565b80601f016020809104026020016040519081016040528092919081815260200182805461183990613ea8565b80156118865780601f1061185b57610100808354040283529160200191611886565b820191906000526020600020905b81548152906001019060200180831161186957829003601f168201915b50505050509080600201805461189b90613ea8565b80601f01602080910402602001604051908101604052809291908181526020018280546118c790613ea8565b80156119145780601f106118e957610100808354040283529160200191611914565b820191906000526020600020905b8154815290600101906020018083116118f757829003601f168201915b50505050509080600301805461192990613ea8565b80601f016020809104026020016040519081016040528092919081815260200182805461195590613ea8565b80156119a25780601f10611977576101008083540402835291602001916119a2565b820191906000526020600020905b81548152906001019060200180831161198557829003601f168201915b5050505050908060040180546119b790613ea8565b80601f01602080910402602001604051908101604052809291908181526020018280546119e390613ea8565b8015611a305780601f10611a0557610100808354040283529160200191611a30565b820191906000526020600020905b815481529060010190602001808311611a1357829003601f168201915b5050505050908060050154905086565b611a4b338383612cdb565b5050565b611a5761250d565b600c54891115611acf5760405162461bcd60e51b815260206004820152602d60248201527f496e646578206475206269656e20696d6d6f62696c69657220656e206465686f60448201527f7273206475207461626c656175000000000000000000000000000000000000006064820152608401610763565b606487108015611adf5750606486105b8015611aeb5750606485105b611b5d5760405162461bcd60e51b815260206004820152602360248201527f4572726575722c20756e2064657320706f757263656e7461676573206573742060448201527f61203000000000000000000000000000000000000000000000000000000000006064820152608401610763565b6032841015611bd45760405162461bcd60e51b815260206004820152603b60248201527f4572726575722c206c652070726978206d696e696d756d206465206c6120636160448201527f72746520434f545441474520646f6974206574726520646520353000000000006064820152608401610763565b6064831015611c4b5760405162461bcd60e51b815260206004820152603a60248201527f4572726575722c206c652070726978206d696e696d756d206465206c6120636160448201527f7274652056494c4c4120646f69742065747265206465203130300000000000006064820152608401610763565b6096821015611cc25760405162461bcd60e51b815260206004820152603c60248201527f4572726575722c206c652070726978206d696e696d756d206465206c6120636160448201527f727465204d414e53494f4e20646f6974206574726520646520313530000000006064820152608401610763565b8780611cdf575086158015611cd5575085155b8015611cdf575084155b15611cf15760329650601e9550601494505b6000898152600e60209081526040808320815160e08101835284815292830184905290820187905260608201839052608082018a9052601e60a083015260c0820183905291829060070201600082015181600001556020820151816001015560408201518160020155606082015181600301556080820151816004015560a0820151816005015560c082015181600601559050506040518060e00160405280600181526020016000815260200185815260200160008152602001888152602001601e8152602001600081525081600160048110611dd057611dd0614084565b60070201600082015181600001556020820151816001015560408201518160020155606082015181600301556080820151816004015560a0820151816005015560c082015181600601559050506040518060e00160405280600281526020016000815260200184815260200160008152602001878152602001601e8152602001600081525081600260048110611e6857611e68614084565b60070201600082015181600001556020820151816001015560408201518160020155606082015181600301556080820151816004015560a0820151816005015560c082015181600601559050506040518060e0016040528060038152602001600081526020018381526020016001815260200160008152602001601e8152602001600081525081600360048110611f0157611f01614084565b60070201600082015181600001556020820151816001015560408201518160020155606082015181600301556080820151816004015560a0820151816005015560c082015181600601559050506000826001611f5d91906140eb565b600c8c81548110611f7057611f70614084565b906000526020600020906006020160050154611f8c9190614071565b9050606460005b60038110156120325760008d8152600e602052604081208260048110611fbb57611fbb614084565b600702019050806003015460000361201f576000838260040154611fdf91906140eb565b90506000611fee8560646140eb565b611ff883886140eb565b6120029190614102565b905060008360020154826120169190614102565b60038501555050505b508061202a816140b3565b915050611f93565b506003830154600a8401547f01f6ecbad523aa4ebc65b0e3c80ebd687c182bea84d78431cac0754a2fd7c192918e9186600260070201600301548760036004811061207f5761207f614084565b60070201600301546040516120b6959493929190948552602085019390935260408401919091526060830152608082015260a00190565b60405180910390a1505050505050505050505050565b6001600160a01b0385163314806120e857506120e88533610639565b61215a5760405162461bcd60e51b815260206004820152602e60248201527f455243313135353a2063616c6c6572206973206e6f7420746f6b656e206f776e60448201527f6572206f7220617070726f7665640000000000000000000000000000000000006064820152608401610763565b61103a8585858585612ded565b61216f61250d565b6001600160a01b0381166121eb5760405162461bcd60e51b815260206004820152602660248201527f4f776e61626c653a206e6577206f776e657220697320746865207a65726f206160448201527f64647265737300000000000000000000000000000000000000000000000000006064820152608401610763565b61119281612a3e565b61222d6040518060c001604052806000815260200160608152602001606081526020016060815260200160608152602001600081525090565b600c54821061227e5760405162461bcd60e51b815260206004820152601a60248201527f4269656e20696d6d6f62696c69657220696e6578697374616e740000000000006044820152606401610763565b600c828154811061229157612291614084565b90600052602060002090600602016040518060c0016040529081600082015481526020016001820180546122c490613ea8565b80601f01602080910402602001604051908101604052809291908181526020018280546122f090613ea8565b801561233d5780601f106123125761010080835404028352916020019161233d565b820191906000526020600020905b81548152906001019060200180831161232057829003601f168201915b5050505050815260200160028201805461235690613ea8565b80601f016020809104026020016040519081016040528092919081815260200182805461238290613ea8565b80156123cf5780601f106123a4576101008083540402835291602001916123cf565b820191906000526020600020905b8154815290600101906020018083116123b257829003601f168201915b505050505081526020016003820180546123e890613ea8565b80601f016020809104026020016040519081016040528092919081815260200182805461241490613ea8565b80156124615780601f1061243657610100808354040283529160200191612461565b820191906000526020600020905b81548152906001019060200180831161244457829003601f168201915b5050505050815260200160048201805461247a90613ea8565b80601f01602080910402602001604051908101604052809291908181526020018280546124a690613ea8565b80156124f35780601f106124c8576101008083540402835291602001916124f3565b820191906000526020600020905b8154815290600101906020018083116124d657829003601f168201915b505050505081526020016005820154815250509050919050565b6005546001600160a01b0316331461141f5760405162461bcd60e51b815260206004820181905260248201527f4f776e61626c653a2063616c6c6572206973206e6f7420746865206f776e65726044820152606401610763565b60007fffffffff0000000000000000000000000000000000000000000000000000000082167f2a55205a00000000000000000000000000000000000000000000000000000000148061078f575061078f82612fc3565b81518351146126345760405162461bcd60e51b815260206004820152602860248201527f455243313135353a2069647320616e6420616d6f756e7473206c656e6774682060448201527f6d69736d617463680000000000000000000000000000000000000000000000006064820152608401610763565b6001600160a01b0384166126b05760405162461bcd60e51b815260206004820152602560248201527f455243313135353a207472616e7366657220746f20746865207a65726f20616460448201527f64726573730000000000000000000000000000000000000000000000000000006064820152608401610763565b3360005b84518110156127ed5760008582815181106126d1576126d1614084565b6020026020010151905060008583815181106126ef576126ef614084565b602090810291909101810151600084815280835260408082206001600160a01b038e1683529093529190912054909150818110156127955760405162461bcd60e51b815260206004820152602a60248201527f455243313135353a20696e73756666696369656e742062616c616e636520666f60448201527f72207472616e73666572000000000000000000000000000000000000000000006064820152608401610763565b6000838152602081815260408083206001600160a01b038e8116855292528083208585039055908b168252812080548492906127d2908490614240565b92505081905550505050806127e6906140b3565b90506126b4565b50846001600160a01b0316866001600160a01b0316826001600160a01b03167f4a39dc06d4c0dbc64b70af90fd698a233a518aa5d07e595d983b8c0526c8f7fb878760405161283d929190614253565b60405180910390a46128538187878787876130a6565b505050505050565b600061286561250d565b612873600780546001019055565b600061287e60075490565b905060006128946005546001600160a01b031690565b6000858152600e602052604081209192509086600481106128b7576128b7614084565b6007020160030154905082600e600087815260200190815260200160002087600481106128e6576128e6614084565b6007020155604080516020810190915260008152612909908390859084906132b3565b6000858152600e60205260408120612938908490896004811061292e5761292e614084565b60070201546106e9565b6000878152600d602090815260408083206001600160a01b0388168452825280832088845282528083208a8452600e90925290912091925090886004811061298257612982614084565b600702015481556000878152600e6020526040902088600481106129a8576129a8614084565b6007020160029081015460018301558101829055600480820180547fffffffffffffffffffffffff00000000000000000000000000000000000000009081166001600160a01b03881690811790925560038401805490911690911790556000888152600e6020526040902083918a908110612a2557612a25614084565b6007020160060181905550849550505050505092915050565b600580546001600160a01b038381167fffffffffffffffffffffffff0000000000000000000000000000000000000000831681179093556040519116919082907f8be0079c531659141344cd1fd0a4f28419497f9722a3daafe3b4186f6b6457e090600090a35050565b612ab487876001612cdb565b612b31868887878080602002602001604051908101604052809392919081815260200183836020028082843760009201919091525050604080516020808b0282810182019093528a82529093508a925089918291850190849080828437600092018290525060408051602081019091529081529250610f9f915050565b60005b84811015612cd1576000828152600d602090815260408083206001600160a01b038b168452909152812081888885818110612b7157612b71614084565b9050602002013581526020019081526020016000209050848483818110612b9a57612b9a614084565b90506020020135816002016000828254612bb49190614071565b90915550506003810180546001600160a01b03808b167fffffffffffffffffffffffff000000000000000000000000000000000000000092831617909255600483018054928c1692909116821790556000848152600d6020908152604080832093835292905290812081898986818110612c3057612c30614084565b9050602002013581526020019081526020016000209050858584818110612c5957612c59614084565b90506020020135816002016000828254612c739190614240565b90915550506003810180546001600160a01b038c167fffffffffffffffffffffffff00000000000000000000000000000000000000009182168117909255600490920180549092161790555080612cc9816140b3565b915050612b34565b5050505050505050565b816001600160a01b0316836001600160a01b031603612d625760405162461bcd60e51b815260206004820152602960248201527f455243313135353a2073657474696e6720617070726f76616c2073746174757360448201527f20666f722073656c6600000000000000000000000000000000000000000000006064820152608401610763565b6001600160a01b0383811660008181526001602090815260408083209487168084529482529182902080547fffffffffffffffffffffffffffffffffffffffffffffffffffffffffffffff001686151590811790915591519182527f17307eab39ab6107e8899845ad3d59bd9653f200f220920489ca2b5937696c31910160405180910390a3505050565b6001600160a01b038416612e695760405162461bcd60e51b815260206004820152602560248201527f455243313135353a207472616e7366657220746f20746865207a65726f20616460448201527f64726573730000000000000000000000000000000000000000000000000000006064820152608401610763565b336000612e75856133da565b90506000612e82856133da565b90506000868152602081815260408083206001600160a01b038c16845290915290205485811015612f1b5760405162461bcd60e51b815260206004820152602a60248201527f455243313135353a20696e73756666696369656e742062616c616e636520666f60448201527f72207472616e73666572000000000000000000000000000000000000000000006064820152608401610763565b6000878152602081815260408083206001600160a01b038d8116855292528083208985039055908a16825281208054889290612f58908490614240565b909155505060408051888152602081018890526001600160a01b03808b16928c821692918816917fc3d58168c5ae7397731d063d5bbf3d657854427343f4c083240f7aacaa2d0f62910160405180910390a4612fb8848a8a8a8a8a613425565b505050505050505050565b60007fffffffff0000000000000000000000000000000000000000000000000000000082167fd9b67a2600000000000000000000000000000000000000000000000000000000148061305657507fffffffff0000000000000000000000000000000000000000000000000000000082167f0e89341c00000000000000000000000000000000000000000000000000000000145b8061078f57507f01ffc9a7000000000000000000000000000000000000000000000000000000007fffffffff0000000000000000000000000000000000000000000000000000000083161461078f565b6001600160a01b0384163b15612853576040517fbc197c810000000000000000000000000000000000000000000000000000000081526001600160a01b0385169063bc197c81906131039089908990889088908890600401614281565b6020604051808303816000875af192505050801561313e575060408051601f3d908101601f1916820190925261313b918101906142df565b60015b6131f35761314a6142fc565b806308c379a003613183575061315e614318565b806131695750613185565b8060405162461bcd60e51b8152600401610763919061388c565b505b60405162461bcd60e51b815260206004820152603460248201527f455243313135353a207472616e7366657220746f206e6f6e2d4552433131353560448201527f526563656976657220696d706c656d656e7465720000000000000000000000006064820152608401610763565b7fffffffff0000000000000000000000000000000000000000000000000000000081167fbc197c8100000000000000000000000000000000000000000000000000000000146132aa5760405162461bcd60e51b815260206004820152602860248201527f455243313135353a204552433131353552656365697665722072656a6563746560448201527f6420746f6b656e730000000000000000000000000000000000000000000000006064820152608401610763565b50505050505050565b6001600160a01b03841661332f5760405162461bcd60e51b815260206004820152602160248201527f455243313135353a206d696e7420746f20746865207a65726f2061646472657360448201527f73000000000000000000000000000000000000000000000000000000000000006064820152608401610763565b33600061333b856133da565b90506000613348856133da565b90506000868152602081815260408083206001600160a01b038b1684529091528120805487929061337a908490614240565b909155505060408051878152602081018790526001600160a01b03808a1692600092918716917fc3d58168c5ae7397731d063d5bbf3d657854427343f4c083240f7aacaa2d0f62910160405180910390a46132aa83600089898989613425565b6040805160018082528183019092526060916000919060208083019080368337019050509050828160008151811061341457613414614084565b602090810291909101015292915050565b6001600160a01b0384163b15612853576040517ff23a6e610000000000000000000000000000000000000000000000000000000081526001600160a01b0385169063f23a6e619061348290899089908890889088906004016143c0565b6020604051808303816000875af19250505080156134bd575060408051601f3d908101601f191682019092526134ba918101906142df565b60015b6134c95761314a6142fc565b7fffffffff0000000000000000000000000000000000000000000000000000000081167ff23a6e6100000000000000000000000000000000000000000000000000000000146132aa5760405162461bcd60e51b815260206004820152602860248201527f455243313135353a204552433131353552656365697665722072656a6563746560448201527f6420746f6b656e730000000000000000000000000000000000000000000000006064820152608401610763565b80356001600160a01b038116811461359757600080fd5b919050565b600080604083850312156135af57600080fd5b6135b883613580565b946020939093013593505050565b7f4e487b7100000000000000000000000000000000000000000000000000000000600052604160045260246000fd5b601f19601f830116810181811067ffffffffffffffff8211171561361b5761361b6135c6565b6040525050565b600082601f83011261363357600080fd5b813567ffffffffffffffff81111561364d5761364d6135c6565b6040516136646020601f19601f85011601826135f5565b81815284602083860101111561367957600080fd5b816020850160208301376000918101602001919091529392505050565b600080600080600060a086880312156136ae57600080fd5b853567ffffffffffffffff808211156136c657600080fd5b6136d289838a01613622565b965060208801359150808211156136e857600080fd5b6136f489838a01613622565b9550604088013591508082111561370a57600080fd5b61371689838a01613622565b9450606088013591508082111561372c57600080fd5b5061373988828901613622565b95989497509295608001359392505050565b7fffffffff000000000000000000000000000000000000000000000000000000008116811461119257600080fd5b60006020828403121561378b57600080fd5b81356137968161374b565b9392505050565b600080604083850312156137b057600080fd5b823591506137c060208401613580565b90509250929050565b602080825282518282018190526000919060409081850190868401855b8281101561383957815180518552868101518786015285810151868601526060808201516001600160a01b0390811691870191909152608091820151169085015260a090930192908501906001016137e6565b5091979650505050505050565b6000815180845260005b8181101561386c57602081850181015186830182015201613850565b506000602082860101526020601f19601f83011685010191505092915050565b6020815260006137966020830184613846565b6000602082840312156138b157600080fd5b5035919050565b600080604083850312156138cb57600080fd5b50508035926020909101359150565b600067ffffffffffffffff8211156138f4576138f46135c6565b5060051b60200190565b600082601f83011261390f57600080fd5b8135602061391c826138da565b60405161392982826135f5565b83815260059390931b850182019282810191508684111561394957600080fd5b8286015b84811015613964578035835291830191830161394d565b509695505050505050565b600080600080600060a0868803121561398757600080fd5b61399086613580565b945061399e60208701613580565b9350604086013567ffffffffffffffff808211156139bb57600080fd5b6139c789838a016138fe565b945060608801359150808211156139dd57600080fd5b6139e989838a016138fe565b935060808801359150808211156139ff57600080fd5b50613a0c88828901613622565b9150509295509295909350565b60008060408385031215613a2c57600080fd5b823567ffffffffffffffff80821115613a4457600080fd5b818501915085601f830112613a5857600080fd5b81356020613a65826138da565b604051613a7282826135f5565b83815260059390931b8501820192828101915089841115613a9257600080fd5b948201945b83861015613ab757613aa886613580565b82529482019490820190613a97565b96505086013592505080821115613acd57600080fd5b50613ada858286016138fe565b9150509250929050565b600081518084526020808501945080840160005b83811015613b1457815187529582019590820190600101613af8565b509495945050505050565b6020815260006137966020830184613ae4565b60008083601f840112613b4457600080fd5b50813567ffffffffffffffff811115613b5c57600080fd5b6020830191508360208260051b8501011115610f0857600080fd5b600080600080600060608688031215613b8f57600080fd5b853567ffffffffffffffff80821115613ba757600080fd5b613bb389838a01613b32565b90975095506020880135915080821115613bcc57600080fd5b50613bd988828901613b32565b96999598509660400135949350505050565b60008060008060808587031215613c0157600080fd5b8435935060208501359250613c1860408601613580565b9396929550929360600135925050565b86815260c060208201526000613c4160c0830188613846565b8281036040840152613c538188613846565b90508281036060840152613c678187613846565b90508281036080840152613c7b8186613846565b9150508260a0830152979650505050505050565b8035801515811461359757600080fd5b60008060408385031215613cb257600080fd5b613cbb83613580565b91506137c060208401613c8f565b600080600060608486031215613cde57600080fd5b83359250613cee60208501613580565b9150604084013590509250925092565b60008060008060008060008060006101208a8c031215613d1d57600080fd5b89359850613d2d60208b01613c8f565b989b989a505050506040870135966060810135966080820135965060a0820135955060c0820135945060e08201359350610100909101359150565b60008060408385031215613d7b57600080fd5b613d8483613580565b91506137c060208401613580565b600080600080600060a08688031215613daa57600080fd5b613db386613580565b9450613dc160208701613580565b93506040860135925060608601359150608086013567ffffffffffffffff811115613deb57600080fd5b613a0c88828901613622565b600060208284031215613e0957600080fd5b61379682613580565b60208152815160208201526000602083015160c06040840152613e3860e0840182613846565b90506040840151601f1980858403016060860152613e568383613846565b92506060860151915080858403016080860152613e738383613846565b925060808601519150808584030160a086015250613e918282613846565b91505060a084015160c08401528091505092915050565b600181811c90821680613ebc57607f821691505b602082108103613ef5577f4e487b7100000000000000000000000000000000000000000000000000000000600052602260045260246000fd5b50919050565b601f821115613f4157600081815260208120601f850160051c81016020861015613f225750805b601f850160051c820191505b8181101561285357828155600101613f2e565b505050565b815167ffffffffffffffff811115613f6057613f606135c6565b613f7481613f6e8454613ea8565b84613efb565b602080601f831160018114613fc75760008415613f915750858301515b7fffffffffffffffffffffffffffffffffffffffffffffffffffffffffffffffff600386901b1c1916600185901b178555612853565b600085815260208120601f198616915b82811015613ff657888601518255948401946001909101908401613fd7565b508582101561403257878501517fffffffffffffffffffffffffffffffffffffffffffffffffffffffffffffffff600388901b60f8161c191681555b5050505050600190811b01905550565b7f4e487b7100000000000000000000000000000000000000000000000000000000600052601160045260246000fd5b8181038181111561078f5761078f614042565b7f4e487b7100000000000000000000000000000000000000000000000000000000600052603260045260246000fd5b60007fffffffffffffffffffffffffffffffffffffffffffffffffffffffffffffffff82036140e4576140e4614042565b5060010190565b808202811582820484141761078f5761078f614042565b600082614138577f4e487b7100000000000000000000000000000000000000000000000000000000600052601260045260246000fd5b500490565b60007f07ffffffffffffffffffffffffffffffffffffffffffffffffffffffffffffff83111561416c57600080fd5b8260051b80858437919091019392505050565b6040815282604082015260007f07ffffffffffffffffffffffffffffffffffffffffffffffffffffffffffffff8411156141b857600080fd5b8360051b808660608501376020830193909352500160600192915050565b805169ffffffffffffffffffff8116811461359757600080fd5b600080600080600060a0868803121561420857600080fd5b614211866141d6565b9450602086015193506040860151925060608601519150614234608087016141d6565b90509295509295909350565b8082018082111561078f5761078f614042565b6040815260006142666040830185613ae4565b82810360208401526142788185613ae4565b95945050505050565b60006001600160a01b03808816835280871660208401525060a060408301526142ad60a0830186613ae4565b82810360608401526142bf8186613ae4565b905082810360808401526142d38185613846565b98975050505050505050565b6000602082840312156142f157600080fd5b81516137968161374b565b600060033d11156143155760046000803e5060005160e01c5b90565b600060443d10156143265790565b6040517ffffffffffffffffffffffffffffffffffffffffffffffffffffffffffffffffc803d016004833e81513d67ffffffffffffffff816024840111818411171561437457505050505090565b828501915081518181111561438c5750505050505090565b843d87010160208285010111156143a65750505050505090565b6143b5602082860101876135f5565b509095945050505050565b60006001600160a01b03808816835280871660208401525084604083015283606083015260a060808301526143f860a0830184613846565b97965050505050505056fea2646970667358221220686194fee2a20b0a44a4e76103e8ae26a5412f7321ef3d9d3e55ad56cd5d1c6064736f6c6343000811003368747470733a2f2f676174657761792e70696e6174612e636c6f75642f697066732f516d57513567624468463539766f6e6753676d514a4d595269695670586d647559415539676666774454776e63612f7b69647d2e6a736f6e",
  "immutableReferences": {},
  "source": "// SPDX-License-Identifier: MIT\npragma solidity 0.8.17;\n\nimport \"../node_modules/@openzeppelin/contracts/token/ERC1155/IERC1155.sol\";\nimport \"../node_modules/@openzeppelin/contracts/utils/Counters.sol\";\n// import \"@openzeppelin/contracts/utils/introspection/ERC165.sol\";\nimport \"../node_modules/@openzeppelin/contracts/access/Ownable.sol\";\nimport \"../node_modules/@chainlink/contracts/src/v0.8/interfaces/AggregatorV3Interface.sol\";\nimport \"../node_modules/@openzeppelin/contracts/security/ReentrancyGuard.sol\";\n\nimport \"./Rock.sol\";\n\nimport \"./Rock.sol\";\n\n//import \"./ERC1155.sol\";\n\ncontract Marketplace is Rock {\n    // Events\n    event CardPurchased(\n        uint256[] indexed tokenId,\n        address indexed buyer,\n        address indexed seller,\n        uint256[] quantities,\n        uint256 totalPrice\n    );\n\n    // Dans le cadre d'une vente, si Alice achete 2 cartes COTTAGE  BOB, on vrifie que Bob dtient bien ces 2 cartes\n    function verifyUserQuantityIsAvailable(\n        uint256 _indexRealEstateInCollection,\n        uint256 tokenId,\n        address sellerAddress,\n        uint256 askedQuantity\n    ) public view returns (bool) {\n        NFTCard storage userCard = usersCardsNfts[_indexRealEstateInCollection][\n            sellerAddress\n        ][tokenId];\n        if (askedQuantity <= userCard.quantity) {\n            return true;\n        }\n        return false;\n    }\n\n    /// Fonction permettant d'acheter une ou plusieurs cartes NFT\n    function confirmBuy(\n        uint256[] calldata _tokenIds,\n        uint256[] calldata _quantities,\n        uint256 _indexRealEstateInCollection\n    ) external payable {\n        address buyer = payable(msg.sender);\n        address seller = payable(owner());\n\n        bool amountAvailable = false;\n\n        for (uint256 i = 0; i < _tokenIds.length; i++) {\n            require(\n                _quantities[i] > 0,\n                \"La quantite de token doit etre superieure a 0\"\n            );\n\n            // Vrification de la balance du vendeur\n            amountAvailable = verifyUserQuantityIsAvailable(\n                _indexRealEstateInCollection,\n                _tokenIds[i],\n                seller,\n                _quantities[i]\n            );\n\n            require(\n                amountAvailable,\n                \"La quantite de tokens detenue est insuffisante\"\n            );\n        }\n\n        // L'acheteur (msg.sender) envoie 2 ethers au propitaire du NFT\n        (bool sentToPlateform, ) = payable(seller).call{value: msg.value}(\"\");\n\n        // La transaction doit avoir reussi pour ontinuer le transfert des NFT\n        require(\n            sentToPlateform,\n            \"Le paiement de la transaction vers le contrat a echoue\"\n        );\n\n        // Distribution des NFT achets\n        distributeTokens(\n            buyer,\n            seller,\n            _tokenIds,\n            _quantities,\n            _indexRealEstateInCollection\n        );\n\n        emit CardPurchased(_tokenIds, buyer, seller, _quantities, msg.value);\n    }\n\n    function distributeTokens(\n        address buyer,\n        address seller,\n        uint256[] calldata _tokenIds,\n        uint256[] calldata _quantities,\n        uint256 _indexRealEstateInCollection\n    ) private {\n        // Les tokens appartenant  l'owner, il est ncessaire d'approuver le buyer pour que le transfert puisse se faire\n        _setApprovalForAll(buyer, seller, true);\n        // Transfert des tokens vers l'acheteur\n        safeBatchTransferFrom(seller, buyer, _tokenIds, _quantities, \"\");\n\n        // MAJ des balances\n        for (uint256 i = 0; i < _tokenIds.length; i++) {\n            // Mise  jour de la balance du vendeur\n            NFTCard storage sellerTokens = usersCardsNfts[\n                _indexRealEstateInCollection\n            ][seller][_tokenIds[i]];\n            sellerTokens.quantity -= _quantities[i];\n            sellerTokens.seller = payable(seller);\n            sellerTokens.owner = payable(buyer);\n\n            // Mise  jour de la balance de l'acheteur\n            NFTCard storage buyTokens = usersCardsNfts[\n                _indexRealEstateInCollection\n            ][buyer][_tokenIds[i]];\n            buyTokens.quantity += _quantities[i];\n            buyTokens.seller = payable(buyer);\n            buyTokens.owner = payable(buyer);\n        }\n    }\n\n    function fetchAllAvailableyNfts() public view {}\n\n    ///\n    function fetchMyNfts(uint256 _indexRealEstateInCollection, address account)\n        public\n        view\n        returns (NFTCard[] memory)\n    {\n        NFTCard[] memory myNFTCards;\n\n        // Rcupration du solde des 4 cartes du bien immobilier pass en paramtre\n        for (uint256 tokenId = 1; tokenId <= 4; tokenId++) {\n            myNFTCards[tokenId] = usersCardsNfts[_indexRealEstateInCollection][\n                account\n            ][tokenId];\n        }\n        return myNFTCards;\n    }\n\n    // Cette fonction doit mettre  jour les differentes balances aprs un achat ou aprs une vente\n    function updateBalances() private onlyOwner {}\n\n    // Le contrat pourra recevoir des fonds\n    receive() external payable {}\n}\n",
  "sourcePath": "/home/anicaise/Formation/Alyra/Rock/truffle/contracts/Marketplace.sol",
  "compiler": {
    "name": "solc",
    "version": "0.8.17+commit.8df45f5f.Emscripten.clang"
  },
  "schemaVersion": "3.4.10",
  "updatedAt": "2022-12-11T15:20:04.031Z",
  "networkType": "ethereum",
  "devdoc": {
    "kind": "dev",
    "methods": {
      "balanceOf(address,uint256)": {
        "details": "See {IERC1155-balanceOf}. Requirements: - `account` cannot be the zero address."
      },
      "balanceOfBatch(address[],uint256[])": {
        "details": "See {IERC1155-balanceOfBatch}. Requirements: - `accounts` and `ids` must have the same length."
      },
      "getRealEstatesCollectionCount()": {
        "returns": {
          "_0": "uint256 Count of proposals"
        }
      },
      "isApprovedForAll(address,address)": {
        "details": "See {IERC1155-isApprovedForAll}."
      },
      "owner()": {
        "details": "Returns the address of the current owner."
      },
      "renounceOwnership()": {
        "details": "Leaves the contract without owner. It will not be possible to call `onlyOwner` functions anymore. Can only be called by the current owner. NOTE: Renouncing ownership will leave the contract without an owner, thereby removing any functionality that is only available to the owner."
      },
      "royaltyInfo(uint256,uint256)": {
        "details": "Returns how much royalty is owed and to whom, based on a sale price that may be denominated in any unit of exchange. The royalty amount is denominated and should be paid in that same unit of exchange."
      },
      "safeBatchTransferFrom(address,address,uint256[],uint256[],bytes)": {
        "details": "See {IERC1155-safeBatchTransferFrom}."
      },
      "safeTransferFrom(address,address,uint256,uint256,bytes)": {
        "details": "See {IERC1155-safeTransferFrom}."
      },
      "setApprovalForAll(address,bool)": {
        "details": "See {IERC1155-setApprovalForAll}."
      },
      "transferOwnership(address)": {
        "details": "Transfers ownership of the contract to a new account (`newOwner`). Can only be called by the current owner."
      },
      "uri(uint256)": {
        "details": "See {IERC1155MetadataURI-uri}. This implementation returns the same URI for *all* token types. It relies on the token type ID substitution mechanism https://eips.ethereum.org/EIPS/eip-1155#metadata[defined in the EIP]. Clients calling this function must replace the `\\{id\\}` substring with the actual token type ID."
      }
    },
    "version": 1
  },
  "userdoc": {
    "kind": "user",
    "methods": {
      "confirmBuy(uint256[],uint256[],uint256)": {
        "notice": "Fonction permettant d'acheter une ou plusieurs cartes NFT"
      },
      "getLatestPrice()": {
        "notice": "Returns the latest price MATIC/USD"
      },
      "getRealEstatesCollectionCount()": {
        "notice": "Return the count of proposals"
      }
    },
    "version": 1
  }
}