{
  "contractName": "Marketplace",
  "abi": [
    {
      "anonymous": false,
      "inputs": [
        {
          "indexed": true,
          "internalType": "address",
          "name": "account",
          "type": "address"
        },
        {
          "indexed": true,
          "internalType": "address",
          "name": "operator",
          "type": "address"
        },
        {
          "indexed": false,
          "internalType": "bool",
          "name": "approved",
          "type": "bool"
        }
      ],
      "name": "ApprovalForAll",
      "type": "event"
    },
    {
      "anonymous": false,
      "inputs": [
        {
          "indexed": true,
          "internalType": "uint256[]",
          "name": "tokenId",
          "type": "uint256[]"
        },
        {
          "indexed": true,
          "internalType": "address",
          "name": "buyer",
          "type": "address"
        },
        {
          "indexed": true,
          "internalType": "address",
          "name": "seller",
          "type": "address"
        },
        {
          "indexed": false,
          "internalType": "uint256[]",
          "name": "cardsId",
          "type": "uint256[]"
        },
        {
          "indexed": false,
          "internalType": "uint256[]",
          "name": "quantities",
          "type": "uint256[]"
        },
        {
          "indexed": false,
          "internalType": "uint256",
          "name": "totalPrice",
          "type": "uint256"
        }
      ],
      "name": "CardPurchased",
      "type": "event"
    },
    {
      "anonymous": false,
      "inputs": [
        {
          "indexed": true,
          "internalType": "address",
          "name": "previousOwner",
          "type": "address"
        },
        {
          "indexed": true,
          "internalType": "address",
          "name": "newOwner",
          "type": "address"
        }
      ],
      "name": "OwnershipTransferred",
      "type": "event"
    },
    {
      "anonymous": false,
      "inputs": [
        {
          "indexed": false,
          "internalType": "uint256",
          "name": "idRealEstate",
          "type": "uint256"
        }
      ],
      "name": "RealEstateAdded",
      "type": "event"
    },
    {
      "anonymous": false,
      "inputs": [
        {
          "indexed": true,
          "internalType": "address",
          "name": "operator",
          "type": "address"
        },
        {
          "indexed": true,
          "internalType": "address",
          "name": "from",
          "type": "address"
        },
        {
          "indexed": true,
          "internalType": "address",
          "name": "to",
          "type": "address"
        },
        {
          "indexed": false,
          "internalType": "uint256[]",
          "name": "ids",
          "type": "uint256[]"
        },
        {
          "indexed": false,
          "internalType": "uint256[]",
          "name": "values",
          "type": "uint256[]"
        }
      ],
      "name": "TransferBatch",
      "type": "event"
    },
    {
      "anonymous": false,
      "inputs": [
        {
          "indexed": true,
          "internalType": "address",
          "name": "operator",
          "type": "address"
        },
        {
          "indexed": true,
          "internalType": "address",
          "name": "from",
          "type": "address"
        },
        {
          "indexed": true,
          "internalType": "address",
          "name": "to",
          "type": "address"
        },
        {
          "indexed": false,
          "internalType": "uint256",
          "name": "id",
          "type": "uint256"
        },
        {
          "indexed": false,
          "internalType": "uint256",
          "name": "value",
          "type": "uint256"
        }
      ],
      "name": "TransferSingle",
      "type": "event"
    },
    {
      "anonymous": false,
      "inputs": [
        {
          "indexed": false,
          "internalType": "string",
          "name": "value",
          "type": "string"
        },
        {
          "indexed": true,
          "internalType": "uint256",
          "name": "id",
          "type": "uint256"
        }
      ],
      "name": "URI",
      "type": "event"
    },
    {
      "anonymous": false,
      "inputs": [
        {
          "indexed": false,
          "internalType": "uint256",
          "name": "idToken",
          "type": "uint256"
        },
        {
          "indexed": false,
          "internalType": "uint256",
          "name": "supplyCottage",
          "type": "uint256"
        },
        {
          "indexed": false,
          "internalType": "uint256",
          "name": "supplyVilla",
          "type": "uint256"
        },
        {
          "indexed": false,
          "internalType": "uint256",
          "name": "supplyMansion",
          "type": "uint256"
        },
        {
          "indexed": false,
          "internalType": "uint256",
          "name": "supplyHighRise",
          "type": "uint256"
        }
      ],
      "name": "supplyCardsCalculated",
      "type": "event"
    },
    {
      "anonymous": false,
      "inputs": [
        {
          "indexed": false,
          "internalType": "uint256",
          "name": "idRealEstate",
          "type": "uint256"
        }
      ],
      "name": "tokenMinted",
      "type": "event"
    },
    {
      "inputs": [
        {
          "internalType": "uint256",
          "name": "",
          "type": "uint256"
        }
      ],
      "name": "Listings",
      "outputs": [
        {
          "internalType": "uint256",
          "name": "tokenId",
          "type": "uint256"
        },
        {
          "internalType": "uint256",
          "name": "price",
          "type": "uint256"
        },
        {
          "internalType": "uint256",
          "name": "quantity",
          "type": "uint256"
        },
        {
          "internalType": "address payable",
          "name": "seller",
          "type": "address"
        },
        {
          "internalType": "address payable",
          "name": "owner",
          "type": "address"
        }
      ],
      "stateMutability": "view",
      "type": "function"
    },
    {
      "inputs": [
        {
          "internalType": "string",
          "name": "_name",
          "type": "string"
        },
        {
          "internalType": "string",
          "name": "_location",
          "type": "string"
        },
        {
          "internalType": "string",
          "name": "_city",
          "type": "string"
        },
        {
          "internalType": "string",
          "name": "_cid",
          "type": "string"
        },
        {
          "internalType": "uint256",
          "name": "_price",
          "type": "uint256"
        }
      ],
      "name": "addRealEstate",
      "outputs": [],
      "stateMutability": "nonpayable",
      "type": "function"
    },
    {
      "inputs": [
        {
          "internalType": "address",
          "name": "account",
          "type": "address"
        },
        {
          "internalType": "uint256",
          "name": "id",
          "type": "uint256"
        }
      ],
      "name": "balanceOf",
      "outputs": [
        {
          "internalType": "uint256",
          "name": "",
          "type": "uint256"
        }
      ],
      "stateMutability": "view",
      "type": "function"
    },
    {
      "inputs": [
        {
          "internalType": "address[]",
          "name": "accounts",
          "type": "address[]"
        },
        {
          "internalType": "uint256[]",
          "name": "ids",
          "type": "uint256[]"
        }
      ],
      "name": "balanceOfBatch",
      "outputs": [
        {
          "internalType": "uint256[]",
          "name": "",
          "type": "uint256[]"
        }
      ],
      "stateMutability": "view",
      "type": "function"
    },
    {
      "inputs": [
        {
          "internalType": "uint256",
          "name": "_indexRealEstateInCollection",
          "type": "uint256"
        },
        {
          "internalType": "bool",
          "name": "_isDefaultSupply",
          "type": "bool"
        },
        {
          "internalType": "uint256",
          "name": "_ratioTokenCottage",
          "type": "uint256"
        },
        {
          "internalType": "uint256",
          "name": "_ratioTokenVilla",
          "type": "uint256"
        },
        {
          "internalType": "uint256",
          "name": "_ratioTokenMansion",
          "type": "uint256"
        },
        {
          "internalType": "uint256",
          "name": "_prixTokenCottage",
          "type": "uint256"
        },
        {
          "internalType": "uint256",
          "name": "_prixTokenVilla",
          "type": "uint256"
        },
        {
          "internalType": "uint256",
          "name": "_prixTokenMansion",
          "type": "uint256"
        },
        {
          "internalType": "uint256",
          "name": "_prixTokenHighRise",
          "type": "uint256"
        }
      ],
      "name": "calculateNumberOfTokens",
      "outputs": [],
      "stateMutability": "nonpayable",
      "type": "function"
    },
    {
      "inputs": [
        {
          "internalType": "uint256",
          "name": "_indexRealEstateInCollection",
          "type": "uint256"
        },
        {
          "internalType": "uint256[]",
          "name": "_cardsId",
          "type": "uint256[]"
        },
        {
          "internalType": "uint256[]",
          "name": "_amounts",
          "type": "uint256[]"
        }
      ],
      "name": "calculeTotalPrice",
      "outputs": [
        {
          "internalType": "uint256",
          "name": "",
          "type": "uint256"
        }
      ],
      "stateMutability": "view",
      "type": "function"
    },
    {
      "inputs": [
        {
          "internalType": "uint256",
          "name": "_indexRealEstateInCollection",
          "type": "uint256"
        },
        {
          "internalType": "uint256",
          "name": "_cardId",
          "type": "uint256"
        }
      ],
      "name": "getCard",
      "outputs": [
        {
          "components": [
            {
              "internalType": "uint256",
              "name": "tokenId",
              "type": "uint256"
            },
            {
              "internalType": "uint256",
              "name": "cardId",
              "type": "uint256"
            },
            {
              "internalType": "uint256",
              "name": "price",
              "type": "uint256"
            },
            {
              "internalType": "uint256",
              "name": "numberOfTokens",
              "type": "uint256"
            },
            {
              "internalType": "uint256",
              "name": "ratioOfTokensInPercent",
              "type": "uint256"
            },
            {
              "internalType": "uint256",
              "name": "royalty",
              "type": "uint256"
            },
            {
              "internalType": "uint256",
              "name": "balance",
              "type": "uint256"
            }
          ],
          "internalType": "struct Rock.Card",
          "name": "",
          "type": "tuple"
        }
      ],
      "stateMutability": "view",
      "type": "function"
    },
    {
      "inputs": [
        {
          "internalType": "uint256",
          "name": "_amount",
          "type": "uint256"
        }
      ],
      "name": "getLastPairMaticUsd",
      "outputs": [
        {
          "internalType": "uint256",
          "name": "",
          "type": "uint256"
        }
      ],
      "stateMutability": "view",
      "type": "function"
    },
    {
      "inputs": [],
      "name": "getLatestPrice",
      "outputs": [
        {
          "internalType": "uint256",
          "name": "",
          "type": "uint256"
        }
      ],
      "stateMutability": "view",
      "type": "function"
    },
    {
      "inputs": [],
      "name": "getOwner",
      "outputs": [
        {
          "internalType": "address",
          "name": "",
          "type": "address"
        }
      ],
      "stateMutability": "view",
      "type": "function"
    },
    {
      "inputs": [],
      "name": "getRealEstatesCollectionCount",
      "outputs": [
        {
          "internalType": "uint256",
          "name": "",
          "type": "uint256"
        }
      ],
      "stateMutability": "view",
      "type": "function"
    },
    {
      "inputs": [
        {
          "internalType": "uint256",
          "name": "_index",
          "type": "uint256"
        }
      ],
      "name": "getRealStateById",
      "outputs": [
        {
          "components": [
            {
              "internalType": "uint256",
              "name": "id",
              "type": "uint256"
            },
            {
              "internalType": "string",
              "name": "name",
              "type": "string"
            },
            {
              "internalType": "string",
              "name": "location",
              "type": "string"
            },
            {
              "internalType": "string",
              "name": "city",
              "type": "string"
            },
            {
              "internalType": "string",
              "name": "cid",
              "type": "string"
            },
            {
              "internalType": "uint256",
              "name": "price",
              "type": "uint256"
            }
          ],
          "internalType": "struct Rock.RealEstate",
          "name": "",
          "type": "tuple"
        }
      ],
      "stateMutability": "view",
      "type": "function"
    },
    {
      "inputs": [
        {
          "internalType": "address",
          "name": "account",
          "type": "address"
        },
        {
          "internalType": "address",
          "name": "operator",
          "type": "address"
        }
      ],
      "name": "isApprovedForAll",
      "outputs": [
        {
          "internalType": "bool",
          "name": "",
          "type": "bool"
        }
      ],
      "stateMutability": "view",
      "type": "function"
    },
    {
      "inputs": [
        {
          "internalType": "uint256",
          "name": "_indexRealEstateInCollection",
          "type": "uint256"
        }
      ],
      "name": "mintRealEstateCollection",
      "outputs": [],
      "stateMutability": "nonpayable",
      "type": "function"
    },
    {
      "inputs": [],
      "name": "name",
      "outputs": [
        {
          "internalType": "string",
          "name": "",
          "type": "string"
        }
      ],
      "stateMutability": "view",
      "type": "function"
    },
    {
      "inputs": [],
      "name": "owner",
      "outputs": [
        {
          "internalType": "address",
          "name": "",
          "type": "address"
        }
      ],
      "stateMutability": "view",
      "type": "function"
    },
    {
      "inputs": [
        {
          "internalType": "uint256",
          "name": "",
          "type": "uint256"
        }
      ],
      "name": "realEstatesCollection",
      "outputs": [
        {
          "internalType": "uint256",
          "name": "id",
          "type": "uint256"
        },
        {
          "internalType": "string",
          "name": "name",
          "type": "string"
        },
        {
          "internalType": "string",
          "name": "location",
          "type": "string"
        },
        {
          "internalType": "string",
          "name": "city",
          "type": "string"
        },
        {
          "internalType": "string",
          "name": "cid",
          "type": "string"
        },
        {
          "internalType": "uint256",
          "name": "price",
          "type": "uint256"
        }
      ],
      "stateMutability": "view",
      "type": "function"
    },
    {
      "inputs": [],
      "name": "renounceOwnership",
      "outputs": [],
      "stateMutability": "nonpayable",
      "type": "function"
    },
    {
      "inputs": [
        {
          "internalType": "uint256",
          "name": "_tokenId",
          "type": "uint256"
        },
        {
          "internalType": "uint256",
          "name": "_salePrice",
          "type": "uint256"
        }
      ],
      "name": "royaltyInfo",
      "outputs": [
        {
          "internalType": "address",
          "name": "",
          "type": "address"
        },
        {
          "internalType": "uint256",
          "name": "",
          "type": "uint256"
        }
      ],
      "stateMutability": "view",
      "type": "function"
    },
    {
      "inputs": [
        {
          "internalType": "address",
          "name": "from",
          "type": "address"
        },
        {
          "internalType": "address",
          "name": "to",
          "type": "address"
        },
        {
          "internalType": "uint256[]",
          "name": "ids",
          "type": "uint256[]"
        },
        {
          "internalType": "uint256[]",
          "name": "amounts",
          "type": "uint256[]"
        },
        {
          "internalType": "bytes",
          "name": "data",
          "type": "bytes"
        }
      ],
      "name": "safeBatchTransferFrom",
      "outputs": [],
      "stateMutability": "nonpayable",
      "type": "function"
    },
    {
      "inputs": [
        {
          "internalType": "address",
          "name": "from",
          "type": "address"
        },
        {
          "internalType": "address",
          "name": "to",
          "type": "address"
        },
        {
          "internalType": "uint256",
          "name": "id",
          "type": "uint256"
        },
        {
          "internalType": "uint256",
          "name": "amount",
          "type": "uint256"
        },
        {
          "internalType": "bytes",
          "name": "data",
          "type": "bytes"
        }
      ],
      "name": "safeTransferFrom",
      "outputs": [],
      "stateMutability": "nonpayable",
      "type": "function"
    },
    {
      "inputs": [
        {
          "internalType": "address",
          "name": "operator",
          "type": "address"
        },
        {
          "internalType": "bool",
          "name": "approved",
          "type": "bool"
        }
      ],
      "name": "setApprovalForAll",
      "outputs": [],
      "stateMutability": "nonpayable",
      "type": "function"
    },
    {
      "inputs": [
        {
          "internalType": "uint256",
          "name": "_fee",
          "type": "uint256"
        }
      ],
      "name": "setFee",
      "outputs": [],
      "stateMutability": "nonpayable",
      "type": "function"
    },
    {
      "inputs": [
        {
          "internalType": "bytes4",
          "name": "interfaceId",
          "type": "bytes4"
        }
      ],
      "name": "supportsInterface",
      "outputs": [
        {
          "internalType": "bool",
          "name": "",
          "type": "bool"
        }
      ],
      "stateMutability": "view",
      "type": "function"
    },
    {
      "inputs": [],
      "name": "symbol",
      "outputs": [
        {
          "internalType": "string",
          "name": "",
          "type": "string"
        }
      ],
      "stateMutability": "view",
      "type": "function"
    },
    {
      "inputs": [
        {
          "internalType": "address",
          "name": "newOwner",
          "type": "address"
        }
      ],
      "name": "transferOwnership",
      "outputs": [],
      "stateMutability": "nonpayable",
      "type": "function"
    },
    {
      "inputs": [
        {
          "internalType": "uint256",
          "name": "",
          "type": "uint256"
        }
      ],
      "name": "uri",
      "outputs": [
        {
          "internalType": "string",
          "name": "",
          "type": "string"
        }
      ],
      "stateMutability": "view",
      "type": "function"
    },
    {
      "inputs": [
        {
          "internalType": "uint256",
          "name": "",
          "type": "uint256"
        },
        {
          "internalType": "uint256",
          "name": "",
          "type": "uint256"
        },
        {
          "internalType": "address",
          "name": "",
          "type": "address"
        }
      ],
      "name": "usersCardsNfts",
      "outputs": [
        {
          "internalType": "uint256",
          "name": "tokenId",
          "type": "uint256"
        },
        {
          "internalType": "uint256",
          "name": "price",
          "type": "uint256"
        },
        {
          "internalType": "uint256",
          "name": "quantity",
          "type": "uint256"
        },
        {
          "internalType": "address payable",
          "name": "seller",
          "type": "address"
        },
        {
          "internalType": "address payable",
          "name": "owner",
          "type": "address"
        }
      ],
      "stateMutability": "view",
      "type": "function"
    },
    {
      "inputs": [],
      "name": "withdraw",
      "outputs": [],
      "stateMutability": "nonpayable",
      "type": "function"
    },
    {
      "stateMutability": "payable",
      "type": "receive"
    },
    {
      "inputs": [
        {
          "internalType": "uint256",
          "name": "_indexRealEstateInCollection",
          "type": "uint256"
        },
        {
          "internalType": "uint256",
          "name": "tokenId",
          "type": "uint256"
        },
        {
          "internalType": "address",
          "name": "sellerAddress",
          "type": "address"
        },
        {
          "internalType": "uint256",
          "name": "askedQuantity",
          "type": "uint256"
        }
      ],
      "name": "verifyUserQuantityIsAvailable",
      "outputs": [
        {
          "internalType": "bool",
          "name": "",
          "type": "bool"
        }
      ],
      "stateMutability": "view",
      "type": "function"
    },
    {
      "inputs": [
        {
          "internalType": "uint256[]",
          "name": "_cardsId",
          "type": "uint256[]"
        },
        {
          "internalType": "uint256[]",
          "name": "_quantities",
          "type": "uint256[]"
        },
        {
          "internalType": "uint256",
          "name": "_indexRealEstateInCollection",
          "type": "uint256"
        }
      ],
      "name": "confirmBuy",
      "outputs": [],
      "stateMutability": "payable",
      "type": "function"
    },
    {
      "inputs": [
        {
          "internalType": "address",
          "name": "_from",
          "type": "address"
        },
        {
          "internalType": "address",
          "name": "_to",
          "type": "address"
        },
        {
          "internalType": "uint256",
          "name": "_id",
          "type": "uint256"
        },
        {
          "internalType": "uint256",
          "name": "_amount",
          "type": "uint256"
        }
      ],
      "name": "sellTokens",
      "outputs": [
        {
          "internalType": "uint256",
          "name": "",
          "type": "uint256"
        }
      ],
      "stateMutability": "nonpayable",
      "type": "function"
    },
    {
      "inputs": [],
      "name": "fetchAll",
      "outputs": [],
      "stateMutability": "view",
      "type": "function"
    },
    {
      "inputs": [],
      "name": "fetchMyNfts",
      "outputs": [],
      "stateMutability": "view",
      "type": "function"
    }
  ],
  "bytecode": "0x61138860095560c0604052600f60809081526e2937b1b59021b7b63632b1ba34b7b760891b60a052600a90620000369082620002ee565b50604080518082019091526004815263526f636b60e01b6020820152600b90620000619082620002ee565b503480156200006f57600080fd5b506040518060800160405280605a815260200162004d77605a91396200009581620000e0565b50620000a133620000f2565b6001600655620000b433611f4062000144565b601080546001600160a01b03191673d4a33860578de61dbabdc8bfdb98fd742fa7028e179055620003ba565b6002620000ee8282620002ee565b5050565b600580546001600160a01b038381166001600160a01b0319831681179093556040519116919082907f8be0079c531659141344cd1fd0a4f28419497f9722a3daafe3b4186f6b6457e090600090a35050565b6127106001600160601b0382161115620001b85760405162461bcd60e51b815260206004820152602a60248201527f455243323938313a20726f79616c7479206665652077696c6c206578636565646044820152692073616c65507269636560b01b60648201526084015b60405180910390fd5b6001600160a01b038216620002105760405162461bcd60e51b815260206004820152601960248201527f455243323938313a20696e76616c6964207265636569766572000000000000006044820152606401620001af565b604080518082019091526001600160a01b039092168083526001600160601b039091166020909201829052600160a01b90910217600355565b634e487b7160e01b600052604160045260246000fd5b600181811c908216806200027457607f821691505b6020821081036200029557634e487b7160e01b600052602260045260246000fd5b50919050565b601f821115620002e957600081815260208120601f850160051c81016020861015620002c45750805b601f850160051c820191505b81811015620002e557828155600101620002d0565b5050505b505050565b81516001600160401b038111156200030a576200030a62000249565b62000322816200031b84546200025f565b846200029b565b602080601f8311600181146200035a5760008415620003415750858301515b600019600386901b1c1916600185901b178555620002e5565b600085815260208120601f198616915b828110156200038b578886015182559484019460019091019084016200036a565b5085821015620003aa5787850151600019600388901b60f8161c191681555b5050505050600190811b01905550565b6149ad80620003ca6000396000f3fe60806040526004361061021c5760003560e01c8063715018a61161011d578063a22cb465116100b0578063e985e9c51161007f578063f2a54c0411610064578063f2a54c041461070a578063f2fde38b1461071f578063fdac310f1461073f57600080fd5b8063e985e9c5146106a1578063f242432a146106ea57600080fd5b8063a22cb4651461061c578063d1e8c4aa1461063c578063d3eb41481461065c578063e60aae981461067c57600080fd5b80638e15f473116100ec5780638e15f473146105a057806394406098146105b557806395d89b41146105d5578063a0f4651a146105ea57600080fd5b8063715018a61461052d5780637ae4893814610542578063893d20e8146105555780638da5cb5b1461058257600080fd5b80632a55205a116101b057806338d913bc1161017f5780634e1273f4116101645780634e1273f4146104c057806369fe0e2d146104ed5780636f7789a61461050d57600080fd5b806338d913bc1461048b5780633ccfd60b146104ab57600080fd5b80632a55205a146103965780632eb2c2d6146103d55780633079a8dd146103f557806333caeb941461046b57600080fd5b806306fdde03116101ec57806306fdde03146103485780630e89341c1461036a578063128ae7121461038a57806327ec486c1461038a57600080fd5b8062fdd58e14610228578063012f375f1461025b57806301ffc9a71461027d57806304643755146102ad57600080fd5b3661022357005b600080fd5b34801561023457600080fd5b5061024861024336600461398b565b61076c565b6040519081526020015b60405180910390f35b34801561026757600080fd5b5061027b610276366004613a85565b610818565b005b34801561028957600080fd5b5061029d610298366004613b68565b610cd5565b6040519015158152602001610252565b3480156102b957600080fd5b506103146102c8366004613b8c565b600e602090815260009384526040808520825292845282842090528252902080546001820154600283015460038401546004909401549293919290916001600160a01b03908116911685565b604080519586526020860194909452928401919091526001600160a01b03908116606084015216608082015260a001610252565b34801561035457600080fd5b5061035d610ce0565b6040516102529190613c07565b34801561037657600080fd5b5061035d610385366004613c1a565b610d6e565b34801561027b57600080fd5b3480156103a257600080fd5b506103b66103b1366004613c33565b610e04565b604080516001600160a01b039093168352602083019190915201610252565b3480156103e157600080fd5b5061027b6103f0366004613cdf565b610ee3565b34801561040157600080fd5b50610415610410366004613c33565b610f85565b6040516102529190600060e082019050825182526020830151602083015260408301516040830152606083015160608301526080830151608083015260a083015160a083015260c083015160c083015292915050565b34801561047757600080fd5b50610314610486366004613c1a565b611045565b34801561049757600080fd5b506102486104a6366004613dce565b611093565b3480156104b757600080fd5b5061027b6112b1565b3480156104cc57600080fd5b506104e06104db366004613e48565b611345565b6040516102529190613f4e565b3480156104f957600080fd5b5061027b610508366004613c1a565b611483565b34801561051957600080fd5b5061027b610528366004613c1a565b611490565b34801561053957600080fd5b5061027b6115d2565b61027b610550366004613f61565b6115e4565b34801561056157600080fd5b5061056a611c64565b6040516001600160a01b039091168152602001610252565b34801561058e57600080fd5b506005546001600160a01b031661056a565b3480156105ac57600080fd5b50610248611c7d565b3480156105c157600080fd5b5061029d6105d0366004613fd5565b611d96565b3480156105e157600080fd5b5061035d611de3565b3480156105f657600080fd5b5061060a610605366004613c1a565b611df0565b60405161025296959493929190614012565b34801561062857600080fd5b5061027b610637366004614089565b612058565b34801561064857600080fd5b5061027b6106573660046140bc565b612067565b34801561066857600080fd5b50610248610677366004613c1a565b6126e4565b34801561068857600080fd5b50610248610697366004614126565b6000949350505050565b3480156106ad57600080fd5b5061029d6106bc366004614168565b6001600160a01b03918216600090815260016020908152604080832093909416825291909152205460ff1690565b3480156106f657600080fd5b5061027b610705366004614192565b6126ee565b34801561071657600080fd5b50600c54610248565b34801561072b57600080fd5b5061027b61073a3660046141f7565b612789565b34801561074b57600080fd5b5061075f61075a366004613c1a565b612816565b6040516102529190614212565b60006001600160a01b0383166107ef5760405162461bcd60e51b815260206004820152602a60248201527f455243313135353a2061646472657373207a65726f206973206e6f742061207660448201527f616c6964206f776e65720000000000000000000000000000000000000000000060648201526084015b60405180910390fd5b506000818152602081815260408083206001600160a01b03861684529091529020545b92915050565b610820612b2f565b60405160200161083b90602080825260009082015260400190565b60405160208183030381529060405280519060200120856040516020016108629190613c07565b60405160208183030381529060405280519060200120036108eb5760405162461bcd60e51b815260206004820152602e60248201527f4c65206e6f6d2064752070726f6772616d6d6520696d6d6f62696c696572206560448201527f7374206f626c696761746f69726500000000000000000000000000000000000060648201526084016107e6565b60405160200161090690602080825260009082015260400190565b604051602081830303815290604052805190602001208460405160200161092d9190613c07565b60405160208183030381529060405280519060200120036109905760405162461bcd60e51b815260206004820152601c60248201527f4c6120736974756174696f6e20657374206f626c696761746f6972650000000060448201526064016107e6565b6040516020016109ab90602080825260009082015260400190565b60405160208183030381529060405280519060200120836040516020016109d29190613c07565b6040516020818303038152906040528051906020012003610a355760405162461bcd60e51b815260206004820152601860248201527f4c612076696c6c6520657374206f626c696761746f697265000000000000000060448201526064016107e6565b604051602001610a5090602080825260009082015260400190565b6040516020818303038152906040528051906020012082604051602001610a779190613c07565b6040516020818303038152906040528051906020012003610ada5760405162461bcd60e51b815260206004820152601660248201527f4c652063696420657374206f626c696761746f6972650000000000000000000060448201526064016107e6565b61c3508111610b515760405162461bcd60e51b815260206004820152603860248201527f4572726575722c206c652070726978206475206269656e20696d6d6f20646f6960448201527f742065747265207375706572696575722061203530303030000000000000000060648201526084016107e6565b610b5f600880546001019055565b610b986040518060c001604052806000815260200160608152602001606081526020016060815260200160608152602001600081525090565b60085481526020810186815260408201869052606082018590526080820184905260a08201839052600c8054600181018255600091909152825160069091027fdf6966c971051c3d54ec59162606531493a51404a002842f56009d7e5cf4a8c78101918255915183927fdf6966c971051c3d54ec59162606531493a51404a002842f56009d7e5cf4a8c80190610c2e9082614346565b5060408201516002820190610c439082614346565b5060608201516003820190610c589082614346565b5060808201516004820190610c6d9082614346565b5060a08201518160050155505060006001610c8760085490565b610c919190614471565b90507ff25ea05cc68cbe6d2d1abce09caf6545e2282a00caed6975ebba55f38de5372081604051610cc491815260200190565b60405180910390a150505050505050565b600061081282612b89565b600a8054610ced906142a8565b80601f0160208091040260200160405190810160405280929190818152602001828054610d19906142a8565b8015610d665780601f10610d3b57610100808354040283529160200191610d66565b820191906000526020600020905b815481529060010190602001808311610d4957829003601f168201915b505050505081565b606060028054610d7d906142a8565b80601f0160208091040260200160405190810160405280929190818152602001828054610da9906142a8565b8015610df65780601f10610dcb57610100808354040283529160200191610df6565b820191906000526020600020905b815481529060010190602001808311610dd957829003601f168201915b50505050509050919050565b565b60008281526004602090815260408083208151808301909252546001600160a01b038116808352740100000000000000000000000000000000000000009091046bffffffffffffffffffffffff16928201929092528291610ea55750604080518082019091526003546001600160a01b03811682527401000000000000000000000000000000000000000090046bffffffffffffffffffffffff1660208201525b602081015160009061271090610ec9906bffffffffffffffffffffffff1687614484565b610ed3919061449b565b91519350909150505b9250929050565b6001600160a01b038516331480610eff5750610eff85336106bc565b610f715760405162461bcd60e51b815260206004820152602e60248201527f455243313135353a2063616c6c6572206973206e6f7420746f6b656e206f776e60448201527f6572206f7220617070726f76656400000000000000000000000000000000000060648201526084016107e6565b610f7e8585858585612bdf565b5050505050565b610fc56040518060e00160405280600081526020016000815260200160008152602001600081526020016000815260200160008152602001600081525090565b6000838152600f602052604081208360048110610fe457610fe46144d6565b600702016040518060e001604052908160008201548152602001600182015481526020016002820154815260200160038201548152602001600482015481526020016005820154815260200160068201548152505090508091505092915050565b600d818154811061105557600080fd5b600091825260209091206005909102018054600182015460028301546003840154600490940154929450909290916001600160a01b03918216911685565b6000816110e25760405162461bcd60e51b815260206004820152601760248201527f417563756e206d6f6e74616e742072656e736569676e6500000000000000000060448201526064016107e6565b8361112f5760405162461bcd60e51b815260206004820152601860248201527f417563756e2063617274652073656c656374696f6e6e6565000000000000000060448201526064016107e6565b600c5486106111805760405162461bcd60e51b815260206004820152601a60248201527f4269656e20696d6d6f62696c69657220696e6578697374616e7400000000000060448201526064016107e6565b6000805b858110156112a65760008787838181106111a0576111a06144d6565b90506020020135101580156111ce575060038787838181106111c4576111c46144d6565b9050602002013511155b61121a5760405162461bcd60e51b815260206004820152600e60248201527f436172746520696e636f6e6e756500000000000000000000000000000000000060448201526064016107e6565b600087878381811061122e5761122e6144d6565b905060200201359050858583818110611249576112496144d6565b90506020020135600f60008b81526020019081526020016000208260048110611274576112746144d6565b60070201600201546112869190614484565b6112909084614505565b925050808061129e90614518565b915050611184565b509695505050505050565b6112b9612b2f565b600047116113095760405162461bcd60e51b815260206004820152600b60248201527f42616c616e63652061203000000000000000000000000000000000000000000060448201526064016107e6565b6005546040516001600160a01b03909116904780156108fc02916000818181858888f19350505050158015611342573d6000803e3d6000fd5b50565b606081518351146113be5760405162461bcd60e51b815260206004820152602960248201527f455243313135353a206163636f756e747320616e6420696473206c656e67746860448201527f206d69736d61746368000000000000000000000000000000000000000000000060648201526084016107e6565b6000835167ffffffffffffffff8111156113da576113da6139b5565b604051908082528060200260200182016040528015611403578160200160208202803683370190505b50905060005b845181101561147b5761144e858281518110611427576114276144d6565b6020026020010151858381518110611441576114416144d6565b602002602001015161076c565b828281518110611460576114606144d6565b602090810291909101015261147481614518565b9050611409565b509392505050565b61148b612b2f565b600955565b611498612b2f565b600c548111156115105760405162461bcd60e51b815260206004820152602d60248201527f496e646578206475206269656e20696d6d6f62696c69657220656e206465686f60448201527f7273206475207461626c6561750000000000000000000000000000000000000060648201526084016107e6565b6000818152600f60205260409020541561156c5760405162461bcd60e51b815260206004820152601b60248201527f4c65206d696e7420612064656a6120657465206566666563747565000000000060448201526064016107e6565b611577600082612e7d565b50611583600182612e7d565b5061158f600282612e7d565b5061159b600382612e7d565b506040518181527fff4078d3a7633c1bd56ae05b46cf944f917a32264ef635cbc026a7efe2e473689060200160405180910390a150565b6115da612b2f565b610e026000613060565b83158015906115f257508115155b80156115fd57508382145b6116955760405162461bcd60e51b815260206004820152604260248201527f496e636f686572656e636520656e747265206c6573206361727465732063686f60448201527f6973696573206574206c6573207175616e74697465732072656e736569676e6560648201527f6573000000000000000000000000000000000000000000000000000000000000608482015260a4016107e6565b336117085760405162461bcd60e51b815260206004820152602360248201527f596f752063616e6e6f74206f726465722066726f6d207468697320616464726560448201527f737321000000000000000000000000000000000000000000000000000000000060648201526084016107e6565b33600061171d6005546001600160a01b031690565b905060606000805b888110156118b3576000888883818110611741576117416144d6565b90506020020135116117bb5760405162461bcd60e51b815260206004820152602d60248201527f4c61207175616e7469746520646520746f6b656e20646f69742065747265207360448201527f757065726965757265206120300000000000000000000000000000000000000060648201526084016107e6565b60008a8a838181106117cf576117cf6144d6565b9050602002013590506000600f600089815260200190815260200160002082600481106117fe576117fe6144d6565b600702015490506118298882888d8d8881811061181d5761181d6144d6565b90506020020135611d96565b93508361189e5760405162461bcd60e51b815260206004820152602e60248201527f4c61207175616e7469746520646520746f6b656e7320646574656e756520657360448201527f7420696e737566666973616e746500000000000000000000000000000000000060648201526084016107e6565b505080806118ab90614518565b915050611725565b506002348111156119065760405162461bcd60e51b815260206004820152601260248201527f466f6e647320696e737566666973616e7473000000000000000000000000000060448201526064016107e6565b6000846001600160a01b03163460405160006040518083038185875af1925050503d8060008114611953576040519150601f19603f3d011682016040523d82523d6000602084013e611958565b606091505b50509050806119cf5760405162461bcd60e51b815260206004820152603660248201527f4c6520706169656d656e74206465206c61207472616e73616374696f6e20766560448201527f7273206c6520636f6e747261742061206563686f75650000000000000000000060648201526084016107e6565b611a1c8587868c8c80806020026020016040519081016040528093929190818152602001838360200280828437600092018290525060408051602081019091529081529250610ee3915050565b60005b8451811015611bed576000888152600e6020526040812086518290889085908110611a4c57611a4c6144d6565b602002602001015181526020019081526020016000206000886001600160a01b03166001600160a01b0316815260200190815260200160002090508a8a83818110611a9957611a996144d6565b90506020020135816002016000828254611ab39190614471565b90915550506003810180546001600160a01b03808a167fffffffffffffffffffffffff000000000000000000000000000000000000000092831617909255600483018054928b16929091169190911790556000898152600e6020526040812087518290899086908110611b2857611b286144d6565b6020026020010151815260200190815260200160002060008a6001600160a01b03166001600160a01b0316815260200190815260200160002090508b8b84818110611b7557611b756144d6565b90506020020135816002016000828254611b8f9190614505565b90915550506003810180546001600160a01b038b167fffffffffffffffffffffffff00000000000000000000000000000000000000009182168117909255600490920180549092161790555080611be581614518565b915050611a1f565b50846001600160a01b0316866001600160a01b031685604051611c109190614550565b60405180910390207ffc0eefd40bfb4ffff328e5ca79242ab8b399ebfc364dcff5974f0718f9441a398e8e8e8e89604051611c4f9594939291906145d1565b60405180910390a45050505050505050505050565b6000611c786005546001600160a01b031690565b905090565b600080601060009054906101000a90046001600160a01b03166001600160a01b031663feaf968c6040518163ffffffff1660e01b815260040160a060405180830381865afa158015611cd3573d6000803e3d6000fd5b505050506040513d601f19601f82011682018060405250810190611cf79190614625565b5050509150506000601060009054906101000a90046001600160a01b03166001600160a01b031663313ce5676040518163ffffffff1660e01b8152600401602060405180830381865afa158015611d52573d6000803e3d6000fd5b505050506040513d601f19601f82011682018060405250810190611d769190614675565b905081611d8482600a6147b8565b611d8e908261449b565b935050505090565b6000848152600e6020908152604080832086845282528083206001600160a01b0386168452909152812060028101548311611dd5576001915050611ddb565b60009150505b949350505050565b600b8054610ced906142a8565b600c8181548110611e0057600080fd5b60009182526020909120600690910201805460018201805491935090611e25906142a8565b80601f0160208091040260200160405190810160405280929190818152602001828054611e51906142a8565b8015611e9e5780601f10611e7357610100808354040283529160200191611e9e565b820191906000526020600020905b815481529060010190602001808311611e8157829003601f168201915b505050505090806002018054611eb3906142a8565b80601f0160208091040260200160405190810160405280929190818152602001828054611edf906142a8565b8015611f2c5780601f10611f0157610100808354040283529160200191611f2c565b820191906000526020600020905b815481529060010190602001808311611f0f57829003601f168201915b505050505090806003018054611f41906142a8565b80601f0160208091040260200160405190810160405280929190818152602001828054611f6d906142a8565b8015611fba5780601f10611f8f57610100808354040283529160200191611fba565b820191906000526020600020905b815481529060010190602001808311611f9d57829003601f168201915b505050505090806004018054611fcf906142a8565b80601f0160208091040260200160405190810160405280929190818152602001828054611ffb906142a8565b80156120485780601f1061201d57610100808354040283529160200191612048565b820191906000526020600020905b81548152906001019060200180831161202b57829003601f168201915b5050505050908060050154905086565b6120633383836130ca565b5050565b61206f612b2f565b600c548911156120e75760405162461bcd60e51b815260206004820152602d60248201527f496e646578206475206269656e20696d6d6f62696c69657220656e206465686f60448201527f7273206475207461626c6561750000000000000000000000000000000000000060648201526084016107e6565b6064871080156120f75750606486105b80156121035750606485105b6121755760405162461bcd60e51b815260206004820152602360248201527f4572726575722c20756e2064657320706f757263656e7461676573206573742060448201527f612030000000000000000000000000000000000000000000000000000000000060648201526084016107e6565b60328410156121ec5760405162461bcd60e51b815260206004820152603b60248201527f4572726575722c206c652070726978206d696e696d756d206465206c6120636160448201527f72746520434f545441474520646f69742065747265206465203530000000000060648201526084016107e6565b60648310156122635760405162461bcd60e51b815260206004820152603a60248201527f4572726575722c206c652070726978206d696e696d756d206465206c6120636160448201527f7274652056494c4c4120646f697420657472652064652031303000000000000060648201526084016107e6565b60968210156122da5760405162461bcd60e51b815260206004820152603c60248201527f4572726575722c206c652070726978206d696e696d756d206465206c6120636160448201527f727465204d414e53494f4e20646f69742065747265206465203135300000000060648201526084016107e6565b87806122f75750861580156122ed575085155b80156122f7575084155b156123095760329650601e9550601494505b6000898152600f60209081526040808320815160e08101835284815292830184905290820187905260608201839052608082018a9052601e60a083015260c0820183905291829060070201600082015181600001556020820151816001015560408201518160020155606082015181600301556080820151816004015560a0820151816005015560c082015181600601559050506040518060e00160405280600181526020016000815260200185815260200160008152602001888152602001601e81526020016000815250816001600481106123e8576123e86144d6565b60070201600082015181600001556020820151816001015560408201518160020155606082015181600301556080820151816004015560a0820151816005015560c082015181600601559050506040518060e00160405280600281526020016000815260200184815260200160008152602001878152602001601e8152602001600081525081600260048110612480576124806144d6565b60070201600082015181600001556020820151816001015560408201518160020155606082015181600301556080820151816004015560a0820151816005015560c082015181600601559050506040518060e0016040528060038152602001600081526020018381526020016001815260200160008152602001601e8152602001600081525081600360048110612519576125196144d6565b60070201600082015181600001556020820151816001015560408201518160020155606082015181600301556080820151816004015560a0820151816005015560c0820151816006015590505060008260016125759190614484565b600c8c81548110612588576125886144d6565b9060005260206000209060060201600501546125a49190614471565b9050606460005b600381101561264a5760008d8152600f6020526040812082600481106125d3576125d36144d6565b60070201905080600301546000036126375760008382600401546125f79190614484565b90506000612606856064614484565b6126108388614484565b61261a919061449b565b9050600083600201548261262e919061449b565b60038501555050505b508061264281614518565b9150506125ab565b506003830154600a8401547f01f6ecbad523aa4ebc65b0e3c80ebd687c182bea84d78431cac0754a2fd7c192918e91866002600702016003015487600360048110612697576126976144d6565b60070201600301546040516126ce959493929190948552602085019390935260408401919091526060830152608082015260a00190565b60405180910390a1505050505050505050505050565b6000610812611c7d565b6001600160a01b03851633148061270a575061270a85336106bc565b61277c5760405162461bcd60e51b815260206004820152602e60248201527f455243313135353a2063616c6c6572206973206e6f7420746f6b656e206f776e60448201527f6572206f7220617070726f76656400000000000000000000000000000000000060648201526084016107e6565b610f7e85858585856131dc565b612791612b2f565b6001600160a01b03811661280d5760405162461bcd60e51b815260206004820152602660248201527f4f776e61626c653a206e6577206f776e657220697320746865207a65726f206160448201527f646472657373000000000000000000000000000000000000000000000000000060648201526084016107e6565b61134281613060565b61284f6040518060c001604052806000815260200160608152602001606081526020016060815260200160608152602001600081525090565b600c5482106128a05760405162461bcd60e51b815260206004820152601a60248201527f4269656e20696d6d6f62696c69657220696e6578697374616e7400000000000060448201526064016107e6565b600c82815481106128b3576128b36144d6565b90600052602060002090600602016040518060c0016040529081600082015481526020016001820180546128e6906142a8565b80601f0160208091040260200160405190810160405280929190818152602001828054612912906142a8565b801561295f5780601f106129345761010080835404028352916020019161295f565b820191906000526020600020905b81548152906001019060200180831161294257829003601f168201915b50505050508152602001600282018054612978906142a8565b80601f01602080910402602001604051908101604052809291908181526020018280546129a4906142a8565b80156129f15780601f106129c6576101008083540402835291602001916129f1565b820191906000526020600020905b8154815290600101906020018083116129d457829003601f168201915b50505050508152602001600382018054612a0a906142a8565b80601f0160208091040260200160405190810160405280929190818152602001828054612a36906142a8565b8015612a835780601f10612a5857610100808354040283529160200191612a83565b820191906000526020600020905b815481529060010190602001808311612a6657829003601f168201915b50505050508152602001600482018054612a9c906142a8565b80601f0160208091040260200160405190810160405280929190818152602001828054612ac8906142a8565b8015612b155780601f10612aea57610100808354040283529160200191612b15565b820191906000526020600020905b815481529060010190602001808311612af857829003601f168201915b505050505081526020016005820154815250509050919050565b6005546001600160a01b03163314610e025760405162461bcd60e51b815260206004820181905260248201527f4f776e61626c653a2063616c6c6572206973206e6f7420746865206f776e657260448201526064016107e6565b60007fffffffff0000000000000000000000000000000000000000000000000000000082167f2a55205a0000000000000000000000000000000000000000000000000000000014806108125750610812826133b2565b8151835114612c565760405162461bcd60e51b815260206004820152602860248201527f455243313135353a2069647320616e6420616d6f756e7473206c656e6774682060448201527f6d69736d6174636800000000000000000000000000000000000000000000000060648201526084016107e6565b6001600160a01b038416612cd25760405162461bcd60e51b815260206004820152602560248201527f455243313135353a207472616e7366657220746f20746865207a65726f20616460448201527f647265737300000000000000000000000000000000000000000000000000000060648201526084016107e6565b3360005b8451811015612e0f576000858281518110612cf357612cf36144d6565b602002602001015190506000858381518110612d1157612d116144d6565b602090810291909101810151600084815280835260408082206001600160a01b038e168352909352919091205490915081811015612db75760405162461bcd60e51b815260206004820152602a60248201527f455243313135353a20696e73756666696369656e742062616c616e636520666f60448201527f72207472616e736665720000000000000000000000000000000000000000000060648201526084016107e6565b6000838152602081815260408083206001600160a01b038e8116855292528083208585039055908b16825281208054849290612df4908490614505565b9250508190555050505080612e0890614518565b9050612cd6565b50846001600160a01b0316866001600160a01b0316826001600160a01b03167f4a39dc06d4c0dbc64b70af90fd698a233a518aa5d07e595d983b8c0526c8f7fb8787604051612e5f9291906147c7565b60405180910390a4612e75818787878787613495565b505050505050565b6000612e87612b2f565b612e95600780546001019055565b6000612ea060075490565b90506000612eb66005546001600160a01b031690565b6000858152600f60205260408120919250908660048110612ed957612ed96144d6565b6007020160030154905082600f60008781526020019081526020016000208760048110612f0857612f086144d6565b6007020155604080516020810190915260008152612f2b908390859084906136a2565b6000858152600f60205260408120612f5a9084908960048110612f5057612f506144d6565b600702015461076c565b6000878152600e6020908152604080832088845282528083206001600160a01b038816845282528083208a8452600f909252909120919250908860048110612fa457612fa46144d6565b600702015481556000878152600f602052604090208860048110612fca57612fca6144d6565b6007020160029081015460018301558101829055600480820180547fffffffffffffffffffffffff00000000000000000000000000000000000000009081166001600160a01b03881690811790925560038401805490911690911790556000888152600f6020526040902083918a908110613047576130476144d6565b6007020160060181905550849550505050505092915050565b600580546001600160a01b038381167fffffffffffffffffffffffff0000000000000000000000000000000000000000831681179093556040519116919082907f8be0079c531659141344cd1fd0a4f28419497f9722a3daafe3b4186f6b6457e090600090a35050565b816001600160a01b0316836001600160a01b0316036131515760405162461bcd60e51b815260206004820152602960248201527f455243313135353a2073657474696e6720617070726f76616c2073746174757360448201527f20666f722073656c66000000000000000000000000000000000000000000000060648201526084016107e6565b6001600160a01b0383811660008181526001602090815260408083209487168084529482529182902080547fffffffffffffffffffffffffffffffffffffffffffffffffffffffffffffff001686151590811790915591519182527f17307eab39ab6107e8899845ad3d59bd9653f200f220920489ca2b5937696c31910160405180910390a3505050565b6001600160a01b0384166132585760405162461bcd60e51b815260206004820152602560248201527f455243313135353a207472616e7366657220746f20746865207a65726f20616460448201527f647265737300000000000000000000000000000000000000000000000000000060648201526084016107e6565b336000613264856137c9565b90506000613271856137c9565b90506000868152602081815260408083206001600160a01b038c1684529091529020548581101561330a5760405162461bcd60e51b815260206004820152602a60248201527f455243313135353a20696e73756666696369656e742062616c616e636520666f60448201527f72207472616e736665720000000000000000000000000000000000000000000060648201526084016107e6565b6000878152602081815260408083206001600160a01b038d8116855292528083208985039055908a16825281208054889290613347908490614505565b909155505060408051888152602081018890526001600160a01b03808b16928c821692918816917fc3d58168c5ae7397731d063d5bbf3d657854427343f4c083240f7aacaa2d0f62910160405180910390a46133a7848a8a8a8a8a613814565b505050505050505050565b60007fffffffff0000000000000000000000000000000000000000000000000000000082167fd9b67a2600000000000000000000000000000000000000000000000000000000148061344557507fffffffff0000000000000000000000000000000000000000000000000000000082167f0e89341c00000000000000000000000000000000000000000000000000000000145b8061081257507f01ffc9a7000000000000000000000000000000000000000000000000000000007fffffffff00000000000000000000000000000000000000000000000000000000831614610812565b6001600160a01b0384163b15612e75576040517fbc197c810000000000000000000000000000000000000000000000000000000081526001600160a01b0385169063bc197c81906134f290899089908890889088906004016147f5565b6020604051808303816000875af192505050801561352d575060408051601f3d908101601f1916820190925261352a91810190614853565b60015b6135e257613539614870565b806308c379a003613572575061354d61488c565b806135585750613574565b8060405162461bcd60e51b81526004016107e69190613c07565b505b60405162461bcd60e51b815260206004820152603460248201527f455243313135353a207472616e7366657220746f206e6f6e2d4552433131353560448201527f526563656976657220696d706c656d656e74657200000000000000000000000060648201526084016107e6565b7fffffffff0000000000000000000000000000000000000000000000000000000081167fbc197c8100000000000000000000000000000000000000000000000000000000146136995760405162461bcd60e51b815260206004820152602860248201527f455243313135353a204552433131353552656365697665722072656a6563746560448201527f6420746f6b656e7300000000000000000000000000000000000000000000000060648201526084016107e6565b50505050505050565b6001600160a01b03841661371e5760405162461bcd60e51b815260206004820152602160248201527f455243313135353a206d696e7420746f20746865207a65726f2061646472657360448201527f730000000000000000000000000000000000000000000000000000000000000060648201526084016107e6565b33600061372a856137c9565b90506000613737856137c9565b90506000868152602081815260408083206001600160a01b038b16845290915281208054879290613769908490614505565b909155505060408051878152602081018790526001600160a01b03808a1692600092918716917fc3d58168c5ae7397731d063d5bbf3d657854427343f4c083240f7aacaa2d0f62910160405180910390a461369983600089898989613814565b60408051600180825281830190925260609160009190602080830190803683370190505090508281600081518110613803576138036144d6565b602090810291909101015292915050565b6001600160a01b0384163b15612e75576040517ff23a6e610000000000000000000000000000000000000000000000000000000081526001600160a01b0385169063f23a6e61906138719089908990889088908890600401614934565b6020604051808303816000875af19250505080156138ac575060408051601f3d908101601f191682019092526138a991810190614853565b60015b6138b857613539614870565b7fffffffff0000000000000000000000000000000000000000000000000000000081167ff23a6e6100000000000000000000000000000000000000000000000000000000146136995760405162461bcd60e51b815260206004820152602860248201527f455243313135353a204552433131353552656365697665722072656a6563746560448201527f6420746f6b656e7300000000000000000000000000000000000000000000000060648201526084016107e6565b80356001600160a01b038116811461398657600080fd5b919050565b6000806040838503121561399e57600080fd5b6139a78361396f565b946020939093013593505050565b7f4e487b7100000000000000000000000000000000000000000000000000000000600052604160045260246000fd5b601f19601f830116810181811067ffffffffffffffff82111715613a0a57613a0a6139b5565b6040525050565b600082601f830112613a2257600080fd5b813567ffffffffffffffff811115613a3c57613a3c6139b5565b604051613a536020601f19601f85011601826139e4565b818152846020838601011115613a6857600080fd5b816020850160208301376000918101602001919091529392505050565b600080600080600060a08688031215613a9d57600080fd5b853567ffffffffffffffff80821115613ab557600080fd5b613ac189838a01613a11565b96506020880135915080821115613ad757600080fd5b613ae389838a01613a11565b95506040880135915080821115613af957600080fd5b613b0589838a01613a11565b94506060880135915080821115613b1b57600080fd5b50613b2888828901613a11565b95989497509295608001359392505050565b7fffffffff000000000000000000000000000000000000000000000000000000008116811461134257600080fd5b600060208284031215613b7a57600080fd5b8135613b8581613b3a565b9392505050565b600080600060608486031215613ba157600080fd5b8335925060208401359150613bb86040850161396f565b90509250925092565b6000815180845260005b81811015613be757602081850181015186830182015201613bcb565b506000602082860101526020601f19601f83011685010191505092915050565b602081526000613b856020830184613bc1565b600060208284031215613c2c57600080fd5b5035919050565b60008060408385031215613c4657600080fd5b50508035926020909101359150565b600067ffffffffffffffff821115613c6f57613c6f6139b5565b5060051b60200190565b600082601f830112613c8a57600080fd5b81356020613c9782613c55565b604051613ca482826139e4565b83815260059390931b8501820192828101915086841115613cc457600080fd5b8286015b848110156112a65780358352918301918301613cc8565b600080600080600060a08688031215613cf757600080fd5b613d008661396f565b9450613d0e6020870161396f565b9350604086013567ffffffffffffffff80821115613d2b57600080fd5b613d3789838a01613c79565b94506060880135915080821115613d4d57600080fd5b613d5989838a01613c79565b93506080880135915080821115613d6f57600080fd5b50613d7c88828901613a11565b9150509295509295909350565b60008083601f840112613d9b57600080fd5b50813567ffffffffffffffff811115613db357600080fd5b6020830191508360208260051b8501011115610edc57600080fd5b600080600080600060608688031215613de657600080fd5b85359450602086013567ffffffffffffffff80821115613e0557600080fd5b613e1189838a01613d89565b90965094506040880135915080821115613e2a57600080fd5b50613e3788828901613d89565b969995985093965092949392505050565b60008060408385031215613e5b57600080fd5b823567ffffffffffffffff80821115613e7357600080fd5b818501915085601f830112613e8757600080fd5b81356020613e9482613c55565b604051613ea182826139e4565b83815260059390931b8501820192828101915089841115613ec157600080fd5b948201945b83861015613ee657613ed78661396f565b82529482019490820190613ec6565b96505086013592505080821115613efc57600080fd5b50613f0985828601613c79565b9150509250929050565b600081518084526020808501945080840160005b83811015613f4357815187529582019590820190600101613f27565b509495945050505050565b602081526000613b856020830184613f13565b600080600080600060608688031215613f7957600080fd5b853567ffffffffffffffff80821115613f9157600080fd5b613f9d89838a01613d89565b90975095506020880135915080821115613fb657600080fd5b50613fc388828901613d89565b96999598509660400135949350505050565b60008060008060808587031215613feb57600080fd5b84359350602085013592506140026040860161396f565b9396929550929360600135925050565b86815260c06020820152600061402b60c0830188613bc1565b828103604084015261403d8188613bc1565b905082810360608401526140518187613bc1565b905082810360808401526140658186613bc1565b9150508260a0830152979650505050505050565b8035801515811461398657600080fd5b6000806040838503121561409c57600080fd5b6140a58361396f565b91506140b360208401614079565b90509250929050565b60008060008060008060008060006101208a8c0312156140db57600080fd5b893598506140eb60208b01614079565b989b989a505050506040870135966060810135966080820135965060a0820135955060c0820135945060e08201359350610100909101359150565b6000806000806080858703121561413c57600080fd5b6141458561396f565b93506141536020860161396f565b93969395505050506040820135916060013590565b6000806040838503121561417b57600080fd5b6141848361396f565b91506140b36020840161396f565b600080600080600060a086880312156141aa57600080fd5b6141b38661396f565b94506141c16020870161396f565b93506040860135925060608601359150608086013567ffffffffffffffff8111156141eb57600080fd5b613d7c88828901613a11565b60006020828403121561420957600080fd5b613b858261396f565b60208152815160208201526000602083015160c0604084015261423860e0840182613bc1565b90506040840151601f19808584030160608601526142568383613bc1565b925060608601519150808584030160808601526142738383613bc1565b925060808601519150808584030160a0860152506142918282613bc1565b91505060a084015160c08401528091505092915050565b600181811c908216806142bc57607f821691505b6020821081036142f5577f4e487b7100000000000000000000000000000000000000000000000000000000600052602260045260246000fd5b50919050565b601f82111561434157600081815260208120601f850160051c810160208610156143225750805b601f850160051c820191505b81811015612e755782815560010161432e565b505050565b815167ffffffffffffffff811115614360576143606139b5565b6143748161436e84546142a8565b846142fb565b602080601f8311600181146143c757600084156143915750858301515b7fffffffffffffffffffffffffffffffffffffffffffffffffffffffffffffffff600386901b1c1916600185901b178555612e75565b600085815260208120601f198616915b828110156143f6578886015182559484019460019091019084016143d7565b508582101561443257878501517fffffffffffffffffffffffffffffffffffffffffffffffffffffffffffffffff600388901b60f8161c191681555b5050505050600190811b01905550565b7f4e487b7100000000000000000000000000000000000000000000000000000000600052601160045260246000fd5b8181038181111561081257610812614442565b808202811582820484141761081257610812614442565b6000826144d1577f4e487b7100000000000000000000000000000000000000000000000000000000600052601260045260246000fd5b500490565b7f4e487b7100000000000000000000000000000000000000000000000000000000600052603260045260246000fd5b8082018082111561081257610812614442565b60007fffffffffffffffffffffffffffffffffffffffffffffffffffffffffffffffff820361454957614549614442565b5060010190565b815160009082906020808601845b8381101561457a5781518552938201939082019060010161455e565b50929695505050505050565b81835260007f07ffffffffffffffffffffffffffffffffffffffffffffffffffffffffffffff8311156145b857600080fd5b8260051b80836020870137939093016020019392505050565b6060815260006145e5606083018789614586565b82810360208401526145f8818688614586565b9150508260408301529695505050505050565b805169ffffffffffffffffffff8116811461398657600080fd5b600080600080600060a0868803121561463d57600080fd5b6146468661460b565b94506020860151935060408601519250606086015191506146696080870161460b565b90509295509295909350565b60006020828403121561468757600080fd5b815160ff81168114613b8557600080fd5b600181815b808511156146f157817fffffffffffffffffffffffffffffffffffffffffffffffffffffffffffffffff048211156146d7576146d7614442565b808516156146e457918102915b93841c939080029061469d565b509250929050565b60008261470857506001610812565b8161471557506000610812565b816001811461472b576002811461473557614751565b6001915050610812565b60ff84111561474657614746614442565b50506001821b610812565b5060208310610133831016604e8410600b8410161715614774575081810a610812565b61477e8383614698565b807fffffffffffffffffffffffffffffffffffffffffffffffffffffffffffffffff048211156147b0576147b0614442565b029392505050565b6000613b8560ff8416836146f9565b6040815260006147da6040830185613f13565b82810360208401526147ec8185613f13565b95945050505050565b60006001600160a01b03808816835280871660208401525060a0604083015261482160a0830186613f13565b82810360608401526148338186613f13565b905082810360808401526148478185613bc1565b98975050505050505050565b60006020828403121561486557600080fd5b8151613b8581613b3a565b600060033d11156148895760046000803e5060005160e01c5b90565b600060443d101561489a5790565b6040517ffffffffffffffffffffffffffffffffffffffffffffffffffffffffffffffffc803d016004833e81513d67ffffffffffffffff81602484011181841117156148e857505050505090565b82850191508151818111156149005750505050505090565b843d870101602082850101111561491a5750505050505090565b614929602082860101876139e4565b509095945050505050565b60006001600160a01b03808816835280871660208401525084604083015283606083015260a0608083015261496c60a0830184613bc1565b97965050505050505056fea264697066735822122001da980a90ee0dcaaed8cb1dccee918ab37743c9fedba80c3829a79d4edec1c064736f6c6343000811003368747470733a2f2f676174657761792e70696e6174612e636c6f75642f697066732f516d57513567624468463539766f6e6753676d514a4d595269695670586d647559415539676666774454776e63612f7b69647d2e6a736f6e",
  "immutableReferences": {},
  "source": "// SPDX-License-Identifier: MIT\npragma solidity 0.8.17;\n\nimport \"../node_modules/@openzeppelin/contracts/token/ERC1155/IERC1155.sol\";\nimport \"../node_modules/@openzeppelin/contracts/utils/Counters.sol\";\n// import \"@openzeppelin/contracts/utils/introspection/ERC165.sol\";\nimport \"../node_modules/@openzeppelin/contracts/access/Ownable.sol\";\nimport \"../node_modules/@chainlink/contracts/src/v0.8/interfaces/AggregatorV3Interface.sol\";\nimport \"../node_modules/@openzeppelin/contracts/security/ReentrancyGuard.sol\";\n\nimport \"./Rock.sol\";\n\ncontract Marketplace is Rock {\n    // Events\n    event CardPurchased(\n        uint256[] indexed tokenId,\n        address indexed buyer,\n        address indexed seller,\n        uint256[] cardsId,\n        uint256[] quantities,\n        uint256 totalPrice\n    );\n\n    // Cette fonction doit mettre  jour les differentes balances aprs un achat ou aprs une vente\n    function updateBalances() private onlyOwner {}\n\n    function distribute() private onlyOwner {}\n\n    // Dans le cadre d'une vente, si Alice achete 2 cartes COTTAGE  BOB, on vrifie que Bob dtient bien ces 2 cartes\n    function verifyUserQuantityIsAvailable(\n        uint256 _indexRealEstateInCollection,\n        uint256 tokenId,\n        address sellerAddress,\n        uint256 askedQuantity\n    ) public view returns (bool) {\n        NFTCard storage userCard = usersCardsNfts[_indexRealEstateInCollection][\n            tokenId\n        ][sellerAddress];\n        if (askedQuantity <= userCard.quantity) {\n            return true;\n        }\n        return false;\n    }\n\n    /// Fonction permettant d'acheter une ou plusieurs cartes NFT\n    function confirmBuy(\n        uint256[] calldata _cardsId,\n        uint256[] calldata _quantities,\n        uint256 _indexRealEstateInCollection\n    ) external payable {\n        require(\n            _cardsId.length > 0 &&\n                _quantities.length > 0 &&\n                _cardsId.length == _quantities.length,\n            \"Incoherence entre les cartes choisies et les quantites renseignees\"\n        );\n        require(\n            msg.sender != address(0),\n            \"You cannot order from this address!\"\n        );\n\n        address buyer = payable(msg.sender);\n        address seller = payable(owner());\n\n        uint256[] memory tokenIds;\n        bool amountAvailable = false;\n        for (uint256 i = 0; i < _cardsId.length; i++) {\n            require(\n                _quantities[i] > 0,\n                \"La quantite de token doit etre superieure a 0\"\n            );\n            // Carte achete\n            uint256 cardId = _cardsId[i];\n            // Token id correspondant pour pouvoir etre transfert a l'acheteur\n            uint256 tokenId = cards[_indexRealEstateInCollection][cardId]\n                .tokenId;\n\n            // Vrification de la balance du vendeur\n            amountAvailable = verifyUserQuantityIsAvailable(\n                _indexRealEstateInCollection,\n                tokenId,\n                seller,\n                _quantities[i]\n            );\n            require(\n                amountAvailable,\n                \"La quantite de tokens detenue est insuffisante\"\n            );\n        }\n\n        // Calcul du prix total et on vrifie que la balance est suffisante pour procder au transfert des tokens\n        // uint256 totalPrice = calculeTotalPrice(_indexRealEstateInCollection, _cardsId, _quantities);\n        uint256 totalPrice = 2;\n        require(msg.value >= totalPrice, \"Fonds insuffisants\");\n\n        // L'acheteur (msg.sender) envoie 2 ethers au propitaire du NFT\n        (bool sentToPlateform, ) = payable(seller).call{value: msg.value}(\"\");\n        // La transaction doit avoir reussi pour ontinuer le transfert des NFT\n        require(\n            sentToPlateform,\n            \"Le paiement de la transaction vers le contrat a echoue\"\n        );\n\n        // Transfert des tokens vers l'acheteur\n        safeBatchTransferFrom(seller, buyer, tokenIds, _quantities, \"\");\n\n        // MAJ des balances\n        for (uint256 i = 0; i < tokenIds.length; i++) {\n            // Mise  jour de la balance du vendeur\n            NFTCard storage sellerTokens = usersCardsNfts[\n                _indexRealEstateInCollection\n            ][tokenIds[i]][seller];\n            sellerTokens.quantity -= _quantities[i];\n            sellerTokens.seller = payable(seller);\n            sellerTokens.owner = payable(buyer);\n\n            // Mise  jour de la balance de l'acheteur\n            NFTCard storage buyTokens = usersCardsNfts[\n                _indexRealEstateInCollection\n            ][tokenIds[i]][buyer];\n            buyTokens.quantity += _quantities[i];\n            buyTokens.seller = payable(buyer);\n            buyTokens.owner = payable(buyer);\n        }\n\n        emit CardPurchased(\n            tokenIds,\n            buyer,\n            seller,\n            _cardsId,\n            _quantities,\n            totalPrice\n        );\n    }\n\n    function sellTokens(\n        address _from,\n        address _to,\n        uint256 _id,\n        uint256 _amount\n    ) public returns (uint256) {\n        // Une vente peut tre ralise si les tokens detenus par le vendeur ont plus de 6 mois ?\n\n        return 0;\n    }\n\n    function fetchAll() public view {}\n\n    function fetchMyNfts() public view {}\n\n    // Le contrat pourra recevoir des fonds\n    receive() external payable {}\n}\n",
  "sourcePath": "/home/anicaise/Formation/Alyra/Rock/truffle/contracts/Marketplace.sol",
  "compiler": {
    "name": "solc",
    "version": "0.8.17+commit.8df45f5f.Emscripten.clang"
  },
  "schemaVersion": "3.4.10",
  "updatedAt": "2022-12-08T16:38:26.346Z",
  "devdoc": {
    "kind": "dev",
    "methods": {
      "balanceOf(address,uint256)": {
        "details": "See {IERC1155-balanceOf}. Requirements: - `account` cannot be the zero address."
      },
      "balanceOfBatch(address[],uint256[])": {
        "details": "See {IERC1155-balanceOfBatch}. Requirements: - `accounts` and `ids` must have the same length."
      },
      "getRealEstatesCollectionCount()": {
        "returns": {
          "_0": "uint256 Count of proposals"
        }
      },
      "isApprovedForAll(address,address)": {
        "details": "See {IERC1155-isApprovedForAll}."
      },
      "owner()": {
        "details": "Returns the address of the current owner."
      },
      "renounceOwnership()": {
        "details": "Leaves the contract without owner. It will not be possible to call `onlyOwner` functions anymore. Can only be called by the current owner. NOTE: Renouncing ownership will leave the contract without an owner, thereby removing any functionality that is only available to the owner."
      },
      "royaltyInfo(uint256,uint256)": {
        "details": "Returns how much royalty is owed and to whom, based on a sale price that may be denominated in any unit of exchange. The royalty amount is denominated and should be paid in that same unit of exchange."
      },
      "safeBatchTransferFrom(address,address,uint256[],uint256[],bytes)": {
        "details": "See {IERC1155-safeBatchTransferFrom}."
      },
      "safeTransferFrom(address,address,uint256,uint256,bytes)": {
        "details": "See {IERC1155-safeTransferFrom}."
      },
      "setApprovalForAll(address,bool)": {
        "details": "See {IERC1155-setApprovalForAll}."
      },
      "transferOwnership(address)": {
        "details": "Transfers ownership of the contract to a new account (`newOwner`). Can only be called by the current owner."
      },
      "uri(uint256)": {
        "details": "See {IERC1155MetadataURI-uri}. This implementation returns the same URI for *all* token types. It relies on the token type ID substitution mechanism https://eips.ethereum.org/EIPS/eip-1155#metadata[defined in the EIP]. Clients calling this function must replace the `\\{id\\}` substring with the actual token type ID."
      }
    },
    "version": 1
  },
  "userdoc": {
    "kind": "user",
    "methods": {
      "confirmBuy(uint256[],uint256[],uint256)": {
        "notice": "Fonction permettant d'acheter une ou plusieurs cartes NFT"
      },
      "getLatestPrice()": {
        "notice": "Returns the latest price MATIC/USD"
      },
      "getRealEstatesCollectionCount()": {
        "notice": "Return the count of proposals"
      }
    },
    "version": 1
  }
}