{
  "contractName": "Rock",
  "abi": [
    {
      "inputs": [],
      "stateMutability": "nonpayable",
      "type": "constructor"
    },
    {
      "anonymous": false,
      "inputs": [
        {
          "indexed": true,
          "internalType": "address",
          "name": "account",
          "type": "address"
        },
        {
          "indexed": true,
          "internalType": "address",
          "name": "operator",
          "type": "address"
        },
        {
          "indexed": false,
          "internalType": "bool",
          "name": "approved",
          "type": "bool"
        }
      ],
      "name": "ApprovalForAll",
      "type": "event"
    },
    {
      "anonymous": false,
      "inputs": [
        {
          "indexed": true,
          "internalType": "address",
          "name": "previousOwner",
          "type": "address"
        },
        {
          "indexed": true,
          "internalType": "address",
          "name": "newOwner",
          "type": "address"
        }
      ],
      "name": "OwnershipTransferred",
      "type": "event"
    },
    {
      "anonymous": false,
      "inputs": [
        {
          "indexed": false,
          "internalType": "uint256",
          "name": "idRealEstate",
          "type": "uint256"
        }
      ],
      "name": "RealEstateAdded",
      "type": "event"
    },
    {
      "anonymous": false,
      "inputs": [
        {
          "indexed": true,
          "internalType": "address",
          "name": "operator",
          "type": "address"
        },
        {
          "indexed": true,
          "internalType": "address",
          "name": "from",
          "type": "address"
        },
        {
          "indexed": true,
          "internalType": "address",
          "name": "to",
          "type": "address"
        },
        {
          "indexed": false,
          "internalType": "uint256[]",
          "name": "ids",
          "type": "uint256[]"
        },
        {
          "indexed": false,
          "internalType": "uint256[]",
          "name": "values",
          "type": "uint256[]"
        }
      ],
      "name": "TransferBatch",
      "type": "event"
    },
    {
      "anonymous": false,
      "inputs": [
        {
          "indexed": true,
          "internalType": "address",
          "name": "operator",
          "type": "address"
        },
        {
          "indexed": true,
          "internalType": "address",
          "name": "from",
          "type": "address"
        },
        {
          "indexed": true,
          "internalType": "address",
          "name": "to",
          "type": "address"
        },
        {
          "indexed": false,
          "internalType": "uint256",
          "name": "id",
          "type": "uint256"
        },
        {
          "indexed": false,
          "internalType": "uint256",
          "name": "value",
          "type": "uint256"
        }
      ],
      "name": "TransferSingle",
      "type": "event"
    },
    {
      "anonymous": false,
      "inputs": [
        {
          "indexed": false,
          "internalType": "string",
          "name": "value",
          "type": "string"
        },
        {
          "indexed": true,
          "internalType": "uint256",
          "name": "id",
          "type": "uint256"
        }
      ],
      "name": "URI",
      "type": "event"
    },
    {
      "anonymous": false,
      "inputs": [
        {
          "indexed": false,
          "internalType": "uint256",
          "name": "idToken",
          "type": "uint256"
        },
        {
          "indexed": false,
          "internalType": "uint256",
          "name": "supplyCottage",
          "type": "uint256"
        },
        {
          "indexed": false,
          "internalType": "uint256",
          "name": "supplyVilla",
          "type": "uint256"
        },
        {
          "indexed": false,
          "internalType": "uint256",
          "name": "supplyMansion",
          "type": "uint256"
        },
        {
          "indexed": false,
          "internalType": "uint256",
          "name": "supplyHighRise",
          "type": "uint256"
        }
      ],
      "name": "supplyCardsCalculated",
      "type": "event"
    },
    {
      "anonymous": false,
      "inputs": [
        {
          "indexed": false,
          "internalType": "uint256",
          "name": "idRealEstate",
          "type": "uint256"
        }
      ],
      "name": "tokenMinted",
      "type": "event"
    },
    {
      "inputs": [
        {
          "internalType": "uint256",
          "name": "",
          "type": "uint256"
        }
      ],
      "name": "Listings",
      "outputs": [
        {
          "internalType": "uint256",
          "name": "tokenId",
          "type": "uint256"
        },
        {
          "internalType": "uint256",
          "name": "price",
          "type": "uint256"
        },
        {
          "internalType": "uint256",
          "name": "quantity",
          "type": "uint256"
        },
        {
          "internalType": "address payable",
          "name": "seller",
          "type": "address"
        },
        {
          "internalType": "address payable",
          "name": "owner",
          "type": "address"
        }
      ],
      "stateMutability": "view",
      "type": "function",
      "constant": true
    },
    {
      "inputs": [
        {
          "internalType": "address",
          "name": "account",
          "type": "address"
        },
        {
          "internalType": "uint256",
          "name": "id",
          "type": "uint256"
        }
      ],
      "name": "balanceOf",
      "outputs": [
        {
          "internalType": "uint256",
          "name": "",
          "type": "uint256"
        }
      ],
      "stateMutability": "view",
      "type": "function",
      "constant": true
    },
    {
      "inputs": [
        {
          "internalType": "address[]",
          "name": "accounts",
          "type": "address[]"
        },
        {
          "internalType": "uint256[]",
          "name": "ids",
          "type": "uint256[]"
        }
      ],
      "name": "balanceOfBatch",
      "outputs": [
        {
          "internalType": "uint256[]",
          "name": "",
          "type": "uint256[]"
        }
      ],
      "stateMutability": "view",
      "type": "function",
      "constant": true
    },
    {
      "inputs": [
        {
          "internalType": "address",
          "name": "account",
          "type": "address"
        },
        {
          "internalType": "address",
          "name": "operator",
          "type": "address"
        }
      ],
      "name": "isApprovedForAll",
      "outputs": [
        {
          "internalType": "bool",
          "name": "",
          "type": "bool"
        }
      ],
      "stateMutability": "view",
      "type": "function",
      "constant": true
    },
    {
      "inputs": [],
      "name": "name",
      "outputs": [
        {
          "internalType": "string",
          "name": "",
          "type": "string"
        }
      ],
      "stateMutability": "view",
      "type": "function",
      "constant": true
    },
    {
      "inputs": [],
      "name": "owner",
      "outputs": [
        {
          "internalType": "address",
          "name": "",
          "type": "address"
        }
      ],
      "stateMutability": "view",
      "type": "function",
      "constant": true
    },
    {
      "inputs": [
        {
          "internalType": "uint256",
          "name": "",
          "type": "uint256"
        }
      ],
      "name": "realEstatesCollection",
      "outputs": [
        {
          "internalType": "uint256",
          "name": "id",
          "type": "uint256"
        },
        {
          "internalType": "string",
          "name": "name",
          "type": "string"
        },
        {
          "internalType": "string",
          "name": "location",
          "type": "string"
        },
        {
          "internalType": "string",
          "name": "city",
          "type": "string"
        },
        {
          "internalType": "uint256",
          "name": "price",
          "type": "uint256"
        },
        {
          "internalType": "uint256",
          "name": "numberOfLike",
          "type": "uint256"
        }
      ],
      "stateMutability": "view",
      "type": "function",
      "constant": true
    },
    {
      "inputs": [],
      "name": "renounceOwnership",
      "outputs": [],
      "stateMutability": "nonpayable",
      "type": "function"
    },
    {
      "inputs": [
        {
          "internalType": "uint256",
          "name": "_tokenId",
          "type": "uint256"
        },
        {
          "internalType": "uint256",
          "name": "_salePrice",
          "type": "uint256"
        }
      ],
      "name": "royaltyInfo",
      "outputs": [
        {
          "internalType": "address",
          "name": "",
          "type": "address"
        },
        {
          "internalType": "uint256",
          "name": "",
          "type": "uint256"
        }
      ],
      "stateMutability": "view",
      "type": "function",
      "constant": true
    },
    {
      "inputs": [
        {
          "internalType": "address",
          "name": "from",
          "type": "address"
        },
        {
          "internalType": "address",
          "name": "to",
          "type": "address"
        },
        {
          "internalType": "uint256[]",
          "name": "ids",
          "type": "uint256[]"
        },
        {
          "internalType": "uint256[]",
          "name": "amounts",
          "type": "uint256[]"
        },
        {
          "internalType": "bytes",
          "name": "data",
          "type": "bytes"
        }
      ],
      "name": "safeBatchTransferFrom",
      "outputs": [],
      "stateMutability": "nonpayable",
      "type": "function"
    },
    {
      "inputs": [
        {
          "internalType": "address",
          "name": "from",
          "type": "address"
        },
        {
          "internalType": "address",
          "name": "to",
          "type": "address"
        },
        {
          "internalType": "uint256",
          "name": "id",
          "type": "uint256"
        },
        {
          "internalType": "uint256",
          "name": "amount",
          "type": "uint256"
        },
        {
          "internalType": "bytes",
          "name": "data",
          "type": "bytes"
        }
      ],
      "name": "safeTransferFrom",
      "outputs": [],
      "stateMutability": "nonpayable",
      "type": "function"
    },
    {
      "inputs": [
        {
          "internalType": "address",
          "name": "operator",
          "type": "address"
        },
        {
          "internalType": "bool",
          "name": "approved",
          "type": "bool"
        }
      ],
      "name": "setApprovalForAll",
      "outputs": [],
      "stateMutability": "nonpayable",
      "type": "function"
    },
    {
      "inputs": [],
      "name": "symbol",
      "outputs": [
        {
          "internalType": "string",
          "name": "",
          "type": "string"
        }
      ],
      "stateMutability": "view",
      "type": "function",
      "constant": true
    },
    {
      "inputs": [
        {
          "internalType": "address",
          "name": "newOwner",
          "type": "address"
        }
      ],
      "name": "transferOwnership",
      "outputs": [],
      "stateMutability": "nonpayable",
      "type": "function"
    },
    {
      "inputs": [
        {
          "internalType": "uint256",
          "name": "",
          "type": "uint256"
        }
      ],
      "name": "uri",
      "outputs": [
        {
          "internalType": "string",
          "name": "",
          "type": "string"
        }
      ],
      "stateMutability": "view",
      "type": "function",
      "constant": true
    },
    {
      "inputs": [
        {
          "internalType": "uint256",
          "name": "",
          "type": "uint256"
        },
        {
          "internalType": "uint256",
          "name": "",
          "type": "uint256"
        },
        {
          "internalType": "address",
          "name": "",
          "type": "address"
        }
      ],
      "name": "usersCardsNfts",
      "outputs": [
        {
          "internalType": "uint256",
          "name": "tokenId",
          "type": "uint256"
        },
        {
          "internalType": "uint256",
          "name": "price",
          "type": "uint256"
        },
        {
          "internalType": "uint256",
          "name": "quantity",
          "type": "uint256"
        },
        {
          "internalType": "address payable",
          "name": "seller",
          "type": "address"
        },
        {
          "internalType": "address payable",
          "name": "owner",
          "type": "address"
        }
      ],
      "stateMutability": "view",
      "type": "function",
      "constant": true
    },
    {
      "inputs": [
        {
          "internalType": "bytes4",
          "name": "interfaceId",
          "type": "bytes4"
        }
      ],
      "name": "supportsInterface",
      "outputs": [
        {
          "internalType": "bool",
          "name": "",
          "type": "bool"
        }
      ],
      "stateMutability": "view",
      "type": "function",
      "constant": true
    },
    {
      "inputs": [
        {
          "internalType": "string",
          "name": "_name",
          "type": "string"
        },
        {
          "internalType": "string",
          "name": "_location",
          "type": "string"
        },
        {
          "internalType": "string",
          "name": "_city",
          "type": "string"
        },
        {
          "internalType": "uint256",
          "name": "_price",
          "type": "uint256"
        }
      ],
      "name": "addRealEstate",
      "outputs": [],
      "stateMutability": "nonpayable",
      "type": "function"
    },
    {
      "inputs": [
        {
          "internalType": "uint256",
          "name": "_index",
          "type": "uint256"
        }
      ],
      "name": "getRealStateById",
      "outputs": [
        {
          "components": [
            {
              "internalType": "uint256",
              "name": "id",
              "type": "uint256"
            },
            {
              "internalType": "string",
              "name": "name",
              "type": "string"
            },
            {
              "internalType": "string",
              "name": "location",
              "type": "string"
            },
            {
              "internalType": "string",
              "name": "city",
              "type": "string"
            },
            {
              "internalType": "uint256",
              "name": "price",
              "type": "uint256"
            },
            {
              "internalType": "uint256",
              "name": "numberOfLike",
              "type": "uint256"
            }
          ],
          "internalType": "struct Rock.RealEstate",
          "name": "",
          "type": "tuple"
        }
      ],
      "stateMutability": "view",
      "type": "function",
      "constant": true
    },
    {
      "inputs": [
        {
          "internalType": "uint256",
          "name": "_indexRealEstateInCollection",
          "type": "uint256"
        },
        {
          "internalType": "bool",
          "name": "_isDefaultSupply",
          "type": "bool"
        },
        {
          "internalType": "uint256",
          "name": "_ratioTokenCottage",
          "type": "uint256"
        },
        {
          "internalType": "uint256",
          "name": "_ratioTokenVilla",
          "type": "uint256"
        },
        {
          "internalType": "uint256",
          "name": "_ratioTokenMansion",
          "type": "uint256"
        },
        {
          "internalType": "uint256",
          "name": "_prixTokenCottage",
          "type": "uint256"
        },
        {
          "internalType": "uint256",
          "name": "_prixTokenVilla",
          "type": "uint256"
        },
        {
          "internalType": "uint256",
          "name": "_prixTokenMansion",
          "type": "uint256"
        },
        {
          "internalType": "uint256",
          "name": "_prixTokenHighRise",
          "type": "uint256"
        }
      ],
      "name": "calculateNumberOfTokens",
      "outputs": [],
      "stateMutability": "nonpayable",
      "type": "function"
    },
    {
      "inputs": [
        {
          "internalType": "uint256",
          "name": "_indexRealEstateInCollection",
          "type": "uint256"
        }
      ],
      "name": "mintRealEstateCollection",
      "outputs": [],
      "stateMutability": "nonpayable",
      "type": "function"
    },
    {
      "inputs": [
        {
          "internalType": "uint256",
          "name": "_indexRealEstateInCollection",
          "type": "uint256"
        },
        {
          "internalType": "uint256[]",
          "name": "_cardsId",
          "type": "uint256[]"
        },
        {
          "internalType": "uint256[]",
          "name": "_amounts",
          "type": "uint256[]"
        }
      ],
      "name": "calculeTotalPrice",
      "outputs": [
        {
          "internalType": "uint256",
          "name": "",
          "type": "uint256"
        }
      ],
      "stateMutability": "view",
      "type": "function",
      "constant": true
    },
    {
      "inputs": [
        {
          "internalType": "uint256",
          "name": "_fee",
          "type": "uint256"
        }
      ],
      "name": "setFee",
      "outputs": [],
      "stateMutability": "nonpayable",
      "type": "function"
    },
    {
      "inputs": [],
      "name": "getLatestPrice",
      "outputs": [
        {
          "internalType": "uint256",
          "name": "",
          "type": "uint256"
        }
      ],
      "stateMutability": "view",
      "type": "function",
      "constant": true
    },
    {
      "inputs": [],
      "name": "withdraw",
      "outputs": [],
      "stateMutability": "nonpayable",
      "type": "function"
    },
    {
      "inputs": [
        {
          "internalType": "uint256",
          "name": "_amount",
          "type": "uint256"
        }
      ],
      "name": "getLastPairMaticUsd",
      "outputs": [
        {
          "internalType": "uint256",
          "name": "",
          "type": "uint256"
        }
      ],
      "stateMutability": "view",
      "type": "function",
      "constant": true
    }
  ],
  "bytecode": "0x60806040526113886009556040518060400160405280600f81526020017f526f636b20436f6c6c656374696f6e0000000000000000000000000000000000815250600a908162000050919062000673565b506040518060400160405280600481526020017f526f636b00000000000000000000000000000000000000000000000000000000815250600b908162000097919062000673565b50348015620000a557600080fd5b506040518060800160405280605a815260200162006488605a9139620000d1816200016960201b60201c565b50620000f2620000e66200017e60201b60201c565b6200018660201b60201c565b60016006819055506200010e33611f406200024c60201b60201c565b73d0d5e3db44de05e9f294bb0a3beeaf030de24ada601060006101000a81548173ffffffffffffffffffffffffffffffffffffffff021916908373ffffffffffffffffffffffffffffffffffffffff16021790555062000875565b80600290816200017a919062000673565b5050565b600033905090565b6000600560009054906101000a900473ffffffffffffffffffffffffffffffffffffffff16905081600560006101000a81548173ffffffffffffffffffffffffffffffffffffffff021916908373ffffffffffffffffffffffffffffffffffffffff1602179055508173ffffffffffffffffffffffffffffffffffffffff168173ffffffffffffffffffffffffffffffffffffffff167f8be0079c531659141344cd1fd0a4f28419497f9722a3daafe3b4186f6b6457e060405160405180910390a35050565b6200025c620003ef60201b60201c565b6bffffffffffffffffffffffff16816bffffffffffffffffffffffff161115620002bd576040517f08c379a0000000000000000000000000000000000000000000000000000000008152600401620002b490620007e1565b60405180910390fd5b600073ffffffffffffffffffffffffffffffffffffffff168273ffffffffffffffffffffffffffffffffffffffff16036200032f576040517f08c379a0000000000000000000000000000000000000000000000000000000008152600401620003269062000853565b60405180910390fd5b60405180604001604052808373ffffffffffffffffffffffffffffffffffffffff168152602001826bffffffffffffffffffffffff16815250600360008201518160000160006101000a81548173ffffffffffffffffffffffffffffffffffffffff021916908373ffffffffffffffffffffffffffffffffffffffff16021790555060208201518160000160146101000a8154816bffffffffffffffffffffffff02191690836bffffffffffffffffffffffff1602179055509050505050565b6000612710905090565b600081519050919050565b7f4e487b7100000000000000000000000000000000000000000000000000000000600052604160045260246000fd5b7f4e487b7100000000000000000000000000000000000000000000000000000000600052602260045260246000fd5b600060028204905060018216806200047b57607f821691505b60208210810362000491576200049062000433565b5b50919050565b60008190508160005260206000209050919050565b60006020601f8301049050919050565b600082821b905092915050565b600060088302620004fb7fffffffffffffffffffffffffffffffffffffffffffffffffffffffffffffffff82620004bc565b620005078683620004bc565b95508019841693508086168417925050509392505050565b6000819050919050565b6000819050919050565b6000620005546200054e62000548846200051f565b62000529565b6200051f565b9050919050565b6000819050919050565b620005708362000533565b620005886200057f826200055b565b848454620004c9565b825550505050565b600090565b6200059f62000590565b620005ac81848462000565565b505050565b5b81811015620005d457620005c860008262000595565b600181019050620005b2565b5050565b601f8211156200062357620005ed8162000497565b620005f884620004ac565b8101602085101562000608578190505b620006206200061785620004ac565b830182620005b1565b50505b505050565b600082821c905092915050565b6000620006486000198460080262000628565b1980831691505092915050565b600062000663838362000635565b9150826002028217905092915050565b6200067e82620003f9565b67ffffffffffffffff8111156200069a576200069962000404565b5b620006a6825462000462565b620006b3828285620005d8565b600060209050601f831160018114620006eb5760008415620006d6578287015190505b620006e2858262000655565b86555062000752565b601f198416620006fb8662000497565b60005b828110156200072557848901518255600182019150602085019450602081019050620006fe565b8683101562000745578489015162000741601f89168262000635565b8355505b6001600288020188555050505b505050505050565b600082825260208201905092915050565b7f455243323938313a20726f79616c7479206665652077696c6c2065786365656460008201527f2073616c65507269636500000000000000000000000000000000000000000000602082015250565b6000620007c9602a836200075a565b9150620007d6826200076b565b604082019050919050565b60006020820190508181036000830152620007fc81620007ba565b9050919050565b7f455243323938313a20696e76616c696420726563656976657200000000000000600082015250565b60006200083b6019836200075a565b9150620008488262000803565b602082019050919050565b600060208201905081810360008301526200086e816200082c565b9050919050565b615c0380620008856000396000f3fe608060405234801561001057600080fd5b506004361061018d5760003560e01c80636f7789a6116100de578063a22cb46511610097578063e985e9c511610071578063e985e9c5146104b4578063f242432a146104e4578063f2fde38b14610500578063fdac310f1461051c5761018d565b8063a22cb4651461044c578063d1e8c4aa14610468578063d3eb4148146104845761018d565b80636f7789a614610397578063715018a6146103b35780638da5cb5b146103bd5780638e15f473146103db57806395d89b41146103f9578063a0f4651a146104175761018d565b80632a55205a1161014b57806338d913bc1161012557806338d913bc146103115780633ccfd60b146103415780634e1273f41461034b57806369fe0e2d1461037b5761018d565b80632a55205a146102905780632eb2c2d6146102c157806333caeb94146102dd5761018d565b8062fdd58e1461019257806301ffc9a7146101c257806304643755146101f257806306fdde03146102265780630e0db4fb146102445780630e89341c14610260575b600080fd5b6101ac60048036038101906101a791906134ee565b61054c565b6040516101b9919061353d565b60405180910390f35b6101dc60048036038101906101d791906135b0565b610614565b6040516101e991906135f8565b60405180910390f35b61020c60048036038101906102079190613613565b610626565b60405161021d959493929190613687565b60405180910390f35b61022e6106b6565b60405161023b919061376a565b60405180910390f35b61025e600480360381019061025991906138c1565b610744565b005b61027a6004803603810190610275919061397c565b610a65565b604051610287919061376a565b60405180910390f35b6102aa60048036038101906102a591906139a9565b610af9565b6040516102b89291906139f8565b60405180910390f35b6102db60048036038101906102d69190613b8a565b610ce3565b005b6102f760048036038101906102f2919061397c565b610d84565b604051610308959493929190613687565b60405180910390f35b61032b60048036038101906103269190613cb4565b610e0a565b604051610338919061353d565b60405180910390f35b610349611012565b005b61036560048036038101906103609190613e0c565b6110ad565b6040516103729190613f42565b60405180910390f35b6103956004803603810190610390919061397c565b6111c6565b005b6103b160048036038101906103ac919061397c565b6111d8565b005b6103bb611302565b005b6103c5611316565b6040516103d29190613f64565b60405180910390f35b6103e3611340565b6040516103f0919061353d565b60405180910390f35b610401611494565b60405161040e919061376a565b60405180910390f35b610431600480360381019061042c919061397c565b611522565b60405161044396959493929190613f7f565b60405180910390f35b61046660048036038101906104619190614021565b611706565b005b610482600480360381019061047d9190614061565b61171c565b005b61049e6004803603810190610499919061397c565b611cfb565b6040516104ab919061353d565b60405180910390f35b6104ce60048036038101906104c9919061412b565b611d0c565b6040516104db91906135f8565b60405180910390f35b6104fe60048036038101906104f9919061416b565b611da0565b005b61051a60048036038101906105159190614202565b611e41565b005b6105366004803603810190610531919061397c565b611ec4565b6040516105439190614310565b60405180910390f35b60008073ffffffffffffffffffffffffffffffffffffffff168373ffffffffffffffffffffffffffffffffffffffff16036105bc576040517f08c379a00000000000000000000000000000000000000000000000000000000081526004016105b3906143a4565b60405180910390fd5b60008083815260200190815260200160002060008473ffffffffffffffffffffffffffffffffffffffff1673ffffffffffffffffffffffffffffffffffffffff16815260200190815260200160002054905092915050565b600061061f8261211b565b9050919050565b600e60205282600052604060002060205281600052604060002060205280600052604060002060009250925050508060000154908060010154908060020154908060030160009054906101000a900473ffffffffffffffffffffffffffffffffffffffff16908060040160009054906101000a900473ffffffffffffffffffffffffffffffffffffffff16905085565b600a80546106c3906143f3565b80601f01602080910402602001604051908101604052809291908181526020018280546106ef906143f3565b801561073c5780601f106107115761010080835404028352916020019161073c565b820191906000526020600020905b81548152906001019060200180831161071f57829003601f168201915b505050505081565b61074c612195565b60405160200161075b9061444a565b6040516020818303038152906040528051906020012084604051602001610782919061376a565b60405160208183030381529060405280519060200120036107d8576040517f08c379a00000000000000000000000000000000000000000000000000000000081526004016107cf906144dc565b60405180910390fd5b6040516020016107e79061444a565b604051602081830303815290604052805190602001208360405160200161080e919061376a565b6040516020818303038152906040528051906020012003610864576040517f08c379a000000000000000000000000000000000000000000000000000000000815260040161085b90614548565b60405180910390fd5b6040516020016108739061444a565b604051602081830303815290604052805190602001208260405160200161089a919061376a565b60405160208183030381529060405280519060200120036108f0576040517f08c379a00000000000000000000000000000000000000000000000000000000081526004016108e7906145b4565b60405180910390fd5b61c3508111610934576040517f08c379a000000000000000000000000000000000000000000000000000000000815260040161092b90614646565b60405180910390fd5b61093e6008612213565b610946613410565b6109506008612229565b81600001818152505084816020018190525083816040018190525082816060018190525081816080018181525050600c8190806001815401808255809150506001900390600052602060002090600602016000909190919091506000820151816000015560208201518160010190816109c99190614812565b5060408201518160020190816109df9190614812565b5060608201518160030190816109f59190614812565b506080820151816004015560a08201518160050155505060006001610a1a6008612229565b610a249190614913565b90507ff25ea05cc68cbe6d2d1abce09caf6545e2282a00caed6975ebba55f38de5372081604051610a55919061353d565b60405180910390a1505050505050565b606060028054610a74906143f3565b80601f0160208091040260200160405190810160405280929190818152602001828054610aa0906143f3565b8015610aed5780601f10610ac257610100808354040283529160200191610aed565b820191906000526020600020905b815481529060010190602001808311610ad057829003601f168201915b50505050509050919050565b6000806000600460008681526020019081526020016000206040518060400160405290816000820160009054906101000a900473ffffffffffffffffffffffffffffffffffffffff1673ffffffffffffffffffffffffffffffffffffffff1673ffffffffffffffffffffffffffffffffffffffff1681526020016000820160149054906101000a90046bffffffffffffffffffffffff166bffffffffffffffffffffffff166bffffffffffffffffffffffff16815250509050600073ffffffffffffffffffffffffffffffffffffffff16816000015173ffffffffffffffffffffffffffffffffffffffff1603610c8e5760036040518060400160405290816000820160009054906101000a900473ffffffffffffffffffffffffffffffffffffffff1673ffffffffffffffffffffffffffffffffffffffff1673ffffffffffffffffffffffffffffffffffffffff1681526020016000820160149054906101000a90046bffffffffffffffffffffffff166bffffffffffffffffffffffff166bffffffffffffffffffffffff168152505090505b6000610c98612237565b6bffffffffffffffffffffffff1682602001516bffffffffffffffffffffffff1686610cc49190614947565b610cce91906149b8565b90508160000151819350935050509250929050565b610ceb612241565b73ffffffffffffffffffffffffffffffffffffffff168573ffffffffffffffffffffffffffffffffffffffff161480610d315750610d3085610d2b612241565b611d0c565b5b610d70576040517f08c379a0000000000000000000000000000000000000000000000000000000008152600401610d6790614a5b565b60405180910390fd5b610d7d8585858585612249565b5050505050565b600d8181548110610d9457600080fd5b90600052602060002090600502016000915090508060000154908060010154908060020154908060030160009054906101000a900473ffffffffffffffffffffffffffffffffffffffff16908060040160009054906101000a900473ffffffffffffffffffffffffffffffffffffffff16905085565b6000808383905011610e51576040517f08c379a0000000000000000000000000000000000000000000000000000000008152600401610e4890614ac7565b60405180910390fd5b60008585905011610e97576040517f08c379a0000000000000000000000000000000000000000000000000000000008152600401610e8e90614b33565b60405180910390fd5b600c805490508610610ede576040517f08c379a0000000000000000000000000000000000000000000000000000000008152600401610ed590614b9f565b60405180910390fd5b600080600090505b86869050811015611004576000878783818110610f0657610f05614bbf565b5b9050602002013510158015610f3557506003878783818110610f2b57610f2a614bbf565b5b9050602002013511155b610f74576040517f08c379a0000000000000000000000000000000000000000000000000000000008152600401610f6b90614c3a565b60405180910390fd5b6000878783818110610f8957610f88614bbf565b5b905060200201359050858583818110610fa557610fa4614bbf565b5b90506020020135600f60008b81526020019081526020016000208260048110610fd157610fd0614bbf565b5b6007020160020154610fe39190614947565b83610fee9190614c5a565b9250508080610ffc90614c8e565b915050610ee6565b508091505095945050505050565b61101a612195565b6000471161105d576040517f08c379a000000000000000000000000000000000000000000000000000000000815260040161105490614d22565b60405180910390fd5b611065611316565b73ffffffffffffffffffffffffffffffffffffffff166108fc479081150290604051600060405180830381858888f193505050501580156110aa573d6000803e3d6000fd5b50565b606081518351146110f3576040517f08c379a00000000000000000000000000000000000000000000000000000000081526004016110ea90614db4565b60405180910390fd5b6000835167ffffffffffffffff8111156111105761110f613796565b5b60405190808252806020026020018201604052801561113e5781602001602082028036833780820191505090505b50905060005b84518110156111bb5761118b85828151811061116357611162614bbf565b5b602002602001015185838151811061117e5761117d614bbf565b5b602002602001015161054c565b82828151811061119e5761119d614bbf565b5b602002602001018181525050806111b490614c8e565b9050611144565b508091505092915050565b6111ce612195565b8060098190555050565b6111e0612195565b600c80549050811115611228576040517f08c379a000000000000000000000000000000000000000000000000000000000815260040161121f90614e46565b60405180910390fd5b6000600f60008381526020019081526020016000206000600481106112505761124f614bbf565b5b600702016000015414611298576040517f08c379a000000000000000000000000000000000000000000000000000000000815260040161128f90614eb2565b60405180910390fd5b6112a360008261256a565b506112af60018261256a565b506112bb60028261256a565b506112c760038261256a565b507fff4078d3a7633c1bd56ae05b46cf944f917a32264ef635cbc026a7efe2e47368816040516112f7919061353d565b60405180910390a150565b61130a612195565b61131460006127ec565b565b6000600560009054906101000a900473ffffffffffffffffffffffffffffffffffffffff16905090565b600080601060009054906101000a900473ffffffffffffffffffffffffffffffffffffffff1673ffffffffffffffffffffffffffffffffffffffff1663feaf968c6040518163ffffffff1660e01b815260040160a060405180830381865afa1580156113b0573d6000803e3d6000fd5b505050506040513d601f19601f820116820180604052508101906113d49190614f5f565b5050509150506000601060009054906101000a900473ffffffffffffffffffffffffffffffffffffffff1673ffffffffffffffffffffffffffffffffffffffff1663313ce5676040518163ffffffff1660e01b8152600401602060405180830381865afa158015611449573d6000803e3d6000fd5b505050506040513d601f19601f8201168201806040525081019061146d9190615013565b9050600082905081600a6114819190615173565b8161148c91906149b8565b935050505090565b600b80546114a1906143f3565b80601f01602080910402602001604051908101604052809291908181526020018280546114cd906143f3565b801561151a5780601f106114ef5761010080835404028352916020019161151a565b820191906000526020600020905b8154815290600101906020018083116114fd57829003601f168201915b505050505081565b600c818154811061153257600080fd5b906000526020600020906006020160009150905080600001549080600101805461155b906143f3565b80601f0160208091040260200160405190810160405280929190818152602001828054611587906143f3565b80156115d45780601f106115a9576101008083540402835291602001916115d4565b820191906000526020600020905b8154815290600101906020018083116115b757829003601f168201915b5050505050908060020180546115e9906143f3565b80601f0160208091040260200160405190810160405280929190818152602001828054611615906143f3565b80156116625780601f1061163757610100808354040283529160200191611662565b820191906000526020600020905b81548152906001019060200180831161164557829003601f168201915b505050505090806003018054611677906143f3565b80601f01602080910402602001604051908101604052809291908181526020018280546116a3906143f3565b80156116f05780601f106116c5576101008083540402835291602001916116f0565b820191906000526020600020905b8154815290600101906020018083116116d357829003601f168201915b5050505050908060040154908060050154905086565b611718611711612241565b83836128b2565b5050565b611724612195565b600c8054905089111561176c576040517f08c379a000000000000000000000000000000000000000000000000000000000815260040161176390614e46565b60405180910390fd5b60648710801561177c5750606486105b80156117885750606485105b6117c7576040517f08c379a00000000000000000000000000000000000000000000000000000000081526004016117be90615230565b60405180910390fd5b603284101561180b576040517f08c379a0000000000000000000000000000000000000000000000000000000008152600401611802906152c2565b60405180910390fd5b606483101561184f576040517f08c379a000000000000000000000000000000000000000000000000000000000815260040161184690615354565b60405180910390fd5b6096821015611893576040517f08c379a000000000000000000000000000000000000000000000000000000000815260040161188a906153e6565b60405180910390fd5b87806118b757506000871480156118aa5750600086145b80156118b65750600085145b5b156118c95760329650601e9550601494505b6000600f60008b815260200190815260200160002090506040518060e00160405280600081526020016000815260200186815260200160008152602001898152602001601e815260200160008152508160006004811061192c5761192b614bbf565b5b60070201600082015181600001556020820151816001015560408201518160020155606082015181600301556080820151816004015560a0820151816005015560c082015181600601559050506040518060e00160405280600181526020016000815260200185815260200160008152602001888152602001601e81526020016000815250816001600481106119c5576119c4614bbf565b5b60070201600082015181600001556020820151816001015560408201518160020155606082015181600301556080820151816004015560a0820151816005015560c082015181600601559050506040518060e00160405280600281526020016000815260200184815260200160008152602001878152602001601e8152602001600081525081600260048110611a5e57611a5d614bbf565b5b60070201600082015181600001556020820151816001015560408201518160020155606082015181600301556080820151816004015560a0820151816005015560c082015181600601559050506040518060e0016040528060038152602001600081526020018381526020016001815260200160008152602001601e8152602001600081525081600360048110611af857611af7614bbf565b5b60070201600082015181600001556020820151816001015560408201518160020155606082015181600301556080820151816004015560a0820151816005015560c082015181600601559050506000826001611b549190614947565b600c8c81548110611b6857611b67614bbf565b5b906000526020600020906006020160040154611b849190614913565b905060006064905060005b6003811015611c41576000600f60008f81526020019081526020016000208260048110611bbf57611bbe614bbf565b5b6007020190506000816003015403611c2d576000838260040154611be39190614947565b90506000846064611bf49190614947565b8287611c009190614947565b611c0a91906149b8565b90506000836002015482611c1e91906149b8565b90508084600301819055505050505b508080611c3990614c8e565b915050611b8f565b507f01f6ecbad523aa4ebc65b0e3c80ebd687c182bea84d78431cac0754a2fd7c1928c84600060048110611c7857611c77614bbf565b5b600702016003015485600160048110611c9457611c93614bbf565b5b600702016003015486600260048110611cb057611caf614bbf565b5b600702016003015487600360048110611ccc57611ccb614bbf565b5b6007020160030154604051611ce5959493929190615406565b60405180910390a1505050505050505050505050565b6000611d05611340565b9050919050565b6000600160008473ffffffffffffffffffffffffffffffffffffffff1673ffffffffffffffffffffffffffffffffffffffff16815260200190815260200160002060008373ffffffffffffffffffffffffffffffffffffffff1673ffffffffffffffffffffffffffffffffffffffff16815260200190815260200160002060009054906101000a900460ff16905092915050565b611da8612241565b73ffffffffffffffffffffffffffffffffffffffff168573ffffffffffffffffffffffffffffffffffffffff161480611dee5750611ded85611de8612241565b611d0c565b5b611e2d576040517f08c379a0000000000000000000000000000000000000000000000000000000008152600401611e2490614a5b565b60405180910390fd5b611e3a8585858585612a1e565b5050505050565b611e49612195565b600073ffffffffffffffffffffffffffffffffffffffff168173ffffffffffffffffffffffffffffffffffffffff1603611eb8576040517f08c379a0000000000000000000000000000000000000000000000000000000008152600401611eaf906154cb565b60405180910390fd5b611ec1816127ec565b50565b611ecc613410565b600c805490508210611f13576040517f08c379a0000000000000000000000000000000000000000000000000000000008152600401611f0a90614b9f565b60405180910390fd5b600c8281548110611f2757611f26614bbf565b5b90600052602060002090600602016040518060c001604052908160008201548152602001600182018054611f5a906143f3565b80601f0160208091040260200160405190810160405280929190818152602001828054611f86906143f3565b8015611fd35780601f10611fa857610100808354040283529160200191611fd3565b820191906000526020600020905b815481529060010190602001808311611fb657829003601f168201915b50505050508152602001600282018054611fec906143f3565b80601f0160208091040260200160405190810160405280929190818152602001828054612018906143f3565b80156120655780601f1061203a57610100808354040283529160200191612065565b820191906000526020600020905b81548152906001019060200180831161204857829003601f168201915b5050505050815260200160038201805461207e906143f3565b80601f01602080910402602001604051908101604052809291908181526020018280546120aa906143f3565b80156120f75780601f106120cc576101008083540402835291602001916120f7565b820191906000526020600020905b8154815290600101906020018083116120da57829003601f168201915b50505050508152602001600482015481526020016005820154815250509050919050565b60007f2a55205a000000000000000000000000000000000000000000000000000000007bffffffffffffffffffffffffffffffffffffffffffffffffffffffff1916827bffffffffffffffffffffffffffffffffffffffffffffffffffffffff1916148061218e575061218d82612cb9565b5b9050919050565b61219d612241565b73ffffffffffffffffffffffffffffffffffffffff166121bb611316565b73ffffffffffffffffffffffffffffffffffffffff1614612211576040517f08c379a000000000000000000000000000000000000000000000000000000000815260040161220890615537565b60405180910390fd5b565b6001816000016000828254019250508190555050565b600081600001549050919050565b6000612710905090565b600033905090565b815183511461228d576040517f08c379a0000000000000000000000000000000000000000000000000000000008152600401612284906155c9565b60405180910390fd5b600073ffffffffffffffffffffffffffffffffffffffff168473ffffffffffffffffffffffffffffffffffffffff16036122fc576040517f08c379a00000000000000000000000000000000000000000000000000000000081526004016122f39061565b565b60405180910390fd5b6000612306612241565b9050612316818787878787612d9b565b60005b84518110156124c757600085828151811061233757612336614bbf565b5b60200260200101519050600085838151811061235657612355614bbf565b5b60200260200101519050600080600084815260200190815260200160002060008b73ffffffffffffffffffffffffffffffffffffffff1673ffffffffffffffffffffffffffffffffffffffff168152602001908152602001600020549050818110156123f7576040517f08c379a00000000000000000000000000000000000000000000000000000000081526004016123ee906156ed565b60405180910390fd5b81810360008085815260200190815260200160002060008c73ffffffffffffffffffffffffffffffffffffffff1673ffffffffffffffffffffffffffffffffffffffff168152602001908152602001600020819055508160008085815260200190815260200160002060008b73ffffffffffffffffffffffffffffffffffffffff1673ffffffffffffffffffffffffffffffffffffffff16815260200190815260200160002060008282546124ac9190614c5a565b92505081905550505050806124c090614c8e565b9050612319565b508473ffffffffffffffffffffffffffffffffffffffff168673ffffffffffffffffffffffffffffffffffffffff168273ffffffffffffffffffffffffffffffffffffffff167f4a39dc06d4c0dbc64b70af90fd698a233a518aa5d07e595d983b8c0526c8f7fb878760405161253e92919061570d565b60405180910390a4612554818787878787612da3565b612562818787878787612dab565b505050505050565b6000612574612195565b61257e6007612213565b600061258a6007612229565b90506000612596611316565b90506000600f600086815260200190815260200160002086600481106125bf576125be614bbf565b5b6007020160030154905082600f600087815260200190815260200160002087600481106125ef576125ee614bbf565b5b600702016000018190555061261582848360405180602001604052806000815250612f82565b600061264d83600f600089815260200190815260200160002089600481106126405761263f614bbf565b5b600702016000015461054c565b90506000600e6000888152602001908152602001600020600086815260200190815260200160002060008573ffffffffffffffffffffffffffffffffffffffff1673ffffffffffffffffffffffffffffffffffffffff1681526020019081526020016000209050600f600088815260200190815260200160002088600481106126d9576126d8614bbf565b5b60070201600001548160000181905550600f6000888152602001908152602001600020886004811061270e5761270d614bbf565b5b60070201600201548160010181905550818160020181905550838160040160006101000a81548173ffffffffffffffffffffffffffffffffffffffff021916908373ffffffffffffffffffffffffffffffffffffffff160217905550838160030160006101000a81548173ffffffffffffffffffffffffffffffffffffffff021916908373ffffffffffffffffffffffffffffffffffffffff16021790555081600f600089815260200190815260200160002089600481106127d3576127d2614bbf565b5b6007020160060181905550849550505050505092915050565b6000600560009054906101000a900473ffffffffffffffffffffffffffffffffffffffff16905081600560006101000a81548173ffffffffffffffffffffffffffffffffffffffff021916908373ffffffffffffffffffffffffffffffffffffffff1602179055508173ffffffffffffffffffffffffffffffffffffffff168173ffffffffffffffffffffffffffffffffffffffff167f8be0079c531659141344cd1fd0a4f28419497f9722a3daafe3b4186f6b6457e060405160405180910390a35050565b8173ffffffffffffffffffffffffffffffffffffffff168373ffffffffffffffffffffffffffffffffffffffff1603612920576040517f08c379a0000000000000000000000000000000000000000000000000000000008152600401612917906157b6565b60405180910390fd5b80600160008573ffffffffffffffffffffffffffffffffffffffff1673ffffffffffffffffffffffffffffffffffffffff16815260200190815260200160002060008473ffffffffffffffffffffffffffffffffffffffff1673ffffffffffffffffffffffffffffffffffffffff16815260200190815260200160002060006101000a81548160ff0219169083151502179055508173ffffffffffffffffffffffffffffffffffffffff168373ffffffffffffffffffffffffffffffffffffffff167f17307eab39ab6107e8899845ad3d59bd9653f200f220920489ca2b5937696c3183604051612a1191906135f8565b60405180910390a3505050565b600073ffffffffffffffffffffffffffffffffffffffff168473ffffffffffffffffffffffffffffffffffffffff1603612a8d576040517f08c379a0000000000000000000000000000000000000000000000000000000008152600401612a849061565b565b60405180910390fd5b6000612a97612241565b90506000612aa485613132565b90506000612ab185613132565b9050612ac1838989858589612d9b565b600080600088815260200190815260200160002060008a73ffffffffffffffffffffffffffffffffffffffff1673ffffffffffffffffffffffffffffffffffffffff16815260200190815260200160002054905085811015612b58576040517f08c379a0000000000000000000000000000000000000000000000000000000008152600401612b4f906156ed565b60405180910390fd5b85810360008089815260200190815260200160002060008b73ffffffffffffffffffffffffffffffffffffffff1673ffffffffffffffffffffffffffffffffffffffff168152602001908152602001600020819055508560008089815260200190815260200160002060008a73ffffffffffffffffffffffffffffffffffffffff1673ffffffffffffffffffffffffffffffffffffffff1681526020019081526020016000206000828254612c0d9190614c5a565b925050819055508773ffffffffffffffffffffffffffffffffffffffff168973ffffffffffffffffffffffffffffffffffffffff168573ffffffffffffffffffffffffffffffffffffffff167fc3d58168c5ae7397731d063d5bbf3d657854427343f4c083240f7aacaa2d0f628a8a604051612c8a9291906157d6565b60405180910390a4612ca0848a8a86868a612da3565b612cae848a8a8a8a8a6131ac565b505050505050505050565b60007fd9b67a26000000000000000000000000000000000000000000000000000000007bffffffffffffffffffffffffffffffffffffffffffffffffffffffff1916827bffffffffffffffffffffffffffffffffffffffffffffffffffffffff19161480612d8457507f0e89341c000000000000000000000000000000000000000000000000000000007bffffffffffffffffffffffffffffffffffffffffffffffffffffffff1916827bffffffffffffffffffffffffffffffffffffffffffffffffffffffff1916145b80612d945750612d9382613383565b5b9050919050565b505050505050565b505050505050565b612dca8473ffffffffffffffffffffffffffffffffffffffff166133ed565b15612f7a578373ffffffffffffffffffffffffffffffffffffffff1663bc197c8187878686866040518663ffffffff1660e01b8152600401612e10959493929190615854565b6020604051808303816000875af1925050508015612e4c57506040513d601f19601f82011682018060405250810190612e4991906158d1565b60015b612ef157612e5861590b565b806308c379a003612eb45750612e6c61592d565b80612e775750612eb6565b806040517f08c379a0000000000000000000000000000000000000000000000000000000008152600401612eab919061376a565b60405180910390fd5b505b6040517f08c379a0000000000000000000000000000000000000000000000000000000008152600401612ee890615a2f565b60405180910390fd5b63bc197c8160e01b7bffffffffffffffffffffffffffffffffffffffffffffffffffffffff1916817bffffffffffffffffffffffffffffffffffffffffffffffffffffffff191614612f78576040517f08c379a0000000000000000000000000000000000000000000000000000000008152600401612f6f90615ac1565b60405180910390fd5b505b505050505050565b600073ffffffffffffffffffffffffffffffffffffffff168473ffffffffffffffffffffffffffffffffffffffff1603612ff1576040517f08c379a0000000000000000000000000000000000000000000000000000000008152600401612fe890615b53565b60405180910390fd5b6000612ffb612241565b9050600061300885613132565b9050600061301585613132565b905061302683600089858589612d9b565b8460008088815260200190815260200160002060008973ffffffffffffffffffffffffffffffffffffffff1673ffffffffffffffffffffffffffffffffffffffff16815260200190815260200160002060008282546130859190614c5a565b925050819055508673ffffffffffffffffffffffffffffffffffffffff16600073ffffffffffffffffffffffffffffffffffffffff168473ffffffffffffffffffffffffffffffffffffffff167fc3d58168c5ae7397731d063d5bbf3d657854427343f4c083240f7aacaa2d0f6289896040516131039291906157d6565b60405180910390a461311a83600089858589612da3565b613129836000898989896131ac565b50505050505050565b60606000600167ffffffffffffffff81111561315157613150613796565b5b60405190808252806020026020018201604052801561317f5781602001602082028036833780820191505090505b509050828160008151811061319757613196614bbf565b5b60200260200101818152505080915050919050565b6131cb8473ffffffffffffffffffffffffffffffffffffffff166133ed565b1561337b578373ffffffffffffffffffffffffffffffffffffffff1663f23a6e6187878686866040518663ffffffff1660e01b8152600401613211959493929190615b73565b6020604051808303816000875af192505050801561324d57506040513d601f19601f8201168201806040525081019061324a91906158d1565b60015b6132f25761325961590b565b806308c379a0036132b5575061326d61592d565b8061327857506132b7565b806040517f08c379a00000000000000000000000000000000000000000000000000000000081526004016132ac919061376a565b60405180910390fd5b505b6040517f08c379a00000000000000000000000000000000000000000000000000000000081526004016132e990615a2f565b60405180910390fd5b63f23a6e6160e01b7bffffffffffffffffffffffffffffffffffffffffffffffffffffffff1916817bffffffffffffffffffffffffffffffffffffffffffffffffffffffff191614613379576040517f08c379a000000000000000000000000000000000000000000000000000000000815260040161337090615ac1565b60405180910390fd5b505b505050505050565b60007f01ffc9a7000000000000000000000000000000000000000000000000000000007bffffffffffffffffffffffffffffffffffffffffffffffffffffffff1916827bffffffffffffffffffffffffffffffffffffffffffffffffffffffff1916149050919050565b6000808273ffffffffffffffffffffffffffffffffffffffff163b119050919050565b6040518060c001604052806000815260200160608152602001606081526020016060815260200160008152602001600081525090565b6000604051905090565b600080fd5b600080fd5b600073ffffffffffffffffffffffffffffffffffffffff82169050919050565b60006134858261345a565b9050919050565b6134958161347a565b81146134a057600080fd5b50565b6000813590506134b28161348c565b92915050565b6000819050919050565b6134cb816134b8565b81146134d657600080fd5b50565b6000813590506134e8816134c2565b92915050565b6000806040838503121561350557613504613450565b5b6000613513858286016134a3565b9250506020613524858286016134d9565b9150509250929050565b613537816134b8565b82525050565b6000602082019050613552600083018461352e565b92915050565b60007fffffffff0000000000000000000000000000000000000000000000000000000082169050919050565b61358d81613558565b811461359857600080fd5b50565b6000813590506135aa81613584565b92915050565b6000602082840312156135c6576135c5613450565b5b60006135d48482850161359b565b91505092915050565b60008115159050919050565b6135f2816135dd565b82525050565b600060208201905061360d60008301846135e9565b92915050565b60008060006060848603121561362c5761362b613450565b5b600061363a868287016134d9565b935050602061364b868287016134d9565b925050604061365c868287016134a3565b9150509250925092565b60006136718261345a565b9050919050565b61368181613666565b82525050565b600060a08201905061369c600083018861352e565b6136a9602083018761352e565b6136b6604083018661352e565b6136c36060830185613678565b6136d06080830184613678565b9695505050505050565b600081519050919050565b600082825260208201905092915050565b60005b838110156137145780820151818401526020810190506136f9565b60008484015250505050565b6000601f19601f8301169050919050565b600061373c826136da565b61374681856136e5565b93506137568185602086016136f6565b61375f81613720565b840191505092915050565b600060208201905081810360008301526137848184613731565b905092915050565b600080fd5b600080fd5b7f4e487b7100000000000000000000000000000000000000000000000000000000600052604160045260246000fd5b6137ce82613720565b810181811067ffffffffffffffff821117156137ed576137ec613796565b5b80604052505050565b6000613800613446565b905061380c82826137c5565b919050565b600067ffffffffffffffff82111561382c5761382b613796565b5b61383582613720565b9050602081019050919050565b82818337600083830152505050565b600061386461385f84613811565b6137f6565b9050828152602081018484840111156138805761387f613791565b5b61388b848285613842565b509392505050565b600082601f8301126138a8576138a761378c565b5b81356138b8848260208601613851565b91505092915050565b600080600080608085870312156138db576138da613450565b5b600085013567ffffffffffffffff8111156138f9576138f8613455565b5b61390587828801613893565b945050602085013567ffffffffffffffff81111561392657613925613455565b5b61393287828801613893565b935050604085013567ffffffffffffffff81111561395357613952613455565b5b61395f87828801613893565b9250506060613970878288016134d9565b91505092959194509250565b60006020828403121561399257613991613450565b5b60006139a0848285016134d9565b91505092915050565b600080604083850312156139c0576139bf613450565b5b60006139ce858286016134d9565b92505060206139df858286016134d9565b9150509250929050565b6139f28161347a565b82525050565b6000604082019050613a0d60008301856139e9565b613a1a602083018461352e565b9392505050565b600067ffffffffffffffff821115613a3c57613a3b613796565b5b602082029050602081019050919050565b600080fd5b6000613a65613a6084613a21565b6137f6565b90508083825260208201905060208402830185811115613a8857613a87613a4d565b5b835b81811015613ab15780613a9d88826134d9565b845260208401935050602081019050613a8a565b5050509392505050565b600082601f830112613ad057613acf61378c565b5b8135613ae0848260208601613a52565b91505092915050565b600067ffffffffffffffff821115613b0457613b03613796565b5b613b0d82613720565b9050602081019050919050565b6000613b2d613b2884613ae9565b6137f6565b905082815260208101848484011115613b4957613b48613791565b5b613b54848285613842565b509392505050565b600082601f830112613b7157613b7061378c565b5b8135613b81848260208601613b1a565b91505092915050565b600080600080600060a08688031215613ba657613ba5613450565b5b6000613bb4888289016134a3565b9550506020613bc5888289016134a3565b945050604086013567ffffffffffffffff811115613be657613be5613455565b5b613bf288828901613abb565b935050606086013567ffffffffffffffff811115613c1357613c12613455565b5b613c1f88828901613abb565b925050608086013567ffffffffffffffff811115613c4057613c3f613455565b5b613c4c88828901613b5c565b9150509295509295909350565b600080fd5b60008083601f840112613c7457613c7361378c565b5b8235905067ffffffffffffffff811115613c9157613c90613c59565b5b602083019150836020820283011115613cad57613cac613a4d565b5b9250929050565b600080600080600060608688031215613cd057613ccf613450565b5b6000613cde888289016134d9565b955050602086013567ffffffffffffffff811115613cff57613cfe613455565b5b613d0b88828901613c5e565b9450945050604086013567ffffffffffffffff811115613d2e57613d2d613455565b5b613d3a88828901613c5e565b92509250509295509295909350565b600067ffffffffffffffff821115613d6457613d63613796565b5b602082029050602081019050919050565b6000613d88613d8384613d49565b6137f6565b90508083825260208201905060208402830185811115613dab57613daa613a4d565b5b835b81811015613dd45780613dc088826134a3565b845260208401935050602081019050613dad565b5050509392505050565b600082601f830112613df357613df261378c565b5b8135613e03848260208601613d75565b91505092915050565b60008060408385031215613e2357613e22613450565b5b600083013567ffffffffffffffff811115613e4157613e40613455565b5b613e4d85828601613dde565b925050602083013567ffffffffffffffff811115613e6e57613e6d613455565b5b613e7a85828601613abb565b9150509250929050565b600081519050919050565b600082825260208201905092915050565b6000819050602082019050919050565b613eb9816134b8565b82525050565b6000613ecb8383613eb0565b60208301905092915050565b6000602082019050919050565b6000613eef82613e84565b613ef98185613e8f565b9350613f0483613ea0565b8060005b83811015613f35578151613f1c8882613ebf565b9750613f2783613ed7565b925050600181019050613f08565b5085935050505092915050565b60006020820190508181036000830152613f5c8184613ee4565b905092915050565b6000602082019050613f7960008301846139e9565b92915050565b600060c082019050613f94600083018961352e565b8181036020830152613fa68188613731565b90508181036040830152613fba8187613731565b90508181036060830152613fce8186613731565b9050613fdd608083018561352e565b613fea60a083018461352e565b979650505050505050565b613ffe816135dd565b811461400957600080fd5b50565b60008135905061401b81613ff5565b92915050565b6000806040838503121561403857614037613450565b5b6000614046858286016134a3565b92505060206140578582860161400c565b9150509250929050565b60008060008060008060008060006101208a8c03121561408457614083613450565b5b60006140928c828d016134d9565b99505060206140a38c828d0161400c565b98505060406140b48c828d016134d9565b97505060606140c58c828d016134d9565b96505060806140d68c828d016134d9565b95505060a06140e78c828d016134d9565b94505060c06140f88c828d016134d9565b93505060e06141098c828d016134d9565b92505061010061411b8c828d016134d9565b9150509295985092959850929598565b6000806040838503121561414257614141613450565b5b6000614150858286016134a3565b9250506020614161858286016134a3565b9150509250929050565b600080600080600060a0868803121561418757614186613450565b5b6000614195888289016134a3565b95505060206141a6888289016134a3565b94505060406141b7888289016134d9565b93505060606141c8888289016134d9565b925050608086013567ffffffffffffffff8111156141e9576141e8613455565b5b6141f588828901613b5c565b9150509295509295909350565b60006020828403121561421857614217613450565b5b6000614226848285016134a3565b91505092915050565b600082825260208201905092915050565b600061424b826136da565b614255818561422f565b93506142658185602086016136f6565b61426e81613720565b840191505092915050565b600060c0830160008301516142916000860182613eb0565b50602083015184820360208601526142a98282614240565b915050604083015184820360408601526142c38282614240565b915050606083015184820360608601526142dd8282614240565b91505060808301516142f26080860182613eb0565b5060a083015161430560a0860182613eb0565b508091505092915050565b6000602082019050818103600083015261432a8184614279565b905092915050565b7f455243313135353a2061646472657373207a65726f206973206e6f742061207660008201527f616c6964206f776e657200000000000000000000000000000000000000000000602082015250565b600061438e602a836136e5565b915061439982614332565b604082019050919050565b600060208201905081810360008301526143bd81614381565b9050919050565b7f4e487b7100000000000000000000000000000000000000000000000000000000600052602260045260246000fd5b6000600282049050600182168061440b57607f821691505b60208210810361441e5761441d6143c4565b5b50919050565b50565b60006144346000836136e5565b915061443f82614424565b600082019050919050565b6000602082019050818103600083015261446381614427565b9050919050565b7f4c65206e6f6d2064752070726f6772616d6d6520696d6d6f62696c696572206560008201527f7374206f626c696761746f697265000000000000000000000000000000000000602082015250565b60006144c6602e836136e5565b91506144d18261446a565b604082019050919050565b600060208201905081810360008301526144f5816144b9565b9050919050565b7f4c6120736974756174696f6e20657374206f626c696761746f69726500000000600082015250565b6000614532601c836136e5565b915061453d826144fc565b602082019050919050565b6000602082019050818103600083015261456181614525565b9050919050565b7f4c612076696c6c6520657374206f626c696761746f6972650000000000000000600082015250565b600061459e6018836136e5565b91506145a982614568565b602082019050919050565b600060208201905081810360008301526145cd81614591565b9050919050565b7f4572726575722c206c652070726978206475206269656e20696d6d6f20646f6960008201527f7420657472652073757065726965757220612035303030300000000000000000602082015250565b60006146306038836136e5565b915061463b826145d4565b604082019050919050565b6000602082019050818103600083015261465f81614623565b9050919050565b60008190508160005260206000209050919050565b60006020601f8301049050919050565b600082821b905092915050565b6000600883026146c87fffffffffffffffffffffffffffffffffffffffffffffffffffffffffffffffff8261468b565b6146d2868361468b565b95508019841693508086168417925050509392505050565b6000819050919050565b600061470f61470a614705846134b8565b6146ea565b6134b8565b9050919050565b6000819050919050565b614729836146f4565b61473d61473582614716565b848454614698565b825550505050565b600090565b614752614745565b61475d818484614720565b505050565b5b818110156147815761477660008261474a565b600181019050614763565b5050565b601f8211156147c65761479781614666565b6147a08461467b565b810160208510156147af578190505b6147c36147bb8561467b565b830182614762565b50505b505050565b600082821c905092915050565b60006147e9600019846008026147cb565b1980831691505092915050565b600061480283836147d8565b9150826002028217905092915050565b61481b826136da565b67ffffffffffffffff81111561483457614833613796565b5b61483e82546143f3565b614849828285614785565b600060209050601f83116001811461487c576000841561486a578287015190505b61487485826147f6565b8655506148dc565b601f19841661488a86614666565b60005b828110156148b25784890151825560018201915060208501945060208101905061488d565b868310156148cf57848901516148cb601f8916826147d8565b8355505b6001600288020188555050505b505050505050565b7f4e487b7100000000000000000000000000000000000000000000000000000000600052601160045260246000fd5b600061491e826134b8565b9150614929836134b8565b9250828203905081811115614941576149406148e4565b5b92915050565b6000614952826134b8565b915061495d836134b8565b925082820261496b816134b8565b91508282048414831517614982576149816148e4565b5b5092915050565b7f4e487b7100000000000000000000000000000000000000000000000000000000600052601260045260246000fd5b60006149c3826134b8565b91506149ce836134b8565b9250826149de576149dd614989565b5b828204905092915050565b7f455243313135353a2063616c6c6572206973206e6f7420746f6b656e206f776e60008201527f6572206f7220617070726f766564000000000000000000000000000000000000602082015250565b6000614a45602e836136e5565b9150614a50826149e9565b604082019050919050565b60006020820190508181036000830152614a7481614a38565b9050919050565b7f417563756e206d6f6e74616e742072656e736569676e65000000000000000000600082015250565b6000614ab16017836136e5565b9150614abc82614a7b565b602082019050919050565b60006020820190508181036000830152614ae081614aa4565b9050919050565b7f417563756e2063617274652073656c656374696f6e6e65650000000000000000600082015250565b6000614b1d6018836136e5565b9150614b2882614ae7565b602082019050919050565b60006020820190508181036000830152614b4c81614b10565b9050919050565b7f4269656e20696d6d6f62696c69657220696e6578697374616e74000000000000600082015250565b6000614b89601a836136e5565b9150614b9482614b53565b602082019050919050565b60006020820190508181036000830152614bb881614b7c565b9050919050565b7f4e487b7100000000000000000000000000000000000000000000000000000000600052603260045260246000fd5b7f436172746520696e636f6e6e7565000000000000000000000000000000000000600082015250565b6000614c24600e836136e5565b9150614c2f82614bee565b602082019050919050565b60006020820190508181036000830152614c5381614c17565b9050919050565b6000614c65826134b8565b9150614c70836134b8565b9250828201905080821115614c8857614c876148e4565b5b92915050565b6000614c99826134b8565b91507fffffffffffffffffffffffffffffffffffffffffffffffffffffffffffffffff8203614ccb57614cca6148e4565b5b600182019050919050565b7f42616c616e636520612030000000000000000000000000000000000000000000600082015250565b6000614d0c600b836136e5565b9150614d1782614cd6565b602082019050919050565b60006020820190508181036000830152614d3b81614cff565b9050919050565b7f455243313135353a206163636f756e747320616e6420696473206c656e67746860008201527f206d69736d617463680000000000000000000000000000000000000000000000602082015250565b6000614d9e6029836136e5565b9150614da982614d42565b604082019050919050565b60006020820190508181036000830152614dcd81614d91565b9050919050565b7f496e646578206475206269656e20696d6d6f62696c69657220656e206465686f60008201527f7273206475207461626c65617500000000000000000000000000000000000000602082015250565b6000614e30602d836136e5565b9150614e3b82614dd4565b604082019050919050565b60006020820190508181036000830152614e5f81614e23565b9050919050565b7f4c65206d696e7420612064656a61206574652065666665637475650000000000600082015250565b6000614e9c601b836136e5565b9150614ea782614e66565b602082019050919050565b60006020820190508181036000830152614ecb81614e8f565b9050919050565b600069ffffffffffffffffffff82169050919050565b614ef181614ed2565b8114614efc57600080fd5b50565b600081519050614f0e81614ee8565b92915050565b6000819050919050565b614f2781614f14565b8114614f3257600080fd5b50565b600081519050614f4481614f1e565b92915050565b600081519050614f59816134c2565b92915050565b600080600080600060a08688031215614f7b57614f7a613450565b5b6000614f8988828901614eff565b9550506020614f9a88828901614f35565b9450506040614fab88828901614f4a565b9350506060614fbc88828901614f4a565b9250506080614fcd88828901614eff565b9150509295509295909350565b600060ff82169050919050565b614ff081614fda565b8114614ffb57600080fd5b50565b60008151905061500d81614fe7565b92915050565b60006020828403121561502957615028613450565b5b600061503784828501614ffe565b91505092915050565b60008160011c9050919050565b6000808291508390505b600185111561509757808604811115615073576150726148e4565b5b60018516156150825780820291505b808102905061509085615040565b9450615057565b94509492505050565b6000826150b0576001905061516c565b816150be576000905061516c565b81600181146150d457600281146150de5761510d565b600191505061516c565b60ff8411156150f0576150ef6148e4565b5b8360020a915084821115615107576151066148e4565b5b5061516c565b5060208310610133831016604e8410600b84101617156151425782820a90508381111561513d5761513c6148e4565b5b61516c565b61514f848484600161504d565b92509050818404811115615166576151656148e4565b5b81810290505b9392505050565b600061517e826134b8565b915061518983614fda565b92506151b67fffffffffffffffffffffffffffffffffffffffffffffffffffffffffffffffff84846150a0565b905092915050565b7f4572726575722c20756e2064657320706f757263656e7461676573206573742060008201527f6120300000000000000000000000000000000000000000000000000000000000602082015250565b600061521a6023836136e5565b9150615225826151be565b604082019050919050565b600060208201905081810360008301526152498161520d565b9050919050565b7f4572726575722c206c652070726978206d696e696d756d206465206c6120636160008201527f72746520434f545441474520646f697420657472652064652035300000000000602082015250565b60006152ac603b836136e5565b91506152b782615250565b604082019050919050565b600060208201905081810360008301526152db8161529f565b9050919050565b7f4572726575722c206c652070726978206d696e696d756d206465206c6120636160008201527f7274652056494c4c4120646f6974206574726520646520313030000000000000602082015250565b600061533e603a836136e5565b9150615349826152e2565b604082019050919050565b6000602082019050818103600083015261536d81615331565b9050919050565b7f4572726575722c206c652070726978206d696e696d756d206465206c6120636160008201527f727465204d414e53494f4e20646f697420657472652064652031353000000000602082015250565b60006153d0603c836136e5565b91506153db82615374565b604082019050919050565b600060208201905081810360008301526153ff816153c3565b9050919050565b600060a08201905061541b600083018861352e565b615428602083018761352e565b615435604083018661352e565b615442606083018561352e565b61544f608083018461352e565b9695505050505050565b7f4f776e61626c653a206e6577206f776e657220697320746865207a65726f206160008201527f6464726573730000000000000000000000000000000000000000000000000000602082015250565b60006154b56026836136e5565b91506154c082615459565b604082019050919050565b600060208201905081810360008301526154e4816154a8565b9050919050565b7f4f776e61626c653a2063616c6c6572206973206e6f7420746865206f776e6572600082015250565b60006155216020836136e5565b915061552c826154eb565b602082019050919050565b6000602082019050818103600083015261555081615514565b9050919050565b7f455243313135353a2069647320616e6420616d6f756e7473206c656e6774682060008201527f6d69736d61746368000000000000000000000000000000000000000000000000602082015250565b60006155b36028836136e5565b91506155be82615557565b604082019050919050565b600060208201905081810360008301526155e2816155a6565b9050919050565b7f455243313135353a207472616e7366657220746f20746865207a65726f20616460008201527f6472657373000000000000000000000000000000000000000000000000000000602082015250565b60006156456025836136e5565b9150615650826155e9565b604082019050919050565b6000602082019050818103600083015261567481615638565b9050919050565b7f455243313135353a20696e73756666696369656e742062616c616e636520666f60008201527f72207472616e7366657200000000000000000000000000000000000000000000602082015250565b60006156d7602a836136e5565b91506156e28261567b565b604082019050919050565b60006020820190508181036000830152615706816156ca565b9050919050565b600060408201905081810360008301526157278185613ee4565b9050818103602083015261573b8184613ee4565b90509392505050565b7f455243313135353a2073657474696e6720617070726f76616c2073746174757360008201527f20666f722073656c660000000000000000000000000000000000000000000000602082015250565b60006157a06029836136e5565b91506157ab82615744565b604082019050919050565b600060208201905081810360008301526157cf81615793565b9050919050565b60006040820190506157eb600083018561352e565b6157f8602083018461352e565b9392505050565b600081519050919050565b600082825260208201905092915050565b6000615826826157ff565b615830818561580a565b93506158408185602086016136f6565b61584981613720565b840191505092915050565b600060a08201905061586960008301886139e9565b61587660208301876139e9565b81810360408301526158888186613ee4565b9050818103606083015261589c8185613ee4565b905081810360808301526158b0818461581b565b90509695505050505050565b6000815190506158cb81613584565b92915050565b6000602082840312156158e7576158e6613450565b5b60006158f5848285016158bc565b91505092915050565b60008160e01c9050919050565b600060033d111561592a5760046000803e6159276000516158fe565b90505b90565b600060443d106159ba5761593f613446565b60043d036004823e80513d602482011167ffffffffffffffff821117156159675750506159ba565b808201805167ffffffffffffffff81111561598557505050506159ba565b80602083010160043d0385018111156159a25750505050506159ba565b6159b1826020018501866137c5565b82955050505050505b90565b7f455243313135353a207472616e7366657220746f206e6f6e2d4552433131353560008201527f526563656976657220696d706c656d656e746572000000000000000000000000602082015250565b6000615a196034836136e5565b9150615a24826159bd565b604082019050919050565b60006020820190508181036000830152615a4881615a0c565b9050919050565b7f455243313135353a204552433131353552656365697665722072656a6563746560008201527f6420746f6b656e73000000000000000000000000000000000000000000000000602082015250565b6000615aab6028836136e5565b9150615ab682615a4f565b604082019050919050565b60006020820190508181036000830152615ada81615a9e565b9050919050565b7f455243313135353a206d696e7420746f20746865207a65726f2061646472657360008201527f7300000000000000000000000000000000000000000000000000000000000000602082015250565b6000615b3d6021836136e5565b9150615b4882615ae1565b604082019050919050565b60006020820190508181036000830152615b6c81615b30565b9050919050565b600060a082019050615b8860008301886139e9565b615b9560208301876139e9565b615ba2604083018661352e565b615baf606083018561352e565b8181036080830152615bc1818461581b565b9050969550505050505056fea26469706673582212206bf595dc0150ea3874b5ba3e66a43ce19133f5541eb958a065288040803fedbb64736f6c6343000811003368747470733a2f2f676174657761792e70696e6174612e636c6f75642f697066732f516d5946347652415a67313941526953466f5865765a596b66395a703179566467586868347832326279704d63342f7b69647d2e6a736f6e",
  "immutableReferences": {},
  "source": "// SPDX-License-Identifier: MIT\npragma solidity 0.8.17;\n\nimport \"../node_modules/@openzeppelin/contracts/token/ERC1155/ERC1155.sol\";\nimport \"../node_modules/@openzeppelin/contracts/token/common/ERC2981.sol\";\nimport \"../node_modules/@openzeppelin/contracts/utils/Counters.sol\";\nimport \"../node_modules/@openzeppelin/contracts/utils/introspection/ERC165.sol\";\nimport \"../node_modules/@openzeppelin/contracts/access/Ownable.sol\";\nimport \"../node_modules/@openzeppelin/contracts/security/ReentrancyGuard.sol\";\nimport \"../node_modules/@chainlink/contracts/src/v0.8/interfaces/AggregatorV3Interface.sol\";\n\ncontract Rock is ERC1155, ERC2981, Ownable, ReentrancyGuard {\n    using Counters for Counters.Counter;\n    Counters.Counter private _tokenIds;\n    Counters.Counter private _realEstateIds;\n    uint256 internal fees = 5000; // 5%\n\n    // Nom de la collection ROCK (qui apparaitra sur Opensea\n    string public name = \"Rock Collection\";\n    string public symbol = \"Rock\";\n\n    // Programme immo\n    struct RealEstate {\n        uint256 id;\n        string name; // Nom du programme immo\n        string location; // Localisation\n        string city; // Ville\n        uint256 price; // Prix du bien\n        uint256 numberOfLike; // Taux d'influence\n    }\n\n    // Notre parc de biens immobilier\n    RealEstate[] public realEstatesCollection;\n\n    struct Card {\n        uint256 tokenId;\n        uint256 cardId;\n        uint256 price;\n        uint256 numberOfTokens;\n        uint256 ratioOfTokensInPercent;\n        uint256 royalty;\n        uint256 balance;\n    }\n\n    // Tous les nfts lists sur la plateforme ROCK\n    struct NFTCard {\n        uint256 tokenId;\n        uint256 price;\n        uint256 quantity;\n        address payable seller;\n        address payable owner;\n    }\n\n    NFTCard[] public Listings;\n\n    // Mapping realEstateId => tokenId --> TYpe de Carte\n    //mapping(uint256 => mapping(uint256 => Card)) private typesCard;\n    // Mapping realEstateId => tokenId => ownerAdress --> Card\n    mapping(uint256 => mapping(uint256 => mapping(address => NFTCard)))\n        public usersCardsNfts;\n\n    // Index du bien => tableau de cartes\n    mapping(uint256 => Card[4]) internal cards;\n\n    // Type de carte\n    uint256 internal constant CARD_COTTAGE = 0;\n    uint256 internal constant CARD_VILLA = 1;\n    uint256 internal constant CARD_MANSION = 2;\n    uint256 internal constant CARD_HIGH_RISE = 3;\n\n    // Rpartion des tokens par type de carte\n    uint256 private constant DEFAULT_RATIO_COTTAGE_TOKENS = 50;\n    uint256 private constant DEFAULT_RATIO_VILLA_TOKENS = 30;\n    uint256 private constant DEFAULT_RATIO_MANSION_TOKENS = 20;\n\n    // Events\n    event supplyCardsCalculated(\n        uint256 idToken,\n        uint256 supplyCottage,\n        uint256 supplyVilla,\n        uint256 supplyMansion,\n        uint256 supplyHighRise\n    );\n    event tokenMinted(uint256 idRealEstate);\n    event RealEstateAdded(uint256 idRealEstate);\n\n    AggregatorV3Interface internal priceFeed;\n\n    constructor()\n        ERC1155(\n            \"https://gateway.pinata.cloud/ipfs/QmYF4vRAZg19ARiSFoXevZYkf9Zp1yVdgXhh4x22bypMc4/{id}.json\"\n        )\n    {\n        // Royalties sur chaque NFT vendu\n        _setDefaultRoyalty(msg.sender, 8000);\n        // Data Feed Chainlink pour rcuprer le MATIC/USD\n        priceFeed = AggregatorV3Interface(\n            0xd0D5e3DB44DE05E9F294BB0a3bEEaF030DE24Ada\n        );\n    }\n\n    function supportsInterface(bytes4 interfaceId)\n        public\n        view\n        virtual\n        override(ERC1155, ERC2981)\n        returns (bool)\n    {\n        return super.supportsInterface(interfaceId);\n    }\n\n    // L'administrateur dclare un nouveau bien immo sur la blockchain\n    // Retourne l'index du bien immo\n    function addRealEstate(\n        string memory _name,\n        string memory _location,\n        string memory _city,\n        uint256 _price\n    ) public onlyOwner {\n        require(\n            keccak256(abi.encode(_name)) != keccak256(abi.encode(\"\")),\n            \"Le nom du programme immobilier est obligatoire\"\n        );\n        require(\n            keccak256(abi.encode(_location)) != keccak256(abi.encode(\"\")),\n            \"La situation est obligatoire\"\n        );\n        require(\n            keccak256(abi.encode(_city)) != keccak256(abi.encode(\"\")),\n            \"La ville est obligatoire\"\n        );\n        require(\n            _price > 50000,\n            \"Erreur, le prix du bien immo doit etre superieur a 50000\"\n        );\n\n        _realEstateIds.increment();\n\n        // Cration du bien immo\n        RealEstate memory newRealEstate;\n        newRealEstate.id = _realEstateIds.current();\n        newRealEstate.name = _name;\n        newRealEstate.location = _location;\n        newRealEstate.city = _city;\n        newRealEstate.price = _price;\n\n        // Ajout du bien au catalogue\n        realEstatesCollection.push(newRealEstate);\n\n        // Evenement RealEstateAdd avec position de l'lment dans le tableau\n        uint256 indexRealEstateInCollection = _realEstateIds.current() - 1;\n        emit RealEstateAdded(indexRealEstateInCollection);\n    }\n\n    // Rcupration du bien immobilier par son index\n    function getRealStateById(uint256 _index)\n        public\n        view\n        returns (RealEstate memory)\n    {\n        require(\n            _index < realEstatesCollection.length,\n            \"Bien immobilier inexistant\"\n        );\n        return realEstatesCollection[_index];\n    }\n\n    // Calculer le nombre de token  minter par type de carte en fonction du prix du bien, du prix du token demand par l'admin et du ratio (pourcentage du prix du bien)\n    function calculateNumberOfTokens(\n        uint256 _indexRealEstateInCollection,\n        bool _isDefaultSupply,\n        uint256 _ratioTokenCottage,\n        uint256 _ratioTokenVilla,\n        uint256 _ratioTokenMansion,\n        uint256 _prixTokenCottage,\n        uint256 _prixTokenVilla,\n        uint256 _prixTokenMansion,\n        uint256 _prixTokenHighRise\n    ) public onlyOwner {\n        require(\n            _indexRealEstateInCollection <= realEstatesCollection.length,\n            \"Index du bien immobilier en dehors du tableau\"\n        );\n        require(\n            _ratioTokenCottage < 100 &&\n                _ratioTokenVilla < 100 &&\n                _ratioTokenMansion < 100,\n            \"Erreur, un des pourcentages est a 0\"\n        );\n        require(\n            _prixTokenCottage >= 50,\n            \"Erreur, le prix minimum de la carte COTTAGE doit etre de 50\"\n        );\n        require(\n            _prixTokenVilla >= 100,\n            \"Erreur, le prix minimum de la carte VILLA doit etre de 100\"\n        );\n        require(\n            _prixTokenMansion >= 150,\n            \"Erreur, le prix minimum de la carte MANSION doit etre de 150\"\n        );\n\n        // Si les ratios ne sont pas renseigns par l'administrateur, on prend les ratios par dfaut\n        if (\n            _isDefaultSupply ||\n            (_ratioTokenCottage == 0 &&\n                _ratioTokenVilla == 0 &&\n                _ratioTokenMansion == 0)\n        ) {\n            _ratioTokenCottage = DEFAULT_RATIO_COTTAGE_TOKENS;\n            _ratioTokenVilla = DEFAULT_RATIO_VILLA_TOKENS;\n            _ratioTokenMansion = DEFAULT_RATIO_MANSION_TOKENS;\n        }\n\n        // Cration des cartes\n        Card[4] storage newCards = cards[_indexRealEstateInCollection];\n        newCards[CARD_COTTAGE] = Card(\n            CARD_COTTAGE,\n            0,\n            _prixTokenCottage,\n            0,\n            _ratioTokenCottage,\n            30,\n            0\n        );\n        newCards[CARD_VILLA] = Card(\n            CARD_VILLA,\n            0,\n            _prixTokenVilla,\n            0,\n            _ratioTokenVilla,\n            30,\n            0\n        );\n        newCards[CARD_MANSION] = Card(\n            CARD_MANSION,\n            0,\n            _prixTokenMansion,\n            0,\n            _ratioTokenMansion,\n            30,\n            0\n        );\n        newCards[CARD_HIGH_RISE] = Card(\n            CARD_HIGH_RISE,\n            0,\n            _prixTokenHighRise,\n            1,\n            0,\n            30,\n            0\n        );\n\n        // Pour le calcul du nombre de tokens par carte,\n        // on soustrait du prix du bien, le prix du token de la carte unique HighRise\n        uint256 realEstatePrice = realEstatesCollection[\n            _indexRealEstateInCollection\n        ].price - (1 * _prixTokenHighRise);\n        uint256 multiplier = 100;\n\n        for (uint256 i = 0; i < CARD_HIGH_RISE; i++) {\n            Card storage card = cards[_indexRealEstateInCollection][i];\n            if (card.numberOfTokens == 0) {\n                uint256 ratioMultiplier = card.ratioOfTokensInPercent *\n                    multiplier; // 50 % devient 5000\n                uint256 priceByCard = (realEstatePrice * ratioMultiplier) /\n                    (100 * multiplier); // On applique le ratio sur le prix du prix et on divise\n                uint256 numberOfTokens = priceByCard / card.price; // Prix du bien divis par le prix du token\n                card.numberOfTokens = numberOfTokens;\n            }\n        }\n\n        emit supplyCardsCalculated(\n            _indexRealEstateInCollection,\n            newCards[CARD_COTTAGE].numberOfTokens,\n            newCards[CARD_VILLA].numberOfTokens,\n            newCards[CARD_MANSION].numberOfTokens,\n            newCards[CARD_HIGH_RISE].numberOfTokens\n        );\n    }\n\n    // L'administrateur minte les NFTS d'une collection (d'un bien immo)\n    function mintRealEstateCollection(uint256 _indexRealEstateInCollection)\n        public\n        onlyOwner\n    {\n        require(\n            _indexRealEstateInCollection <= realEstatesCollection.length,\n            \"Index du bien immobilier en dehors du tableau\"\n        );\n        require(\n            cards[_indexRealEstateInCollection][0].tokenId == 0,\n            \"Le mint a deja ete effectue\"\n        );\n\n        mintCard(CARD_COTTAGE, _indexRealEstateInCollection);\n        mintCard(CARD_VILLA, _indexRealEstateInCollection);\n        mintCard(CARD_MANSION, _indexRealEstateInCollection);\n        mintCard(CARD_HIGH_RISE, _indexRealEstateInCollection);\n\n        emit tokenMinted(_indexRealEstateInCollection);\n    }\n\n    function mintCard(uint256 _cardId, uint256 _indexRealEstateInCollection)\n        private\n        onlyOwner\n        returns (uint256)\n    {\n        _tokenIds.increment();\n        uint256 newTokenId = _tokenIds.current();\n\n        address contractOwner = owner();\n\n        // Mint des tokens pour un type de carte donn\n        uint256 numberOfTokens = cards[_indexRealEstateInCollection][_cardId]\n            .numberOfTokens;\n        cards[_indexRealEstateInCollection][_cardId].tokenId = newTokenId;\n        _mint(contractOwner, newTokenId, numberOfTokens, \"\");\n\n        // Mise  jour de la balance totale de la carte NFT (Quantit restante gale au nombre de tokens mints)\n        uint256 balanceOfOwnerTokenId = balanceOf(\n            contractOwner,\n            cards[_indexRealEstateInCollection][_cardId].tokenId\n        );\n\n        // NFT qui seront lists sur la plateforme une fois le mint effectu\n        // Par dfaut tous les NTFS sont dtnus par le owner du contrat\n        // realEstateId => tokenId => ownerAdress --> Card\n        NFTCard storage defaultOwner = usersCardsNfts[\n            _indexRealEstateInCollection\n        ][newTokenId][contractOwner];\n        defaultOwner.tokenId = cards[_indexRealEstateInCollection][_cardId]\n            .tokenId; // Identifiant de la carte minte\n        defaultOwner.price = cards[_indexRealEstateInCollection][_cardId].price; // Prix dfini par l'administrateur\n        defaultOwner.quantity = balanceOfOwnerTokenId; // balance du owner du token\n        defaultOwner.owner = payable(contractOwner);\n        defaultOwner.seller = payable(contractOwner);\n\n        // MAJ du mapping des balances\n        cards[_indexRealEstateInCollection][_cardId]\n            .balance = balanceOfOwnerTokenId;\n\n        return newTokenId;\n    }\n\n    // Retourne le prix total des cartes  payer (en MATIC)\n    function calculeTotalPrice(\n        uint256 _indexRealEstateInCollection,\n        uint256[] calldata _cardsId,\n        uint256[] calldata _amounts\n    ) public view returns (uint256) {\n        require(_amounts.length > 0, \"Aucun montant renseigne\");\n        require(_cardsId.length > 0, \"Aucun carte selectionnee\");\n        require(\n            _indexRealEstateInCollection < realEstatesCollection.length,\n            \"Bien immobilier inexistant\"\n        );\n\n        // 3 cartes COTTAGE de 50  et 1 carte VILLA  100  = 3 * 50 + 1 * 100 = 250 = totalAmount\n        uint256 totalAmount;\n\n        for (uint256 i = 0; i < _cardsId.length; i++) {\n            require(\n                _cardsId[i] >= CARD_COTTAGE && _cardsId[i] <= CARD_HIGH_RISE,\n                \"Carte inconnue\"\n            );\n            uint256 boughtCardId = _cardsId[i];\n            // amount = price * quantity\n            totalAmount +=\n                cards[_indexRealEstateInCollection][boughtCardId].price *\n                _amounts[i];\n        }\n\n        // Calcul du nombre de tokens MATIC  nous reverser au total\n        // return amountOfMATIC(totalAmount);\n        return totalAmount;\n    }\n\n    // Frais de transactions de la plateforme ROCK\n    function setFee(uint256 _fee) public onlyOwner {\n        fees = _fee;\n    }\n\n    /// Returns the latest price MATIC/USD\n    function getLatestPrice() public view returns (uint256) {\n        (\n            ,\n            /*uint80 roundID*/\n            int256 price, /*uint startedAt*/ /*uint timeStamp*/ /*uint80 answeredInRound*/\n            ,\n            ,\n\n        ) = priceFeed.latestRoundData();\n        uint8 decimals = priceFeed.decimals();\n        uint256 _price = uint256(price);\n        return _price / (10**decimals);\n        //return _price;\n        // return _amount / maticPrice;\n    }\n\n    function withdraw() public onlyOwner {\n        require(address(this).balance > 0, \"Balance a 0\");\n        payable(owner()).transfer(address(this).balance);\n    }\n\n    // Rcupration de la paire MATIC / USD via Chainlink\n    function getLastPairMaticUsd(uint256 _amount)\n        public\n        view\n        returns (uint256)\n    {\n        return getLatestPrice();\n    }\n}\n",
  "sourcePath": "/home/anicaise/Formation/Alyra/Rock/truffle/contracts/Rock.sol",
  "compiler": {
    "name": "solc",
    "version": "0.8.17+commit.8df45f5f.Emscripten.clang"
  },
  "schemaVersion": "3.4.10",
  "updatedAt": "2022-12-05T20:56:22.973Z",
  "networkType": "ethereum",
  "devdoc": {
    "kind": "dev",
    "methods": {
      "balanceOf(address,uint256)": {
        "details": "See {IERC1155-balanceOf}. Requirements: - `account` cannot be the zero address."
      },
      "balanceOfBatch(address[],uint256[])": {
        "details": "See {IERC1155-balanceOfBatch}. Requirements: - `accounts` and `ids` must have the same length."
      },
      "isApprovedForAll(address,address)": {
        "details": "See {IERC1155-isApprovedForAll}."
      },
      "owner()": {
        "details": "Returns the address of the current owner."
      },
      "renounceOwnership()": {
        "details": "Leaves the contract without owner. It will not be possible to call `onlyOwner` functions anymore. Can only be called by the current owner. NOTE: Renouncing ownership will leave the contract without an owner, thereby removing any functionality that is only available to the owner."
      },
      "royaltyInfo(uint256,uint256)": {
        "details": "Returns how much royalty is owed and to whom, based on a sale price that may be denominated in any unit of exchange. The royalty amount is denominated and should be paid in that same unit of exchange."
      },
      "safeBatchTransferFrom(address,address,uint256[],uint256[],bytes)": {
        "details": "See {IERC1155-safeBatchTransferFrom}."
      },
      "safeTransferFrom(address,address,uint256,uint256,bytes)": {
        "details": "See {IERC1155-safeTransferFrom}."
      },
      "setApprovalForAll(address,bool)": {
        "details": "See {IERC1155-setApprovalForAll}."
      },
      "transferOwnership(address)": {
        "details": "Transfers ownership of the contract to a new account (`newOwner`). Can only be called by the current owner."
      },
      "uri(uint256)": {
        "details": "See {IERC1155MetadataURI-uri}. This implementation returns the same URI for *all* token types. It relies on the token type ID substitution mechanism https://eips.ethereum.org/EIPS/eip-1155#metadata[defined in the EIP]. Clients calling this function must replace the `\\{id\\}` substring with the actual token type ID."
      }
    },
    "version": 1
  },
  "userdoc": {
    "kind": "user",
    "methods": {
      "getLatestPrice()": {
        "notice": "Returns the latest price MATIC/USD"
      }
    },
    "version": 1
  }
}