{
  "contractName": "Rock",
  "abi": [
    {
      "inputs": [],
      "stateMutability": "nonpayable",
      "type": "constructor"
    },
    {
      "anonymous": false,
      "inputs": [
        {
          "indexed": true,
          "internalType": "address",
          "name": "account",
          "type": "address"
        },
        {
          "indexed": true,
          "internalType": "address",
          "name": "operator",
          "type": "address"
        },
        {
          "indexed": false,
          "internalType": "bool",
          "name": "approved",
          "type": "bool"
        }
      ],
      "name": "ApprovalForAll",
      "type": "event"
    },
    {
      "anonymous": false,
      "inputs": [
        {
          "indexed": true,
          "internalType": "address",
          "name": "previousOwner",
          "type": "address"
        },
        {
          "indexed": true,
          "internalType": "address",
          "name": "newOwner",
          "type": "address"
        }
      ],
      "name": "OwnershipTransferred",
      "type": "event"
    },
    {
      "anonymous": false,
      "inputs": [
        {
          "indexed": false,
          "internalType": "uint256",
          "name": "idRealEstate",
          "type": "uint256"
        }
      ],
      "name": "RealEstateAdded",
      "type": "event"
    },
    {
      "anonymous": false,
      "inputs": [
        {
          "indexed": true,
          "internalType": "address",
          "name": "operator",
          "type": "address"
        },
        {
          "indexed": true,
          "internalType": "address",
          "name": "from",
          "type": "address"
        },
        {
          "indexed": true,
          "internalType": "address",
          "name": "to",
          "type": "address"
        },
        {
          "indexed": false,
          "internalType": "uint256[]",
          "name": "ids",
          "type": "uint256[]"
        },
        {
          "indexed": false,
          "internalType": "uint256[]",
          "name": "values",
          "type": "uint256[]"
        }
      ],
      "name": "TransferBatch",
      "type": "event"
    },
    {
      "anonymous": false,
      "inputs": [
        {
          "indexed": true,
          "internalType": "address",
          "name": "operator",
          "type": "address"
        },
        {
          "indexed": true,
          "internalType": "address",
          "name": "from",
          "type": "address"
        },
        {
          "indexed": true,
          "internalType": "address",
          "name": "to",
          "type": "address"
        },
        {
          "indexed": false,
          "internalType": "uint256",
          "name": "id",
          "type": "uint256"
        },
        {
          "indexed": false,
          "internalType": "uint256",
          "name": "value",
          "type": "uint256"
        }
      ],
      "name": "TransferSingle",
      "type": "event"
    },
    {
      "anonymous": false,
      "inputs": [
        {
          "indexed": false,
          "internalType": "string",
          "name": "value",
          "type": "string"
        },
        {
          "indexed": true,
          "internalType": "uint256",
          "name": "id",
          "type": "uint256"
        }
      ],
      "name": "URI",
      "type": "event"
    },
    {
      "anonymous": false,
      "inputs": [
        {
          "indexed": false,
          "internalType": "uint256",
          "name": "idToken",
          "type": "uint256"
        },
        {
          "indexed": false,
          "internalType": "uint256",
          "name": "supplyCottage",
          "type": "uint256"
        },
        {
          "indexed": false,
          "internalType": "uint256",
          "name": "supplyVilla",
          "type": "uint256"
        },
        {
          "indexed": false,
          "internalType": "uint256",
          "name": "supplyMansion",
          "type": "uint256"
        },
        {
          "indexed": false,
          "internalType": "uint256",
          "name": "supplyHighRise",
          "type": "uint256"
        }
      ],
      "name": "supplyCardsCalculated",
      "type": "event"
    },
    {
      "anonymous": false,
      "inputs": [
        {
          "indexed": false,
          "internalType": "uint256",
          "name": "idRealEstate",
          "type": "uint256"
        }
      ],
      "name": "tokenMinted",
      "type": "event"
    },
    {
      "inputs": [
        {
          "internalType": "uint256",
          "name": "",
          "type": "uint256"
        }
      ],
      "name": "Listings",
      "outputs": [
        {
          "internalType": "uint256",
          "name": "tokenId",
          "type": "uint256"
        },
        {
          "internalType": "uint256",
          "name": "price",
          "type": "uint256"
        },
        {
          "internalType": "uint256",
          "name": "quantity",
          "type": "uint256"
        },
        {
          "internalType": "address payable",
          "name": "seller",
          "type": "address"
        },
        {
          "internalType": "address payable",
          "name": "owner",
          "type": "address"
        }
      ],
      "stateMutability": "view",
      "type": "function",
      "constant": true
    },
    {
      "inputs": [
        {
          "internalType": "address",
          "name": "account",
          "type": "address"
        },
        {
          "internalType": "uint256",
          "name": "id",
          "type": "uint256"
        }
      ],
      "name": "balanceOf",
      "outputs": [
        {
          "internalType": "uint256",
          "name": "",
          "type": "uint256"
        }
      ],
      "stateMutability": "view",
      "type": "function",
      "constant": true
    },
    {
      "inputs": [
        {
          "internalType": "address[]",
          "name": "accounts",
          "type": "address[]"
        },
        {
          "internalType": "uint256[]",
          "name": "ids",
          "type": "uint256[]"
        }
      ],
      "name": "balanceOfBatch",
      "outputs": [
        {
          "internalType": "uint256[]",
          "name": "",
          "type": "uint256[]"
        }
      ],
      "stateMutability": "view",
      "type": "function",
      "constant": true
    },
    {
      "inputs": [
        {
          "internalType": "address",
          "name": "account",
          "type": "address"
        },
        {
          "internalType": "address",
          "name": "operator",
          "type": "address"
        }
      ],
      "name": "isApprovedForAll",
      "outputs": [
        {
          "internalType": "bool",
          "name": "",
          "type": "bool"
        }
      ],
      "stateMutability": "view",
      "type": "function",
      "constant": true
    },
    {
      "inputs": [],
      "name": "name",
      "outputs": [
        {
          "internalType": "string",
          "name": "",
          "type": "string"
        }
      ],
      "stateMutability": "view",
      "type": "function",
      "constant": true
    },
    {
      "inputs": [],
      "name": "owner",
      "outputs": [
        {
          "internalType": "address",
          "name": "",
          "type": "address"
        }
      ],
      "stateMutability": "view",
      "type": "function",
      "constant": true
    },
    {
      "inputs": [
        {
          "internalType": "uint256",
          "name": "",
          "type": "uint256"
        }
      ],
      "name": "realEstatesCollection",
      "outputs": [
        {
          "internalType": "uint256",
          "name": "id",
          "type": "uint256"
        },
        {
          "internalType": "string",
          "name": "name",
          "type": "string"
        },
        {
          "internalType": "string",
          "name": "location",
          "type": "string"
        },
        {
          "internalType": "string",
          "name": "city",
          "type": "string"
        },
        {
          "internalType": "string",
          "name": "cid",
          "type": "string"
        },
        {
          "internalType": "uint256",
          "name": "price",
          "type": "uint256"
        }
      ],
      "stateMutability": "view",
      "type": "function",
      "constant": true
    },
    {
      "inputs": [],
      "name": "renounceOwnership",
      "outputs": [],
      "stateMutability": "nonpayable",
      "type": "function"
    },
    {
      "inputs": [
        {
          "internalType": "uint256",
          "name": "_tokenId",
          "type": "uint256"
        },
        {
          "internalType": "uint256",
          "name": "_salePrice",
          "type": "uint256"
        }
      ],
      "name": "royaltyInfo",
      "outputs": [
        {
          "internalType": "address",
          "name": "",
          "type": "address"
        },
        {
          "internalType": "uint256",
          "name": "",
          "type": "uint256"
        }
      ],
      "stateMutability": "view",
      "type": "function",
      "constant": true
    },
    {
      "inputs": [
        {
          "internalType": "address",
          "name": "from",
          "type": "address"
        },
        {
          "internalType": "address",
          "name": "to",
          "type": "address"
        },
        {
          "internalType": "uint256[]",
          "name": "ids",
          "type": "uint256[]"
        },
        {
          "internalType": "uint256[]",
          "name": "amounts",
          "type": "uint256[]"
        },
        {
          "internalType": "bytes",
          "name": "data",
          "type": "bytes"
        }
      ],
      "name": "safeBatchTransferFrom",
      "outputs": [],
      "stateMutability": "nonpayable",
      "type": "function"
    },
    {
      "inputs": [
        {
          "internalType": "address",
          "name": "from",
          "type": "address"
        },
        {
          "internalType": "address",
          "name": "to",
          "type": "address"
        },
        {
          "internalType": "uint256",
          "name": "id",
          "type": "uint256"
        },
        {
          "internalType": "uint256",
          "name": "amount",
          "type": "uint256"
        },
        {
          "internalType": "bytes",
          "name": "data",
          "type": "bytes"
        }
      ],
      "name": "safeTransferFrom",
      "outputs": [],
      "stateMutability": "nonpayable",
      "type": "function"
    },
    {
      "inputs": [
        {
          "internalType": "address",
          "name": "operator",
          "type": "address"
        },
        {
          "internalType": "bool",
          "name": "approved",
          "type": "bool"
        }
      ],
      "name": "setApprovalForAll",
      "outputs": [],
      "stateMutability": "nonpayable",
      "type": "function"
    },
    {
      "inputs": [],
      "name": "symbol",
      "outputs": [
        {
          "internalType": "string",
          "name": "",
          "type": "string"
        }
      ],
      "stateMutability": "view",
      "type": "function",
      "constant": true
    },
    {
      "inputs": [
        {
          "internalType": "address",
          "name": "newOwner",
          "type": "address"
        }
      ],
      "name": "transferOwnership",
      "outputs": [],
      "stateMutability": "nonpayable",
      "type": "function"
    },
    {
      "inputs": [
        {
          "internalType": "uint256",
          "name": "",
          "type": "uint256"
        }
      ],
      "name": "uri",
      "outputs": [
        {
          "internalType": "string",
          "name": "",
          "type": "string"
        }
      ],
      "stateMutability": "view",
      "type": "function",
      "constant": true
    },
    {
      "inputs": [
        {
          "internalType": "uint256",
          "name": "",
          "type": "uint256"
        },
        {
          "internalType": "uint256",
          "name": "",
          "type": "uint256"
        },
        {
          "internalType": "address",
          "name": "",
          "type": "address"
        }
      ],
      "name": "usersCardsNfts",
      "outputs": [
        {
          "internalType": "uint256",
          "name": "tokenId",
          "type": "uint256"
        },
        {
          "internalType": "uint256",
          "name": "price",
          "type": "uint256"
        },
        {
          "internalType": "uint256",
          "name": "quantity",
          "type": "uint256"
        },
        {
          "internalType": "address payable",
          "name": "seller",
          "type": "address"
        },
        {
          "internalType": "address payable",
          "name": "owner",
          "type": "address"
        }
      ],
      "stateMutability": "view",
      "type": "function",
      "constant": true
    },
    {
      "inputs": [
        {
          "internalType": "bytes4",
          "name": "interfaceId",
          "type": "bytes4"
        }
      ],
      "name": "supportsInterface",
      "outputs": [
        {
          "internalType": "bool",
          "name": "",
          "type": "bool"
        }
      ],
      "stateMutability": "view",
      "type": "function",
      "constant": true
    },
    {
      "inputs": [
        {
          "internalType": "string",
          "name": "_name",
          "type": "string"
        },
        {
          "internalType": "string",
          "name": "_location",
          "type": "string"
        },
        {
          "internalType": "string",
          "name": "_city",
          "type": "string"
        },
        {
          "internalType": "string",
          "name": "_cid",
          "type": "string"
        },
        {
          "internalType": "uint256",
          "name": "_price",
          "type": "uint256"
        }
      ],
      "name": "addRealEstate",
      "outputs": [],
      "stateMutability": "nonpayable",
      "type": "function"
    },
    {
      "inputs": [],
      "name": "getRealEstatesCollectionCount",
      "outputs": [
        {
          "internalType": "uint256",
          "name": "",
          "type": "uint256"
        }
      ],
      "stateMutability": "view",
      "type": "function",
      "constant": true
    },
    {
      "inputs": [
        {
          "internalType": "uint256",
          "name": "_index",
          "type": "uint256"
        }
      ],
      "name": "getRealStateById",
      "outputs": [
        {
          "components": [
            {
              "internalType": "uint256",
              "name": "id",
              "type": "uint256"
            },
            {
              "internalType": "string",
              "name": "name",
              "type": "string"
            },
            {
              "internalType": "string",
              "name": "location",
              "type": "string"
            },
            {
              "internalType": "string",
              "name": "city",
              "type": "string"
            },
            {
              "internalType": "string",
              "name": "cid",
              "type": "string"
            },
            {
              "internalType": "uint256",
              "name": "price",
              "type": "uint256"
            }
          ],
          "internalType": "struct Rock.RealEstate",
          "name": "",
          "type": "tuple"
        }
      ],
      "stateMutability": "view",
      "type": "function",
      "constant": true
    },
    {
      "inputs": [
        {
          "internalType": "uint256",
          "name": "_indexRealEstateInCollection",
          "type": "uint256"
        },
        {
          "internalType": "bool",
          "name": "_isDefaultSupply",
          "type": "bool"
        },
        {
          "internalType": "uint256",
          "name": "_ratioTokenCottage",
          "type": "uint256"
        },
        {
          "internalType": "uint256",
          "name": "_ratioTokenVilla",
          "type": "uint256"
        },
        {
          "internalType": "uint256",
          "name": "_ratioTokenMansion",
          "type": "uint256"
        },
        {
          "internalType": "uint256",
          "name": "_prixTokenCottage",
          "type": "uint256"
        },
        {
          "internalType": "uint256",
          "name": "_prixTokenVilla",
          "type": "uint256"
        },
        {
          "internalType": "uint256",
          "name": "_prixTokenMansion",
          "type": "uint256"
        },
        {
          "internalType": "uint256",
          "name": "_prixTokenHighRise",
          "type": "uint256"
        }
      ],
      "name": "calculateNumberOfTokens",
      "outputs": [],
      "stateMutability": "nonpayable",
      "type": "function"
    },
    {
      "inputs": [
        {
          "internalType": "uint256",
          "name": "_indexRealEstateInCollection",
          "type": "uint256"
        }
      ],
      "name": "mintRealEstateCollection",
      "outputs": [],
      "stateMutability": "nonpayable",
      "type": "function"
    },
    {
      "inputs": [
        {
          "internalType": "uint256",
          "name": "_indexRealEstateInCollection",
          "type": "uint256"
        }
      ],
      "name": "getCards",
      "outputs": [
        {
          "components": [
            {
              "internalType": "uint256",
              "name": "tokenId",
              "type": "uint256"
            },
            {
              "internalType": "uint256",
              "name": "cardId",
              "type": "uint256"
            },
            {
              "internalType": "uint256",
              "name": "price",
              "type": "uint256"
            },
            {
              "internalType": "uint256",
              "name": "numberOfTokens",
              "type": "uint256"
            },
            {
              "internalType": "uint256",
              "name": "ratioOfTokensInPercent",
              "type": "uint256"
            },
            {
              "internalType": "uint256",
              "name": "royalty",
              "type": "uint256"
            },
            {
              "internalType": "uint256",
              "name": "balance",
              "type": "uint256"
            }
          ],
          "internalType": "struct Rock.Card[4]",
          "name": "",
          "type": "tuple[4]"
        }
      ],
      "stateMutability": "view",
      "type": "function",
      "constant": true
    },
    {
      "inputs": [
        {
          "internalType": "uint256",
          "name": "_indexRealEstateInCollection",
          "type": "uint256"
        },
        {
          "internalType": "uint256[]",
          "name": "_cardsId",
          "type": "uint256[]"
        },
        {
          "internalType": "uint256[]",
          "name": "_amounts",
          "type": "uint256[]"
        }
      ],
      "name": "calculeTotalPrice",
      "outputs": [
        {
          "internalType": "uint256",
          "name": "",
          "type": "uint256"
        }
      ],
      "stateMutability": "view",
      "type": "function",
      "constant": true
    },
    {
      "inputs": [
        {
          "internalType": "uint256",
          "name": "_fee",
          "type": "uint256"
        }
      ],
      "name": "setFee",
      "outputs": [],
      "stateMutability": "nonpayable",
      "type": "function"
    },
    {
      "inputs": [],
      "name": "getLatestPrice",
      "outputs": [
        {
          "internalType": "uint256",
          "name": "",
          "type": "uint256"
        }
      ],
      "stateMutability": "view",
      "type": "function",
      "constant": true
    },
    {
      "inputs": [],
      "name": "withdraw",
      "outputs": [],
      "stateMutability": "nonpayable",
      "type": "function"
    },
    {
      "inputs": [
        {
          "internalType": "uint256",
          "name": "_amount",
          "type": "uint256"
        }
      ],
      "name": "getLastPairMaticUsd",
      "outputs": [
        {
          "internalType": "uint256",
          "name": "",
          "type": "uint256"
        }
      ],
      "stateMutability": "view",
      "type": "function",
      "constant": true
    },
    {
      "inputs": [],
      "name": "getOwner",
      "outputs": [
        {
          "internalType": "address",
          "name": "",
          "type": "address"
        }
      ],
      "stateMutability": "view",
      "type": "function",
      "constant": true
    }
  ],
  "bytecode": "0x61138860095560c0604052600f60809081526e2937b1b59021b7b63632b1ba34b7b760891b60a052600a90620000369082620002ee565b50604080518082019091526004815263526f636b60e01b6020820152600b90620000619082620002ee565b503480156200006f57600080fd5b506040518060800160405280605a815260200162004339605a91396200009581620000e0565b50620000a133620000f2565b6001600655620000b433611f4062000144565b601080546001600160a01b03191673d4a33860578de61dbabdc8bfdb98fd742fa7028e179055620003ba565b6002620000ee8282620002ee565b5050565b600580546001600160a01b038381166001600160a01b0319831681179093556040519116919082907f8be0079c531659141344cd1fd0a4f28419497f9722a3daafe3b4186f6b6457e090600090a35050565b6127106001600160601b0382161115620001b85760405162461bcd60e51b815260206004820152602a60248201527f455243323938313a20726f79616c7479206665652077696c6c206578636565646044820152692073616c65507269636560b01b60648201526084015b60405180910390fd5b6001600160a01b038216620002105760405162461bcd60e51b815260206004820152601960248201527f455243323938313a20696e76616c6964207265636569766572000000000000006044820152606401620001af565b604080518082019091526001600160a01b039092168083526001600160601b039091166020909201829052600160a01b90910217600355565b634e487b7160e01b600052604160045260246000fd5b600181811c908216806200027457607f821691505b6020821081036200029557634e487b7160e01b600052602260045260246000fd5b50919050565b601f821115620002e957600081815260208120601f850160051c81016020861015620002c45750805b601f850160051c820191505b81811015620002e557828155600101620002d0565b5050505b505050565b81516001600160401b038111156200030a576200030a62000249565b62000322816200031b84546200025f565b846200029b565b602080601f8311600181146200035a5760008415620003415750858301515b600019600386901b1c1916600185901b178555620002e5565b600085815260208120601f198616915b828110156200038b578886015182559484019460019091019084016200036a565b5085821015620003aa5787850151600019600388901b60f8161c191681555b5050505050600190811b01905550565b613f6f80620003ca6000396000f3fe608060405234801561001057600080fd5b50600436106101ce5760003560e01c80636f7789a611610104578063a22cb465116100a2578063f242432a11610071578063f242432a146104a3578063f2a54c04146104b6578063f2fde38b146104be578063fdac310f146104d157600080fd5b8063a22cb4651461042e578063d1e8c4aa14610441578063d3eb414814610454578063e985e9c51461046757600080fd5b80638da5cb5b116100de5780638da5cb5b146103e85780638e15f473146103f957806395d89b4114610401578063a0f4651a1461040957600080fd5b80636f7789a6146103ad578063715018a6146103c0578063893d20e8146103c857600080fd5b80632a55205a1161017157806338d913bc1161014b57806338d913bc1461035f5780633ccfd60b146103725780634e1273f41461037a57806369fe0e2d1461039a57600080fd5b80632a55205a146103075780632eb2c2d61461033957806333caeb941461034c57600080fd5b806304643755116101ad578063046437551461023157806304ed02f6146102bf57806306fdde03146102df5780630e89341c146102f457600080fd5b8062fdd58e146101d3578063012f375f146101f957806301ffc9a71461020e575b600080fd5b6101e66101e1366004613088565b6104f1565b6040519081526020015b60405180910390f35b61020c610207366004613182565b61059d565b005b61022161021c366004613265565b610a5a565b60405190151581526020016101f0565b61028b61023f366004613289565b600e602090815260009384526040808520825292845282842090528252902080546001820154600283015460038401546004909401549293919290916001600160a01b03908116911685565b604080519586526020860194909452928401919091526001600160a01b03908116606084015216608082015260a0016101f0565b6102d26102cd3660046132be565b610a65565b6040516101f091906132d7565b6102e7610b05565b6040516101f09190613390565b6102e76103023660046132be565b610b93565b61031a6103153660046133a3565b610c27565b604080516001600160a01b0390931683526020830191909152016101f0565b61020c61034736600461344f565b610d06565b61028b61035a3660046132be565b610da8565b6101e661036d36600461353e565b610df6565b61020c611014565b61038d6103883660046135b8565b6110a8565b6040516101f091906136be565b61020c6103a83660046132be565b6111e6565b61020c6103bb3660046132be565b6111f3565b61020c611335565b6103d0611349565b6040516001600160a01b0390911681526020016101f0565b6005546001600160a01b03166103d0565b6101e6611362565b6102e761147b565b61041c6104173660046132be565b611488565b6040516101f0969594939291906136d1565b61020c61043c366004613748565b6116f0565b61020c61044f36600461377b565b6116ff565b6101e66104623660046132be565b611d7c565b6102216104753660046137e5565b6001600160a01b03918216600090815260016020908152604080832093909416825291909152205460ff1690565b61020c6104b136600461380f565b611d86565b600c546101e6565b61020c6104cc366004613874565b611e21565b6104e46104df3660046132be565b611eae565b6040516101f0919061388f565b60006001600160a01b0383166105745760405162461bcd60e51b815260206004820152602a60248201527f455243313135353a2061646472657373207a65726f206973206e6f742061207660448201527f616c6964206f776e65720000000000000000000000000000000000000000000060648201526084015b60405180910390fd5b506000818152602081815260408083206001600160a01b03861684529091529020545b92915050565b6105a56121c7565b6040516020016105c090602080825260009082015260400190565b60405160208183030381529060405280519060200120856040516020016105e79190613390565b60405160208183030381529060405280519060200120036106705760405162461bcd60e51b815260206004820152602e60248201527f4c65206e6f6d2064752070726f6772616d6d6520696d6d6f62696c696572206560448201527f7374206f626c696761746f697265000000000000000000000000000000000000606482015260840161056b565b60405160200161068b90602080825260009082015260400190565b60405160208183030381529060405280519060200120846040516020016106b29190613390565b60405160208183030381529060405280519060200120036107155760405162461bcd60e51b815260206004820152601c60248201527f4c6120736974756174696f6e20657374206f626c696761746f69726500000000604482015260640161056b565b60405160200161073090602080825260009082015260400190565b60405160208183030381529060405280519060200120836040516020016107579190613390565b60405160208183030381529060405280519060200120036107ba5760405162461bcd60e51b815260206004820152601860248201527f4c612076696c6c6520657374206f626c696761746f6972650000000000000000604482015260640161056b565b6040516020016107d590602080825260009082015260400190565b60405160208183030381529060405280519060200120826040516020016107fc9190613390565b604051602081830303815290604052805190602001200361085f5760405162461bcd60e51b815260206004820152601660248201527f4c652063696420657374206f626c696761746f69726500000000000000000000604482015260640161056b565b61c35081116108d65760405162461bcd60e51b815260206004820152603860248201527f4572726575722c206c652070726978206475206269656e20696d6d6f20646f6960448201527f7420657472652073757065726965757220612035303030300000000000000000606482015260840161056b565b6108e4600880546001019055565b61091d6040518060c001604052806000815260200160608152602001606081526020016060815260200160608152602001600081525090565b60085481526020810186815260408201869052606082018590526080820184905260a08201839052600c8054600181018255600091909152825160069091027fdf6966c971051c3d54ec59162606531493a51404a002842f56009d7e5cf4a8c78101918255915183927fdf6966c971051c3d54ec59162606531493a51404a002842f56009d7e5cf4a8c801906109b390826139c3565b50604082015160028201906109c890826139c3565b50606082015160038201906109dd90826139c3565b50608082015160048201906109f290826139c3565b5060a08201518160050155505060006001610a0c60085490565b610a169190613aee565b90507ff25ea05cc68cbe6d2d1abce09caf6545e2282a00caed6975ebba55f38de5372081604051610a4991815260200190565b60405180910390a150505050505050565b600061059782612221565b610a6d613007565b6000828152600f60205260408082208151608081019092529091600490835b82821015610afa578382600702016040518060e001604052908160008201548152602001600182015481526020016002820154815260200160038201548152602001600482015481526020016005820154815260200160068201548152505081526020019060010190610a8c565b505050509050919050565b600a8054610b1290613925565b80601f0160208091040260200160405190810160405280929190818152602001828054610b3e90613925565b8015610b8b5780601f10610b6057610100808354040283529160200191610b8b565b820191906000526020600020905b815481529060010190602001808311610b6e57829003601f168201915b505050505081565b606060028054610ba290613925565b80601f0160208091040260200160405190810160405280929190818152602001828054610bce90613925565b8015610c1b5780601f10610bf057610100808354040283529160200191610c1b565b820191906000526020600020905b815481529060010190602001808311610bfe57829003601f168201915b50505050509050919050565b60008281526004602090815260408083208151808301909252546001600160a01b038116808352740100000000000000000000000000000000000000009091046bffffffffffffffffffffffff16928201929092528291610cc85750604080518082019091526003546001600160a01b03811682527401000000000000000000000000000000000000000090046bffffffffffffffffffffffff1660208201525b602081015160009061271090610cec906bffffffffffffffffffffffff1687613b01565b610cf69190613b18565b91519350909150505b9250929050565b6001600160a01b038516331480610d225750610d228533610475565b610d945760405162461bcd60e51b815260206004820152602e60248201527f455243313135353a2063616c6c6572206973206e6f7420746f6b656e206f776e60448201527f6572206f7220617070726f766564000000000000000000000000000000000000606482015260840161056b565b610da18585858585612277565b5050505050565b600d8181548110610db857600080fd5b600091825260209091206005909102018054600182015460028301546003840154600490940154929450909290916001600160a01b03918216911685565b600081610e455760405162461bcd60e51b815260206004820152601760248201527f417563756e206d6f6e74616e742072656e736569676e65000000000000000000604482015260640161056b565b83610e925760405162461bcd60e51b815260206004820152601860248201527f417563756e2063617274652073656c656374696f6e6e65650000000000000000604482015260640161056b565b600c548610610ee35760405162461bcd60e51b815260206004820152601a60248201527f4269656e20696d6d6f62696c69657220696e6578697374616e74000000000000604482015260640161056b565b6000805b85811015611009576000878783818110610f0357610f03613b53565b9050602002013510158015610f3157506003878783818110610f2757610f27613b53565b9050602002013511155b610f7d5760405162461bcd60e51b815260206004820152600e60248201527f436172746520696e636f6e6e7565000000000000000000000000000000000000604482015260640161056b565b6000878783818110610f9157610f91613b53565b905060200201359050858583818110610fac57610fac613b53565b90506020020135600f60008b81526020019081526020016000208260048110610fd757610fd7613b53565b6007020160020154610fe99190613b01565b610ff39084613b82565b925050808061100190613b95565b915050610ee7565b509695505050505050565b61101c6121c7565b6000471161106c5760405162461bcd60e51b815260206004820152600b60248201527f42616c616e636520612030000000000000000000000000000000000000000000604482015260640161056b565b6005546040516001600160a01b03909116904780156108fc02916000818181858888f193505050501580156110a5573d6000803e3d6000fd5b50565b606081518351146111215760405162461bcd60e51b815260206004820152602960248201527f455243313135353a206163636f756e747320616e6420696473206c656e67746860448201527f206d69736d617463680000000000000000000000000000000000000000000000606482015260840161056b565b6000835167ffffffffffffffff81111561113d5761113d6130b2565b604051908082528060200260200182016040528015611166578160200160208202803683370190505b50905060005b84518110156111de576111b185828151811061118a5761118a613b53565b60200260200101518583815181106111a4576111a4613b53565b60200260200101516104f1565b8282815181106111c3576111c3613b53565b60209081029190910101526111d781613b95565b905061116c565b509392505050565b6111ee6121c7565b600955565b6111fb6121c7565b600c548111156112735760405162461bcd60e51b815260206004820152602d60248201527f496e646578206475206269656e20696d6d6f62696c69657220656e206465686f60448201527f7273206475207461626c65617500000000000000000000000000000000000000606482015260840161056b565b6000818152600f6020526040902054156112cf5760405162461bcd60e51b815260206004820152601b60248201527f4c65206d696e7420612064656a61206574652065666665637475650000000000604482015260640161056b565b6112da600082612515565b506112e6600182612515565b506112f2600282612515565b506112fe600382612515565b506040518181527fff4078d3a7633c1bd56ae05b46cf944f917a32264ef635cbc026a7efe2e473689060200160405180910390a150565b61133d6121c7565b61134760006126f8565b565b600061135d6005546001600160a01b031690565b905090565b600080601060009054906101000a90046001600160a01b03166001600160a01b031663feaf968c6040518163ffffffff1660e01b815260040160a060405180830381865afa1580156113b8573d6000803e3d6000fd5b505050506040513d601f19601f820116820180604052508101906113dc9190613be7565b5050509150506000601060009054906101000a90046001600160a01b03166001600160a01b031663313ce5676040518163ffffffff1660e01b8152600401602060405180830381865afa158015611437573d6000803e3d6000fd5b505050506040513d601f19601f8201168201806040525081019061145b9190613c37565b90508161146982600a613d7a565b6114739082613b18565b935050505090565b600b8054610b1290613925565b600c818154811061149857600080fd5b600091825260209091206006909102018054600182018054919350906114bd90613925565b80601f01602080910402602001604051908101604052809291908181526020018280546114e990613925565b80156115365780601f1061150b57610100808354040283529160200191611536565b820191906000526020600020905b81548152906001019060200180831161151957829003601f168201915b50505050509080600201805461154b90613925565b80601f016020809104026020016040519081016040528092919081815260200182805461157790613925565b80156115c45780601f10611599576101008083540402835291602001916115c4565b820191906000526020600020905b8154815290600101906020018083116115a757829003601f168201915b5050505050908060030180546115d990613925565b80601f016020809104026020016040519081016040528092919081815260200182805461160590613925565b80156116525780601f1061162757610100808354040283529160200191611652565b820191906000526020600020905b81548152906001019060200180831161163557829003601f168201915b50505050509080600401805461166790613925565b80601f016020809104026020016040519081016040528092919081815260200182805461169390613925565b80156116e05780601f106116b5576101008083540402835291602001916116e0565b820191906000526020600020905b8154815290600101906020018083116116c357829003601f168201915b5050505050908060050154905086565b6116fb338383612762565b5050565b6117076121c7565b600c5489111561177f5760405162461bcd60e51b815260206004820152602d60248201527f496e646578206475206269656e20696d6d6f62696c69657220656e206465686f60448201527f7273206475207461626c65617500000000000000000000000000000000000000606482015260840161056b565b60648710801561178f5750606486105b801561179b5750606485105b61180d5760405162461bcd60e51b815260206004820152602360248201527f4572726575722c20756e2064657320706f757263656e7461676573206573742060448201527f6120300000000000000000000000000000000000000000000000000000000000606482015260840161056b565b60328410156118845760405162461bcd60e51b815260206004820152603b60248201527f4572726575722c206c652070726978206d696e696d756d206465206c6120636160448201527f72746520434f545441474520646f697420657472652064652035300000000000606482015260840161056b565b60648310156118fb5760405162461bcd60e51b815260206004820152603a60248201527f4572726575722c206c652070726978206d696e696d756d206465206c6120636160448201527f7274652056494c4c4120646f6974206574726520646520313030000000000000606482015260840161056b565b60968210156119725760405162461bcd60e51b815260206004820152603c60248201527f4572726575722c206c652070726978206d696e696d756d206465206c6120636160448201527f727465204d414e53494f4e20646f697420657472652064652031353000000000606482015260840161056b565b878061198f575086158015611985575085155b801561198f575084155b156119a15760329650601e9550601494505b6000898152600f60209081526040808320815160e08101835284815292830184905290820187905260608201839052608082018a9052601e60a083015260c0820183905291829060070201600082015181600001556020820151816001015560408201518160020155606082015181600301556080820151816004015560a0820151816005015560c082015181600601559050506040518060e00160405280600181526020016000815260200185815260200160008152602001888152602001601e8152602001600081525081600160048110611a8057611a80613b53565b60070201600082015181600001556020820151816001015560408201518160020155606082015181600301556080820151816004015560a0820151816005015560c082015181600601559050506040518060e00160405280600281526020016000815260200184815260200160008152602001878152602001601e8152602001600081525081600260048110611b1857611b18613b53565b60070201600082015181600001556020820151816001015560408201518160020155606082015181600301556080820151816004015560a0820151816005015560c082015181600601559050506040518060e0016040528060038152602001600081526020018381526020016001815260200160008152602001601e8152602001600081525081600360048110611bb157611bb1613b53565b60070201600082015181600001556020820151816001015560408201518160020155606082015181600301556080820151816004015560a0820151816005015560c082015181600601559050506000826001611c0d9190613b01565b600c8c81548110611c2057611c20613b53565b906000526020600020906006020160050154611c3c9190613aee565b9050606460005b6003811015611ce25760008d8152600f602052604081208260048110611c6b57611c6b613b53565b6007020190508060030154600003611ccf576000838260040154611c8f9190613b01565b90506000611c9e856064613b01565b611ca88388613b01565b611cb29190613b18565b90506000836002015482611cc69190613b18565b60038501555050505b5080611cda81613b95565b915050611c43565b506003830154600a8401547f01f6ecbad523aa4ebc65b0e3c80ebd687c182bea84d78431cac0754a2fd7c192918e91866002600702016003015487600360048110611d2f57611d2f613b53565b6007020160030154604051611d66959493929190948552602085019390935260408401919091526060830152608082015260a00190565b60405180910390a1505050505050505050505050565b6000610597611362565b6001600160a01b038516331480611da25750611da28533610475565b611e145760405162461bcd60e51b815260206004820152602e60248201527f455243313135353a2063616c6c6572206973206e6f7420746f6b656e206f776e60448201527f6572206f7220617070726f766564000000000000000000000000000000000000606482015260840161056b565b610da18585858585612874565b611e296121c7565b6001600160a01b038116611ea55760405162461bcd60e51b815260206004820152602660248201527f4f776e61626c653a206e6577206f776e657220697320746865207a65726f206160448201527f6464726573730000000000000000000000000000000000000000000000000000606482015260840161056b565b6110a5816126f8565b611ee76040518060c001604052806000815260200160608152602001606081526020016060815260200160608152602001600081525090565b600c548210611f385760405162461bcd60e51b815260206004820152601a60248201527f4269656e20696d6d6f62696c69657220696e6578697374616e74000000000000604482015260640161056b565b600c8281548110611f4b57611f4b613b53565b90600052602060002090600602016040518060c001604052908160008201548152602001600182018054611f7e90613925565b80601f0160208091040260200160405190810160405280929190818152602001828054611faa90613925565b8015611ff75780601f10611fcc57610100808354040283529160200191611ff7565b820191906000526020600020905b815481529060010190602001808311611fda57829003601f168201915b5050505050815260200160028201805461201090613925565b80601f016020809104026020016040519081016040528092919081815260200182805461203c90613925565b80156120895780601f1061205e57610100808354040283529160200191612089565b820191906000526020600020905b81548152906001019060200180831161206c57829003601f168201915b505050505081526020016003820180546120a290613925565b80601f01602080910402602001604051908101604052809291908181526020018280546120ce90613925565b801561211b5780601f106120f05761010080835404028352916020019161211b565b820191906000526020600020905b8154815290600101906020018083116120fe57829003601f168201915b5050505050815260200160048201805461213490613925565b80601f016020809104026020016040519081016040528092919081815260200182805461216090613925565b80156121ad5780601f10612182576101008083540402835291602001916121ad565b820191906000526020600020905b81548152906001019060200180831161219057829003601f168201915b505050505081526020016005820154815250509050919050565b6005546001600160a01b031633146113475760405162461bcd60e51b815260206004820181905260248201527f4f776e61626c653a2063616c6c6572206973206e6f7420746865206f776e6572604482015260640161056b565b60007fffffffff0000000000000000000000000000000000000000000000000000000082167f2a55205a000000000000000000000000000000000000000000000000000000001480610597575061059782612a4a565b81518351146122ee5760405162461bcd60e51b815260206004820152602860248201527f455243313135353a2069647320616e6420616d6f756e7473206c656e6774682060448201527f6d69736d61746368000000000000000000000000000000000000000000000000606482015260840161056b565b6001600160a01b03841661236a5760405162461bcd60e51b815260206004820152602560248201527f455243313135353a207472616e7366657220746f20746865207a65726f20616460448201527f6472657373000000000000000000000000000000000000000000000000000000606482015260840161056b565b3360005b84518110156124a757600085828151811061238b5761238b613b53565b6020026020010151905060008583815181106123a9576123a9613b53565b602090810291909101810151600084815280835260408082206001600160a01b038e16835290935291909120549091508181101561244f5760405162461bcd60e51b815260206004820152602a60248201527f455243313135353a20696e73756666696369656e742062616c616e636520666f60448201527f72207472616e7366657200000000000000000000000000000000000000000000606482015260840161056b565b6000838152602081815260408083206001600160a01b038e8116855292528083208585039055908b1682528120805484929061248c908490613b82565b92505081905550505050806124a090613b95565b905061236e565b50846001600160a01b0316866001600160a01b0316826001600160a01b03167f4a39dc06d4c0dbc64b70af90fd698a233a518aa5d07e595d983b8c0526c8f7fb87876040516124f7929190613d89565b60405180910390a461250d818787878787612b2d565b505050505050565b600061251f6121c7565b61252d600780546001019055565b600061253860075490565b9050600061254e6005546001600160a01b031690565b6000858152600f6020526040812091925090866004811061257157612571613b53565b6007020160030154905082600f600087815260200190815260200160002087600481106125a0576125a0613b53565b60070201556040805160208101909152600081526125c390839085908490612d3a565b6000858152600f602052604081206125f290849089600481106125e8576125e8613b53565b60070201546104f1565b6000878152600e6020908152604080832088845282528083206001600160a01b038816845282528083208a8452600f90925290912091925090886004811061263c5761263c613b53565b600702015481556000878152600f60205260409020886004811061266257612662613b53565b6007020160029081015460018301558101829055600480820180547fffffffffffffffffffffffff00000000000000000000000000000000000000009081166001600160a01b03881690811790925560038401805490911690911790556000888152600f6020526040902083918a9081106126df576126df613b53565b6007020160060181905550849550505050505092915050565b600580546001600160a01b038381167fffffffffffffffffffffffff0000000000000000000000000000000000000000831681179093556040519116919082907f8be0079c531659141344cd1fd0a4f28419497f9722a3daafe3b4186f6b6457e090600090a35050565b816001600160a01b0316836001600160a01b0316036127e95760405162461bcd60e51b815260206004820152602960248201527f455243313135353a2073657474696e6720617070726f76616c2073746174757360448201527f20666f722073656c660000000000000000000000000000000000000000000000606482015260840161056b565b6001600160a01b0383811660008181526001602090815260408083209487168084529482529182902080547fffffffffffffffffffffffffffffffffffffffffffffffffffffffffffffff001686151590811790915591519182527f17307eab39ab6107e8899845ad3d59bd9653f200f220920489ca2b5937696c31910160405180910390a3505050565b6001600160a01b0384166128f05760405162461bcd60e51b815260206004820152602560248201527f455243313135353a207472616e7366657220746f20746865207a65726f20616460448201527f6472657373000000000000000000000000000000000000000000000000000000606482015260840161056b565b3360006128fc85612e61565b9050600061290985612e61565b90506000868152602081815260408083206001600160a01b038c168452909152902054858110156129a25760405162461bcd60e51b815260206004820152602a60248201527f455243313135353a20696e73756666696369656e742062616c616e636520666f60448201527f72207472616e7366657200000000000000000000000000000000000000000000606482015260840161056b565b6000878152602081815260408083206001600160a01b038d8116855292528083208985039055908a168252812080548892906129df908490613b82565b909155505060408051888152602081018890526001600160a01b03808b16928c821692918816917fc3d58168c5ae7397731d063d5bbf3d657854427343f4c083240f7aacaa2d0f62910160405180910390a4612a3f848a8a8a8a8a612eac565b505050505050505050565b60007fffffffff0000000000000000000000000000000000000000000000000000000082167fd9b67a26000000000000000000000000000000000000000000000000000000001480612add57507fffffffff0000000000000000000000000000000000000000000000000000000082167f0e89341c00000000000000000000000000000000000000000000000000000000145b8061059757507f01ffc9a7000000000000000000000000000000000000000000000000000000007fffffffff00000000000000000000000000000000000000000000000000000000831614610597565b6001600160a01b0384163b1561250d576040517fbc197c810000000000000000000000000000000000000000000000000000000081526001600160a01b0385169063bc197c8190612b8a9089908990889088908890600401613db7565b6020604051808303816000875af1925050508015612bc5575060408051601f3d908101601f19168201909252612bc291810190613e15565b60015b612c7a57612bd1613e32565b806308c379a003612c0a5750612be5613e4e565b80612bf05750612c0c565b8060405162461bcd60e51b815260040161056b9190613390565b505b60405162461bcd60e51b815260206004820152603460248201527f455243313135353a207472616e7366657220746f206e6f6e2d4552433131353560448201527f526563656976657220696d706c656d656e746572000000000000000000000000606482015260840161056b565b7fffffffff0000000000000000000000000000000000000000000000000000000081167fbc197c810000000000000000000000000000000000000000000000000000000014612d315760405162461bcd60e51b815260206004820152602860248201527f455243313135353a204552433131353552656365697665722072656a6563746560448201527f6420746f6b656e73000000000000000000000000000000000000000000000000606482015260840161056b565b50505050505050565b6001600160a01b038416612db65760405162461bcd60e51b815260206004820152602160248201527f455243313135353a206d696e7420746f20746865207a65726f2061646472657360448201527f7300000000000000000000000000000000000000000000000000000000000000606482015260840161056b565b336000612dc285612e61565b90506000612dcf85612e61565b90506000868152602081815260408083206001600160a01b038b16845290915281208054879290612e01908490613b82565b909155505060408051878152602081018790526001600160a01b03808a1692600092918716917fc3d58168c5ae7397731d063d5bbf3d657854427343f4c083240f7aacaa2d0f62910160405180910390a4612d3183600089898989612eac565b60408051600180825281830190925260609160009190602080830190803683370190505090508281600081518110612e9b57612e9b613b53565b602090810291909101015292915050565b6001600160a01b0384163b1561250d576040517ff23a6e610000000000000000000000000000000000000000000000000000000081526001600160a01b0385169063f23a6e6190612f099089908990889088908890600401613ef6565b6020604051808303816000875af1925050508015612f44575060408051601f3d908101601f19168201909252612f4191810190613e15565b60015b612f5057612bd1613e32565b7fffffffff0000000000000000000000000000000000000000000000000000000081167ff23a6e610000000000000000000000000000000000000000000000000000000014612d315760405162461bcd60e51b815260206004820152602860248201527f455243313135353a204552433131353552656365697665722072656a6563746560448201527f6420746f6b656e73000000000000000000000000000000000000000000000000606482015260840161056b565b60405180608001604052806004905b6130566040518060e00160405280600081526020016000815260200160008152602001600081526020016000815260200160008152602001600081525090565b8152602001906001900390816130165790505090565b80356001600160a01b038116811461308357600080fd5b919050565b6000806040838503121561309b57600080fd5b6130a48361306c565b946020939093013593505050565b7f4e487b7100000000000000000000000000000000000000000000000000000000600052604160045260246000fd5b601f19601f830116810181811067ffffffffffffffff82111715613107576131076130b2565b6040525050565b600082601f83011261311f57600080fd5b813567ffffffffffffffff811115613139576131396130b2565b6040516131506020601f19601f85011601826130e1565b81815284602083860101111561316557600080fd5b816020850160208301376000918101602001919091529392505050565b600080600080600060a0868803121561319a57600080fd5b853567ffffffffffffffff808211156131b257600080fd5b6131be89838a0161310e565b965060208801359150808211156131d457600080fd5b6131e089838a0161310e565b955060408801359150808211156131f657600080fd5b61320289838a0161310e565b9450606088013591508082111561321857600080fd5b506132258882890161310e565b95989497509295608001359392505050565b7fffffffff00000000000000000000000000000000000000000000000000000000811681146110a557600080fd5b60006020828403121561327757600080fd5b813561328281613237565b9392505050565b60008060006060848603121561329e57600080fd5b83359250602084013591506132b56040850161306c565b90509250925092565b6000602082840312156132d057600080fd5b5035919050565b6103808101818360005b6004811015613341578151805184526020808201518186015260408083015190860152606080830151908601526080808301519086015260a0808301519086015260c0918201519185019190915260e090930192909101906001016132e1565b50505092915050565b6000815180845260005b8181101561337057602081850181015186830182015201613354565b506000602082860101526020601f19601f83011685010191505092915050565b602081526000613282602083018461334a565b600080604083850312156133b657600080fd5b50508035926020909101359150565b600067ffffffffffffffff8211156133df576133df6130b2565b5060051b60200190565b600082601f8301126133fa57600080fd5b81356020613407826133c5565b60405161341482826130e1565b83815260059390931b850182019282810191508684111561343457600080fd5b8286015b848110156110095780358352918301918301613438565b600080600080600060a0868803121561346757600080fd5b6134708661306c565b945061347e6020870161306c565b9350604086013567ffffffffffffffff8082111561349b57600080fd5b6134a789838a016133e9565b945060608801359150808211156134bd57600080fd5b6134c989838a016133e9565b935060808801359150808211156134df57600080fd5b506134ec8882890161310e565b9150509295509295909350565b60008083601f84011261350b57600080fd5b50813567ffffffffffffffff81111561352357600080fd5b6020830191508360208260051b8501011115610cff57600080fd5b60008060008060006060868803121561355657600080fd5b85359450602086013567ffffffffffffffff8082111561357557600080fd5b61358189838a016134f9565b9096509450604088013591508082111561359a57600080fd5b506135a7888289016134f9565b969995985093965092949392505050565b600080604083850312156135cb57600080fd5b823567ffffffffffffffff808211156135e357600080fd5b818501915085601f8301126135f757600080fd5b81356020613604826133c5565b60405161361182826130e1565b83815260059390931b850182019282810191508984111561363157600080fd5b948201945b83861015613656576136478661306c565b82529482019490820190613636565b9650508601359250508082111561366c57600080fd5b50613679858286016133e9565b9150509250929050565b600081518084526020808501945080840160005b838110156136b357815187529582019590820190600101613697565b509495945050505050565b6020815260006132826020830184613683565b86815260c0602082015260006136ea60c083018861334a565b82810360408401526136fc818861334a565b90508281036060840152613710818761334a565b90508281036080840152613724818661334a565b9150508260a0830152979650505050505050565b8035801515811461308357600080fd5b6000806040838503121561375b57600080fd5b6137648361306c565b915061377260208401613738565b90509250929050565b60008060008060008060008060006101208a8c03121561379a57600080fd5b893598506137aa60208b01613738565b989b989a505050506040870135966060810135966080820135965060a0820135955060c0820135945060e08201359350610100909101359150565b600080604083850312156137f857600080fd5b6138018361306c565b91506137726020840161306c565b600080600080600060a0868803121561382757600080fd5b6138308661306c565b945061383e6020870161306c565b93506040860135925060608601359150608086013567ffffffffffffffff81111561386857600080fd5b6134ec8882890161310e565b60006020828403121561388657600080fd5b6132828261306c565b60208152815160208201526000602083015160c060408401526138b560e084018261334a565b90506040840151601f19808584030160608601526138d3838361334a565b925060608601519150808584030160808601526138f0838361334a565b925060808601519150808584030160a08601525061390e828261334a565b91505060a084015160c08401528091505092915050565b600181811c9082168061393957607f821691505b602082108103613972577f4e487b7100000000000000000000000000000000000000000000000000000000600052602260045260246000fd5b50919050565b601f8211156139be57600081815260208120601f850160051c8101602086101561399f5750805b601f850160051c820191505b8181101561250d578281556001016139ab565b505050565b815167ffffffffffffffff8111156139dd576139dd6130b2565b6139f1816139eb8454613925565b84613978565b602080601f831160018114613a445760008415613a0e5750858301515b7fffffffffffffffffffffffffffffffffffffffffffffffffffffffffffffffff600386901b1c1916600185901b17855561250d565b600085815260208120601f198616915b82811015613a7357888601518255948401946001909101908401613a54565b5085821015613aaf57878501517fffffffffffffffffffffffffffffffffffffffffffffffffffffffffffffffff600388901b60f8161c191681555b5050505050600190811b01905550565b7f4e487b7100000000000000000000000000000000000000000000000000000000600052601160045260246000fd5b8181038181111561059757610597613abf565b808202811582820484141761059757610597613abf565b600082613b4e577f4e487b7100000000000000000000000000000000000000000000000000000000600052601260045260246000fd5b500490565b7f4e487b7100000000000000000000000000000000000000000000000000000000600052603260045260246000fd5b8082018082111561059757610597613abf565b60007fffffffffffffffffffffffffffffffffffffffffffffffffffffffffffffffff8203613bc657613bc6613abf565b5060010190565b805169ffffffffffffffffffff8116811461308357600080fd5b600080600080600060a08688031215613bff57600080fd5b613c0886613bcd565b9450602086015193506040860151925060608601519150613c2b60808701613bcd565b90509295509295909350565b600060208284031215613c4957600080fd5b815160ff8116811461328257600080fd5b600181815b80851115613cb357817fffffffffffffffffffffffffffffffffffffffffffffffffffffffffffffffff04821115613c9957613c99613abf565b80851615613ca657918102915b93841c9390800290613c5f565b509250929050565b600082613cca57506001610597565b81613cd757506000610597565b8160018114613ced5760028114613cf757613d13565b6001915050610597565b60ff841115613d0857613d08613abf565b50506001821b610597565b5060208310610133831016604e8410600b8410161715613d36575081810a610597565b613d408383613c5a565b807fffffffffffffffffffffffffffffffffffffffffffffffffffffffffffffffff04821115613d7257613d72613abf565b029392505050565b600061328260ff841683613cbb565b604081526000613d9c6040830185613683565b8281036020840152613dae8185613683565b95945050505050565b60006001600160a01b03808816835280871660208401525060a06040830152613de360a0830186613683565b8281036060840152613df58186613683565b90508281036080840152613e09818561334a565b98975050505050505050565b600060208284031215613e2757600080fd5b815161328281613237565b600060033d1115613e4b5760046000803e5060005160e01c5b90565b600060443d1015613e5c5790565b6040517ffffffffffffffffffffffffffffffffffffffffffffffffffffffffffffffffc803d016004833e81513d67ffffffffffffffff8160248401118184111715613eaa57505050505090565b8285019150815181811115613ec25750505050505090565b843d8701016020828501011115613edc5750505050505090565b613eeb602082860101876130e1565b509095945050505050565b60006001600160a01b03808816835280871660208401525084604083015283606083015260a06080830152613f2e60a083018461334a565b97965050505050505056fea2646970667358221220681ad449bcbad3e44403f111eae06262c76f36a963c5902c919a9614c15b7c7964736f6c6343000811003368747470733a2f2f676174657761792e70696e6174612e636c6f75642f697066732f516d57513567624468463539766f6e6753676d514a4d595269695670586d647559415539676666774454776e63612f7b69647d2e6a736f6e",
  "immutableReferences": {},
  "source": "// SPDX-License-Identifier: MIT\npragma solidity 0.8.17;\n\nimport \"../node_modules/@openzeppelin/contracts/token/ERC1155/ERC1155.sol\";\nimport \"../node_modules/@openzeppelin/contracts/token/common/ERC2981.sol\";\nimport \"../node_modules/@openzeppelin/contracts/utils/Counters.sol\";\n//import \"../node_modules/@openzeppelin/contracts/utils/introspection/ERC165.sol\";\nimport \"../node_modules/@openzeppelin/contracts/access/Ownable.sol\";\nimport \"../node_modules/@openzeppelin/contracts/security/ReentrancyGuard.sol\";\nimport \"../node_modules/@chainlink/contracts/src/v0.8/interfaces/AggregatorV3Interface.sol\";\n\ncontract Rock is ERC1155, ERC2981, Ownable, ReentrancyGuard {\n    using Counters for Counters.Counter;\n    Counters.Counter private _tokenIds;\n    Counters.Counter private _realEstateIds;\n    uint256 internal fees = 5000; // 5%\n\n    // Nom de la collection ROCK (qui apparaitra sur Opensea\n    string public name = \"Rock Collection\";\n    string public symbol = \"Rock\";\n\n    // Programme immo\n    struct RealEstate {\n        uint256 id;\n        string name; // Nom du programme immo\n        string location; // Localisation\n        string city; // Ville\n        string cid;\n        uint256 price; // Prix du bien\n    }\n\n    // Notre parc de biens immobilier\n    RealEstate[] public realEstatesCollection;\n\n    struct Card {\n        uint256 tokenId;\n        uint256 cardId;\n        uint256 price;\n        uint256 numberOfTokens;\n        uint256 ratioOfTokensInPercent;\n        uint256 royalty;\n        uint256 balance;\n    }\n\n    // Tous les nfts lists sur la plateforme ROCK\n    struct NFTCard {\n        uint256 tokenId;\n        uint256 price;\n        uint256 quantity;\n        address payable seller;\n        address payable owner;\n    }\n\n    NFTCard[] public Listings;\n\n    // Mapping realEstateId => tokenId --> TYpe de Carte\n    //mapping(uint256 => mapping(uint256 => Card)) private typesCard;\n    // Mapping realEstateId => tokenId => ownerAdress --> Card\n    mapping(uint256 => mapping(uint256 => mapping(address => NFTCard)))\n        public usersCardsNfts;\n\n    // Index du bien => tableau de cartes\n    mapping(uint256 => Card[4]) internal cards;\n\n    // Type de carte\n    uint256 internal constant CARD_COTTAGE = 0;\n    uint256 internal constant CARD_VILLA = 1;\n    uint256 internal constant CARD_MANSION = 2;\n    uint256 internal constant CARD_HIGH_RISE = 3;\n\n    // Rpartion des tokens par type de carte\n    uint256 private constant DEFAULT_RATIO_COTTAGE_TOKENS = 50;\n    uint256 private constant DEFAULT_RATIO_VILLA_TOKENS = 30;\n    uint256 private constant DEFAULT_RATIO_MANSION_TOKENS = 20;\n\n    // Events\n    event supplyCardsCalculated(\n        uint256 idToken,\n        uint256 supplyCottage,\n        uint256 supplyVilla,\n        uint256 supplyMansion,\n        uint256 supplyHighRise\n    );\n    event tokenMinted(uint256 idRealEstate);\n    event RealEstateAdded(uint256 idRealEstate);\n\n    AggregatorV3Interface internal priceFeed;\n\n    constructor()\n        ERC1155(\n            \"https://gateway.pinata.cloud/ipfs/QmWQ5gbDhF59vongSgmQJMYRiiVpXmduYAU9gffwDTwnca/{id}.json\"\n        )\n    {\n        // Royalties sur chaque NFT vendu\n        _setDefaultRoyalty(msg.sender, 8000);\n        // Data Feed Chainlink pour rcuprer le MATIC/USD\n        priceFeed = AggregatorV3Interface(\n            // 0xd0D5e3DB44DE05E9F294BB0a3bEEaF030DE24Ada\n            0xD4a33860578De61DBAbDc8BFdb98FD742fA7028e //ETHUSD\n        );\n    }\n\n    function supportsInterface(bytes4 interfaceId)\n        public\n        view\n        virtual\n        override(ERC1155, ERC2981)\n        returns (bool)\n    {\n        return super.supportsInterface(interfaceId);\n    }\n\n    // L'administrateur dclare un nouveau bien immo sur la blockchain\n    // Retourne l'index du bien immo\n    function addRealEstate(\n        string memory _name,\n        string memory _location,\n        string memory _city,\n        string memory _cid,\n        uint256 _price\n    ) public onlyOwner {\n        require(\n            keccak256(abi.encode(_name)) != keccak256(abi.encode(\"\")),\n            \"Le nom du programme immobilier est obligatoire\"\n        );\n        require(\n            keccak256(abi.encode(_location)) != keccak256(abi.encode(\"\")),\n            \"La situation est obligatoire\"\n        );\n        require(\n            keccak256(abi.encode(_city)) != keccak256(abi.encode(\"\")),\n            \"La ville est obligatoire\"\n        );\n        require(\n            keccak256(abi.encode(_cid)) != keccak256(abi.encode(\"\")),\n            \"Le cid est obligatoire\"\n        );\n        require(\n            _price > 50000,\n            \"Erreur, le prix du bien immo doit etre superieur a 50000\"\n        );\n\n        _realEstateIds.increment();\n\n        // Cration du bien immo\n        RealEstate memory newRealEstate;\n        newRealEstate.id = _realEstateIds.current();\n        newRealEstate.name = _name;\n        newRealEstate.location = _location;\n        newRealEstate.city = _city;\n        newRealEstate.cid = _cid;\n        newRealEstate.price = _price;\n\n        // Ajout du bien au catalogue\n        realEstatesCollection.push(newRealEstate);\n\n        // Evenement RealEstateAdd avec position de l'lment dans le tableau\n        uint256 indexRealEstateInCollection = _realEstateIds.current() - 1;\n        emit RealEstateAdded(indexRealEstateInCollection);\n    }\n\n    /// @notice Return the count of proposals\n    /// @return uint256 Count of proposals\n    function getRealEstatesCollectionCount() external view returns (uint256) {\n        return realEstatesCollection.length;\n    }\n\n    // Rcupration du bien immobilier par son index\n    function getRealStateById(uint256 _index)\n        public\n        view\n        returns (RealEstate memory)\n    {\n        require(\n            _index < realEstatesCollection.length,\n            \"Bien immobilier inexistant\"\n        );\n        return realEstatesCollection[_index];\n    }\n\n    // Calculer le nombre de token  minter par type de carte en fonction du prix du bien, du prix du token demand par l'admin et du ratio (pourcentage du prix du bien)\n    function calculateNumberOfTokens(\n        uint256 _indexRealEstateInCollection,\n        bool _isDefaultSupply,\n        uint256 _ratioTokenCottage,\n        uint256 _ratioTokenVilla,\n        uint256 _ratioTokenMansion,\n        uint256 _prixTokenCottage,\n        uint256 _prixTokenVilla,\n        uint256 _prixTokenMansion,\n        uint256 _prixTokenHighRise\n    ) public onlyOwner {\n        require(\n            _indexRealEstateInCollection <= realEstatesCollection.length,\n            \"Index du bien immobilier en dehors du tableau\"\n        );\n        require(\n            _ratioTokenCottage < 100 &&\n                _ratioTokenVilla < 100 &&\n                _ratioTokenMansion < 100,\n            \"Erreur, un des pourcentages est a 0\"\n        );\n        require(\n            _prixTokenCottage >= 50,\n            \"Erreur, le prix minimum de la carte COTTAGE doit etre de 50\"\n        );\n        require(\n            _prixTokenVilla >= 100,\n            \"Erreur, le prix minimum de la carte VILLA doit etre de 100\"\n        );\n        require(\n            _prixTokenMansion >= 150,\n            \"Erreur, le prix minimum de la carte MANSION doit etre de 150\"\n        );\n\n        // Si les ratios ne sont pas renseigns par l'administrateur, on prend les ratios par dfaut\n        if (\n            _isDefaultSupply ||\n            (_ratioTokenCottage == 0 &&\n                _ratioTokenVilla == 0 &&\n                _ratioTokenMansion == 0)\n        ) {\n            _ratioTokenCottage = DEFAULT_RATIO_COTTAGE_TOKENS;\n            _ratioTokenVilla = DEFAULT_RATIO_VILLA_TOKENS;\n            _ratioTokenMansion = DEFAULT_RATIO_MANSION_TOKENS;\n        }\n\n        // Cration des cartes\n        Card[4] storage newCards = cards[_indexRealEstateInCollection];\n        newCards[CARD_COTTAGE] = Card(\n            CARD_COTTAGE,\n            0,\n            _prixTokenCottage,\n            0,\n            _ratioTokenCottage,\n            30,\n            0\n        );\n        newCards[CARD_VILLA] = Card(\n            CARD_VILLA,\n            0,\n            _prixTokenVilla,\n            0,\n            _ratioTokenVilla,\n            30,\n            0\n        );\n        newCards[CARD_MANSION] = Card(\n            CARD_MANSION,\n            0,\n            _prixTokenMansion,\n            0,\n            _ratioTokenMansion,\n            30,\n            0\n        );\n        newCards[CARD_HIGH_RISE] = Card(\n            CARD_HIGH_RISE,\n            0,\n            _prixTokenHighRise,\n            1,\n            0,\n            30,\n            0\n        );\n\n        // Pour le calcul du nombre de tokens par carte,\n        // on soustrait du prix du bien, le prix du token de la carte unique HighRise\n        uint256 realEstatePrice = realEstatesCollection[\n            _indexRealEstateInCollection\n        ].price - (1 * _prixTokenHighRise);\n        uint256 multiplier = 100;\n\n        for (uint256 i = 0; i < CARD_HIGH_RISE; i++) {\n            Card storage card = cards[_indexRealEstateInCollection][i];\n            if (card.numberOfTokens == 0) {\n                uint256 ratioMultiplier = card.ratioOfTokensInPercent *\n                    multiplier; // 50 % devient 5000\n                uint256 priceByCard = (realEstatePrice * ratioMultiplier) /\n                    (100 * multiplier); // On applique le ratio sur le prix du prix et on divise\n                uint256 numberOfTokens = priceByCard / card.price; // Prix du bien divis par le prix du token\n                card.numberOfTokens = numberOfTokens;\n            }\n        }\n\n        emit supplyCardsCalculated(\n            _indexRealEstateInCollection,\n            newCards[CARD_COTTAGE].numberOfTokens,\n            newCards[CARD_VILLA].numberOfTokens,\n            newCards[CARD_MANSION].numberOfTokens,\n            newCards[CARD_HIGH_RISE].numberOfTokens\n        );\n    }\n\n    // L'administrateur minte les NFTS d'une collection (d'un bien immo)\n    function mintRealEstateCollection(uint256 _indexRealEstateInCollection)\n        public\n        onlyOwner\n    {\n        require(\n            _indexRealEstateInCollection <= realEstatesCollection.length,\n            \"Index du bien immobilier en dehors du tableau\"\n        );\n        require(\n            cards[_indexRealEstateInCollection][0].tokenId == 0,\n            \"Le mint a deja ete effectue\"\n        );\n\n        mintCard(CARD_COTTAGE, _indexRealEstateInCollection);\n        mintCard(CARD_VILLA, _indexRealEstateInCollection);\n        mintCard(CARD_MANSION, _indexRealEstateInCollection);\n        mintCard(CARD_HIGH_RISE, _indexRealEstateInCollection);\n\n        emit tokenMinted(_indexRealEstateInCollection);\n    }\n\n    function mintCard(uint256 _cardId, uint256 _indexRealEstateInCollection)\n        private\n        onlyOwner\n        returns (uint256)\n    {\n        _tokenIds.increment();\n        uint256 newTokenId = _tokenIds.current();\n\n        address contractOwner = owner();\n\n        // Mint des tokens pour un type de carte donn\n        uint256 numberOfTokens = cards[_indexRealEstateInCollection][_cardId]\n            .numberOfTokens;\n        cards[_indexRealEstateInCollection][_cardId].tokenId = newTokenId;\n        _mint(contractOwner, newTokenId, numberOfTokens, \"\");\n\n        // Mise  jour de la balance totale de la carte NFT (Quantit restante gale au nombre de tokens mints)\n        uint256 balanceOfOwnerTokenId = balanceOf(\n            contractOwner,\n            cards[_indexRealEstateInCollection][_cardId].tokenId\n        );\n\n        // NFT qui seront lists sur la plateforme une fois le mint effectu\n        // Par dfaut tous les NTFS sont dtnus par le owner du contrat\n        // realEstateId => tokenId => ownerAdress --> Card\n        NFTCard storage defaultOwner = usersCardsNfts[\n            _indexRealEstateInCollection\n        ][newTokenId][contractOwner];\n        defaultOwner.tokenId = cards[_indexRealEstateInCollection][_cardId]\n            .tokenId; // Identifiant de la carte minte\n        defaultOwner.price = cards[_indexRealEstateInCollection][_cardId].price; // Prix dfini par l'administrateur\n        defaultOwner.quantity = balanceOfOwnerTokenId; // balance du owner du token\n        defaultOwner.owner = payable(contractOwner);\n        defaultOwner.seller = payable(contractOwner);\n\n        // MAJ du mapping des balances\n        cards[_indexRealEstateInCollection][_cardId]\n            .balance = balanceOfOwnerTokenId;\n\n        return newTokenId;\n    }\n\n    function getCards(uint256 _indexRealEstateInCollection)\n        public\n        view\n        returns (Card[4] memory)\n    {\n        return cards[_indexRealEstateInCollection];\n    }\n\n    // Retourne le prix total des cartes  payer (en MATIC)\n    function calculeTotalPrice(\n        uint256 _indexRealEstateInCollection,\n        uint256[] calldata _cardsId,\n        uint256[] calldata _amounts\n    ) public view returns (uint256) {\n        require(_amounts.length > 0, \"Aucun montant renseigne\");\n        require(_cardsId.length > 0, \"Aucun carte selectionnee\");\n        require(\n            _indexRealEstateInCollection < realEstatesCollection.length,\n            \"Bien immobilier inexistant\"\n        );\n\n        // 3 cartes COTTAGE de 50  et 1 carte VILLA  100  = 3 * 50 + 1 * 100 = 250 = totalAmount\n        uint256 totalAmount;\n\n        for (uint256 i = 0; i < _cardsId.length; i++) {\n            require(\n                _cardsId[i] >= CARD_COTTAGE && _cardsId[i] <= CARD_HIGH_RISE,\n                \"Carte inconnue\"\n            );\n            uint256 boughtCardId = _cardsId[i];\n            // amount = price * quantity\n            totalAmount +=\n                cards[_indexRealEstateInCollection][boughtCardId].price *\n                _amounts[i];\n        }\n\n        // Calcul du nombre de tokens MATIC  nous reverser au total\n        // return amountOfMATIC(totalAmount);\n        return totalAmount;\n    }\n\n    // Frais de transactions de la plateforme ROCK\n    function setFee(uint256 _fee) public onlyOwner {\n        fees = _fee;\n    }\n\n    /// Returns the latest price MATIC/USD\n    function getLatestPrice() public view returns (uint256) {\n        (\n            ,\n            /*uint80 roundID*/\n            int256 price, /*uint startedAt*/ /*uint timeStamp*/ /*uint80 answeredInRound*/\n            ,\n            ,\n\n        ) = priceFeed.latestRoundData();\n        uint8 decimals = priceFeed.decimals();\n        uint256 _price = uint256(price);\n        return _price / (10**decimals);\n        //return _price;\n        // return _amount / maticPrice;\n    }\n\n    function withdraw() public onlyOwner {\n        require(address(this).balance > 0, \"Balance a 0\");\n        payable(owner()).transfer(address(this).balance);\n    }\n\n    // Rcupration de la paire MATIC / USD via Chainlink\n    function getLastPairMaticUsd(uint256 _amount)\n        public\n        view\n        returns (uint256)\n    {\n        return getLatestPrice();\n    }\n\n    function getOwner() public view returns (address) {\n        return owner();\n    }\n}\n",
  "sourcePath": "/home/anicaise/Formation/Alyra/Rock/truffle/contracts/Rock.sol",
  "compiler": {
    "name": "solc",
    "version": "0.8.17+commit.8df45f5f.Emscripten.clang"
  },
  "schemaVersion": "3.4.10",
  "updatedAt": "2022-12-07T22:32:40.615Z",
  "networkType": "ethereum",
  "devdoc": {
    "kind": "dev",
    "methods": {
      "balanceOf(address,uint256)": {
        "details": "See {IERC1155-balanceOf}. Requirements: - `account` cannot be the zero address."
      },
      "balanceOfBatch(address[],uint256[])": {
        "details": "See {IERC1155-balanceOfBatch}. Requirements: - `accounts` and `ids` must have the same length."
      },
      "getRealEstatesCollectionCount()": {
        "returns": {
          "_0": "uint256 Count of proposals"
        }
      },
      "isApprovedForAll(address,address)": {
        "details": "See {IERC1155-isApprovedForAll}."
      },
      "owner()": {
        "details": "Returns the address of the current owner."
      },
      "renounceOwnership()": {
        "details": "Leaves the contract without owner. It will not be possible to call `onlyOwner` functions anymore. Can only be called by the current owner. NOTE: Renouncing ownership will leave the contract without an owner, thereby removing any functionality that is only available to the owner."
      },
      "royaltyInfo(uint256,uint256)": {
        "details": "Returns how much royalty is owed and to whom, based on a sale price that may be denominated in any unit of exchange. The royalty amount is denominated and should be paid in that same unit of exchange."
      },
      "safeBatchTransferFrom(address,address,uint256[],uint256[],bytes)": {
        "details": "See {IERC1155-safeBatchTransferFrom}."
      },
      "safeTransferFrom(address,address,uint256,uint256,bytes)": {
        "details": "See {IERC1155-safeTransferFrom}."
      },
      "setApprovalForAll(address,bool)": {
        "details": "See {IERC1155-setApprovalForAll}."
      },
      "transferOwnership(address)": {
        "details": "Transfers ownership of the contract to a new account (`newOwner`). Can only be called by the current owner."
      },
      "uri(uint256)": {
        "details": "See {IERC1155MetadataURI-uri}. This implementation returns the same URI for *all* token types. It relies on the token type ID substitution mechanism https://eips.ethereum.org/EIPS/eip-1155#metadata[defined in the EIP]. Clients calling this function must replace the `\\{id\\}` substring with the actual token type ID."
      }
    },
    "version": 1
  },
  "userdoc": {
    "kind": "user",
    "methods": {
      "getLatestPrice()": {
        "notice": "Returns the latest price MATIC/USD"
      },
      "getRealEstatesCollectionCount()": {
        "notice": "Return the count of proposals"
      }
    },
    "version": 1
  }
}