{
  "contractName": "Rock",
  "abi": [
    {
      "inputs": [],
      "stateMutability": "nonpayable",
      "type": "constructor"
    },
    {
      "anonymous": false,
      "inputs": [
        {
          "indexed": true,
          "internalType": "address",
          "name": "account",
          "type": "address"
        },
        {
          "indexed": true,
          "internalType": "address",
          "name": "operator",
          "type": "address"
        },
        {
          "indexed": false,
          "internalType": "bool",
          "name": "approved",
          "type": "bool"
        }
      ],
      "name": "ApprovalForAll",
      "type": "event"
    },
    {
      "anonymous": false,
      "inputs": [
        {
          "indexed": true,
          "internalType": "address",
          "name": "previousOwner",
          "type": "address"
        },
        {
          "indexed": true,
          "internalType": "address",
          "name": "newOwner",
          "type": "address"
        }
      ],
      "name": "OwnershipTransferred",
      "type": "event"
    },
    {
      "anonymous": false,
      "inputs": [
        {
          "indexed": false,
          "internalType": "uint256",
          "name": "idRealEstate",
          "type": "uint256"
        }
      ],
      "name": "RealEstateAdded",
      "type": "event"
    },
    {
      "anonymous": false,
      "inputs": [
        {
          "indexed": true,
          "internalType": "address",
          "name": "operator",
          "type": "address"
        },
        {
          "indexed": true,
          "internalType": "address",
          "name": "from",
          "type": "address"
        },
        {
          "indexed": true,
          "internalType": "address",
          "name": "to",
          "type": "address"
        },
        {
          "indexed": false,
          "internalType": "uint256[]",
          "name": "ids",
          "type": "uint256[]"
        },
        {
          "indexed": false,
          "internalType": "uint256[]",
          "name": "values",
          "type": "uint256[]"
        }
      ],
      "name": "TransferBatch",
      "type": "event"
    },
    {
      "anonymous": false,
      "inputs": [
        {
          "indexed": true,
          "internalType": "address",
          "name": "operator",
          "type": "address"
        },
        {
          "indexed": true,
          "internalType": "address",
          "name": "from",
          "type": "address"
        },
        {
          "indexed": true,
          "internalType": "address",
          "name": "to",
          "type": "address"
        },
        {
          "indexed": false,
          "internalType": "uint256",
          "name": "id",
          "type": "uint256"
        },
        {
          "indexed": false,
          "internalType": "uint256",
          "name": "value",
          "type": "uint256"
        }
      ],
      "name": "TransferSingle",
      "type": "event"
    },
    {
      "anonymous": false,
      "inputs": [
        {
          "indexed": false,
          "internalType": "string",
          "name": "value",
          "type": "string"
        },
        {
          "indexed": true,
          "internalType": "uint256",
          "name": "id",
          "type": "uint256"
        }
      ],
      "name": "URI",
      "type": "event"
    },
    {
      "anonymous": false,
      "inputs": [
        {
          "indexed": false,
          "internalType": "uint256",
          "name": "idToken",
          "type": "uint256"
        },
        {
          "indexed": false,
          "internalType": "uint256",
          "name": "supplyCottage",
          "type": "uint256"
        },
        {
          "indexed": false,
          "internalType": "uint256",
          "name": "supplyVilla",
          "type": "uint256"
        },
        {
          "indexed": false,
          "internalType": "uint256",
          "name": "supplyMansion",
          "type": "uint256"
        },
        {
          "indexed": false,
          "internalType": "uint256",
          "name": "supplyHighRise",
          "type": "uint256"
        }
      ],
      "name": "supplyCardsCalculated",
      "type": "event"
    },
    {
      "anonymous": false,
      "inputs": [
        {
          "indexed": false,
          "internalType": "uint256",
          "name": "idRealEstate",
          "type": "uint256"
        }
      ],
      "name": "tokenMinted",
      "type": "event"
    },
    {
      "inputs": [
        {
          "internalType": "uint256",
          "name": "",
          "type": "uint256"
        }
      ],
      "name": "Listings",
      "outputs": [
        {
          "internalType": "uint256",
          "name": "tokenId",
          "type": "uint256"
        },
        {
          "internalType": "uint256",
          "name": "price",
          "type": "uint256"
        },
        {
          "internalType": "uint256",
          "name": "quantity",
          "type": "uint256"
        },
        {
          "internalType": "address payable",
          "name": "seller",
          "type": "address"
        },
        {
          "internalType": "address payable",
          "name": "owner",
          "type": "address"
        }
      ],
      "stateMutability": "view",
      "type": "function",
      "constant": true
    },
    {
      "inputs": [
        {
          "internalType": "address",
          "name": "account",
          "type": "address"
        },
        {
          "internalType": "uint256",
          "name": "id",
          "type": "uint256"
        }
      ],
      "name": "balanceOf",
      "outputs": [
        {
          "internalType": "uint256",
          "name": "",
          "type": "uint256"
        }
      ],
      "stateMutability": "view",
      "type": "function",
      "constant": true
    },
    {
      "inputs": [
        {
          "internalType": "address[]",
          "name": "accounts",
          "type": "address[]"
        },
        {
          "internalType": "uint256[]",
          "name": "ids",
          "type": "uint256[]"
        }
      ],
      "name": "balanceOfBatch",
      "outputs": [
        {
          "internalType": "uint256[]",
          "name": "",
          "type": "uint256[]"
        }
      ],
      "stateMutability": "view",
      "type": "function",
      "constant": true
    },
    {
      "inputs": [
        {
          "internalType": "address",
          "name": "account",
          "type": "address"
        },
        {
          "internalType": "address",
          "name": "operator",
          "type": "address"
        }
      ],
      "name": "isApprovedForAll",
      "outputs": [
        {
          "internalType": "bool",
          "name": "",
          "type": "bool"
        }
      ],
      "stateMutability": "view",
      "type": "function",
      "constant": true
    },
    {
      "inputs": [],
      "name": "name",
      "outputs": [
        {
          "internalType": "string",
          "name": "",
          "type": "string"
        }
      ],
      "stateMutability": "view",
      "type": "function",
      "constant": true
    },
    {
      "inputs": [],
      "name": "owner",
      "outputs": [
        {
          "internalType": "address",
          "name": "",
          "type": "address"
        }
      ],
      "stateMutability": "view",
      "type": "function",
      "constant": true
    },
    {
      "inputs": [
        {
          "internalType": "uint256",
          "name": "",
          "type": "uint256"
        }
      ],
      "name": "realEstatesCollection",
      "outputs": [
        {
          "internalType": "uint256",
          "name": "id",
          "type": "uint256"
        },
        {
          "internalType": "string",
          "name": "name",
          "type": "string"
        },
        {
          "internalType": "string",
          "name": "location",
          "type": "string"
        },
        {
          "internalType": "string",
          "name": "city",
          "type": "string"
        },
        {
          "internalType": "string",
          "name": "cid",
          "type": "string"
        },
        {
          "internalType": "uint256",
          "name": "price",
          "type": "uint256"
        }
      ],
      "stateMutability": "view",
      "type": "function",
      "constant": true
    },
    {
      "inputs": [],
      "name": "renounceOwnership",
      "outputs": [],
      "stateMutability": "nonpayable",
      "type": "function"
    },
    {
      "inputs": [
        {
          "internalType": "uint256",
          "name": "_tokenId",
          "type": "uint256"
        },
        {
          "internalType": "uint256",
          "name": "_salePrice",
          "type": "uint256"
        }
      ],
      "name": "royaltyInfo",
      "outputs": [
        {
          "internalType": "address",
          "name": "",
          "type": "address"
        },
        {
          "internalType": "uint256",
          "name": "",
          "type": "uint256"
        }
      ],
      "stateMutability": "view",
      "type": "function",
      "constant": true
    },
    {
      "inputs": [
        {
          "internalType": "address",
          "name": "from",
          "type": "address"
        },
        {
          "internalType": "address",
          "name": "to",
          "type": "address"
        },
        {
          "internalType": "uint256[]",
          "name": "ids",
          "type": "uint256[]"
        },
        {
          "internalType": "uint256[]",
          "name": "amounts",
          "type": "uint256[]"
        },
        {
          "internalType": "bytes",
          "name": "data",
          "type": "bytes"
        }
      ],
      "name": "safeBatchTransferFrom",
      "outputs": [],
      "stateMutability": "nonpayable",
      "type": "function"
    },
    {
      "inputs": [
        {
          "internalType": "address",
          "name": "from",
          "type": "address"
        },
        {
          "internalType": "address",
          "name": "to",
          "type": "address"
        },
        {
          "internalType": "uint256",
          "name": "id",
          "type": "uint256"
        },
        {
          "internalType": "uint256",
          "name": "amount",
          "type": "uint256"
        },
        {
          "internalType": "bytes",
          "name": "data",
          "type": "bytes"
        }
      ],
      "name": "safeTransferFrom",
      "outputs": [],
      "stateMutability": "nonpayable",
      "type": "function"
    },
    {
      "inputs": [
        {
          "internalType": "address",
          "name": "operator",
          "type": "address"
        },
        {
          "internalType": "bool",
          "name": "approved",
          "type": "bool"
        }
      ],
      "name": "setApprovalForAll",
      "outputs": [],
      "stateMutability": "nonpayable",
      "type": "function"
    },
    {
      "inputs": [],
      "name": "symbol",
      "outputs": [
        {
          "internalType": "string",
          "name": "",
          "type": "string"
        }
      ],
      "stateMutability": "view",
      "type": "function",
      "constant": true
    },
    {
      "inputs": [
        {
          "internalType": "address",
          "name": "newOwner",
          "type": "address"
        }
      ],
      "name": "transferOwnership",
      "outputs": [],
      "stateMutability": "nonpayable",
      "type": "function"
    },
    {
      "inputs": [
        {
          "internalType": "uint256",
          "name": "",
          "type": "uint256"
        }
      ],
      "name": "uri",
      "outputs": [
        {
          "internalType": "string",
          "name": "",
          "type": "string"
        }
      ],
      "stateMutability": "view",
      "type": "function",
      "constant": true
    },
    {
      "inputs": [
        {
          "internalType": "uint256",
          "name": "",
          "type": "uint256"
        },
        {
          "internalType": "uint256",
          "name": "",
          "type": "uint256"
        },
        {
          "internalType": "address",
          "name": "",
          "type": "address"
        }
      ],
      "name": "usersCardsNfts",
      "outputs": [
        {
          "internalType": "uint256",
          "name": "tokenId",
          "type": "uint256"
        },
        {
          "internalType": "uint256",
          "name": "price",
          "type": "uint256"
        },
        {
          "internalType": "uint256",
          "name": "quantity",
          "type": "uint256"
        },
        {
          "internalType": "address payable",
          "name": "seller",
          "type": "address"
        },
        {
          "internalType": "address payable",
          "name": "owner",
          "type": "address"
        }
      ],
      "stateMutability": "view",
      "type": "function",
      "constant": true
    },
    {
      "inputs": [
        {
          "internalType": "bytes4",
          "name": "interfaceId",
          "type": "bytes4"
        }
      ],
      "name": "supportsInterface",
      "outputs": [
        {
          "internalType": "bool",
          "name": "",
          "type": "bool"
        }
      ],
      "stateMutability": "view",
      "type": "function",
      "constant": true
    },
    {
      "inputs": [
        {
          "internalType": "string",
          "name": "_name",
          "type": "string"
        },
        {
          "internalType": "string",
          "name": "_location",
          "type": "string"
        },
        {
          "internalType": "string",
          "name": "_city",
          "type": "string"
        },
        {
          "internalType": "string",
          "name": "_cid",
          "type": "string"
        },
        {
          "internalType": "uint256",
          "name": "_price",
          "type": "uint256"
        }
      ],
      "name": "addRealEstate",
      "outputs": [],
      "stateMutability": "nonpayable",
      "type": "function"
    },
    {
      "inputs": [],
      "name": "getRealEstatesCollectionCount",
      "outputs": [
        {
          "internalType": "uint256",
          "name": "",
          "type": "uint256"
        }
      ],
      "stateMutability": "view",
      "type": "function",
      "constant": true
    },
    {
      "inputs": [
        {
          "internalType": "uint256",
          "name": "_index",
          "type": "uint256"
        }
      ],
      "name": "getRealStateById",
      "outputs": [
        {
          "components": [
            {
              "internalType": "uint256",
              "name": "id",
              "type": "uint256"
            },
            {
              "internalType": "string",
              "name": "name",
              "type": "string"
            },
            {
              "internalType": "string",
              "name": "location",
              "type": "string"
            },
            {
              "internalType": "string",
              "name": "city",
              "type": "string"
            },
            {
              "internalType": "string",
              "name": "cid",
              "type": "string"
            },
            {
              "internalType": "uint256",
              "name": "price",
              "type": "uint256"
            }
          ],
          "internalType": "struct Rock.RealEstate",
          "name": "",
          "type": "tuple"
        }
      ],
      "stateMutability": "view",
      "type": "function",
      "constant": true
    },
    {
      "inputs": [
        {
          "internalType": "uint256",
          "name": "_indexRealEstateInCollection",
          "type": "uint256"
        },
        {
          "internalType": "bool",
          "name": "_isDefaultSupply",
          "type": "bool"
        },
        {
          "internalType": "uint256",
          "name": "_ratioTokenCottage",
          "type": "uint256"
        },
        {
          "internalType": "uint256",
          "name": "_ratioTokenVilla",
          "type": "uint256"
        },
        {
          "internalType": "uint256",
          "name": "_ratioTokenMansion",
          "type": "uint256"
        },
        {
          "internalType": "uint256",
          "name": "_prixTokenCottage",
          "type": "uint256"
        },
        {
          "internalType": "uint256",
          "name": "_prixTokenVilla",
          "type": "uint256"
        },
        {
          "internalType": "uint256",
          "name": "_prixTokenMansion",
          "type": "uint256"
        },
        {
          "internalType": "uint256",
          "name": "_prixTokenHighRise",
          "type": "uint256"
        }
      ],
      "name": "calculateNumberOfTokens",
      "outputs": [],
      "stateMutability": "nonpayable",
      "type": "function"
    },
    {
      "inputs": [
        {
          "internalType": "uint256",
          "name": "_indexRealEstateInCollection",
          "type": "uint256"
        }
      ],
      "name": "mintRealEstateCollection",
      "outputs": [],
      "stateMutability": "nonpayable",
      "type": "function"
    },
    {
      "inputs": [
        {
          "internalType": "uint256",
          "name": "_indexRealEstateInCollection",
          "type": "uint256"
        },
        {
          "internalType": "uint256",
          "name": "_cardId",
          "type": "uint256"
        }
      ],
      "name": "getCard",
      "outputs": [
        {
          "components": [
            {
              "internalType": "uint256",
              "name": "tokenId",
              "type": "uint256"
            },
            {
              "internalType": "uint256",
              "name": "cardId",
              "type": "uint256"
            },
            {
              "internalType": "uint256",
              "name": "price",
              "type": "uint256"
            },
            {
              "internalType": "uint256",
              "name": "numberOfTokens",
              "type": "uint256"
            },
            {
              "internalType": "uint256",
              "name": "ratioOfTokensInPercent",
              "type": "uint256"
            },
            {
              "internalType": "uint256",
              "name": "royalty",
              "type": "uint256"
            },
            {
              "internalType": "uint256",
              "name": "balance",
              "type": "uint256"
            }
          ],
          "internalType": "struct Rock.Card",
          "name": "",
          "type": "tuple"
        }
      ],
      "stateMutability": "view",
      "type": "function",
      "constant": true
    },
    {
      "inputs": [
        {
          "internalType": "uint256",
          "name": "_fee",
          "type": "uint256"
        }
      ],
      "name": "setFee",
      "outputs": [],
      "stateMutability": "nonpayable",
      "type": "function"
    },
    {
      "inputs": [],
      "name": "getLatestPrice",
      "outputs": [
        {
          "internalType": "int256",
          "name": "",
          "type": "int256"
        }
      ],
      "stateMutability": "view",
      "type": "function",
      "constant": true
    },
    {
      "inputs": [],
      "name": "withdraw",
      "outputs": [],
      "stateMutability": "nonpayable",
      "type": "function"
    },
    {
      "inputs": [],
      "name": "getOwner",
      "outputs": [
        {
          "internalType": "address",
          "name": "",
          "type": "address"
        }
      ],
      "stateMutability": "view",
      "type": "function",
      "constant": true
    }
  ],
  "bytecode": "0x61138860095560c0604052600f60809081526e2937b1b59021b7b63632b1ba34b7b760891b60a052600a90620000369082620002ee565b50604080518082019091526004815263526f636b60e01b6020820152600b90620000619082620002ee565b503480156200006f57600080fd5b506040518060800160405280605a815260200162004020605a91396200009581620000e0565b50620000a133620000f2565b6001600655620000b433611f4062000144565b601080546001600160a01b03191673d4a33860578de61dbabdc8bfdb98fd742fa7028e179055620003ba565b6002620000ee8282620002ee565b5050565b600580546001600160a01b038381166001600160a01b0319831681179093556040519116919082907f8be0079c531659141344cd1fd0a4f28419497f9722a3daafe3b4186f6b6457e090600090a35050565b6127106001600160601b0382161115620001b85760405162461bcd60e51b815260206004820152602a60248201527f455243323938313a20726f79616c7479206665652077696c6c206578636565646044820152692073616c65507269636560b01b60648201526084015b60405180910390fd5b6001600160a01b038216620002105760405162461bcd60e51b815260206004820152601960248201527f455243323938313a20696e76616c6964207265636569766572000000000000006044820152606401620001af565b604080518082019091526001600160a01b039092168083526001600160601b039091166020909201829052600160a01b90910217600355565b634e487b7160e01b600052604160045260246000fd5b600181811c908216806200027457607f821691505b6020821081036200029557634e487b7160e01b600052602260045260246000fd5b50919050565b601f821115620002e957600081815260208120601f850160051c81016020861015620002c45750805b601f850160051c820191505b81811015620002e557828155600101620002d0565b5050505b505050565b81516001600160401b038111156200030a576200030a62000249565b62000322816200031b84546200025f565b846200029b565b602080601f8311600181146200035a5760008415620003415750858301515b600019600386901b1c1916600185901b178555620002e5565b600085815260208120601f198616915b828110156200038b578886015182559484019460019091019084016200036a565b5085821015620003aa5787850151600019600388901b60f8161c191681555b5050505050600190811b01905550565b613c5680620003ca6000396000f3fe608060405234801561001057600080fd5b50600436106101b85760003560e01c80636f7789a6116100f9578063a22cb46511610097578063f242432a11610071578063f242432a146104fe578063f2a54c0414610511578063f2fde38b14610519578063fdac310f1461052c57600080fd5b8063a22cb4651461048f578063d1e8c4aa146104a2578063e985e9c5146104b557600080fd5b80638da5cb5b116100d35780638da5cb5b1461043c5780638e15f4731461045a57806395d89b4114610462578063a0f4651a1461046a57600080fd5b80636f7789a6146103f4578063715018a614610407578063893d20e81461040f57600080fd5b80632a55205a1161016657806333caeb941161014057806333caeb94146103a65780633ccfd60b146103b95780634e1273f4146103c157806369fe0e2d146103e157600080fd5b80632a55205a146102eb5780632eb2c2d61461032a5780633079a8dd1461033d57600080fd5b80630464375511610197578063046437551461021b57806306fdde03146102c35780630e89341c146102d857600080fd5b8062fdd58e146101bd578063012f375f146101e357806301ffc9a7146101f8575b600080fd5b6101d06101cb366004612fce565b61054c565b6040519081526020015b60405180910390f35b6101f66101f13660046130c8565b610612565b005b61020b6102063660046131ab565b610acf565b60405190151581526020016101da565b6102826102293660046131cf565b600e6020908152600093845260408085208252928452828420905282529020805460018201546002830154600384015460049094015492939192909173ffffffffffffffffffffffffffffffffffffffff908116911685565b6040805195865260208601949094529284019190915273ffffffffffffffffffffffffffffffffffffffff908116606084015216608082015260a0016101da565b6102cb610ada565b6040516101da919061324a565b6102cb6102e636600461325d565b610b68565b6102fe6102f9366004613276565b610bfc565b6040805173ffffffffffffffffffffffffffffffffffffffff90931683526020830191909152016101da565b6101f661033836600461332d565b610cf3565b61035061034b366004613276565b610da2565b6040516101da9190600060e082019050825182526020830151602083015260408301516040830152606083015160608301526080830151608083015260a083015160a083015260c083015160c083015292915050565b6102826103b436600461325d565b610e62565b6101f6610ebd565b6103d46103cf3660046133d7565b610f5e565b6040516101da91906134dd565b6101f66103ef36600461325d565b61109c565b6101f661040236600461325d565b6110a9565b6101f66111eb565b6104176111ff565b60405173ffffffffffffffffffffffffffffffffffffffff90911681526020016101da565b60055473ffffffffffffffffffffffffffffffffffffffff16610417565b6101d0611225565b6102cb6112c4565b61047d61047836600461325d565b6112d1565b6040516101da969594939291906134f0565b6101f661049d366004613567565b611539565b6101f66104b036600461359a565b611548565b61020b6104c3366004613604565b73ffffffffffffffffffffffffffffffffffffffff918216600090815260016020908152604080832093909416825291909152205460ff1690565b6101f661050c36600461362e565b611bc5565b600c546101d0565b6101f6610527366004613693565b611c6d565b61053f61053a36600461325d565b611d07565b6040516101da91906136ae565b600073ffffffffffffffffffffffffffffffffffffffff83166105dc5760405162461bcd60e51b815260206004820152602a60248201527f455243313135353a2061646472657373207a65726f206973206e6f742061207660448201527f616c6964206f776e65720000000000000000000000000000000000000000000060648201526084015b60405180910390fd5b5060008181526020818152604080832073ffffffffffffffffffffffffffffffffffffffff861684529091529020545b92915050565b61061a612020565b60405160200161063590602080825260009082015260400190565b604051602081830303815290604052805190602001208560405160200161065c919061324a565b60405160208183030381529060405280519060200120036106e55760405162461bcd60e51b815260206004820152602e60248201527f4c65206e6f6d2064752070726f6772616d6d6520696d6d6f62696c696572206560448201527f7374206f626c696761746f69726500000000000000000000000000000000000060648201526084016105d3565b60405160200161070090602080825260009082015260400190565b6040516020818303038152906040528051906020012084604051602001610727919061324a565b604051602081830303815290604052805190602001200361078a5760405162461bcd60e51b815260206004820152601c60248201527f4c6120736974756174696f6e20657374206f626c696761746f6972650000000060448201526064016105d3565b6040516020016107a590602080825260009082015260400190565b60405160208183030381529060405280519060200120836040516020016107cc919061324a565b604051602081830303815290604052805190602001200361082f5760405162461bcd60e51b815260206004820152601860248201527f4c612076696c6c6520657374206f626c696761746f697265000000000000000060448201526064016105d3565b60405160200161084a90602080825260009082015260400190565b6040516020818303038152906040528051906020012082604051602001610871919061324a565b60405160208183030381529060405280519060200120036108d45760405162461bcd60e51b815260206004820152601660248201527f4c652063696420657374206f626c696761746f6972650000000000000000000060448201526064016105d3565b61c350811161094b5760405162461bcd60e51b815260206004820152603860248201527f4572726575722c206c652070726978206475206269656e20696d6d6f20646f6960448201527f742065747265207375706572696575722061203530303030000000000000000060648201526084016105d3565b610959600880546001019055565b6109926040518060c001604052806000815260200160608152602001606081526020016060815260200160608152602001600081525090565b60085481526020810186815260408201869052606082018590526080820184905260a08201839052600c8054600181018255600091909152825160069091027fdf6966c971051c3d54ec59162606531493a51404a002842f56009d7e5cf4a8c78101918255915183927fdf6966c971051c3d54ec59162606531493a51404a002842f56009d7e5cf4a8c80190610a2890826137e2565b5060408201516002820190610a3d90826137e2565b5060608201516003820190610a5290826137e2565b5060808201516004820190610a6790826137e2565b5060a08201518160050155505060006001610a8160085490565b610a8b919061390d565b90507ff25ea05cc68cbe6d2d1abce09caf6545e2282a00caed6975ebba55f38de5372081604051610abe91815260200190565b60405180910390a150505050505050565b600061060c82612087565b600a8054610ae790613744565b80601f0160208091040260200160405190810160405280929190818152602001828054610b1390613744565b8015610b605780601f10610b3557610100808354040283529160200191610b60565b820191906000526020600020905b815481529060010190602001808311610b4357829003601f168201915b505050505081565b606060028054610b7790613744565b80601f0160208091040260200160405190810160405280929190818152602001828054610ba390613744565b8015610bf05780601f10610bc557610100808354040283529160200191610bf0565b820191906000526020600020905b815481529060010190602001808311610bd357829003601f168201915b50505050509050919050565b600082815260046020908152604080832081518083019092525473ffffffffffffffffffffffffffffffffffffffff8116808352740100000000000000000000000000000000000000009091046bffffffffffffffffffffffff16928201929092528291610cb757506040805180820190915260035473ffffffffffffffffffffffffffffffffffffffff811682527401000000000000000000000000000000000000000090046bffffffffffffffffffffffff1660208201525b602081015160009061271090610cdb906bffffffffffffffffffffffff1687613920565b610ce59190613937565b915196919550909350505050565b73ffffffffffffffffffffffffffffffffffffffff8516331480610d1c5750610d1c85336104c3565b610d8e5760405162461bcd60e51b815260206004820152602e60248201527f455243313135353a2063616c6c6572206973206e6f7420746f6b656e206f776e60448201527f6572206f7220617070726f76656400000000000000000000000000000000000060648201526084016105d3565b610d9b85858585856120dd565b5050505050565b610de26040518060e00160405280600081526020016000815260200160008152602001600081526020016000815260200160008152602001600081525090565b6000838152600f602052604081208360048110610e0157610e01613972565b600702016040518060e001604052908160008201548152602001600182015481526020016002820154815260200160038201548152602001600482015481526020016005820154815260200160068201548152505090508091505092915050565b600d8181548110610e7257600080fd5b6000918252602090912060059091020180546001820154600283015460038401546004909401549294509092909173ffffffffffffffffffffffffffffffffffffffff918216911685565b610ec5612020565b60004711610f155760405162461bcd60e51b815260206004820152600b60248201527f42616c616e63652061203000000000000000000000000000000000000000000060448201526064016105d3565b60055460405173ffffffffffffffffffffffffffffffffffffffff909116904780156108fc02916000818181858888f19350505050158015610f5b573d6000803e3d6000fd5b50565b60608151835114610fd75760405162461bcd60e51b815260206004820152602960248201527f455243313135353a206163636f756e747320616e6420696473206c656e67746860448201527f206d69736d61746368000000000000000000000000000000000000000000000060648201526084016105d3565b6000835167ffffffffffffffff811115610ff357610ff3612ff8565b60405190808252806020026020018201604052801561101c578160200160208202803683370190505b50905060005b84518110156110945761106785828151811061104057611040613972565b602002602001015185838151811061105a5761105a613972565b602002602001015161054c565b82828151811061107957611079613972565b602090810291909101015261108d816139a1565b9050611022565b509392505050565b6110a4612020565b600955565b6110b1612020565b600c548111156111295760405162461bcd60e51b815260206004820152602d60248201527f496e646578206475206269656e20696d6d6f62696c69657220656e206465686f60448201527f7273206475207461626c6561750000000000000000000000000000000000000060648201526084016105d3565b6000818152600f6020526040902054156111855760405162461bcd60e51b815260206004820152601b60248201527f4c65206d696e7420612064656a6120657465206566666563747565000000000060448201526064016105d3565b6111906000826123c9565b5061119c6001826123c9565b506111a86002826123c9565b506111b46003826123c9565b506040518181527fff4078d3a7633c1bd56ae05b46cf944f917a32264ef635cbc026a7efe2e473689060200160405180910390a150565b6111f3612020565b6111fd60006125d3565b565b600061122060055473ffffffffffffffffffffffffffffffffffffffff1690565b905090565b600080601060009054906101000a900473ffffffffffffffffffffffffffffffffffffffff1673ffffffffffffffffffffffffffffffffffffffff1663feaf968c6040518163ffffffff1660e01b815260040160a060405180830381865afa158015611295573d6000803e3d6000fd5b505050506040513d601f19601f820116820180604052508101906112b991906139f3565b509195945050505050565b600b8054610ae790613744565b600c81815481106112e157600080fd5b6000918252602090912060069091020180546001820180549193509061130690613744565b80601f016020809104026020016040519081016040528092919081815260200182805461133290613744565b801561137f5780601f106113545761010080835404028352916020019161137f565b820191906000526020600020905b81548152906001019060200180831161136257829003601f168201915b50505050509080600201805461139490613744565b80601f01602080910402602001604051908101604052809291908181526020018280546113c090613744565b801561140d5780601f106113e25761010080835404028352916020019161140d565b820191906000526020600020905b8154815290600101906020018083116113f057829003601f168201915b50505050509080600301805461142290613744565b80601f016020809104026020016040519081016040528092919081815260200182805461144e90613744565b801561149b5780601f106114705761010080835404028352916020019161149b565b820191906000526020600020905b81548152906001019060200180831161147e57829003601f168201915b5050505050908060040180546114b090613744565b80601f01602080910402602001604051908101604052809291908181526020018280546114dc90613744565b80156115295780601f106114fe57610100808354040283529160200191611529565b820191906000526020600020905b81548152906001019060200180831161150c57829003601f168201915b5050505050908060050154905086565b61154433838361264a565b5050565b611550612020565b600c548911156115c85760405162461bcd60e51b815260206004820152602d60248201527f496e646578206475206269656e20696d6d6f62696c69657220656e206465686f60448201527f7273206475207461626c6561750000000000000000000000000000000000000060648201526084016105d3565b6064871080156115d85750606486105b80156115e45750606485105b6116565760405162461bcd60e51b815260206004820152602360248201527f4572726575722c20756e2064657320706f757263656e7461676573206573742060448201527f612030000000000000000000000000000000000000000000000000000000000060648201526084016105d3565b60328410156116cd5760405162461bcd60e51b815260206004820152603b60248201527f4572726575722c206c652070726978206d696e696d756d206465206c6120636160448201527f72746520434f545441474520646f69742065747265206465203530000000000060648201526084016105d3565b60648310156117445760405162461bcd60e51b815260206004820152603a60248201527f4572726575722c206c652070726978206d696e696d756d206465206c6120636160448201527f7274652056494c4c4120646f697420657472652064652031303000000000000060648201526084016105d3565b60968210156117bb5760405162461bcd60e51b815260206004820152603c60248201527f4572726575722c206c652070726978206d696e696d756d206465206c6120636160448201527f727465204d414e53494f4e20646f69742065747265206465203135300000000060648201526084016105d3565b87806117d85750861580156117ce575085155b80156117d8575084155b156117ea5760329650601e9550601494505b6000898152600f60209081526040808320815160e08101835284815292830184905290820187905260608201839052608082018a9052601e60a083015260c0820183905291829060070201600082015181600001556020820151816001015560408201518160020155606082015181600301556080820151816004015560a0820151816005015560c082015181600601559050506040518060e00160405280600181526020016000815260200185815260200160008152602001888152602001601e81526020016000815250816001600481106118c9576118c9613972565b60070201600082015181600001556020820151816001015560408201518160020155606082015181600301556080820151816004015560a0820151816005015560c082015181600601559050506040518060e00160405280600281526020016000815260200184815260200160008152602001878152602001601e815260200160008152508160026004811061196157611961613972565b60070201600082015181600001556020820151816001015560408201518160020155606082015181600301556080820151816004015560a0820151816005015560c082015181600601559050506040518060e0016040528060038152602001600081526020018381526020016001815260200160008152602001601e81526020016000815250816003600481106119fa576119fa613972565b60070201600082015181600001556020820151816001015560408201518160020155606082015181600301556080820151816004015560a0820151816005015560c082015181600601559050506000826001611a569190613920565b600c8c81548110611a6957611a69613972565b906000526020600020906006020160050154611a85919061390d565b9050606460005b6003811015611b2b5760008d8152600f602052604081208260048110611ab457611ab4613972565b6007020190508060030154600003611b18576000838260040154611ad89190613920565b90506000611ae7856064613920565b611af18388613920565b611afb9190613937565b90506000836002015482611b0f9190613937565b60038501555050505b5080611b23816139a1565b915050611a8c565b506003830154600a8401547f01f6ecbad523aa4ebc65b0e3c80ebd687c182bea84d78431cac0754a2fd7c192918e91866002600702016003015487600360048110611b7857611b78613972565b6007020160030154604051611baf959493929190948552602085019390935260408401919091526060830152608082015260a00190565b60405180910390a1505050505050505050505050565b73ffffffffffffffffffffffffffffffffffffffff8516331480611bee5750611bee85336104c3565b611c605760405162461bcd60e51b815260206004820152602e60248201527f455243313135353a2063616c6c6572206973206e6f7420746f6b656e206f776e60448201527f6572206f7220617070726f76656400000000000000000000000000000000000060648201526084016105d3565b610d9b8585858585612783565b611c75612020565b73ffffffffffffffffffffffffffffffffffffffff8116611cfe5760405162461bcd60e51b815260206004820152602660248201527f4f776e61626c653a206e6577206f776e657220697320746865207a65726f206160448201527f646472657373000000000000000000000000000000000000000000000000000060648201526084016105d3565b610f5b816125d3565b611d406040518060c001604052806000815260200160608152602001606081526020016060815260200160608152602001600081525090565b600c548210611d915760405162461bcd60e51b815260206004820152601a60248201527f4269656e20696d6d6f62696c69657220696e6578697374616e7400000000000060448201526064016105d3565b600c8281548110611da457611da4613972565b90600052602060002090600602016040518060c001604052908160008201548152602001600182018054611dd790613744565b80601f0160208091040260200160405190810160405280929190818152602001828054611e0390613744565b8015611e505780601f10611e2557610100808354040283529160200191611e50565b820191906000526020600020905b815481529060010190602001808311611e3357829003601f168201915b50505050508152602001600282018054611e6990613744565b80601f0160208091040260200160405190810160405280929190818152602001828054611e9590613744565b8015611ee25780601f10611eb757610100808354040283529160200191611ee2565b820191906000526020600020905b815481529060010190602001808311611ec557829003601f168201915b50505050508152602001600382018054611efb90613744565b80601f0160208091040260200160405190810160405280929190818152602001828054611f2790613744565b8015611f745780601f10611f4957610100808354040283529160200191611f74565b820191906000526020600020905b815481529060010190602001808311611f5757829003601f168201915b50505050508152602001600482018054611f8d90613744565b80601f0160208091040260200160405190810160405280929190818152602001828054611fb990613744565b80156120065780601f10611fdb57610100808354040283529160200191612006565b820191906000526020600020905b815481529060010190602001808311611fe957829003601f168201915b505050505081526020016005820154815250509050919050565b60055473ffffffffffffffffffffffffffffffffffffffff1633146111fd5760405162461bcd60e51b815260206004820181905260248201527f4f776e61626c653a2063616c6c6572206973206e6f7420746865206f776e657260448201526064016105d3565b60007fffffffff0000000000000000000000000000000000000000000000000000000082167f2a55205a00000000000000000000000000000000000000000000000000000000148061060c575061060c8261298d565b81518351146121545760405162461bcd60e51b815260206004820152602860248201527f455243313135353a2069647320616e6420616d6f756e7473206c656e6774682060448201527f6d69736d6174636800000000000000000000000000000000000000000000000060648201526084016105d3565b73ffffffffffffffffffffffffffffffffffffffff84166121dd5760405162461bcd60e51b815260206004820152602560248201527f455243313135353a207472616e7366657220746f20746865207a65726f20616460448201527f647265737300000000000000000000000000000000000000000000000000000060648201526084016105d3565b3360005b84518110156123345760008582815181106121fe576121fe613972565b60200260200101519050600085838151811061221c5761221c613972565b6020908102919091018101516000848152808352604080822073ffffffffffffffffffffffffffffffffffffffff8e1683529093529190912054909150818110156122cf5760405162461bcd60e51b815260206004820152602a60248201527f455243313135353a20696e73756666696369656e742062616c616e636520666f60448201527f72207472616e736665720000000000000000000000000000000000000000000060648201526084016105d3565b60008381526020818152604080832073ffffffffffffffffffffffffffffffffffffffff8e8116855292528083208585039055908b16825281208054849290612319908490613a43565b925050819055505050508061232d906139a1565b90506121e1565b508473ffffffffffffffffffffffffffffffffffffffff168673ffffffffffffffffffffffffffffffffffffffff168273ffffffffffffffffffffffffffffffffffffffff167f4a39dc06d4c0dbc64b70af90fd698a233a518aa5d07e595d983b8c0526c8f7fb87876040516123ab929190613a56565b60405180910390a46123c1818787878787612a70565b505050505050565b60006123d3612020565b6123e1600780546001019055565b60006123ec60075490565b9050600061240f60055473ffffffffffffffffffffffffffffffffffffffff1690565b6000858152600f6020526040812091925090866004811061243257612432613972565b6007020160030154905082600f6000878152602001908152602001600020876004811061246157612461613972565b600702015560408051602081019091526000815261248490839085908490612c97565b6000858152600f602052604081206124b390849089600481106124a9576124a9613972565b600702015461054c565b6000878152600e60209081526040808320888452825280832073ffffffffffffffffffffffffffffffffffffffff8816845282528083208a8452600f90925290912091925090886004811061250a5761250a613972565b600702015481556000878152600f60205260409020886004811061253057612530613972565b6007020160029081015460018301558101829055600480820180547fffffffffffffffffffffffff000000000000000000000000000000000000000090811673ffffffffffffffffffffffffffffffffffffffff881690811790925560038401805490911690911790556000888152600f6020526040902083918a9081106125ba576125ba613972565b6007020160060181905550849550505050505092915050565b6005805473ffffffffffffffffffffffffffffffffffffffff8381167fffffffffffffffffffffffff0000000000000000000000000000000000000000831681179093556040519116919082907f8be0079c531659141344cd1fd0a4f28419497f9722a3daafe3b4186f6b6457e090600090a35050565b8173ffffffffffffffffffffffffffffffffffffffff168373ffffffffffffffffffffffffffffffffffffffff16036126eb5760405162461bcd60e51b815260206004820152602960248201527f455243313135353a2073657474696e6720617070726f76616c2073746174757360448201527f20666f722073656c66000000000000000000000000000000000000000000000060648201526084016105d3565b73ffffffffffffffffffffffffffffffffffffffff83811660008181526001602090815260408083209487168084529482529182902080547fffffffffffffffffffffffffffffffffffffffffffffffffffffffffffffff001686151590811790915591519182527f17307eab39ab6107e8899845ad3d59bd9653f200f220920489ca2b5937696c31910160405180910390a3505050565b73ffffffffffffffffffffffffffffffffffffffff841661280c5760405162461bcd60e51b815260206004820152602560248201527f455243313135353a207472616e7366657220746f20746865207a65726f20616460448201527f647265737300000000000000000000000000000000000000000000000000000060648201526084016105d3565b33600061281885612de5565b9050600061282585612de5565b905060008681526020818152604080832073ffffffffffffffffffffffffffffffffffffffff8c168452909152902054858110156128cb5760405162461bcd60e51b815260206004820152602a60248201527f455243313135353a20696e73756666696369656e742062616c616e636520666f60448201527f72207472616e736665720000000000000000000000000000000000000000000060648201526084016105d3565b60008781526020818152604080832073ffffffffffffffffffffffffffffffffffffffff8d8116855292528083208985039055908a16825281208054889290612915908490613a43565b9091555050604080518881526020810188905273ffffffffffffffffffffffffffffffffffffffff808b16928c821692918816917fc3d58168c5ae7397731d063d5bbf3d657854427343f4c083240f7aacaa2d0f62910160405180910390a4612982848a8a8a8a8a612e30565b505050505050505050565b60007fffffffff0000000000000000000000000000000000000000000000000000000082167fd9b67a26000000000000000000000000000000000000000000000000000000001480612a2057507fffffffff0000000000000000000000000000000000000000000000000000000082167f0e89341c00000000000000000000000000000000000000000000000000000000145b8061060c57507f01ffc9a7000000000000000000000000000000000000000000000000000000007fffffffff0000000000000000000000000000000000000000000000000000000083161461060c565b73ffffffffffffffffffffffffffffffffffffffff84163b156123c1576040517fbc197c8100000000000000000000000000000000000000000000000000000000815273ffffffffffffffffffffffffffffffffffffffff85169063bc197c8190612ae79089908990889088908890600401613a84565b6020604051808303816000875af1925050508015612b22575060408051601f3d908101601f19168201909252612b1f91810190613aef565b60015b612bd757612b2e613b0c565b806308c379a003612b675750612b42613b28565b80612b4d5750612b69565b8060405162461bcd60e51b81526004016105d3919061324a565b505b60405162461bcd60e51b815260206004820152603460248201527f455243313135353a207472616e7366657220746f206e6f6e2d4552433131353560448201527f526563656976657220696d706c656d656e74657200000000000000000000000060648201526084016105d3565b7fffffffff0000000000000000000000000000000000000000000000000000000081167fbc197c810000000000000000000000000000000000000000000000000000000014612c8e5760405162461bcd60e51b815260206004820152602860248201527f455243313135353a204552433131353552656365697665722072656a6563746560448201527f6420746f6b656e7300000000000000000000000000000000000000000000000060648201526084016105d3565b50505050505050565b73ffffffffffffffffffffffffffffffffffffffff8416612d205760405162461bcd60e51b815260206004820152602160248201527f455243313135353a206d696e7420746f20746865207a65726f2061646472657360448201527f730000000000000000000000000000000000000000000000000000000000000060648201526084016105d3565b336000612d2c85612de5565b90506000612d3985612de5565b905060008681526020818152604080832073ffffffffffffffffffffffffffffffffffffffff8b16845290915281208054879290612d78908490613a43565b9091555050604080518781526020810187905273ffffffffffffffffffffffffffffffffffffffff808a1692600092918716917fc3d58168c5ae7397731d063d5bbf3d657854427343f4c083240f7aacaa2d0f62910160405180910390a4612c8e83600089898989612e30565b60408051600180825281830190925260609160009190602080830190803683370190505090508281600081518110612e1f57612e1f613972565b602090810291909101015292915050565b73ffffffffffffffffffffffffffffffffffffffff84163b156123c1576040517ff23a6e6100000000000000000000000000000000000000000000000000000000815273ffffffffffffffffffffffffffffffffffffffff85169063f23a6e6190612ea79089908990889088908890600401613bd0565b6020604051808303816000875af1925050508015612ee2575060408051601f3d908101601f19168201909252612edf91810190613aef565b60015b612eee57612b2e613b0c565b7fffffffff0000000000000000000000000000000000000000000000000000000081167ff23a6e610000000000000000000000000000000000000000000000000000000014612c8e5760405162461bcd60e51b815260206004820152602860248201527f455243313135353a204552433131353552656365697665722072656a6563746560448201527f6420746f6b656e7300000000000000000000000000000000000000000000000060648201526084016105d3565b803573ffffffffffffffffffffffffffffffffffffffff81168114612fc957600080fd5b919050565b60008060408385031215612fe157600080fd5b612fea83612fa5565b946020939093013593505050565b7f4e487b7100000000000000000000000000000000000000000000000000000000600052604160045260246000fd5b601f19601f830116810181811067ffffffffffffffff8211171561304d5761304d612ff8565b6040525050565b600082601f83011261306557600080fd5b813567ffffffffffffffff81111561307f5761307f612ff8565b6040516130966020601f19601f8501160182613027565b8181528460208386010111156130ab57600080fd5b816020850160208301376000918101602001919091529392505050565b600080600080600060a086880312156130e057600080fd5b853567ffffffffffffffff808211156130f857600080fd5b61310489838a01613054565b9650602088013591508082111561311a57600080fd5b61312689838a01613054565b9550604088013591508082111561313c57600080fd5b61314889838a01613054565b9450606088013591508082111561315e57600080fd5b5061316b88828901613054565b95989497509295608001359392505050565b7fffffffff0000000000000000000000000000000000000000000000000000000081168114610f5b57600080fd5b6000602082840312156131bd57600080fd5b81356131c88161317d565b9392505050565b6000806000606084860312156131e457600080fd5b83359250602084013591506131fb60408501612fa5565b90509250925092565b6000815180845260005b8181101561322a5760208185018101518683018201520161320e565b506000602082860101526020601f19601f83011685010191505092915050565b6020815260006131c86020830184613204565b60006020828403121561326f57600080fd5b5035919050565b6000806040838503121561328957600080fd5b50508035926020909101359150565b600067ffffffffffffffff8211156132b2576132b2612ff8565b5060051b60200190565b600082601f8301126132cd57600080fd5b813560206132da82613298565b6040516132e78282613027565b83815260059390931b850182019282810191508684111561330757600080fd5b8286015b84811015613322578035835291830191830161330b565b509695505050505050565b600080600080600060a0868803121561334557600080fd5b61334e86612fa5565b945061335c60208701612fa5565b9350604086013567ffffffffffffffff8082111561337957600080fd5b61338589838a016132bc565b9450606088013591508082111561339b57600080fd5b6133a789838a016132bc565b935060808801359150808211156133bd57600080fd5b506133ca88828901613054565b9150509295509295909350565b600080604083850312156133ea57600080fd5b823567ffffffffffffffff8082111561340257600080fd5b818501915085601f83011261341657600080fd5b8135602061342382613298565b6040516134308282613027565b83815260059390931b850182019282810191508984111561345057600080fd5b948201945b838610156134755761346686612fa5565b82529482019490820190613455565b9650508601359250508082111561348b57600080fd5b50613498858286016132bc565b9150509250929050565b600081518084526020808501945080840160005b838110156134d2578151875295820195908201906001016134b6565b509495945050505050565b6020815260006131c860208301846134a2565b86815260c06020820152600061350960c0830188613204565b828103604084015261351b8188613204565b9050828103606084015261352f8187613204565b905082810360808401526135438186613204565b9150508260a0830152979650505050505050565b80358015158114612fc957600080fd5b6000806040838503121561357a57600080fd5b61358383612fa5565b915061359160208401613557565b90509250929050565b60008060008060008060008060006101208a8c0312156135b957600080fd5b893598506135c960208b01613557565b989b989a505050506040870135966060810135966080820135965060a0820135955060c0820135945060e08201359350610100909101359150565b6000806040838503121561361757600080fd5b61362083612fa5565b915061359160208401612fa5565b600080600080600060a0868803121561364657600080fd5b61364f86612fa5565b945061365d60208701612fa5565b93506040860135925060608601359150608086013567ffffffffffffffff81111561368757600080fd5b6133ca88828901613054565b6000602082840312156136a557600080fd5b6131c882612fa5565b60208152815160208201526000602083015160c060408401526136d460e0840182613204565b90506040840151601f19808584030160608601526136f28383613204565b9250606086015191508085840301608086015261370f8383613204565b925060808601519150808584030160a08601525061372d8282613204565b91505060a084015160c08401528091505092915050565b600181811c9082168061375857607f821691505b602082108103613791577f4e487b7100000000000000000000000000000000000000000000000000000000600052602260045260246000fd5b50919050565b601f8211156137dd57600081815260208120601f850160051c810160208610156137be5750805b601f850160051c820191505b818110156123c1578281556001016137ca565b505050565b815167ffffffffffffffff8111156137fc576137fc612ff8565b6138108161380a8454613744565b84613797565b602080601f831160018114613863576000841561382d5750858301515b7fffffffffffffffffffffffffffffffffffffffffffffffffffffffffffffffff600386901b1c1916600185901b1785556123c1565b600085815260208120601f198616915b8281101561389257888601518255948401946001909101908401613873565b50858210156138ce57878501517fffffffffffffffffffffffffffffffffffffffffffffffffffffffffffffffff600388901b60f8161c191681555b5050505050600190811b01905550565b7f4e487b7100000000000000000000000000000000000000000000000000000000600052601160045260246000fd5b8181038181111561060c5761060c6138de565b808202811582820484141761060c5761060c6138de565b60008261396d577f4e487b7100000000000000000000000000000000000000000000000000000000600052601260045260246000fd5b500490565b7f4e487b7100000000000000000000000000000000000000000000000000000000600052603260045260246000fd5b60007fffffffffffffffffffffffffffffffffffffffffffffffffffffffffffffffff82036139d2576139d26138de565b5060010190565b805169ffffffffffffffffffff81168114612fc957600080fd5b600080600080600060a08688031215613a0b57600080fd5b613a14866139d9565b9450602086015193506040860151925060608601519150613a37608087016139d9565b90509295509295909350565b8082018082111561060c5761060c6138de565b604081526000613a6960408301856134a2565b8281036020840152613a7b81856134a2565b95945050505050565b600073ffffffffffffffffffffffffffffffffffffffff808816835280871660208401525060a06040830152613abd60a08301866134a2565b8281036060840152613acf81866134a2565b90508281036080840152613ae38185613204565b98975050505050505050565b600060208284031215613b0157600080fd5b81516131c88161317d565b600060033d1115613b255760046000803e5060005160e01c5b90565b600060443d1015613b365790565b6040517ffffffffffffffffffffffffffffffffffffffffffffffffffffffffffffffffc803d016004833e81513d67ffffffffffffffff8160248401118184111715613b8457505050505090565b8285019150815181811115613b9c5750505050505090565b843d8701016020828501011115613bb65750505050505090565b613bc560208286010187613027565b509095945050505050565b600073ffffffffffffffffffffffffffffffffffffffff808816835280871660208401525084604083015283606083015260a06080830152613c1560a0830184613204565b97965050505050505056fea26469706673582212208e0772f67b6254accff562d35c5d0714b5745fbdc42309f2e0bd59f08c9caf1664736f6c6343000811003368747470733a2f2f676174657761792e70696e6174612e636c6f75642f697066732f516d57513567624468463539766f6e6753676d514a4d595269695670586d647559415539676666774454776e63612f7b69647d2e6a736f6e",
  "immutableReferences": {},
  "source": "// SPDX-License-Identifier: MIT\npragma solidity 0.8.17;\n\nimport \"../node_modules/@openzeppelin/contracts/token/ERC1155/ERC1155.sol\";\nimport \"../node_modules/@openzeppelin/contracts/token/common/ERC2981.sol\";\nimport \"../node_modules/@openzeppelin/contracts/utils/Counters.sol\";\n//import \"../node_modules/@openzeppelin/contracts/utils/introspection/ERC165.sol\";\nimport \"../node_modules/@openzeppelin/contracts/access/Ownable.sol\";\nimport \"../node_modules/@openzeppelin/contracts/security/ReentrancyGuard.sol\";\nimport \"../node_modules/@chainlink/contracts/src/v0.8/interfaces/AggregatorV3Interface.sol\";\n\ncontract Rock is ERC1155, ERC2981, Ownable, ReentrancyGuard {\n    using Counters for Counters.Counter;\n    Counters.Counter private _tokenIds;\n    Counters.Counter private _realEstateIds;\n    uint256 internal fees = 5000; // 5%\n\n    // Nom de la collection ROCK (qui apparaitra sur Opensea\n    string public name = \"Rock Collection\";\n    string public symbol = \"Rock\";\n\n    // Programme immo\n    struct RealEstate {\n        uint256 id;\n        string name; // Nom du programme immo\n        string location; // Localisation\n        string city; // Ville\n        string cid;\n        uint256 price; // Prix du bien\n    }\n\n    // Notre parc de biens immobilier\n    RealEstate[] public realEstatesCollection;\n\n    struct Card {\n        uint256 tokenId;\n        uint256 cardId;\n        uint256 price;\n        uint256 numberOfTokens;\n        uint256 ratioOfTokensInPercent;\n        uint256 royalty;\n        uint256 balance;\n    }\n\n    // Tous les nfts lists sur la plateforme ROCK\n    struct NFTCard {\n        uint256 tokenId;\n        uint256 price;\n        uint256 quantity;\n        address payable seller;\n        address payable owner;\n    }\n\n    NFTCard[] public Listings;\n\n    // Mapping realEstateId => tokenId --> TYpe de Carte\n    //mapping(uint256 => mapping(uint256 => Card)) private typesCard;\n    // Mapping realEstateId => tokenId => ownerAdress --> Card\n    mapping(uint256 => mapping(uint256 => mapping(address => NFTCard)))\n        public usersCardsNfts;\n\n    // Index du bien => tableau de cartes\n    mapping(uint256 => Card[4]) internal cards;\n\n    // Type de carte\n    uint256 internal constant CARD_COTTAGE = 0;\n    uint256 internal constant CARD_VILLA = 1;\n    uint256 internal constant CARD_MANSION = 2;\n    uint256 internal constant CARD_HIGH_RISE = 3;\n\n    // Rpartion des tokens par type de carte\n    uint256 private constant DEFAULT_RATIO_COTTAGE_TOKENS = 50;\n    uint256 private constant DEFAULT_RATIO_VILLA_TOKENS = 30;\n    uint256 private constant DEFAULT_RATIO_MANSION_TOKENS = 20;\n\n    // Events\n    event supplyCardsCalculated(\n        uint256 idToken,\n        uint256 supplyCottage,\n        uint256 supplyVilla,\n        uint256 supplyMansion,\n        uint256 supplyHighRise\n    );\n    event tokenMinted(uint256 idRealEstate);\n    event RealEstateAdded(uint256 idRealEstate);\n\n    AggregatorV3Interface internal priceFeed;\n\n    constructor()\n        ERC1155(\n            \"https://gateway.pinata.cloud/ipfs/QmWQ5gbDhF59vongSgmQJMYRiiVpXmduYAU9gffwDTwnca/{id}.json\"\n        )\n    {\n        // Royalties sur chaque NFT vendu\n        _setDefaultRoyalty(msg.sender, 8000);\n        // Data Feed Chainlink pour rcuprer le MATIC/USD\n        priceFeed = AggregatorV3Interface(\n            // 0xd0D5e3DB44DE05E9F294BB0a3bEEaF030DE24Ada\n            0xD4a33860578De61DBAbDc8BFdb98FD742fA7028e //ETHUSD\n        );\n    }\n\n    function supportsInterface(bytes4 interfaceId)\n        public\n        view\n        virtual\n        override(ERC1155, ERC2981)\n        returns (bool)\n    {\n        return super.supportsInterface(interfaceId);\n    }\n\n    // L'administrateur dclare un nouveau bien immo sur la blockchain\n    // Retourne l'index du bien immo\n    function addRealEstate(\n        string memory _name,\n        string memory _location,\n        string memory _city,\n        string memory _cid,\n        uint256 _price\n    ) public onlyOwner {\n        require(\n            keccak256(abi.encode(_name)) != keccak256(abi.encode(\"\")),\n            \"Le nom du programme immobilier est obligatoire\"\n        );\n        require(\n            keccak256(abi.encode(_location)) != keccak256(abi.encode(\"\")),\n            \"La situation est obligatoire\"\n        );\n        require(\n            keccak256(abi.encode(_city)) != keccak256(abi.encode(\"\")),\n            \"La ville est obligatoire\"\n        );\n        require(\n            keccak256(abi.encode(_cid)) != keccak256(abi.encode(\"\")),\n            \"Le cid est obligatoire\"\n        );\n        require(\n            _price > 50000,\n            \"Erreur, le prix du bien immo doit etre superieur a 50000\"\n        );\n\n        _realEstateIds.increment();\n\n        // Cration du bien immo\n        RealEstate memory newRealEstate;\n        newRealEstate.id = _realEstateIds.current();\n        newRealEstate.name = _name;\n        newRealEstate.location = _location;\n        newRealEstate.city = _city;\n        newRealEstate.cid = _cid;\n        newRealEstate.price = _price;\n\n        // Ajout du bien au catalogue\n        realEstatesCollection.push(newRealEstate);\n\n        // Evenement RealEstateAdd avec position de l'lment dans le tableau\n        uint256 indexRealEstateInCollection = _realEstateIds.current() - 1;\n        emit RealEstateAdded(indexRealEstateInCollection);\n    }\n\n    /// @notice Return the count of proposals\n    /// @return uint256 Count of proposals\n    function getRealEstatesCollectionCount() external view returns (uint256) {\n        return realEstatesCollection.length;\n    }\n\n    // Rcupration du bien immobilier par son index\n    function getRealStateById(uint256 _index)\n        public\n        view\n        returns (RealEstate memory)\n    {\n        require(\n            _index < realEstatesCollection.length,\n            \"Bien immobilier inexistant\"\n        );\n        return realEstatesCollection[_index];\n    }\n\n    // Calculer le nombre de token  minter par type de carte en fonction du prix du bien, du prix du token demand par l'admin et du ratio (pourcentage du prix du bien)\n    function calculateNumberOfTokens(\n        uint256 _indexRealEstateInCollection,\n        bool _isDefaultSupply,\n        uint256 _ratioTokenCottage,\n        uint256 _ratioTokenVilla,\n        uint256 _ratioTokenMansion,\n        uint256 _prixTokenCottage,\n        uint256 _prixTokenVilla,\n        uint256 _prixTokenMansion,\n        uint256 _prixTokenHighRise\n    ) public onlyOwner {\n        require(\n            _indexRealEstateInCollection <= realEstatesCollection.length,\n            \"Index du bien immobilier en dehors du tableau\"\n        );\n        require(\n            _ratioTokenCottage < 100 &&\n                _ratioTokenVilla < 100 &&\n                _ratioTokenMansion < 100,\n            \"Erreur, un des pourcentages est a 0\"\n        );\n        require(\n            _prixTokenCottage >= 50,\n            \"Erreur, le prix minimum de la carte COTTAGE doit etre de 50\"\n        );\n        require(\n            _prixTokenVilla >= 100,\n            \"Erreur, le prix minimum de la carte VILLA doit etre de 100\"\n        );\n        require(\n            _prixTokenMansion >= 150,\n            \"Erreur, le prix minimum de la carte MANSION doit etre de 150\"\n        );\n\n        // Si les ratios ne sont pas renseigns par l'administrateur, on prend les ratios par dfaut\n        if (\n            _isDefaultSupply ||\n            (_ratioTokenCottage == 0 &&\n                _ratioTokenVilla == 0 &&\n                _ratioTokenMansion == 0)\n        ) {\n            _ratioTokenCottage = DEFAULT_RATIO_COTTAGE_TOKENS;\n            _ratioTokenVilla = DEFAULT_RATIO_VILLA_TOKENS;\n            _ratioTokenMansion = DEFAULT_RATIO_MANSION_TOKENS;\n        }\n\n        // Cration des cartes\n        Card[4] storage newCards = cards[_indexRealEstateInCollection];\n        newCards[CARD_COTTAGE] = Card(\n            CARD_COTTAGE,\n            0,\n            _prixTokenCottage,\n            0,\n            _ratioTokenCottage,\n            30,\n            0\n        );\n        newCards[CARD_VILLA] = Card(\n            CARD_VILLA,\n            0,\n            _prixTokenVilla,\n            0,\n            _ratioTokenVilla,\n            30,\n            0\n        );\n        newCards[CARD_MANSION] = Card(\n            CARD_MANSION,\n            0,\n            _prixTokenMansion,\n            0,\n            _ratioTokenMansion,\n            30,\n            0\n        );\n        newCards[CARD_HIGH_RISE] = Card(\n            CARD_HIGH_RISE,\n            0,\n            _prixTokenHighRise,\n            1,\n            0,\n            30,\n            0\n        );\n\n        // Pour le calcul du nombre de tokens par carte,\n        // on soustrait du prix du bien, le prix du token de la carte unique HighRise\n        uint256 realEstatePrice = realEstatesCollection[\n            _indexRealEstateInCollection\n        ].price - (1 * _prixTokenHighRise);\n        uint256 multiplier = 100;\n\n        for (uint256 i = 0; i < CARD_HIGH_RISE; i++) {\n            Card storage card = cards[_indexRealEstateInCollection][i];\n            if (card.numberOfTokens == 0) {\n                uint256 ratioMultiplier = card.ratioOfTokensInPercent *\n                    multiplier; // 50 % devient 5000\n                uint256 priceByCard = (realEstatePrice * ratioMultiplier) /\n                    (100 * multiplier); // On applique le ratio sur le prix du prix et on divise\n                uint256 numberOfTokens = priceByCard / card.price; // Prix du bien divis par le prix du token\n                card.numberOfTokens = numberOfTokens;\n            }\n        }\n\n        emit supplyCardsCalculated(\n            _indexRealEstateInCollection,\n            newCards[CARD_COTTAGE].numberOfTokens,\n            newCards[CARD_VILLA].numberOfTokens,\n            newCards[CARD_MANSION].numberOfTokens,\n            newCards[CARD_HIGH_RISE].numberOfTokens\n        );\n    }\n\n    // L'administrateur minte les NFTS d'une collection (d'un bien immo)\n    function mintRealEstateCollection(uint256 _indexRealEstateInCollection)\n        public\n        onlyOwner\n    {\n        require(\n            _indexRealEstateInCollection <= realEstatesCollection.length,\n            \"Index du bien immobilier en dehors du tableau\"\n        );\n        require(\n            cards[_indexRealEstateInCollection][0].tokenId == 0,\n            \"Le mint a deja ete effectue\"\n        );\n\n        mintCard(CARD_COTTAGE, _indexRealEstateInCollection);\n        mintCard(CARD_VILLA, _indexRealEstateInCollection);\n        mintCard(CARD_MANSION, _indexRealEstateInCollection);\n        mintCard(CARD_HIGH_RISE, _indexRealEstateInCollection);\n\n        emit tokenMinted(_indexRealEstateInCollection);\n    }\n\n    function mintCard(uint256 _cardId, uint256 _indexRealEstateInCollection)\n        private\n        onlyOwner\n        returns (uint256)\n    {\n        _tokenIds.increment();\n        uint256 newTokenId = _tokenIds.current();\n\n        address contractOwner = owner();\n\n        // Mint des tokens pour un type de carte donn\n        uint256 numberOfTokens = cards[_indexRealEstateInCollection][_cardId]\n            .numberOfTokens;\n        cards[_indexRealEstateInCollection][_cardId].tokenId = newTokenId;\n        _mint(contractOwner, newTokenId, numberOfTokens, \"\");\n\n        // Mise  jour de la balance totale de la carte NFT (Quantit restante gale au nombre de tokens mints)\n        uint256 balanceOfOwnerTokenId = balanceOf(\n            contractOwner,\n            cards[_indexRealEstateInCollection][_cardId].tokenId\n        );\n\n        // NFT qui seront lists sur la plateforme une fois le mint effectu\n        // Par dfaut tous les NTFS sont dtnus par le owner du contrat\n        // realEstateId => tokenId => ownerAdress --> Card\n        NFTCard storage defaultOwner = usersCardsNfts[\n            _indexRealEstateInCollection\n        ][newTokenId][contractOwner];\n        defaultOwner.tokenId = cards[_indexRealEstateInCollection][_cardId]\n            .tokenId; // Identifiant de la carte minte\n        defaultOwner.price = cards[_indexRealEstateInCollection][_cardId].price; // Prix dfini par l'administrateur\n        defaultOwner.quantity = balanceOfOwnerTokenId; // balance du owner du token\n        defaultOwner.owner = payable(contractOwner);\n        defaultOwner.seller = payable(contractOwner);\n\n        // MAJ du mapping des balances\n        cards[_indexRealEstateInCollection][_cardId]\n            .balance = balanceOfOwnerTokenId;\n\n        return newTokenId;\n    }\n\n    function getCard(uint256 _indexRealEstateInCollection, uint256 _cardId)\n        public\n        view\n        returns (Card memory)\n    {\n        Card memory card = cards[_indexRealEstateInCollection][_cardId];\n        return card;\n    }\n\n    // Retourne le prix total des cartes  payer (en MATIC)\n    /*function calculeTotalPrice(\n        uint256 _indexRealEstateInCollection,\n        uint256[] calldata _cardsId,\n        uint256[] calldata _amounts\n    ) public view returns (uint256) {\n        require(_amounts.length > 0, \"Aucun montant renseigne\");\n        require(_cardsId.length > 0, \"Aucun carte selectionnee\");\n        require(\n            _indexRealEstateInCollection < realEstatesCollection.length,\n            \"Bien immobilier inexistant\"\n        );\n\n        // 3 cartes COTTAGE de 50  et 1 carte VILLA  100  = 3 * 50 + 1 * 100 = 250 = totalAmount\n        uint256 totalAmount;\n\n        for (uint256 i = 0; i < _cardsId.length; i++) {\n            require(\n                _cardsId[i] >= CARD_COTTAGE && _cardsId[i] <= CARD_HIGH_RISE,\n                \"Carte inconnue\"\n            );\n            uint256 boughtCardId = _cardsId[i];\n            // amount = price * quantity\n            totalAmount +=\n                cards[_indexRealEstateInCollection][boughtCardId].price *\n                _amounts[i];\n        }\n\n        // Calcul du nombre de tokens MATIC  nous reverser au total\n        // return amountOfMATIC(totalAmount);\n        return totalAmount;\n    }*/\n\n    // Frais de transactions de la plateforme ROCK\n    function setFee(uint256 _fee) public onlyOwner {\n        fees = _fee;\n    }\n\n    /// Returns the latest price MATIC/USD\n    function getLatestPrice() public view returns (int256) {\n        (\n            ,\n            /*uint80 roundID*/\n            int256 price, /*uint startedAt*/ /*uint timeStamp*/ /*uint80 answeredInRound*/\n            ,\n            ,\n\n        ) = priceFeed.latestRoundData();\n        return price;\n    }\n\n    function withdraw() public onlyOwner {\n        require(address(this).balance > 0, \"Balance a 0\");\n        payable(owner()).transfer(address(this).balance);\n    }\n\n    function getOwner() public view returns (address) {\n        return owner();\n    }\n}\n",
  "sourcePath": "/home/anicaise/Formation/Alyra/Rock/truffle/contracts/Rock.sol",
  "compiler": {
    "name": "solc",
    "version": "0.8.17+commit.8df45f5f.Emscripten.clang"
  },
  "schemaVersion": "3.4.10",
  "updatedAt": "2022-12-09T22:09:12.052Z",
  "networkType": "ethereum",
  "devdoc": {
    "kind": "dev",
    "methods": {
      "balanceOf(address,uint256)": {
        "details": "See {IERC1155-balanceOf}. Requirements: - `account` cannot be the zero address."
      },
      "balanceOfBatch(address[],uint256[])": {
        "details": "See {IERC1155-balanceOfBatch}. Requirements: - `accounts` and `ids` must have the same length."
      },
      "getRealEstatesCollectionCount()": {
        "returns": {
          "_0": "uint256 Count of proposals"
        }
      },
      "isApprovedForAll(address,address)": {
        "details": "See {IERC1155-isApprovedForAll}."
      },
      "owner()": {
        "details": "Returns the address of the current owner."
      },
      "renounceOwnership()": {
        "details": "Leaves the contract without owner. It will not be possible to call `onlyOwner` functions anymore. Can only be called by the current owner. NOTE: Renouncing ownership will leave the contract without an owner, thereby removing any functionality that is only available to the owner."
      },
      "royaltyInfo(uint256,uint256)": {
        "details": "Returns how much royalty is owed and to whom, based on a sale price that may be denominated in any unit of exchange. The royalty amount is denominated and should be paid in that same unit of exchange."
      },
      "safeBatchTransferFrom(address,address,uint256[],uint256[],bytes)": {
        "details": "See {IERC1155-safeBatchTransferFrom}."
      },
      "safeTransferFrom(address,address,uint256,uint256,bytes)": {
        "details": "See {IERC1155-safeTransferFrom}."
      },
      "setApprovalForAll(address,bool)": {
        "details": "See {IERC1155-setApprovalForAll}."
      },
      "transferOwnership(address)": {
        "details": "Transfers ownership of the contract to a new account (`newOwner`). Can only be called by the current owner."
      },
      "uri(uint256)": {
        "details": "See {IERC1155MetadataURI-uri}. This implementation returns the same URI for *all* token types. It relies on the token type ID substitution mechanism https://eips.ethereum.org/EIPS/eip-1155#metadata[defined in the EIP]. Clients calling this function must replace the `\\{id\\}` substring with the actual token type ID."
      }
    },
    "version": 1
  },
  "userdoc": {
    "kind": "user",
    "methods": {
      "getLatestPrice()": {
        "notice": "Returns the latest price MATIC/USD"
      },
      "getRealEstatesCollectionCount()": {
        "notice": "Return the count of proposals"
      }
    },
    "version": 1
  }
}