{
  "contractName": "Rock",
  "abi": [
    {
      "inputs": [],
      "stateMutability": "nonpayable",
      "type": "constructor"
    },
    {
      "anonymous": false,
      "inputs": [
        {
          "indexed": true,
          "internalType": "address",
          "name": "account",
          "type": "address"
        },
        {
          "indexed": true,
          "internalType": "address",
          "name": "operator",
          "type": "address"
        },
        {
          "indexed": false,
          "internalType": "bool",
          "name": "approved",
          "type": "bool"
        }
      ],
      "name": "ApprovalForAll",
      "type": "event"
    },
    {
      "anonymous": false,
      "inputs": [
        {
          "indexed": true,
          "internalType": "address",
          "name": "previousOwner",
          "type": "address"
        },
        {
          "indexed": true,
          "internalType": "address",
          "name": "newOwner",
          "type": "address"
        }
      ],
      "name": "OwnershipTransferred",
      "type": "event"
    },
    {
      "anonymous": false,
      "inputs": [
        {
          "indexed": false,
          "internalType": "uint256",
          "name": "idRealEstate",
          "type": "uint256"
        }
      ],
      "name": "RealEstateAdded",
      "type": "event"
    },
    {
      "anonymous": false,
      "inputs": [
        {
          "indexed": true,
          "internalType": "address",
          "name": "operator",
          "type": "address"
        },
        {
          "indexed": true,
          "internalType": "address",
          "name": "from",
          "type": "address"
        },
        {
          "indexed": true,
          "internalType": "address",
          "name": "to",
          "type": "address"
        },
        {
          "indexed": false,
          "internalType": "uint256[]",
          "name": "ids",
          "type": "uint256[]"
        },
        {
          "indexed": false,
          "internalType": "uint256[]",
          "name": "values",
          "type": "uint256[]"
        }
      ],
      "name": "TransferBatch",
      "type": "event"
    },
    {
      "anonymous": false,
      "inputs": [
        {
          "indexed": true,
          "internalType": "address",
          "name": "operator",
          "type": "address"
        },
        {
          "indexed": true,
          "internalType": "address",
          "name": "from",
          "type": "address"
        },
        {
          "indexed": true,
          "internalType": "address",
          "name": "to",
          "type": "address"
        },
        {
          "indexed": false,
          "internalType": "uint256",
          "name": "id",
          "type": "uint256"
        },
        {
          "indexed": false,
          "internalType": "uint256",
          "name": "value",
          "type": "uint256"
        }
      ],
      "name": "TransferSingle",
      "type": "event"
    },
    {
      "anonymous": false,
      "inputs": [
        {
          "indexed": false,
          "internalType": "string",
          "name": "value",
          "type": "string"
        },
        {
          "indexed": true,
          "internalType": "uint256",
          "name": "id",
          "type": "uint256"
        }
      ],
      "name": "URI",
      "type": "event"
    },
    {
      "anonymous": false,
      "inputs": [
        {
          "indexed": false,
          "internalType": "uint256",
          "name": "idToken",
          "type": "uint256"
        },
        {
          "indexed": false,
          "internalType": "uint256",
          "name": "supplyCottage",
          "type": "uint256"
        },
        {
          "indexed": false,
          "internalType": "uint256",
          "name": "supplyVilla",
          "type": "uint256"
        },
        {
          "indexed": false,
          "internalType": "uint256",
          "name": "supplyMansion",
          "type": "uint256"
        },
        {
          "indexed": false,
          "internalType": "uint256",
          "name": "supplyHighRise",
          "type": "uint256"
        }
      ],
      "name": "supplyCardsCalculated",
      "type": "event"
    },
    {
      "anonymous": false,
      "inputs": [
        {
          "indexed": false,
          "internalType": "uint256",
          "name": "idRealEstate",
          "type": "uint256"
        }
      ],
      "name": "tokenMinted",
      "type": "event"
    },
    {
      "inputs": [
        {
          "internalType": "uint256",
          "name": "",
          "type": "uint256"
        }
      ],
      "name": "Listings",
      "outputs": [
        {
          "internalType": "uint256",
          "name": "tokenId",
          "type": "uint256"
        },
        {
          "internalType": "uint256",
          "name": "price",
          "type": "uint256"
        },
        {
          "internalType": "uint256",
          "name": "quantity",
          "type": "uint256"
        },
        {
          "internalType": "address payable",
          "name": "seller",
          "type": "address"
        },
        {
          "internalType": "address payable",
          "name": "owner",
          "type": "address"
        }
      ],
      "stateMutability": "view",
      "type": "function",
      "constant": true
    },
    {
      "inputs": [
        {
          "internalType": "address",
          "name": "account",
          "type": "address"
        },
        {
          "internalType": "uint256",
          "name": "id",
          "type": "uint256"
        }
      ],
      "name": "balanceOf",
      "outputs": [
        {
          "internalType": "uint256",
          "name": "",
          "type": "uint256"
        }
      ],
      "stateMutability": "view",
      "type": "function",
      "constant": true
    },
    {
      "inputs": [
        {
          "internalType": "address[]",
          "name": "accounts",
          "type": "address[]"
        },
        {
          "internalType": "uint256[]",
          "name": "ids",
          "type": "uint256[]"
        }
      ],
      "name": "balanceOfBatch",
      "outputs": [
        {
          "internalType": "uint256[]",
          "name": "",
          "type": "uint256[]"
        }
      ],
      "stateMutability": "view",
      "type": "function",
      "constant": true
    },
    {
      "inputs": [
        {
          "internalType": "address",
          "name": "account",
          "type": "address"
        },
        {
          "internalType": "address",
          "name": "operator",
          "type": "address"
        }
      ],
      "name": "isApprovedForAll",
      "outputs": [
        {
          "internalType": "bool",
          "name": "",
          "type": "bool"
        }
      ],
      "stateMutability": "view",
      "type": "function",
      "constant": true
    },
    {
      "inputs": [],
      "name": "name",
      "outputs": [
        {
          "internalType": "string",
          "name": "",
          "type": "string"
        }
      ],
      "stateMutability": "view",
      "type": "function",
      "constant": true
    },
    {
      "inputs": [],
      "name": "owner",
      "outputs": [
        {
          "internalType": "address",
          "name": "",
          "type": "address"
        }
      ],
      "stateMutability": "view",
      "type": "function",
      "constant": true
    },
    {
      "inputs": [
        {
          "internalType": "uint256",
          "name": "",
          "type": "uint256"
        }
      ],
      "name": "realEstatesCollection",
      "outputs": [
        {
          "internalType": "uint256",
          "name": "id",
          "type": "uint256"
        },
        {
          "internalType": "string",
          "name": "name",
          "type": "string"
        },
        {
          "internalType": "string",
          "name": "location",
          "type": "string"
        },
        {
          "internalType": "string",
          "name": "city",
          "type": "string"
        },
        {
          "internalType": "string",
          "name": "cid",
          "type": "string"
        },
        {
          "internalType": "uint256",
          "name": "price",
          "type": "uint256"
        }
      ],
      "stateMutability": "view",
      "type": "function",
      "constant": true
    },
    {
      "inputs": [],
      "name": "renounceOwnership",
      "outputs": [],
      "stateMutability": "nonpayable",
      "type": "function"
    },
    {
      "inputs": [
        {
          "internalType": "uint256",
          "name": "_tokenId",
          "type": "uint256"
        },
        {
          "internalType": "uint256",
          "name": "_salePrice",
          "type": "uint256"
        }
      ],
      "name": "royaltyInfo",
      "outputs": [
        {
          "internalType": "address",
          "name": "",
          "type": "address"
        },
        {
          "internalType": "uint256",
          "name": "",
          "type": "uint256"
        }
      ],
      "stateMutability": "view",
      "type": "function",
      "constant": true
    },
    {
      "inputs": [
        {
          "internalType": "address",
          "name": "from",
          "type": "address"
        },
        {
          "internalType": "address",
          "name": "to",
          "type": "address"
        },
        {
          "internalType": "uint256[]",
          "name": "ids",
          "type": "uint256[]"
        },
        {
          "internalType": "uint256[]",
          "name": "amounts",
          "type": "uint256[]"
        },
        {
          "internalType": "bytes",
          "name": "data",
          "type": "bytes"
        }
      ],
      "name": "safeBatchTransferFrom",
      "outputs": [],
      "stateMutability": "nonpayable",
      "type": "function"
    },
    {
      "inputs": [
        {
          "internalType": "address",
          "name": "from",
          "type": "address"
        },
        {
          "internalType": "address",
          "name": "to",
          "type": "address"
        },
        {
          "internalType": "uint256",
          "name": "id",
          "type": "uint256"
        },
        {
          "internalType": "uint256",
          "name": "amount",
          "type": "uint256"
        },
        {
          "internalType": "bytes",
          "name": "data",
          "type": "bytes"
        }
      ],
      "name": "safeTransferFrom",
      "outputs": [],
      "stateMutability": "nonpayable",
      "type": "function"
    },
    {
      "inputs": [
        {
          "internalType": "address",
          "name": "operator",
          "type": "address"
        },
        {
          "internalType": "bool",
          "name": "approved",
          "type": "bool"
        }
      ],
      "name": "setApprovalForAll",
      "outputs": [],
      "stateMutability": "nonpayable",
      "type": "function"
    },
    {
      "inputs": [],
      "name": "symbol",
      "outputs": [
        {
          "internalType": "string",
          "name": "",
          "type": "string"
        }
      ],
      "stateMutability": "view",
      "type": "function",
      "constant": true
    },
    {
      "inputs": [
        {
          "internalType": "address",
          "name": "newOwner",
          "type": "address"
        }
      ],
      "name": "transferOwnership",
      "outputs": [],
      "stateMutability": "nonpayable",
      "type": "function"
    },
    {
      "inputs": [
        {
          "internalType": "uint256",
          "name": "",
          "type": "uint256"
        }
      ],
      "name": "uri",
      "outputs": [
        {
          "internalType": "string",
          "name": "",
          "type": "string"
        }
      ],
      "stateMutability": "view",
      "type": "function",
      "constant": true
    },
    {
      "inputs": [
        {
          "internalType": "uint256",
          "name": "",
          "type": "uint256"
        },
        {
          "internalType": "uint256",
          "name": "",
          "type": "uint256"
        },
        {
          "internalType": "address",
          "name": "",
          "type": "address"
        }
      ],
      "name": "usersCardsNfts",
      "outputs": [
        {
          "internalType": "uint256",
          "name": "tokenId",
          "type": "uint256"
        },
        {
          "internalType": "uint256",
          "name": "price",
          "type": "uint256"
        },
        {
          "internalType": "uint256",
          "name": "quantity",
          "type": "uint256"
        },
        {
          "internalType": "address payable",
          "name": "seller",
          "type": "address"
        },
        {
          "internalType": "address payable",
          "name": "owner",
          "type": "address"
        }
      ],
      "stateMutability": "view",
      "type": "function",
      "constant": true
    },
    {
      "inputs": [
        {
          "internalType": "bytes4",
          "name": "interfaceId",
          "type": "bytes4"
        }
      ],
      "name": "supportsInterface",
      "outputs": [
        {
          "internalType": "bool",
          "name": "",
          "type": "bool"
        }
      ],
      "stateMutability": "view",
      "type": "function",
      "constant": true
    },
    {
      "inputs": [
        {
          "internalType": "string",
          "name": "_name",
          "type": "string"
        },
        {
          "internalType": "string",
          "name": "_location",
          "type": "string"
        },
        {
          "internalType": "string",
          "name": "_city",
          "type": "string"
        },
        {
          "internalType": "string",
          "name": "_cid",
          "type": "string"
        },
        {
          "internalType": "uint256",
          "name": "_price",
          "type": "uint256"
        }
      ],
      "name": "addRealEstate",
      "outputs": [],
      "stateMutability": "nonpayable",
      "type": "function"
    },
    {
      "inputs": [],
      "name": "getRealEstatesCollectionCount",
      "outputs": [
        {
          "internalType": "uint256",
          "name": "",
          "type": "uint256"
        }
      ],
      "stateMutability": "view",
      "type": "function",
      "constant": true
    },
    {
      "inputs": [
        {
          "internalType": "uint256",
          "name": "_index",
          "type": "uint256"
        }
      ],
      "name": "getRealStateById",
      "outputs": [
        {
          "components": [
            {
              "internalType": "uint256",
              "name": "id",
              "type": "uint256"
            },
            {
              "internalType": "string",
              "name": "name",
              "type": "string"
            },
            {
              "internalType": "string",
              "name": "location",
              "type": "string"
            },
            {
              "internalType": "string",
              "name": "city",
              "type": "string"
            },
            {
              "internalType": "string",
              "name": "cid",
              "type": "string"
            },
            {
              "internalType": "uint256",
              "name": "price",
              "type": "uint256"
            }
          ],
          "internalType": "struct Rock.RealEstate",
          "name": "",
          "type": "tuple"
        }
      ],
      "stateMutability": "view",
      "type": "function",
      "constant": true
    },
    {
      "inputs": [
        {
          "internalType": "uint256",
          "name": "_indexRealEstateInCollection",
          "type": "uint256"
        },
        {
          "internalType": "bool",
          "name": "_isDefaultSupply",
          "type": "bool"
        },
        {
          "internalType": "uint256",
          "name": "_ratioTokenCottage",
          "type": "uint256"
        },
        {
          "internalType": "uint256",
          "name": "_ratioTokenVilla",
          "type": "uint256"
        },
        {
          "internalType": "uint256",
          "name": "_ratioTokenMansion",
          "type": "uint256"
        },
        {
          "internalType": "uint256",
          "name": "_prixTokenCottage",
          "type": "uint256"
        },
        {
          "internalType": "uint256",
          "name": "_prixTokenVilla",
          "type": "uint256"
        },
        {
          "internalType": "uint256",
          "name": "_prixTokenMansion",
          "type": "uint256"
        },
        {
          "internalType": "uint256",
          "name": "_prixTokenHighRise",
          "type": "uint256"
        }
      ],
      "name": "calculateNumberOfTokens",
      "outputs": [],
      "stateMutability": "nonpayable",
      "type": "function"
    },
    {
      "inputs": [
        {
          "internalType": "uint256",
          "name": "_indexRealEstateInCollection",
          "type": "uint256"
        }
      ],
      "name": "mintRealEstateCollection",
      "outputs": [],
      "stateMutability": "nonpayable",
      "type": "function"
    },
    {
      "inputs": [
        {
          "internalType": "uint256",
          "name": "_indexRealEstateInCollection",
          "type": "uint256"
        },
        {
          "internalType": "uint256",
          "name": "_cardId",
          "type": "uint256"
        }
      ],
      "name": "getCard",
      "outputs": [
        {
          "components": [
            {
              "internalType": "uint256",
              "name": "tokenId",
              "type": "uint256"
            },
            {
              "internalType": "uint256",
              "name": "cardId",
              "type": "uint256"
            },
            {
              "internalType": "uint256",
              "name": "price",
              "type": "uint256"
            },
            {
              "internalType": "uint256",
              "name": "numberOfTokens",
              "type": "uint256"
            },
            {
              "internalType": "uint256",
              "name": "ratioOfTokensInPercent",
              "type": "uint256"
            },
            {
              "internalType": "uint256",
              "name": "royalty",
              "type": "uint256"
            },
            {
              "internalType": "uint256",
              "name": "balance",
              "type": "uint256"
            }
          ],
          "internalType": "struct Rock.Card",
          "name": "",
          "type": "tuple"
        }
      ],
      "stateMutability": "view",
      "type": "function",
      "constant": true
    },
    {
      "inputs": [
        {
          "internalType": "uint256",
          "name": "_indexRealEstateInCollection",
          "type": "uint256"
        },
        {
          "internalType": "uint256[]",
          "name": "_cardsId",
          "type": "uint256[]"
        },
        {
          "internalType": "uint256[]",
          "name": "_amounts",
          "type": "uint256[]"
        }
      ],
      "name": "calculeTotalPrice",
      "outputs": [
        {
          "internalType": "uint256",
          "name": "",
          "type": "uint256"
        }
      ],
      "stateMutability": "view",
      "type": "function",
      "constant": true
    },
    {
      "inputs": [
        {
          "internalType": "uint256",
          "name": "_fee",
          "type": "uint256"
        }
      ],
      "name": "setFee",
      "outputs": [],
      "stateMutability": "nonpayable",
      "type": "function"
    },
    {
      "inputs": [],
      "name": "getLatestPrice",
      "outputs": [
        {
          "internalType": "uint256",
          "name": "",
          "type": "uint256"
        }
      ],
      "stateMutability": "view",
      "type": "function",
      "constant": true
    },
    {
      "inputs": [],
      "name": "withdraw",
      "outputs": [],
      "stateMutability": "nonpayable",
      "type": "function"
    },
    {
      "inputs": [
        {
          "internalType": "uint256",
          "name": "_amount",
          "type": "uint256"
        }
      ],
      "name": "getLastPairMaticUsd",
      "outputs": [
        {
          "internalType": "uint256",
          "name": "",
          "type": "uint256"
        }
      ],
      "stateMutability": "view",
      "type": "function",
      "constant": true
    },
    {
      "inputs": [],
      "name": "getOwner",
      "outputs": [
        {
          "internalType": "address",
          "name": "",
          "type": "address"
        }
      ],
      "stateMutability": "view",
      "type": "function",
      "constant": true
    }
  ],
  "bytecode": "0x61138860095560c0604052600f60809081526e2937b1b59021b7b63632b1ba34b7b760891b60a052600a90620000369082620002ee565b50604080518082019091526004815263526f636b60e01b6020820152600b90620000619082620002ee565b503480156200006f57600080fd5b506040518060800160405280605a8152602001620042ca605a91396200009581620000e0565b50620000a133620000f2565b6001600655620000b433611f4062000144565b601080546001600160a01b03191673d4a33860578de61dbabdc8bfdb98fd742fa7028e179055620003ba565b6002620000ee8282620002ee565b5050565b600580546001600160a01b038381166001600160a01b0319831681179093556040519116919082907f8be0079c531659141344cd1fd0a4f28419497f9722a3daafe3b4186f6b6457e090600090a35050565b6127106001600160601b0382161115620001b85760405162461bcd60e51b815260206004820152602a60248201527f455243323938313a20726f79616c7479206665652077696c6c206578636565646044820152692073616c65507269636560b01b60648201526084015b60405180910390fd5b6001600160a01b038216620002105760405162461bcd60e51b815260206004820152601960248201527f455243323938313a20696e76616c6964207265636569766572000000000000006044820152606401620001af565b604080518082019091526001600160a01b039092168083526001600160601b039091166020909201829052600160a01b90910217600355565b634e487b7160e01b600052604160045260246000fd5b600181811c908216806200027457607f821691505b6020821081036200029557634e487b7160e01b600052602260045260246000fd5b50919050565b601f821115620002e957600081815260208120601f850160051c81016020861015620002c45750805b601f850160051c820191505b81811015620002e557828155600101620002d0565b5050505b505050565b81516001600160401b038111156200030a576200030a62000249565b62000322816200031b84546200025f565b846200029b565b602080601f8311600181146200035a5760008415620003415750858301515b600019600386901b1c1916600185901b178555620002e5565b600085815260208120601f198616915b828110156200038b578886015182559484019460019091019084016200036a565b5085821015620003aa5787850151600019600388901b60f8161c191681555b5050505050600190811b01905550565b613f0080620003ca6000396000f3fe608060405234801561001057600080fd5b50600436106101ce5760003560e01c80636f7789a611610104578063a22cb465116100a2578063f242432a11610071578063f242432a146104ec578063f2a54c04146104ff578063f2fde38b14610507578063fdac310f1461051a57600080fd5b8063a22cb46514610477578063d1e8c4aa1461048a578063d3eb41481461049d578063e985e9c5146104b057600080fd5b80638da5cb5b116100de5780638da5cb5b146104315780638e15f4731461044257806395d89b411461044a578063a0f4651a1461045257600080fd5b80636f7789a6146103f6578063715018a614610409578063893d20e81461041157600080fd5b80632eb2c2d61161017157806338d913bc1161014b57806338d913bc146103a85780633ccfd60b146103bb5780634e1273f4146103c357806369fe0e2d146103e357600080fd5b80632eb2c2d6146103195780633079a8dd1461032c57806333caeb941461039557600080fd5b806304643755116101ad578063046437551461023157806306fdde03146102bf5780630e89341c146102d45780632a55205a146102e757600080fd5b8062fdd58e146101d3578063012f375f146101f957806301ffc9a71461020e575b600080fd5b6101e66101e136600461308c565b61053a565b6040519081526020015b60405180910390f35b61020c610207366004613186565b6105e6565b005b61022161021c366004613269565b610aa3565b60405190151581526020016101f0565b61028b61023f36600461328d565b600e602090815260009384526040808520825292845282842090528252902080546001820154600283015460038401546004909401549293919290916001600160a01b03908116911685565b604080519586526020860194909452928401919091526001600160a01b03908116606084015216608082015260a0016101f0565b6102c7610aae565b6040516101f09190613308565b6102c76102e236600461331b565b610b3c565b6102fa6102f5366004613334565b610bd0565b604080516001600160a01b0390931683526020830191909152016101f0565b61020c6103273660046133e0565b610caf565b61033f61033a366004613334565b610d51565b6040516101f09190600060e082019050825182526020830151602083015260408301516040830152606083015160608301526080830151608083015260a083015160a083015260c083015160c083015292915050565b61028b6103a336600461331b565b610e11565b6101e66103b63660046134cf565b610e5f565b61020c61107d565b6103d66103d1366004613549565b611111565b6040516101f0919061364f565b61020c6103f136600461331b565b61124f565b61020c61040436600461331b565b61125c565b61020c61139e565b6104196113b2565b6040516001600160a01b0390911681526020016101f0565b6005546001600160a01b0316610419565b6101e66113cb565b6102c76114e4565b61046561046036600461331b565b6114f1565b6040516101f096959493929190613662565b61020c6104853660046136d9565b611759565b61020c61049836600461370c565b611768565b6101e66104ab36600461331b565b611de5565b6102216104be366004613776565b6001600160a01b03918216600090815260016020908152604080832093909416825291909152205460ff1690565b61020c6104fa3660046137a0565b611def565b600c546101e6565b61020c610515366004613805565b611e8a565b61052d61052836600461331b565b611f17565b6040516101f09190613820565b60006001600160a01b0383166105bd5760405162461bcd60e51b815260206004820152602a60248201527f455243313135353a2061646472657373207a65726f206973206e6f742061207660448201527f616c6964206f776e65720000000000000000000000000000000000000000000060648201526084015b60405180910390fd5b506000818152602081815260408083206001600160a01b03861684529091529020545b92915050565b6105ee612230565b60405160200161060990602080825260009082015260400190565b60405160208183030381529060405280519060200120856040516020016106309190613308565b60405160208183030381529060405280519060200120036106b95760405162461bcd60e51b815260206004820152602e60248201527f4c65206e6f6d2064752070726f6772616d6d6520696d6d6f62696c696572206560448201527f7374206f626c696761746f69726500000000000000000000000000000000000060648201526084016105b4565b6040516020016106d490602080825260009082015260400190565b60405160208183030381529060405280519060200120846040516020016106fb9190613308565b604051602081830303815290604052805190602001200361075e5760405162461bcd60e51b815260206004820152601c60248201527f4c6120736974756174696f6e20657374206f626c696761746f6972650000000060448201526064016105b4565b60405160200161077990602080825260009082015260400190565b60405160208183030381529060405280519060200120836040516020016107a09190613308565b60405160208183030381529060405280519060200120036108035760405162461bcd60e51b815260206004820152601860248201527f4c612076696c6c6520657374206f626c696761746f697265000000000000000060448201526064016105b4565b60405160200161081e90602080825260009082015260400190565b60405160208183030381529060405280519060200120826040516020016108459190613308565b60405160208183030381529060405280519060200120036108a85760405162461bcd60e51b815260206004820152601660248201527f4c652063696420657374206f626c696761746f6972650000000000000000000060448201526064016105b4565b61c350811161091f5760405162461bcd60e51b815260206004820152603860248201527f4572726575722c206c652070726978206475206269656e20696d6d6f20646f6960448201527f742065747265207375706572696575722061203530303030000000000000000060648201526084016105b4565b61092d600880546001019055565b6109666040518060c001604052806000815260200160608152602001606081526020016060815260200160608152602001600081525090565b60085481526020810186815260408201869052606082018590526080820184905260a08201839052600c8054600181018255600091909152825160069091027fdf6966c971051c3d54ec59162606531493a51404a002842f56009d7e5cf4a8c78101918255915183927fdf6966c971051c3d54ec59162606531493a51404a002842f56009d7e5cf4a8c801906109fc9082613954565b5060408201516002820190610a119082613954565b5060608201516003820190610a269082613954565b5060808201516004820190610a3b9082613954565b5060a08201518160050155505060006001610a5560085490565b610a5f9190613a7f565b90507ff25ea05cc68cbe6d2d1abce09caf6545e2282a00caed6975ebba55f38de5372081604051610a9291815260200190565b60405180910390a150505050505050565b60006105e08261228a565b600a8054610abb906138b6565b80601f0160208091040260200160405190810160405280929190818152602001828054610ae7906138b6565b8015610b345780601f10610b0957610100808354040283529160200191610b34565b820191906000526020600020905b815481529060010190602001808311610b1757829003601f168201915b505050505081565b606060028054610b4b906138b6565b80601f0160208091040260200160405190810160405280929190818152602001828054610b77906138b6565b8015610bc45780601f10610b9957610100808354040283529160200191610bc4565b820191906000526020600020905b815481529060010190602001808311610ba757829003601f168201915b50505050509050919050565b60008281526004602090815260408083208151808301909252546001600160a01b038116808352740100000000000000000000000000000000000000009091046bffffffffffffffffffffffff16928201929092528291610c715750604080518082019091526003546001600160a01b03811682527401000000000000000000000000000000000000000090046bffffffffffffffffffffffff1660208201525b602081015160009061271090610c95906bffffffffffffffffffffffff1687613a92565b610c9f9190613aa9565b91519350909150505b9250929050565b6001600160a01b038516331480610ccb5750610ccb85336104be565b610d3d5760405162461bcd60e51b815260206004820152602e60248201527f455243313135353a2063616c6c6572206973206e6f7420746f6b656e206f776e60448201527f6572206f7220617070726f76656400000000000000000000000000000000000060648201526084016105b4565b610d4a85858585856122e0565b5050505050565b610d916040518060e00160405280600081526020016000815260200160008152602001600081526020016000815260200160008152602001600081525090565b6000838152600f602052604081208360048110610db057610db0613ae4565b600702016040518060e001604052908160008201548152602001600182015481526020016002820154815260200160038201548152602001600482015481526020016005820154815260200160068201548152505090508091505092915050565b600d8181548110610e2157600080fd5b600091825260209091206005909102018054600182015460028301546003840154600490940154929450909290916001600160a01b03918216911685565b600081610eae5760405162461bcd60e51b815260206004820152601760248201527f417563756e206d6f6e74616e742072656e736569676e6500000000000000000060448201526064016105b4565b83610efb5760405162461bcd60e51b815260206004820152601860248201527f417563756e2063617274652073656c656374696f6e6e6565000000000000000060448201526064016105b4565b600c548610610f4c5760405162461bcd60e51b815260206004820152601a60248201527f4269656e20696d6d6f62696c69657220696e6578697374616e7400000000000060448201526064016105b4565b6000805b85811015611072576000878783818110610f6c57610f6c613ae4565b9050602002013510158015610f9a57506003878783818110610f9057610f90613ae4565b9050602002013511155b610fe65760405162461bcd60e51b815260206004820152600e60248201527f436172746520696e636f6e6e756500000000000000000000000000000000000060448201526064016105b4565b6000878783818110610ffa57610ffa613ae4565b90506020020135905085858381811061101557611015613ae4565b90506020020135600f60008b8152602001908152602001600020826004811061104057611040613ae4565b60070201600201546110529190613a92565b61105c9084613b13565b925050808061106a90613b26565b915050610f50565b509695505050505050565b611085612230565b600047116110d55760405162461bcd60e51b815260206004820152600b60248201527f42616c616e63652061203000000000000000000000000000000000000000000060448201526064016105b4565b6005546040516001600160a01b03909116904780156108fc02916000818181858888f1935050505015801561110e573d6000803e3d6000fd5b50565b6060815183511461118a5760405162461bcd60e51b815260206004820152602960248201527f455243313135353a206163636f756e747320616e6420696473206c656e67746860448201527f206d69736d61746368000000000000000000000000000000000000000000000060648201526084016105b4565b6000835167ffffffffffffffff8111156111a6576111a66130b6565b6040519080825280602002602001820160405280156111cf578160200160208202803683370190505b50905060005b84518110156112475761121a8582815181106111f3576111f3613ae4565b602002602001015185838151811061120d5761120d613ae4565b602002602001015161053a565b82828151811061122c5761122c613ae4565b602090810291909101015261124081613b26565b90506111d5565b509392505050565b611257612230565b600955565b611264612230565b600c548111156112dc5760405162461bcd60e51b815260206004820152602d60248201527f496e646578206475206269656e20696d6d6f62696c69657220656e206465686f60448201527f7273206475207461626c6561750000000000000000000000000000000000000060648201526084016105b4565b6000818152600f6020526040902054156113385760405162461bcd60e51b815260206004820152601b60248201527f4c65206d696e7420612064656a6120657465206566666563747565000000000060448201526064016105b4565b61134360008261257e565b5061134f60018261257e565b5061135b60028261257e565b5061136760038261257e565b506040518181527fff4078d3a7633c1bd56ae05b46cf944f917a32264ef635cbc026a7efe2e473689060200160405180910390a150565b6113a6612230565b6113b06000612761565b565b60006113c66005546001600160a01b031690565b905090565b600080601060009054906101000a90046001600160a01b03166001600160a01b031663feaf968c6040518163ffffffff1660e01b815260040160a060405180830381865afa158015611421573d6000803e3d6000fd5b505050506040513d601f19601f820116820180604052508101906114459190613b78565b5050509150506000601060009054906101000a90046001600160a01b03166001600160a01b031663313ce5676040518163ffffffff1660e01b8152600401602060405180830381865afa1580156114a0573d6000803e3d6000fd5b505050506040513d601f19601f820116820180604052508101906114c49190613bc8565b9050816114d282600a613d0b565b6114dc9082613aa9565b935050505090565b600b8054610abb906138b6565b600c818154811061150157600080fd5b60009182526020909120600690910201805460018201805491935090611526906138b6565b80601f0160208091040260200160405190810160405280929190818152602001828054611552906138b6565b801561159f5780601f106115745761010080835404028352916020019161159f565b820191906000526020600020905b81548152906001019060200180831161158257829003601f168201915b5050505050908060020180546115b4906138b6565b80601f01602080910402602001604051908101604052809291908181526020018280546115e0906138b6565b801561162d5780601f106116025761010080835404028352916020019161162d565b820191906000526020600020905b81548152906001019060200180831161161057829003601f168201915b505050505090806003018054611642906138b6565b80601f016020809104026020016040519081016040528092919081815260200182805461166e906138b6565b80156116bb5780601f10611690576101008083540402835291602001916116bb565b820191906000526020600020905b81548152906001019060200180831161169e57829003601f168201915b5050505050908060040180546116d0906138b6565b80601f01602080910402602001604051908101604052809291908181526020018280546116fc906138b6565b80156117495780601f1061171e57610100808354040283529160200191611749565b820191906000526020600020905b81548152906001019060200180831161172c57829003601f168201915b5050505050908060050154905086565b6117643383836127cb565b5050565b611770612230565b600c548911156117e85760405162461bcd60e51b815260206004820152602d60248201527f496e646578206475206269656e20696d6d6f62696c69657220656e206465686f60448201527f7273206475207461626c6561750000000000000000000000000000000000000060648201526084016105b4565b6064871080156117f85750606486105b80156118045750606485105b6118765760405162461bcd60e51b815260206004820152602360248201527f4572726575722c20756e2064657320706f757263656e7461676573206573742060448201527f612030000000000000000000000000000000000000000000000000000000000060648201526084016105b4565b60328410156118ed5760405162461bcd60e51b815260206004820152603b60248201527f4572726575722c206c652070726978206d696e696d756d206465206c6120636160448201527f72746520434f545441474520646f69742065747265206465203530000000000060648201526084016105b4565b60648310156119645760405162461bcd60e51b815260206004820152603a60248201527f4572726575722c206c652070726978206d696e696d756d206465206c6120636160448201527f7274652056494c4c4120646f697420657472652064652031303000000000000060648201526084016105b4565b60968210156119db5760405162461bcd60e51b815260206004820152603c60248201527f4572726575722c206c652070726978206d696e696d756d206465206c6120636160448201527f727465204d414e53494f4e20646f69742065747265206465203135300000000060648201526084016105b4565b87806119f85750861580156119ee575085155b80156119f8575084155b15611a0a5760329650601e9550601494505b6000898152600f60209081526040808320815160e08101835284815292830184905290820187905260608201839052608082018a9052601e60a083015260c0820183905291829060070201600082015181600001556020820151816001015560408201518160020155606082015181600301556080820151816004015560a0820151816005015560c082015181600601559050506040518060e00160405280600181526020016000815260200185815260200160008152602001888152602001601e8152602001600081525081600160048110611ae957611ae9613ae4565b60070201600082015181600001556020820151816001015560408201518160020155606082015181600301556080820151816004015560a0820151816005015560c082015181600601559050506040518060e00160405280600281526020016000815260200184815260200160008152602001878152602001601e8152602001600081525081600260048110611b8157611b81613ae4565b60070201600082015181600001556020820151816001015560408201518160020155606082015181600301556080820151816004015560a0820151816005015560c082015181600601559050506040518060e0016040528060038152602001600081526020018381526020016001815260200160008152602001601e8152602001600081525081600360048110611c1a57611c1a613ae4565b60070201600082015181600001556020820151816001015560408201518160020155606082015181600301556080820151816004015560a0820151816005015560c082015181600601559050506000826001611c769190613a92565b600c8c81548110611c8957611c89613ae4565b906000526020600020906006020160050154611ca59190613a7f565b9050606460005b6003811015611d4b5760008d8152600f602052604081208260048110611cd457611cd4613ae4565b6007020190508060030154600003611d38576000838260040154611cf89190613a92565b90506000611d07856064613a92565b611d118388613a92565b611d1b9190613aa9565b90506000836002015482611d2f9190613aa9565b60038501555050505b5080611d4381613b26565b915050611cac565b506003830154600a8401547f01f6ecbad523aa4ebc65b0e3c80ebd687c182bea84d78431cac0754a2fd7c192918e91866002600702016003015487600360048110611d9857611d98613ae4565b6007020160030154604051611dcf959493929190948552602085019390935260408401919091526060830152608082015260a00190565b60405180910390a1505050505050505050505050565b60006105e06113cb565b6001600160a01b038516331480611e0b5750611e0b85336104be565b611e7d5760405162461bcd60e51b815260206004820152602e60248201527f455243313135353a2063616c6c6572206973206e6f7420746f6b656e206f776e60448201527f6572206f7220617070726f76656400000000000000000000000000000000000060648201526084016105b4565b610d4a85858585856128dd565b611e92612230565b6001600160a01b038116611f0e5760405162461bcd60e51b815260206004820152602660248201527f4f776e61626c653a206e6577206f776e657220697320746865207a65726f206160448201527f646472657373000000000000000000000000000000000000000000000000000060648201526084016105b4565b61110e81612761565b611f506040518060c001604052806000815260200160608152602001606081526020016060815260200160608152602001600081525090565b600c548210611fa15760405162461bcd60e51b815260206004820152601a60248201527f4269656e20696d6d6f62696c69657220696e6578697374616e7400000000000060448201526064016105b4565b600c8281548110611fb457611fb4613ae4565b90600052602060002090600602016040518060c001604052908160008201548152602001600182018054611fe7906138b6565b80601f0160208091040260200160405190810160405280929190818152602001828054612013906138b6565b80156120605780601f1061203557610100808354040283529160200191612060565b820191906000526020600020905b81548152906001019060200180831161204357829003601f168201915b50505050508152602001600282018054612079906138b6565b80601f01602080910402602001604051908101604052809291908181526020018280546120a5906138b6565b80156120f25780601f106120c7576101008083540402835291602001916120f2565b820191906000526020600020905b8154815290600101906020018083116120d557829003601f168201915b5050505050815260200160038201805461210b906138b6565b80601f0160208091040260200160405190810160405280929190818152602001828054612137906138b6565b80156121845780601f1061215957610100808354040283529160200191612184565b820191906000526020600020905b81548152906001019060200180831161216757829003601f168201915b5050505050815260200160048201805461219d906138b6565b80601f01602080910402602001604051908101604052809291908181526020018280546121c9906138b6565b80156122165780601f106121eb57610100808354040283529160200191612216565b820191906000526020600020905b8154815290600101906020018083116121f957829003601f168201915b505050505081526020016005820154815250509050919050565b6005546001600160a01b031633146113b05760405162461bcd60e51b815260206004820181905260248201527f4f776e61626c653a2063616c6c6572206973206e6f7420746865206f776e657260448201526064016105b4565b60007fffffffff0000000000000000000000000000000000000000000000000000000082167f2a55205a0000000000000000000000000000000000000000000000000000000014806105e057506105e082612ab3565b81518351146123575760405162461bcd60e51b815260206004820152602860248201527f455243313135353a2069647320616e6420616d6f756e7473206c656e6774682060448201527f6d69736d6174636800000000000000000000000000000000000000000000000060648201526084016105b4565b6001600160a01b0384166123d35760405162461bcd60e51b815260206004820152602560248201527f455243313135353a207472616e7366657220746f20746865207a65726f20616460448201527f647265737300000000000000000000000000000000000000000000000000000060648201526084016105b4565b3360005b84518110156125105760008582815181106123f4576123f4613ae4565b60200260200101519050600085838151811061241257612412613ae4565b602090810291909101810151600084815280835260408082206001600160a01b038e1683529093529190912054909150818110156124b85760405162461bcd60e51b815260206004820152602a60248201527f455243313135353a20696e73756666696369656e742062616c616e636520666f60448201527f72207472616e736665720000000000000000000000000000000000000000000060648201526084016105b4565b6000838152602081815260408083206001600160a01b038e8116855292528083208585039055908b168252812080548492906124f5908490613b13565b925050819055505050508061250990613b26565b90506123d7565b50846001600160a01b0316866001600160a01b0316826001600160a01b03167f4a39dc06d4c0dbc64b70af90fd698a233a518aa5d07e595d983b8c0526c8f7fb8787604051612560929190613d1a565b60405180910390a4612576818787878787612b96565b505050505050565b6000612588612230565b612596600780546001019055565b60006125a160075490565b905060006125b76005546001600160a01b031690565b6000858152600f602052604081209192509086600481106125da576125da613ae4565b6007020160030154905082600f6000878152602001908152602001600020876004811061260957612609613ae4565b600702015560408051602081019091526000815261262c90839085908490612da3565b6000858152600f6020526040812061265b908490896004811061265157612651613ae4565b600702015461053a565b6000878152600e6020908152604080832088845282528083206001600160a01b038816845282528083208a8452600f9092529091209192509088600481106126a5576126a5613ae4565b600702015481556000878152600f6020526040902088600481106126cb576126cb613ae4565b6007020160029081015460018301558101829055600480820180547fffffffffffffffffffffffff00000000000000000000000000000000000000009081166001600160a01b03881690811790925560038401805490911690911790556000888152600f6020526040902083918a90811061274857612748613ae4565b6007020160060181905550849550505050505092915050565b600580546001600160a01b038381167fffffffffffffffffffffffff0000000000000000000000000000000000000000831681179093556040519116919082907f8be0079c531659141344cd1fd0a4f28419497f9722a3daafe3b4186f6b6457e090600090a35050565b816001600160a01b0316836001600160a01b0316036128525760405162461bcd60e51b815260206004820152602960248201527f455243313135353a2073657474696e6720617070726f76616c2073746174757360448201527f20666f722073656c66000000000000000000000000000000000000000000000060648201526084016105b4565b6001600160a01b0383811660008181526001602090815260408083209487168084529482529182902080547fffffffffffffffffffffffffffffffffffffffffffffffffffffffffffffff001686151590811790915591519182527f17307eab39ab6107e8899845ad3d59bd9653f200f220920489ca2b5937696c31910160405180910390a3505050565b6001600160a01b0384166129595760405162461bcd60e51b815260206004820152602560248201527f455243313135353a207472616e7366657220746f20746865207a65726f20616460448201527f647265737300000000000000000000000000000000000000000000000000000060648201526084016105b4565b33600061296585612eca565b9050600061297285612eca565b90506000868152602081815260408083206001600160a01b038c16845290915290205485811015612a0b5760405162461bcd60e51b815260206004820152602a60248201527f455243313135353a20696e73756666696369656e742062616c616e636520666f60448201527f72207472616e736665720000000000000000000000000000000000000000000060648201526084016105b4565b6000878152602081815260408083206001600160a01b038d8116855292528083208985039055908a16825281208054889290612a48908490613b13565b909155505060408051888152602081018890526001600160a01b03808b16928c821692918816917fc3d58168c5ae7397731d063d5bbf3d657854427343f4c083240f7aacaa2d0f62910160405180910390a4612aa8848a8a8a8a8a612f15565b505050505050505050565b60007fffffffff0000000000000000000000000000000000000000000000000000000082167fd9b67a26000000000000000000000000000000000000000000000000000000001480612b4657507fffffffff0000000000000000000000000000000000000000000000000000000082167f0e89341c00000000000000000000000000000000000000000000000000000000145b806105e057507f01ffc9a7000000000000000000000000000000000000000000000000000000007fffffffff000000000000000000000000000000000000000000000000000000008316146105e0565b6001600160a01b0384163b15612576576040517fbc197c810000000000000000000000000000000000000000000000000000000081526001600160a01b0385169063bc197c8190612bf39089908990889088908890600401613d48565b6020604051808303816000875af1925050508015612c2e575060408051601f3d908101601f19168201909252612c2b91810190613da6565b60015b612ce357612c3a613dc3565b806308c379a003612c735750612c4e613ddf565b80612c595750612c75565b8060405162461bcd60e51b81526004016105b49190613308565b505b60405162461bcd60e51b815260206004820152603460248201527f455243313135353a207472616e7366657220746f206e6f6e2d4552433131353560448201527f526563656976657220696d706c656d656e74657200000000000000000000000060648201526084016105b4565b7fffffffff0000000000000000000000000000000000000000000000000000000081167fbc197c810000000000000000000000000000000000000000000000000000000014612d9a5760405162461bcd60e51b815260206004820152602860248201527f455243313135353a204552433131353552656365697665722072656a6563746560448201527f6420746f6b656e7300000000000000000000000000000000000000000000000060648201526084016105b4565b50505050505050565b6001600160a01b038416612e1f5760405162461bcd60e51b815260206004820152602160248201527f455243313135353a206d696e7420746f20746865207a65726f2061646472657360448201527f730000000000000000000000000000000000000000000000000000000000000060648201526084016105b4565b336000612e2b85612eca565b90506000612e3885612eca565b90506000868152602081815260408083206001600160a01b038b16845290915281208054879290612e6a908490613b13565b909155505060408051878152602081018790526001600160a01b03808a1692600092918716917fc3d58168c5ae7397731d063d5bbf3d657854427343f4c083240f7aacaa2d0f62910160405180910390a4612d9a83600089898989612f15565b60408051600180825281830190925260609160009190602080830190803683370190505090508281600081518110612f0457612f04613ae4565b602090810291909101015292915050565b6001600160a01b0384163b15612576576040517ff23a6e610000000000000000000000000000000000000000000000000000000081526001600160a01b0385169063f23a6e6190612f729089908990889088908890600401613e87565b6020604051808303816000875af1925050508015612fad575060408051601f3d908101601f19168201909252612faa91810190613da6565b60015b612fb957612c3a613dc3565b7fffffffff0000000000000000000000000000000000000000000000000000000081167ff23a6e610000000000000000000000000000000000000000000000000000000014612d9a5760405162461bcd60e51b815260206004820152602860248201527f455243313135353a204552433131353552656365697665722072656a6563746560448201527f6420746f6b656e7300000000000000000000000000000000000000000000000060648201526084016105b4565b80356001600160a01b038116811461308757600080fd5b919050565b6000806040838503121561309f57600080fd5b6130a883613070565b946020939093013593505050565b7f4e487b7100000000000000000000000000000000000000000000000000000000600052604160045260246000fd5b601f19601f830116810181811067ffffffffffffffff8211171561310b5761310b6130b6565b6040525050565b600082601f83011261312357600080fd5b813567ffffffffffffffff81111561313d5761313d6130b6565b6040516131546020601f19601f85011601826130e5565b81815284602083860101111561316957600080fd5b816020850160208301376000918101602001919091529392505050565b600080600080600060a0868803121561319e57600080fd5b853567ffffffffffffffff808211156131b657600080fd5b6131c289838a01613112565b965060208801359150808211156131d857600080fd5b6131e489838a01613112565b955060408801359150808211156131fa57600080fd5b61320689838a01613112565b9450606088013591508082111561321c57600080fd5b5061322988828901613112565b95989497509295608001359392505050565b7fffffffff000000000000000000000000000000000000000000000000000000008116811461110e57600080fd5b60006020828403121561327b57600080fd5b81356132868161323b565b9392505050565b6000806000606084860312156132a257600080fd5b83359250602084013591506132b960408501613070565b90509250925092565b6000815180845260005b818110156132e8576020818501810151868301820152016132cc565b506000602082860101526020601f19601f83011685010191505092915050565b60208152600061328660208301846132c2565b60006020828403121561332d57600080fd5b5035919050565b6000806040838503121561334757600080fd5b50508035926020909101359150565b600067ffffffffffffffff821115613370576133706130b6565b5060051b60200190565b600082601f83011261338b57600080fd5b8135602061339882613356565b6040516133a582826130e5565b83815260059390931b85018201928281019150868411156133c557600080fd5b8286015b8481101561107257803583529183019183016133c9565b600080600080600060a086880312156133f857600080fd5b61340186613070565b945061340f60208701613070565b9350604086013567ffffffffffffffff8082111561342c57600080fd5b61343889838a0161337a565b9450606088013591508082111561344e57600080fd5b61345a89838a0161337a565b9350608088013591508082111561347057600080fd5b5061347d88828901613112565b9150509295509295909350565b60008083601f84011261349c57600080fd5b50813567ffffffffffffffff8111156134b457600080fd5b6020830191508360208260051b8501011115610ca857600080fd5b6000806000806000606086880312156134e757600080fd5b85359450602086013567ffffffffffffffff8082111561350657600080fd5b61351289838a0161348a565b9096509450604088013591508082111561352b57600080fd5b506135388882890161348a565b969995985093965092949392505050565b6000806040838503121561355c57600080fd5b823567ffffffffffffffff8082111561357457600080fd5b818501915085601f83011261358857600080fd5b8135602061359582613356565b6040516135a282826130e5565b83815260059390931b85018201928281019150898411156135c257600080fd5b948201945b838610156135e7576135d886613070565b825294820194908201906135c7565b965050860135925050808211156135fd57600080fd5b5061360a8582860161337a565b9150509250929050565b600081518084526020808501945080840160005b8381101561364457815187529582019590820190600101613628565b509495945050505050565b6020815260006132866020830184613614565b86815260c06020820152600061367b60c08301886132c2565b828103604084015261368d81886132c2565b905082810360608401526136a181876132c2565b905082810360808401526136b581866132c2565b9150508260a0830152979650505050505050565b8035801515811461308757600080fd5b600080604083850312156136ec57600080fd5b6136f583613070565b9150613703602084016136c9565b90509250929050565b60008060008060008060008060006101208a8c03121561372b57600080fd5b8935985061373b60208b016136c9565b989b989a505050506040870135966060810135966080820135965060a0820135955060c0820135945060e08201359350610100909101359150565b6000806040838503121561378957600080fd5b61379283613070565b915061370360208401613070565b600080600080600060a086880312156137b857600080fd5b6137c186613070565b94506137cf60208701613070565b93506040860135925060608601359150608086013567ffffffffffffffff8111156137f957600080fd5b61347d88828901613112565b60006020828403121561381757600080fd5b61328682613070565b60208152815160208201526000602083015160c0604084015261384660e08401826132c2565b90506040840151601f198085840301606086015261386483836132c2565b9250606086015191508085840301608086015261388183836132c2565b925060808601519150808584030160a08601525061389f82826132c2565b91505060a084015160c08401528091505092915050565b600181811c908216806138ca57607f821691505b602082108103613903577f4e487b7100000000000000000000000000000000000000000000000000000000600052602260045260246000fd5b50919050565b601f82111561394f57600081815260208120601f850160051c810160208610156139305750805b601f850160051c820191505b818110156125765782815560010161393c565b505050565b815167ffffffffffffffff81111561396e5761396e6130b6565b6139828161397c84546138b6565b84613909565b602080601f8311600181146139d5576000841561399f5750858301515b7fffffffffffffffffffffffffffffffffffffffffffffffffffffffffffffffff600386901b1c1916600185901b178555612576565b600085815260208120601f198616915b82811015613a04578886015182559484019460019091019084016139e5565b5085821015613a4057878501517fffffffffffffffffffffffffffffffffffffffffffffffffffffffffffffffff600388901b60f8161c191681555b5050505050600190811b01905550565b7f4e487b7100000000000000000000000000000000000000000000000000000000600052601160045260246000fd5b818103818111156105e0576105e0613a50565b80820281158282048414176105e0576105e0613a50565b600082613adf577f4e487b7100000000000000000000000000000000000000000000000000000000600052601260045260246000fd5b500490565b7f4e487b7100000000000000000000000000000000000000000000000000000000600052603260045260246000fd5b808201808211156105e0576105e0613a50565b60007fffffffffffffffffffffffffffffffffffffffffffffffffffffffffffffffff8203613b5757613b57613a50565b5060010190565b805169ffffffffffffffffffff8116811461308757600080fd5b600080600080600060a08688031215613b9057600080fd5b613b9986613b5e565b9450602086015193506040860151925060608601519150613bbc60808701613b5e565b90509295509295909350565b600060208284031215613bda57600080fd5b815160ff8116811461328657600080fd5b600181815b80851115613c4457817fffffffffffffffffffffffffffffffffffffffffffffffffffffffffffffffff04821115613c2a57613c2a613a50565b80851615613c3757918102915b93841c9390800290613bf0565b509250929050565b600082613c5b575060016105e0565b81613c68575060006105e0565b8160018114613c7e5760028114613c8857613ca4565b60019150506105e0565b60ff841115613c9957613c99613a50565b50506001821b6105e0565b5060208310610133831016604e8410600b8410161715613cc7575081810a6105e0565b613cd18383613beb565b807fffffffffffffffffffffffffffffffffffffffffffffffffffffffffffffffff04821115613d0357613d03613a50565b029392505050565b600061328660ff841683613c4c565b604081526000613d2d6040830185613614565b8281036020840152613d3f8185613614565b95945050505050565b60006001600160a01b03808816835280871660208401525060a06040830152613d7460a0830186613614565b8281036060840152613d868186613614565b90508281036080840152613d9a81856132c2565b98975050505050505050565b600060208284031215613db857600080fd5b81516132868161323b565b600060033d1115613ddc5760046000803e5060005160e01c5b90565b600060443d1015613ded5790565b6040517ffffffffffffffffffffffffffffffffffffffffffffffffffffffffffffffffc803d016004833e81513d67ffffffffffffffff8160248401118184111715613e3b57505050505090565b8285019150815181811115613e535750505050505090565b843d8701016020828501011115613e6d5750505050505090565b613e7c602082860101876130e5565b509095945050505050565b60006001600160a01b03808816835280871660208401525084604083015283606083015260a06080830152613ebf60a08301846132c2565b97965050505050505056fea26469706673582212206772b42b417d77e1094505d30326cd2b077212790ef87d6bfc56e5dee47ebe0b64736f6c6343000811003368747470733a2f2f676174657761792e70696e6174612e636c6f75642f697066732f516d57513567624468463539766f6e6753676d514a4d595269695670586d647559415539676666774454776e63612f7b69647d2e6a736f6e",
  "immutableReferences": {},
  "source": "// SPDX-License-Identifier: MIT\npragma solidity 0.8.17;\n\nimport \"../node_modules/@openzeppelin/contracts/token/ERC1155/ERC1155.sol\";\nimport \"../node_modules/@openzeppelin/contracts/token/common/ERC2981.sol\";\nimport \"../node_modules/@openzeppelin/contracts/utils/Counters.sol\";\n//import \"../node_modules/@openzeppelin/contracts/utils/introspection/ERC165.sol\";\nimport \"../node_modules/@openzeppelin/contracts/access/Ownable.sol\";\nimport \"../node_modules/@openzeppelin/contracts/security/ReentrancyGuard.sol\";\nimport \"../node_modules/@chainlink/contracts/src/v0.8/interfaces/AggregatorV3Interface.sol\";\n\ncontract Rock is ERC1155, ERC2981, Ownable, ReentrancyGuard {\n    using Counters for Counters.Counter;\n    Counters.Counter private _tokenIds;\n    Counters.Counter private _realEstateIds;\n    uint256 internal fees = 5000; // 5%\n\n    // Nom de la collection ROCK (qui apparaitra sur Opensea\n    string public name = \"Rock Collection\";\n    string public symbol = \"Rock\";\n\n    // Programme immo\n    struct RealEstate {\n        uint256 id;\n        string name; // Nom du programme immo\n        string location; // Localisation\n        string city; // Ville\n        string cid;\n        uint256 price; // Prix du bien\n    }\n\n    // Notre parc de biens immobilier\n    RealEstate[] public realEstatesCollection;\n\n    struct Card {\n        uint256 tokenId;\n        uint256 cardId;\n        uint256 price;\n        uint256 numberOfTokens;\n        uint256 ratioOfTokensInPercent;\n        uint256 royalty;\n        uint256 balance;\n    }\n\n    // Tous les nfts lists sur la plateforme ROCK\n    struct NFTCard {\n        uint256 tokenId;\n        uint256 price;\n        uint256 quantity;\n        address payable seller;\n        address payable owner;\n    }\n\n    NFTCard[] public Listings;\n\n    // Mapping realEstateId => tokenId --> TYpe de Carte\n    //mapping(uint256 => mapping(uint256 => Card)) private typesCard;\n    // Mapping realEstateId => tokenId => ownerAdress --> Card\n    mapping(uint256 => mapping(uint256 => mapping(address => NFTCard)))\n        public usersCardsNfts;\n\n    // Index du bien => tableau de cartes\n    mapping(uint256 => Card[4]) internal cards;\n\n    // Type de carte\n    uint256 internal constant CARD_COTTAGE = 0;\n    uint256 internal constant CARD_VILLA = 1;\n    uint256 internal constant CARD_MANSION = 2;\n    uint256 internal constant CARD_HIGH_RISE = 3;\n\n    // Rpartion des tokens par type de carte\n    uint256 private constant DEFAULT_RATIO_COTTAGE_TOKENS = 50;\n    uint256 private constant DEFAULT_RATIO_VILLA_TOKENS = 30;\n    uint256 private constant DEFAULT_RATIO_MANSION_TOKENS = 20;\n\n    // Events\n    event supplyCardsCalculated(\n        uint256 idToken,\n        uint256 supplyCottage,\n        uint256 supplyVilla,\n        uint256 supplyMansion,\n        uint256 supplyHighRise\n    );\n    event tokenMinted(uint256 idRealEstate);\n    event RealEstateAdded(uint256 idRealEstate);\n\n    AggregatorV3Interface internal priceFeed;\n\n    constructor()\n        ERC1155(\n            \"https://gateway.pinata.cloud/ipfs/QmWQ5gbDhF59vongSgmQJMYRiiVpXmduYAU9gffwDTwnca/{id}.json\"\n        )\n    {\n        // Royalties sur chaque NFT vendu\n        _setDefaultRoyalty(msg.sender, 8000);\n        // Data Feed Chainlink pour rcuprer le MATIC/USD\n        priceFeed = AggregatorV3Interface(\n            // 0xd0D5e3DB44DE05E9F294BB0a3bEEaF030DE24Ada\n            0xD4a33860578De61DBAbDc8BFdb98FD742fA7028e //ETHUSD\n        );\n    }\n\n    function supportsInterface(bytes4 interfaceId)\n        public\n        view\n        virtual\n        override(ERC1155, ERC2981)\n        returns (bool)\n    {\n        return super.supportsInterface(interfaceId);\n    }\n\n    // L'administrateur dclare un nouveau bien immo sur la blockchain\n    // Retourne l'index du bien immo\n    function addRealEstate(\n        string memory _name,\n        string memory _location,\n        string memory _city,\n        string memory _cid,\n        uint256 _price\n    ) public onlyOwner {\n        require(\n            keccak256(abi.encode(_name)) != keccak256(abi.encode(\"\")),\n            \"Le nom du programme immobilier est obligatoire\"\n        );\n        require(\n            keccak256(abi.encode(_location)) != keccak256(abi.encode(\"\")),\n            \"La situation est obligatoire\"\n        );\n        require(\n            keccak256(abi.encode(_city)) != keccak256(abi.encode(\"\")),\n            \"La ville est obligatoire\"\n        );\n        require(\n            keccak256(abi.encode(_cid)) != keccak256(abi.encode(\"\")),\n            \"Le cid est obligatoire\"\n        );\n        require(\n            _price > 50000,\n            \"Erreur, le prix du bien immo doit etre superieur a 50000\"\n        );\n\n        _realEstateIds.increment();\n\n        // Cration du bien immo\n        RealEstate memory newRealEstate;\n        newRealEstate.id = _realEstateIds.current();\n        newRealEstate.name = _name;\n        newRealEstate.location = _location;\n        newRealEstate.city = _city;\n        newRealEstate.cid = _cid;\n        newRealEstate.price = _price;\n\n        // Ajout du bien au catalogue\n        realEstatesCollection.push(newRealEstate);\n\n        // Evenement RealEstateAdd avec position de l'lment dans le tableau\n        uint256 indexRealEstateInCollection = _realEstateIds.current() - 1;\n        emit RealEstateAdded(indexRealEstateInCollection);\n    }\n\n    /// @notice Return the count of proposals\n    /// @return uint256 Count of proposals\n    function getRealEstatesCollectionCount() external view returns (uint256) {\n        return realEstatesCollection.length;\n    }\n\n    // Rcupration du bien immobilier par son index\n    function getRealStateById(uint256 _index)\n        public\n        view\n        returns (RealEstate memory)\n    {\n        require(\n            _index < realEstatesCollection.length,\n            \"Bien immobilier inexistant\"\n        );\n        return realEstatesCollection[_index];\n    }\n\n    // Calculer le nombre de token  minter par type de carte en fonction du prix du bien, du prix du token demand par l'admin et du ratio (pourcentage du prix du bien)\n    function calculateNumberOfTokens(\n        uint256 _indexRealEstateInCollection,\n        bool _isDefaultSupply,\n        uint256 _ratioTokenCottage,\n        uint256 _ratioTokenVilla,\n        uint256 _ratioTokenMansion,\n        uint256 _prixTokenCottage,\n        uint256 _prixTokenVilla,\n        uint256 _prixTokenMansion,\n        uint256 _prixTokenHighRise\n    ) public onlyOwner {\n        require(\n            _indexRealEstateInCollection <= realEstatesCollection.length,\n            \"Index du bien immobilier en dehors du tableau\"\n        );\n        require(\n            _ratioTokenCottage < 100 &&\n                _ratioTokenVilla < 100 &&\n                _ratioTokenMansion < 100,\n            \"Erreur, un des pourcentages est a 0\"\n        );\n        require(\n            _prixTokenCottage >= 50,\n            \"Erreur, le prix minimum de la carte COTTAGE doit etre de 50\"\n        );\n        require(\n            _prixTokenVilla >= 100,\n            \"Erreur, le prix minimum de la carte VILLA doit etre de 100\"\n        );\n        require(\n            _prixTokenMansion >= 150,\n            \"Erreur, le prix minimum de la carte MANSION doit etre de 150\"\n        );\n\n        // Si les ratios ne sont pas renseigns par l'administrateur, on prend les ratios par dfaut\n        if (\n            _isDefaultSupply ||\n            (_ratioTokenCottage == 0 &&\n                _ratioTokenVilla == 0 &&\n                _ratioTokenMansion == 0)\n        ) {\n            _ratioTokenCottage = DEFAULT_RATIO_COTTAGE_TOKENS;\n            _ratioTokenVilla = DEFAULT_RATIO_VILLA_TOKENS;\n            _ratioTokenMansion = DEFAULT_RATIO_MANSION_TOKENS;\n        }\n\n        // Cration des cartes\n        Card[4] storage newCards = cards[_indexRealEstateInCollection];\n        newCards[CARD_COTTAGE] = Card(\n            CARD_COTTAGE,\n            0,\n            _prixTokenCottage,\n            0,\n            _ratioTokenCottage,\n            30,\n            0\n        );\n        newCards[CARD_VILLA] = Card(\n            CARD_VILLA,\n            0,\n            _prixTokenVilla,\n            0,\n            _ratioTokenVilla,\n            30,\n            0\n        );\n        newCards[CARD_MANSION] = Card(\n            CARD_MANSION,\n            0,\n            _prixTokenMansion,\n            0,\n            _ratioTokenMansion,\n            30,\n            0\n        );\n        newCards[CARD_HIGH_RISE] = Card(\n            CARD_HIGH_RISE,\n            0,\n            _prixTokenHighRise,\n            1,\n            0,\n            30,\n            0\n        );\n\n        // Pour le calcul du nombre de tokens par carte,\n        // on soustrait du prix du bien, le prix du token de la carte unique HighRise\n        uint256 realEstatePrice = realEstatesCollection[\n            _indexRealEstateInCollection\n        ].price - (1 * _prixTokenHighRise);\n        uint256 multiplier = 100;\n\n        for (uint256 i = 0; i < CARD_HIGH_RISE; i++) {\n            Card storage card = cards[_indexRealEstateInCollection][i];\n            if (card.numberOfTokens == 0) {\n                uint256 ratioMultiplier = card.ratioOfTokensInPercent *\n                    multiplier; // 50 % devient 5000\n                uint256 priceByCard = (realEstatePrice * ratioMultiplier) /\n                    (100 * multiplier); // On applique le ratio sur le prix du prix et on divise\n                uint256 numberOfTokens = priceByCard / card.price; // Prix du bien divis par le prix du token\n                card.numberOfTokens = numberOfTokens;\n            }\n        }\n\n        emit supplyCardsCalculated(\n            _indexRealEstateInCollection,\n            newCards[CARD_COTTAGE].numberOfTokens,\n            newCards[CARD_VILLA].numberOfTokens,\n            newCards[CARD_MANSION].numberOfTokens,\n            newCards[CARD_HIGH_RISE].numberOfTokens\n        );\n    }\n\n    // L'administrateur minte les NFTS d'une collection (d'un bien immo)\n    function mintRealEstateCollection(uint256 _indexRealEstateInCollection)\n        public\n        onlyOwner\n    {\n        require(\n            _indexRealEstateInCollection <= realEstatesCollection.length,\n            \"Index du bien immobilier en dehors du tableau\"\n        );\n        require(\n            cards[_indexRealEstateInCollection][0].tokenId == 0,\n            \"Le mint a deja ete effectue\"\n        );\n\n        mintCard(CARD_COTTAGE, _indexRealEstateInCollection);\n        mintCard(CARD_VILLA, _indexRealEstateInCollection);\n        mintCard(CARD_MANSION, _indexRealEstateInCollection);\n        mintCard(CARD_HIGH_RISE, _indexRealEstateInCollection);\n\n        emit tokenMinted(_indexRealEstateInCollection);\n    }\n\n    function mintCard(uint256 _cardId, uint256 _indexRealEstateInCollection)\n        private\n        onlyOwner\n        returns (uint256)\n    {\n        _tokenIds.increment();\n        uint256 newTokenId = _tokenIds.current();\n\n        address contractOwner = owner();\n\n        // Mint des tokens pour un type de carte donn\n        uint256 numberOfTokens = cards[_indexRealEstateInCollection][_cardId]\n            .numberOfTokens;\n        cards[_indexRealEstateInCollection][_cardId].tokenId = newTokenId;\n        _mint(contractOwner, newTokenId, numberOfTokens, \"\");\n\n        // Mise  jour de la balance totale de la carte NFT (Quantit restante gale au nombre de tokens mints)\n        uint256 balanceOfOwnerTokenId = balanceOf(\n            contractOwner,\n            cards[_indexRealEstateInCollection][_cardId].tokenId\n        );\n\n        // NFT qui seront lists sur la plateforme une fois le mint effectu\n        // Par dfaut tous les NTFS sont dtnus par le owner du contrat\n        // realEstateId => tokenId => ownerAdress --> Card\n        NFTCard storage defaultOwner = usersCardsNfts[\n            _indexRealEstateInCollection\n        ][newTokenId][contractOwner];\n        defaultOwner.tokenId = cards[_indexRealEstateInCollection][_cardId]\n            .tokenId; // Identifiant de la carte minte\n        defaultOwner.price = cards[_indexRealEstateInCollection][_cardId].price; // Prix dfini par l'administrateur\n        defaultOwner.quantity = balanceOfOwnerTokenId; // balance du owner du token\n        defaultOwner.owner = payable(contractOwner);\n        defaultOwner.seller = payable(contractOwner);\n\n        // MAJ du mapping des balances\n        cards[_indexRealEstateInCollection][_cardId]\n            .balance = balanceOfOwnerTokenId;\n\n        return newTokenId;\n    }\n\n    function getCard(uint256 _indexRealEstateInCollection, uint256 _cardId)\n        public\n        view\n        returns (Card memory)\n    {\n        Card memory card = cards[_indexRealEstateInCollection][_cardId];\n        return card;\n    }\n\n    // Retourne le prix total des cartes  payer (en MATIC)\n    function calculeTotalPrice(\n        uint256 _indexRealEstateInCollection,\n        uint256[] calldata _cardsId,\n        uint256[] calldata _amounts\n    ) public view returns (uint256) {\n        require(_amounts.length > 0, \"Aucun montant renseigne\");\n        require(_cardsId.length > 0, \"Aucun carte selectionnee\");\n        require(\n            _indexRealEstateInCollection < realEstatesCollection.length,\n            \"Bien immobilier inexistant\"\n        );\n\n        // 3 cartes COTTAGE de 50  et 1 carte VILLA  100  = 3 * 50 + 1 * 100 = 250 = totalAmount\n        uint256 totalAmount;\n\n        for (uint256 i = 0; i < _cardsId.length; i++) {\n            require(\n                _cardsId[i] >= CARD_COTTAGE && _cardsId[i] <= CARD_HIGH_RISE,\n                \"Carte inconnue\"\n            );\n            uint256 boughtCardId = _cardsId[i];\n            // amount = price * quantity\n            totalAmount +=\n                cards[_indexRealEstateInCollection][boughtCardId].price *\n                _amounts[i];\n        }\n\n        // Calcul du nombre de tokens MATIC  nous reverser au total\n        // return amountOfMATIC(totalAmount);\n        return totalAmount;\n    }\n\n    // Frais de transactions de la plateforme ROCK\n    function setFee(uint256 _fee) public onlyOwner {\n        fees = _fee;\n    }\n\n    /// Returns the latest price MATIC/USD\n    function getLatestPrice() public view returns (uint256) {\n        (\n            ,\n            /*uint80 roundID*/\n            int256 price, /*uint startedAt*/ /*uint timeStamp*/ /*uint80 answeredInRound*/\n            ,\n            ,\n\n        ) = priceFeed.latestRoundData();\n        uint8 decimals = priceFeed.decimals();\n        uint256 _price = uint256(price);\n        return _price / (10**decimals);\n        //return _price;\n        // return _amount / maticPrice;\n    }\n\n    function withdraw() public onlyOwner {\n        require(address(this).balance > 0, \"Balance a 0\");\n        payable(owner()).transfer(address(this).balance);\n    }\n\n    // Rcupration de la paire MATIC / USD via Chainlink\n    function getLastPairMaticUsd(uint256 _amount)\n        public\n        view\n        returns (uint256)\n    {\n        return getLatestPrice();\n    }\n\n    function getOwner() public view returns (address) {\n        return owner();\n    }\n}\n",
  "sourcePath": "/home/anicaise/Formation/Alyra/Rock/truffle/contracts/Rock.sol",
  "compiler": {
    "name": "solc",
    "version": "0.8.17+commit.8df45f5f.Emscripten.clang"
  },
  "schemaVersion": "3.4.10",
  "updatedAt": "2022-12-09T06:49:05.577Z",
  "networkType": "ethereum",
  "devdoc": {
    "kind": "dev",
    "methods": {
      "balanceOf(address,uint256)": {
        "details": "See {IERC1155-balanceOf}. Requirements: - `account` cannot be the zero address."
      },
      "balanceOfBatch(address[],uint256[])": {
        "details": "See {IERC1155-balanceOfBatch}. Requirements: - `accounts` and `ids` must have the same length."
      },
      "getRealEstatesCollectionCount()": {
        "returns": {
          "_0": "uint256 Count of proposals"
        }
      },
      "isApprovedForAll(address,address)": {
        "details": "See {IERC1155-isApprovedForAll}."
      },
      "owner()": {
        "details": "Returns the address of the current owner."
      },
      "renounceOwnership()": {
        "details": "Leaves the contract without owner. It will not be possible to call `onlyOwner` functions anymore. Can only be called by the current owner. NOTE: Renouncing ownership will leave the contract without an owner, thereby removing any functionality that is only available to the owner."
      },
      "royaltyInfo(uint256,uint256)": {
        "details": "Returns how much royalty is owed and to whom, based on a sale price that may be denominated in any unit of exchange. The royalty amount is denominated and should be paid in that same unit of exchange."
      },
      "safeBatchTransferFrom(address,address,uint256[],uint256[],bytes)": {
        "details": "See {IERC1155-safeBatchTransferFrom}."
      },
      "safeTransferFrom(address,address,uint256,uint256,bytes)": {
        "details": "See {IERC1155-safeTransferFrom}."
      },
      "setApprovalForAll(address,bool)": {
        "details": "See {IERC1155-setApprovalForAll}."
      },
      "transferOwnership(address)": {
        "details": "Transfers ownership of the contract to a new account (`newOwner`). Can only be called by the current owner."
      },
      "uri(uint256)": {
        "details": "See {IERC1155MetadataURI-uri}. This implementation returns the same URI for *all* token types. It relies on the token type ID substitution mechanism https://eips.ethereum.org/EIPS/eip-1155#metadata[defined in the EIP]. Clients calling this function must replace the `\\{id\\}` substring with the actual token type ID."
      }
    },
    "version": 1
  },
  "userdoc": {
    "kind": "user",
    "methods": {
      "getLatestPrice()": {
        "notice": "Returns the latest price MATIC/USD"
      },
      "getRealEstatesCollectionCount()": {
        "notice": "Return the count of proposals"
      }
    },
    "version": 1
  }
}