{
  "contractName": "Voting",
  "abi": [
    {
      "anonymous": false,
      "inputs": [
        {
          "indexed": true,
          "internalType": "address",
          "name": "previousOwner",
          "type": "address"
        },
        {
          "indexed": true,
          "internalType": "address",
          "name": "newOwner",
          "type": "address"
        }
      ],
      "name": "OwnershipTransferred",
      "type": "event"
    },
    {
      "anonymous": false,
      "inputs": [
        {
          "indexed": false,
          "internalType": "uint256",
          "name": "proposalId",
          "type": "uint256"
        }
      ],
      "name": "ProposalRegistered",
      "type": "event"
    },
    {
      "anonymous": false,
      "inputs": [
        {
          "indexed": false,
          "internalType": "address",
          "name": "voter",
          "type": "address"
        },
        {
          "indexed": false,
          "internalType": "uint256",
          "name": "proposalId",
          "type": "uint256"
        }
      ],
      "name": "Voted",
      "type": "event"
    },
    {
      "anonymous": false,
      "inputs": [
        {
          "indexed": false,
          "internalType": "address",
          "name": "voterAddress",
          "type": "address"
        }
      ],
      "name": "VoterRegistered",
      "type": "event"
    },
    {
      "anonymous": false,
      "inputs": [
        {
          "indexed": false,
          "internalType": "enum Voting.WorkflowStatus",
          "name": "previousStatus",
          "type": "uint8"
        },
        {
          "indexed": false,
          "internalType": "enum Voting.WorkflowStatus",
          "name": "newStatus",
          "type": "uint8"
        }
      ],
      "name": "WorkflowStatusChange",
      "type": "event"
    },
    {
      "inputs": [],
      "name": "owner",
      "outputs": [
        {
          "internalType": "address",
          "name": "",
          "type": "address"
        }
      ],
      "stateMutability": "view",
      "type": "function",
      "constant": true
    },
    {
      "inputs": [
        {
          "internalType": "uint256",
          "name": "",
          "type": "uint256"
        }
      ],
      "name": "proposalsArray",
      "outputs": [
        {
          "internalType": "string",
          "name": "description",
          "type": "string"
        },
        {
          "internalType": "uint256",
          "name": "voteCount",
          "type": "uint256"
        }
      ],
      "stateMutability": "view",
      "type": "function",
      "constant": true
    },
    {
      "inputs": [],
      "name": "renounceOwnership",
      "outputs": [],
      "stateMutability": "nonpayable",
      "type": "function"
    },
    {
      "inputs": [
        {
          "internalType": "address",
          "name": "newOwner",
          "type": "address"
        }
      ],
      "name": "transferOwnership",
      "outputs": [],
      "stateMutability": "nonpayable",
      "type": "function"
    },
    {
      "inputs": [],
      "name": "winningProposalID",
      "outputs": [
        {
          "internalType": "uint256",
          "name": "",
          "type": "uint256"
        }
      ],
      "stateMutability": "view",
      "type": "function",
      "constant": true
    },
    {
      "inputs": [],
      "name": "workflowStatus",
      "outputs": [
        {
          "internalType": "enum Voting.WorkflowStatus",
          "name": "",
          "type": "uint8"
        }
      ],
      "stateMutability": "view",
      "type": "function",
      "constant": true
    },
    {
      "inputs": [
        {
          "internalType": "address",
          "name": "_addr",
          "type": "address"
        }
      ],
      "name": "getVoter",
      "outputs": [
        {
          "components": [
            {
              "internalType": "bool",
              "name": "isRegistered",
              "type": "bool"
            },
            {
              "internalType": "bool",
              "name": "hasVoted",
              "type": "bool"
            },
            {
              "internalType": "uint256",
              "name": "votedProposalId",
              "type": "uint256"
            }
          ],
          "internalType": "struct Voting.Voter",
          "name": "",
          "type": "tuple"
        }
      ],
      "stateMutability": "view",
      "type": "function",
      "constant": true
    },
    {
      "inputs": [
        {
          "internalType": "uint256",
          "name": "_id",
          "type": "uint256"
        }
      ],
      "name": "getOneProposal",
      "outputs": [
        {
          "components": [
            {
              "internalType": "string",
              "name": "description",
              "type": "string"
            },
            {
              "internalType": "uint256",
              "name": "voteCount",
              "type": "uint256"
            }
          ],
          "internalType": "struct Voting.Proposal",
          "name": "",
          "type": "tuple"
        }
      ],
      "stateMutability": "view",
      "type": "function",
      "constant": true
    },
    {
      "inputs": [],
      "name": "getProposalsArrayCount",
      "outputs": [
        {
          "internalType": "uint256",
          "name": "",
          "type": "uint256"
        }
      ],
      "stateMutability": "view",
      "type": "function",
      "constant": true
    },
    {
      "inputs": [
        {
          "internalType": "address",
          "name": "_addr",
          "type": "address"
        }
      ],
      "name": "addVoter",
      "outputs": [],
      "stateMutability": "nonpayable",
      "type": "function"
    },
    {
      "inputs": [
        {
          "internalType": "string",
          "name": "_desc",
          "type": "string"
        }
      ],
      "name": "addProposal",
      "outputs": [],
      "stateMutability": "nonpayable",
      "type": "function"
    },
    {
      "inputs": [
        {
          "internalType": "uint256",
          "name": "_id",
          "type": "uint256"
        }
      ],
      "name": "setVote",
      "outputs": [],
      "stateMutability": "nonpayable",
      "type": "function"
    },
    {
      "inputs": [],
      "name": "startProposalsRegistering",
      "outputs": [],
      "stateMutability": "nonpayable",
      "type": "function"
    },
    {
      "inputs": [],
      "name": "endProposalsRegistering",
      "outputs": [],
      "stateMutability": "nonpayable",
      "type": "function"
    },
    {
      "inputs": [],
      "name": "startVotingSession",
      "outputs": [],
      "stateMutability": "nonpayable",
      "type": "function"
    },
    {
      "inputs": [],
      "name": "endVotingSession",
      "outputs": [],
      "stateMutability": "nonpayable",
      "type": "function"
    },
    {
      "inputs": [],
      "name": "tallyVotes",
      "outputs": [],
      "stateMutability": "nonpayable",
      "type": "function"
    }
  ],
  "bytecode": "0x60806040523480156200001157600080fd5b5062000032620000266200003860201b60201c565b6200004060201b60201c565b62000104565b600033905090565b60008060009054906101000a900473ffffffffffffffffffffffffffffffffffffffff169050816000806101000a81548173ffffffffffffffffffffffffffffffffffffffff021916908373ffffffffffffffffffffffffffffffffffffffff1602179055508173ffffffffffffffffffffffffffffffffffffffff168173ffffffffffffffffffffffffffffffffffffffff167f8be0079c531659141344cd1fd0a4f28419497f9722a3daafe3b4186f6b6457e060405160405180910390a35050565b61265080620001146000396000f3fe608060405234801561001057600080fd5b506004361061010b5760003560e01c8063bdc01431116100a2578063ee74c67811610071578063ee74c67814610234578063f0c6c9641461023e578063f2fde38b1461025c578063f4ab9adf14610278578063f86c6779146102945761010b565b8063bdc01431146101d2578063c7038a4e146101f0578063c88af42f146101fa578063d4f50f98146102045761010b565b80638da5cb5b116100de5780638da5cb5b1461015c578063a1edffa21461017a578063a2788cce14610198578063a7bfab16146101c85761010b565b8063230796ae146101105780632fdae3c51461012c578063378a217814610148578063715018a614610152575b600080fd5b61012a600480360381019061012591906115e3565b6102c5565b005b61014660048036038101906101419190611675565b61061c565b005b61015061089f565b005b61015a610985565b005b610164610999565b6040516101719190611703565b60405180910390f35b6101826109c2565b60405161018f9190611795565b60405180910390f35b6101b260048036038101906101ad91906115e3565b6109d5565b6040516101bf919061188c565b60405180910390f35b6101d0610b3c565b005b6101da610c22565b6040516101e791906118bd565b60405180910390f35b6101f8610c28565b005b610202610da3565b005b61021e60048036038101906102199190611904565b610e88565b60405161022b919061198e565b60405180910390f35b61023c610fb0565b005b610246611096565b60405161025391906118bd565b60405180910390f35b61027660048036038101906102719190611904565b611132565b005b610292600480360381019061028d9190611904565b6111b5565b005b6102ae60048036038101906102a991906115e3565b61135e565b6040516102bc9291906119f3565b60405180910390f35b600460003373ffffffffffffffffffffffffffffffffffffffff1673ffffffffffffffffffffffffffffffffffffffff16815260200190815260200160002060000160009054906101000a900460ff16610354576040517f08c379a000000000000000000000000000000000000000000000000000000000815260040161034b90611a6f565b60405180910390fd5b600360058111156103685761036761171e565b5b600260009054906101000a900460ff16600581111561038a5761038961171e565b5b146103ca576040517f08c379a00000000000000000000000000000000000000000000000000000000081526004016103c190611b01565b60405180910390fd5b60011515600460003373ffffffffffffffffffffffffffffffffffffffff1673ffffffffffffffffffffffffffffffffffffffff16815260200190815260200160002060000160019054906101000a900460ff16151503610460576040517f08c379a000000000000000000000000000000000000000000000000000000000815260040161045790611b6d565b60405180910390fd5b60038054905081106104a7576040517f08c379a000000000000000000000000000000000000000000000000000000000815260040161049e90611bd9565b60405180910390fd5b80600460003373ffffffffffffffffffffffffffffffffffffffff1673ffffffffffffffffffffffffffffffffffffffff168152602001908152602001600020600101819055506001600460003373ffffffffffffffffffffffffffffffffffffffff1673ffffffffffffffffffffffffffffffffffffffff16815260200190815260200160002060000160016101000a81548160ff0219169083151502179055506003818154811061055d5761055c611bf9565b5b9060005260206000209060020201600101600081548092919061057f90611c57565b919050555060036001548154811061059a57610599611bf9565b5b906000526020600020906002020160010154600382815481106105c0576105bf611bf9565b5b90600052602060002090600202016001015411156105e057806001819055505b7f4d99b957a2bc29a30ebd96a7be8e68fe50a3c701db28a91436490b7d53870ca43382604051610611929190611c9f565b60405180910390a150565b600460003373ffffffffffffffffffffffffffffffffffffffff1673ffffffffffffffffffffffffffffffffffffffff16815260200190815260200160002060000160009054906101000a900460ff166106ab576040517f08c379a00000000000000000000000000000000000000000000000000000000081526004016106a290611a6f565b60405180910390fd5b600160058111156106bf576106be61171e565b5b600260009054906101000a900460ff1660058111156106e1576106e061171e565b5b14610721576040517f08c379a000000000000000000000000000000000000000000000000000000000815260040161071890611d14565b60405180910390fd5b60405160200161073090611d5a565b604051602081830303815290604052805190602001208282604051602001610759929190611db6565b60405160208183030381529060405280519060200120036107af576040517f08c379a00000000000000000000000000000000000000000000000000000000081526004016107a690611e4c565b60405180910390fd5b6107b7611564565b82828080601f016020809104026020016040519081016040528093929190818152602001838380828437600081840152601f19601f8201169050808301925050505050505081600001819052506003819080600181540180825580915050600190039060005260206000209060020201600090919091909150600082015181600001908161084591906120a7565b506020820151816001015550507f92e393e9b54e2f801d3ea4beb0c5e71a21cc34a5d34b77d0fb8a3aa1650dc18f60016003805490506108859190612179565b60405161089291906118bd565b60405180910390a1505050565b6108a761141a565b600460058111156108bb576108ba61171e565b5b600260009054906101000a900460ff1660058111156108dd576108dc61171e565b5b1461091d576040517f08c379a00000000000000000000000000000000000000000000000000000000081526004016109149061221f565b60405180910390fd5b6005600260006101000a81548160ff021916908360058111156109435761094261171e565b5b02179055507f0a97a4ee45751e2abf3e4fc8946939630b11b371ea8ae39ccdc3056e98f5cc3f6004600560405161097b92919061223f565b60405180910390a1565b61098d61141a565b6109976000611498565b565b60008060009054906101000a900473ffffffffffffffffffffffffffffffffffffffff16905090565b600260009054906101000a900460ff1681565b6109dd611564565b600460003373ffffffffffffffffffffffffffffffffffffffff1673ffffffffffffffffffffffffffffffffffffffff16815260200190815260200160002060000160009054906101000a900460ff16610a6c576040517f08c379a0000000000000000000000000000000000000000000000000000000008152600401610a6390611a6f565b60405180910390fd5b60038281548110610a8057610a7f611bf9565b5b9060005260206000209060020201604051806040016040529081600082018054610aa990611eca565b80601f0160208091040260200160405190810160405280929190818152602001828054610ad590611eca565b8015610b225780601f10610af757610100808354040283529160200191610b22565b820191906000526020600020905b815481529060010190602001808311610b0557829003601f168201915b505050505081526020016001820154815250509050919050565b610b4461141a565b60036005811115610b5857610b5761171e565b5b600260009054906101000a900460ff166005811115610b7a57610b7961171e565b5b14610bba576040517f08c379a0000000000000000000000000000000000000000000000000000000008152600401610bb190611b01565b60405180910390fd5b6004600260006101000a81548160ff02191690836005811115610be057610bdf61171e565b5b02179055507f0a97a4ee45751e2abf3e4fc8946939630b11b371ea8ae39ccdc3056e98f5cc3f60036004604051610c1892919061223f565b60405180910390a1565b60015481565b610c3061141a565b60006005811115610c4457610c4361171e565b5b600260009054906101000a900460ff166005811115610c6657610c6561171e565b5b14610ca6576040517f08c379a0000000000000000000000000000000000000000000000000000000008152600401610c9d906122da565b60405180910390fd5b6001600260006101000a81548160ff02191690836005811115610ccc57610ccb61171e565b5b0217905550610cd9611564565b6040518060400160405280600781526020017f47454e4553495300000000000000000000000000000000000000000000000000815250816000018190525060038190806001815401808255809150506001900390600052602060002090600202016000909190919091506000820151816000019081610d5891906120a7565b506020820151816001015550507f0a97a4ee45751e2abf3e4fc8946939630b11b371ea8ae39ccdc3056e98f5cc3f60006001604051610d9892919061223f565b60405180910390a150565b610dab61141a565b60016005811115610dbf57610dbe61171e565b5b600260009054906101000a900460ff166005811115610de157610de061171e565b5b14610e21576040517f08c379a0000000000000000000000000000000000000000000000000000000008152600401610e189061236c565b60405180910390fd5b60028060006101000a81548160ff02191690836005811115610e4657610e4561171e565b5b02179055507f0a97a4ee45751e2abf3e4fc8946939630b11b371ea8ae39ccdc3056e98f5cc3f60016002604051610e7e92919061223f565b60405180910390a1565b610e9061157e565b600460003373ffffffffffffffffffffffffffffffffffffffff1673ffffffffffffffffffffffffffffffffffffffff16815260200190815260200160002060000160009054906101000a900460ff16610f1f576040517f08c379a0000000000000000000000000000000000000000000000000000000008152600401610f1690611a6f565b60405180910390fd5b600460008373ffffffffffffffffffffffffffffffffffffffff1673ffffffffffffffffffffffffffffffffffffffff1681526020019081526020016000206040518060600160405290816000820160009054906101000a900460ff161515151581526020016000820160019054906101000a900460ff161515151581526020016001820154815250509050919050565b610fb861141a565b60026005811115610fcc57610fcb61171e565b5b600260009054906101000a900460ff166005811115610fee57610fed61171e565b5b1461102e576040517f08c379a0000000000000000000000000000000000000000000000000000000008152600401611025906123fe565b60405180910390fd5b6003600260006101000a81548160ff021916908360058111156110545761105361171e565b5b02179055507f0a97a4ee45751e2abf3e4fc8946939630b11b371ea8ae39ccdc3056e98f5cc3f6002600360405161108c92919061223f565b60405180910390a1565b6000600460003373ffffffffffffffffffffffffffffffffffffffff1673ffffffffffffffffffffffffffffffffffffffff16815260200190815260200160002060000160009054906101000a900460ff16611127576040517f08c379a000000000000000000000000000000000000000000000000000000000815260040161111e90611a6f565b60405180910390fd5b600380549050905090565b61113a61141a565b600073ffffffffffffffffffffffffffffffffffffffff168173ffffffffffffffffffffffffffffffffffffffff16036111a9576040517f08c379a00000000000000000000000000000000000000000000000000000000081526004016111a090612490565b60405180910390fd5b6111b281611498565b50565b6111bd61141a565b600060058111156111d1576111d061171e565b5b600260009054906101000a900460ff1660058111156111f3576111f261171e565b5b14611233576040517f08c379a000000000000000000000000000000000000000000000000000000000815260040161122a90612522565b60405180910390fd5b60011515600460008373ffffffffffffffffffffffffffffffffffffffff1673ffffffffffffffffffffffffffffffffffffffff16815260200190815260200160002060000160009054906101000a900460ff161515036112c9576040517f08c379a00000000000000000000000000000000000000000000000000000000081526004016112c09061258e565b60405180910390fd5b6001600460008373ffffffffffffffffffffffffffffffffffffffff1673ffffffffffffffffffffffffffffffffffffffff16815260200190815260200160002060000160006101000a81548160ff0219169083151502179055507fb6be2187d059cc2a55fe29e0e503b566e1e0f8c8780096e185429350acffd3dd816040516113539190611703565b60405180910390a150565b6003818154811061136e57600080fd5b906000526020600020906002020160009150905080600001805461139190611eca565b80601f01602080910402602001604051908101604052809291908181526020018280546113bd90611eca565b801561140a5780601f106113df5761010080835404028352916020019161140a565b820191906000526020600020905b8154815290600101906020018083116113ed57829003601f168201915b5050505050908060010154905082565b61142261155c565b73ffffffffffffffffffffffffffffffffffffffff16611440610999565b73ffffffffffffffffffffffffffffffffffffffff1614611496576040517f08c379a000000000000000000000000000000000000000000000000000000000815260040161148d906125fa565b60405180910390fd5b565b60008060009054906101000a900473ffffffffffffffffffffffffffffffffffffffff169050816000806101000a81548173ffffffffffffffffffffffffffffffffffffffff021916908373ffffffffffffffffffffffffffffffffffffffff1602179055508173ffffffffffffffffffffffffffffffffffffffff168173ffffffffffffffffffffffffffffffffffffffff167f8be0079c531659141344cd1fd0a4f28419497f9722a3daafe3b4186f6b6457e060405160405180910390a35050565b600033905090565b604051806040016040528060608152602001600081525090565b6040518060600160405280600015158152602001600015158152602001600081525090565b600080fd5b600080fd5b6000819050919050565b6115c0816115ad565b81146115cb57600080fd5b50565b6000813590506115dd816115b7565b92915050565b6000602082840312156115f9576115f86115a3565b5b6000611607848285016115ce565b91505092915050565b600080fd5b600080fd5b600080fd5b60008083601f84011261163557611634611610565b5b8235905067ffffffffffffffff81111561165257611651611615565b5b60208301915083600182028301111561166e5761166d61161a565b5b9250929050565b6000806020838503121561168c5761168b6115a3565b5b600083013567ffffffffffffffff8111156116aa576116a96115a8565b5b6116b68582860161161f565b92509250509250929050565b600073ffffffffffffffffffffffffffffffffffffffff82169050919050565b60006116ed826116c2565b9050919050565b6116fd816116e2565b82525050565b600060208201905061171860008301846116f4565b92915050565b7f4e487b7100000000000000000000000000000000000000000000000000000000600052602160045260246000fd5b6006811061175e5761175d61171e565b5b50565b600081905061176f8261174d565b919050565b600061177f82611761565b9050919050565b61178f81611774565b82525050565b60006020820190506117aa6000830184611786565b92915050565b600081519050919050565b600082825260208201905092915050565b60005b838110156117ea5780820151818401526020810190506117cf565b60008484015250505050565b6000601f19601f8301169050919050565b6000611812826117b0565b61181c81856117bb565b935061182c8185602086016117cc565b611835816117f6565b840191505092915050565b611849816115ad565b82525050565b6000604083016000830151848203600086015261186c8282611807565b91505060208301516118816020860182611840565b508091505092915050565b600060208201905081810360008301526118a6818461184f565b905092915050565b6118b7816115ad565b82525050565b60006020820190506118d260008301846118ae565b92915050565b6118e1816116e2565b81146118ec57600080fd5b50565b6000813590506118fe816118d8565b92915050565b60006020828403121561191a576119196115a3565b5b6000611928848285016118ef565b91505092915050565b60008115159050919050565b61194681611931565b82525050565b606082016000820151611962600085018261193d565b506020820151611975602085018261193d565b5060408201516119886040850182611840565b50505050565b60006060820190506119a3600083018461194c565b92915050565b600082825260208201905092915050565b60006119c5826117b0565b6119cf81856119a9565b93506119df8185602086016117cc565b6119e8816117f6565b840191505092915050565b60006040820190508181036000830152611a0d81856119ba565b9050611a1c60208301846118ae565b9392505050565b7f596f75277265206e6f74206120766f7465720000000000000000000000000000600082015250565b6000611a596012836119a9565b9150611a6482611a23565b602082019050919050565b60006020820190508181036000830152611a8881611a4c565b9050919050565b7f566f74696e672073657373696f6e20686176656e74207374617274656420796560008201527f7400000000000000000000000000000000000000000000000000000000000000602082015250565b6000611aeb6021836119a9565b9150611af682611a8f565b604082019050919050565b60006020820190508181036000830152611b1a81611ade565b9050919050565b7f596f75206861766520616c726561647920766f74656400000000000000000000600082015250565b6000611b576016836119a9565b9150611b6282611b21565b602082019050919050565b60006020820190508181036000830152611b8681611b4a565b9050919050565b7f50726f706f73616c206e6f7420666f756e640000000000000000000000000000600082015250565b6000611bc36012836119a9565b9150611bce82611b8d565b602082019050919050565b60006020820190508181036000830152611bf281611bb6565b9050919050565b7f4e487b7100000000000000000000000000000000000000000000000000000000600052603260045260246000fd5b7f4e487b7100000000000000000000000000000000000000000000000000000000600052601160045260246000fd5b6000611c62826115ad565b91507fffffffffffffffffffffffffffffffffffffffffffffffffffffffffffffffff8203611c9457611c93611c28565b5b600182019050919050565b6000604082019050611cb460008301856116f4565b611cc160208301846118ae565b9392505050565b7f50726f706f73616c7320617265206e6f7420616c6c6f77656420796574000000600082015250565b6000611cfe601d836119a9565b9150611d0982611cc8565b602082019050919050565b60006020820190508181036000830152611d2d81611cf1565b9050919050565b50565b6000611d446000836119a9565b9150611d4f82611d34565b600082019050919050565b60006020820190508181036000830152611d7381611d37565b9050919050565b82818337600083830152505050565b6000611d9583856119a9565b9350611da2838584611d7a565b611dab836117f6565b840190509392505050565b60006020820190508181036000830152611dd1818486611d89565b90509392505050565b7f566f7573206e6520706f7576657a20706173206e65207269656e2070726f706f60008201527f7365720000000000000000000000000000000000000000000000000000000000602082015250565b6000611e366023836119a9565b9150611e4182611dda565b604082019050919050565b60006020820190508181036000830152611e6581611e29565b9050919050565b7f4e487b7100000000000000000000000000000000000000000000000000000000600052604160045260246000fd5b7f4e487b7100000000000000000000000000000000000000000000000000000000600052602260045260246000fd5b60006002820490506001821680611ee257607f821691505b602082108103611ef557611ef4611e9b565b5b50919050565b60008190508160005260206000209050919050565b60006020601f8301049050919050565b600082821b905092915050565b600060088302611f5d7fffffffffffffffffffffffffffffffffffffffffffffffffffffffffffffffff82611f20565b611f678683611f20565b95508019841693508086168417925050509392505050565b6000819050919050565b6000611fa4611f9f611f9a846115ad565b611f7f565b6115ad565b9050919050565b6000819050919050565b611fbe83611f89565b611fd2611fca82611fab565b848454611f2d565b825550505050565b600090565b611fe7611fda565b611ff2818484611fb5565b505050565b5b818110156120165761200b600082611fdf565b600181019050611ff8565b5050565b601f82111561205b5761202c81611efb565b61203584611f10565b81016020851015612044578190505b61205861205085611f10565b830182611ff7565b50505b505050565b600082821c905092915050565b600061207e60001984600802612060565b1980831691505092915050565b6000612097838361206d565b9150826002028217905092915050565b6120b0826117b0565b67ffffffffffffffff8111156120c9576120c8611e6c565b5b6120d38254611eca565b6120de82828561201a565b600060209050601f83116001811461211157600084156120ff578287015190505b612109858261208b565b865550612171565b601f19841661211f86611efb565b60005b8281101561214757848901518255600182019150602085019450602081019050612122565b868310156121645784890151612160601f89168261206d565b8355505b6001600288020188555050505b505050505050565b6000612184826115ad565b915061218f836115ad565b92508282039050818111156121a7576121a6611c28565b5b92915050565b7f43757272656e7420737461747573206973206e6f7420766f74696e672073657360008201527f73696f6e20656e64656400000000000000000000000000000000000000000000602082015250565b6000612209602a836119a9565b9150612214826121ad565b604082019050919050565b60006020820190508181036000830152612238816121fc565b9050919050565b60006040820190506122546000830185611786565b6122616020830184611786565b9392505050565b7f5265676973746572696e672070726f706f73616c732063616e7420626520737460008201527f6172746564206e6f770000000000000000000000000000000000000000000000602082015250565b60006122c46029836119a9565b91506122cf82612268565b604082019050919050565b600060208201905081810360008301526122f3816122b7565b9050919050565b7f5265676973746572696e672070726f706f73616c7320686176656e742073746160008201527f7274656420796574000000000000000000000000000000000000000000000000602082015250565b60006123566028836119a9565b9150612361826122fa565b604082019050919050565b6000602082019050818103600083015261238581612349565b9050919050565b7f5265676973746572696e672070726f706f73616c73207068617365206973206e60008201527f6f742066696e6973686564000000000000000000000000000000000000000000602082015250565b60006123e8602b836119a9565b91506123f38261238c565b604082019050919050565b60006020820190508181036000830152612417816123db565b9050919050565b7f4f776e61626c653a206e6577206f776e657220697320746865207a65726f206160008201527f6464726573730000000000000000000000000000000000000000000000000000602082015250565b600061247a6026836119a9565b91506124858261241e565b604082019050919050565b600060208201905081810360008301526124a98161246d565b9050919050565b7f566f7465727320726567697374726174696f6e206973206e6f74206f70656e2060008201527f7965740000000000000000000000000000000000000000000000000000000000602082015250565b600061250c6023836119a9565b9150612517826124b0565b604082019050919050565b6000602082019050818103600083015261253b816124ff565b9050919050565b7f416c726561647920726567697374657265640000000000000000000000000000600082015250565b60006125786012836119a9565b915061258382612542565b602082019050919050565b600060208201905081810360008301526125a78161256b565b9050919050565b7f4f776e61626c653a2063616c6c6572206973206e6f7420746865206f776e6572600082015250565b60006125e46020836119a9565b91506125ef826125ae565b602082019050919050565b60006020820190508181036000830152612613816125d7565b905091905056fea26469706673582212204bd1a54e79e570a21d13965c283d18ba0753608611b364018fea740e46c078c564736f6c63430008110033",
  "immutableReferences": {},
  "source": "// SPDX-License-Identifier: GPL-3.0\npragma solidity 0.8.17;\n\nimport \"../node_modules/@openzeppelin/contracts/access/Ownable.sol\";\n\n/// @title Proposals voting system\n/// @author smart contract programmer\n/// @notice You can use this contract for setting up a proposals voting system\ncontract Voting is Ownable {\n    /// Index of the winning proposal\n    uint256 public winningProposalID;\n\n    /// Voter\n    struct Voter {\n        bool isRegistered;\n        bool hasVoted;\n        uint256 votedProposalId;\n    }\n\n    /// An object Proposal with a description and a number of votes\n    struct Proposal {\n        string description;\n        uint256 voteCount;\n    }\n\n    /// Status of the workflow\n    enum WorkflowStatus {\n        RegisteringVoters,\n        ProposalsRegistrationStarted,\n        ProposalsRegistrationEnded,\n        VotingSessionStarted,\n        VotingSessionEnded,\n        VotesTallied\n    }\n\n    /// Current status of the workflow\n    WorkflowStatus public workflowStatus;\n\n    /// List of proposals\n    Proposal[] public proposalsArray;\n\n    /// Voters in the whitelist\n    mapping(address => Voter) voters;\n\n    /// @notice This event is emitted when a vote is registered.\n    /// @param voterAddress Voter's address\n    event VoterRegistered(address voterAddress);\n\n    /// @notice This event is emitted when a voter is registered.\n    /// @param previousStatus Status before update\n    /// @param newStatus Status after update\n    event WorkflowStatusChange(\n        WorkflowStatus previousStatus,\n        WorkflowStatus newStatus\n    );\n\n    /// @notice This event is emitted when a proposal is registered.\n    /// @param proposalId Index of the proposal in the table\n    event ProposalRegistered(uint256 proposalId);\n\n    /// @notice This event is emitted when a voter has voted for a proposal\n    /// @param voter Voter's address\n    /// @param proposalId Index of the proposal in the table\n    event Voted(address voter, uint256 proposalId);\n\n    /// @notice This modifier checks that the voter is registered to perform the action\n    /// @dev sg.sender is the caller\n    modifier onlyVoters() {\n        require(voters[msg.sender].isRegistered, \"You're not a voter\");\n        _;\n    }\n\n    // ::::::::::::: GETTERS ::::::::::::: //\n\n    /// @notice Return a voter by a specific address\n    /// @param _addr caller's address\n    /// @return Voter object\n    function getVoter(address _addr)\n        external\n        view\n        onlyVoters\n        returns (Voter memory)\n    {\n        return voters[_addr];\n    }\n\n    /// @notice Return a proposal by id\n    /// @param _id Index of the proposal in the table\n    /// @return Proposal made by a voter\n    function getOneProposal(uint256 _id)\n        external\n        view\n        onlyVoters\n        returns (Proposal memory)\n    {\n        return proposalsArray[_id];\n    }\n\n    /// @notice Return the count of proposals\n    /// @return uint256 Count of proposals\n    function getProposalsArrayCount()\n        external\n        view\n        onlyVoters\n        returns (uint256)\n    {\n        return proposalsArray.length;\n    }\n\n    // ::::::::::::: REGISTRATION ::::::::::::: //\n\n    /// @notice Add a voter in the whitelist\n    /// @param _addr voter's address to add in the whitelist\n    /// @dev Function can only be called by the deployer of the contract\n    function addVoter(address _addr) external onlyOwner {\n        require(\n            workflowStatus == WorkflowStatus.RegisteringVoters,\n            \"Voters registration is not open yet\"\n        );\n        /// Check the presence of the voter is the whitelist\n        require(voters[_addr].isRegistered != true, \"Already registered\");\n\n        voters[_addr].isRegistered = true;\n        emit VoterRegistered(_addr);\n    }\n\n    // ::::::::::::: PROPOSAL ::::::::::::: //\n\n    /// @notice Add a proposal\n    /// @param _desc Description of the proposal\n    /// @dev Function can only be called by a registered voter\n    function addProposal(string calldata _desc) external onlyVoters {\n        require(\n            workflowStatus == WorkflowStatus.ProposalsRegistrationStarted,\n            \"Proposals are not allowed yet\"\n        );\n        /// Description must not be empty\n        require(\n            keccak256(abi.encode(_desc)) != keccak256(abi.encode(\"\")),\n            \"Vous ne pouvez pas ne rien proposer\"\n        );\n\n        Proposal memory proposal;\n        proposal.description = _desc;\n        proposalsArray.push(proposal);\n        emit ProposalRegistered(proposalsArray.length - 1);\n    }\n\n    // ::::::::::::: VOTE ::::::::::::: //\n\n    /// @notice Vote for a proposal\n    /// @param _id Index of the proposal in the table\n    /// @dev Function can only be called by a registered voter\n    function setVote(uint256 _id) external onlyVoters {\n        require(\n            workflowStatus == WorkflowStatus.VotingSessionStarted,\n            \"Voting session havent started yet\"\n        );\n\n        /// The voter must not have voted\n        require(voters[msg.sender].hasVoted != true, \"You have already voted\");\n        /// Check the existence of the proposal in the table\n        require(_id < proposalsArray.length, \"Proposal not found\");\n\n        voters[msg.sender].votedProposalId = _id;\n        voters[msg.sender].hasVoted = true;\n        proposalsArray[_id].voteCount++;\n\n        /// @Dev patch To evict a DoS Gas Limit attack in tallyVotes - Identify the winning proposal\n        if (\n            proposalsArray[_id].voteCount >\n            proposalsArray[winningProposalID].voteCount\n        ) {\n            winningProposalID = _id;\n        }\n\n        emit Voted(msg.sender, _id);\n    }\n\n    // ::::::::::::: STATE ::::::::::::: //\n\n    /// @notice The contract owner starts the proposals registering session\n    /// @dev Function can only be called by the deployer of the contract\n    function startProposalsRegistering() external onlyOwner {\n        require(\n            workflowStatus == WorkflowStatus.RegisteringVoters,\n            \"Registering proposals cant be started now\"\n        );\n        workflowStatus = WorkflowStatus.ProposalsRegistrationStarted;\n\n        Proposal memory proposal;\n        proposal.description = \"GENESIS\";\n        proposalsArray.push(proposal);\n\n        emit WorkflowStatusChange(\n            WorkflowStatus.RegisteringVoters,\n            WorkflowStatus.ProposalsRegistrationStarted\n        );\n    }\n\n    /// @notice The contract owner stops the proposals registering session\n    /// @dev Function can only be called by the deployer of the contract\n    function endProposalsRegistering() external onlyOwner {\n        require(\n            workflowStatus == WorkflowStatus.ProposalsRegistrationStarted,\n            \"Registering proposals havent started yet\"\n        );\n        workflowStatus = WorkflowStatus.ProposalsRegistrationEnded;\n        emit WorkflowStatusChange(\n            WorkflowStatus.ProposalsRegistrationStarted,\n            WorkflowStatus.ProposalsRegistrationEnded\n        );\n    }\n\n    /// @notice The contract owner starts the voting session\n    /// @dev Function can only be called by the deployer of the contract\n    function startVotingSession() external onlyOwner {\n        require(\n            workflowStatus == WorkflowStatus.ProposalsRegistrationEnded,\n            \"Registering proposals phase is not finished\"\n        );\n        workflowStatus = WorkflowStatus.VotingSessionStarted;\n        emit WorkflowStatusChange(\n            WorkflowStatus.ProposalsRegistrationEnded,\n            WorkflowStatus.VotingSessionStarted\n        );\n    }\n\n    /// @notice The contract owner stops  the voting session\n    /// @dev Function can only be called by the deployer of the contract\n    function endVotingSession() external onlyOwner {\n        require(\n            workflowStatus == WorkflowStatus.VotingSessionStarted,\n            \"Voting session havent started yet\"\n        );\n        workflowStatus = WorkflowStatus.VotingSessionEnded;\n        emit WorkflowStatusChange(\n            WorkflowStatus.VotingSessionStarted,\n            WorkflowStatus.VotingSessionEnded\n        );\n    }\n\n    /// @notice Count the votes - Finalise the votes\n    function tallyVotes() external onlyOwner {\n        require(\n            workflowStatus == WorkflowStatus.VotingSessionEnded,\n            \"Current status is not voting session ended\"\n        );\n        /// @Dev The commented code is done for preventing a DOS gaz limit attack.\n        /// The count of the votes is done in setVote function. Function can only be called by the deployer of the contract\n\n        /*\n        uint256 _winningProposalId;\n        for (uint256 p = 0; p < proposalsArray.length; p++) {\n            if (\n                proposalsArray[p].voteCount >\n                proposalsArray[_winningProposalId].voteCount\n            ) {\n                _winningProposalId = p;\n            }\n        }\n        winningProposalID = _winningProposalId;*/\n\n        workflowStatus = WorkflowStatus.VotesTallied;\n        emit WorkflowStatusChange(\n            WorkflowStatus.VotingSessionEnded,\n            WorkflowStatus.VotesTallied\n        );\n    }\n}\n",
  "sourcePath": "/home/anicaise/Formation/Alyra/Rock/truffle/contracts/Voting.sol",
  "compiler": {
    "name": "solc",
    "version": "0.8.17+commit.8df45f5f.Emscripten.clang"
  },
  "schemaVersion": "3.4.10",
  "updatedAt": "2022-12-03T10:03:51.070Z",
  "networkType": "ethereum",
  "devdoc": {
    "author": "smart contract programmer",
    "events": {
      "ProposalRegistered(uint256)": {
        "params": {
          "proposalId": "Index of the proposal in the table"
        }
      },
      "Voted(address,uint256)": {
        "params": {
          "proposalId": "Index of the proposal in the table",
          "voter": "Voter's address"
        }
      },
      "VoterRegistered(address)": {
        "params": {
          "voterAddress": "Voter's address"
        }
      },
      "WorkflowStatusChange(uint8,uint8)": {
        "params": {
          "newStatus": "Status after update",
          "previousStatus": "Status before update"
        }
      }
    },
    "kind": "dev",
    "methods": {
      "addProposal(string)": {
        "details": "Function can only be called by a registered voter",
        "params": {
          "_desc": "Description of the proposal"
        }
      },
      "addVoter(address)": {
        "details": "Function can only be called by the deployer of the contract",
        "params": {
          "_addr": "voter's address to add in the whitelist"
        }
      },
      "endProposalsRegistering()": {
        "details": "Function can only be called by the deployer of the contract"
      },
      "endVotingSession()": {
        "details": "Function can only be called by the deployer of the contract"
      },
      "getOneProposal(uint256)": {
        "params": {
          "_id": "Index of the proposal in the table"
        },
        "returns": {
          "_0": "Proposal made by a voter"
        }
      },
      "getProposalsArrayCount()": {
        "returns": {
          "_0": "uint256 Count of proposals"
        }
      },
      "getVoter(address)": {
        "params": {
          "_addr": "caller's address"
        },
        "returns": {
          "_0": "Voter object"
        }
      },
      "owner()": {
        "details": "Returns the address of the current owner."
      },
      "renounceOwnership()": {
        "details": "Leaves the contract without owner. It will not be possible to call `onlyOwner` functions anymore. Can only be called by the current owner. NOTE: Renouncing ownership will leave the contract without an owner, thereby removing any functionality that is only available to the owner."
      },
      "setVote(uint256)": {
        "details": "Function can only be called by a registered voter",
        "params": {
          "_id": "Index of the proposal in the table"
        }
      },
      "startProposalsRegistering()": {
        "details": "Function can only be called by the deployer of the contract"
      },
      "startVotingSession()": {
        "details": "Function can only be called by the deployer of the contract"
      },
      "transferOwnership(address)": {
        "details": "Transfers ownership of the contract to a new account (`newOwner`). Can only be called by the current owner."
      }
    },
    "title": "Proposals voting system",
    "version": 1
  },
  "userdoc": {
    "events": {
      "ProposalRegistered(uint256)": {
        "notice": "This event is emitted when a proposal is registered."
      },
      "Voted(address,uint256)": {
        "notice": "This event is emitted when a voter has voted for a proposal"
      },
      "VoterRegistered(address)": {
        "notice": "This event is emitted when a vote is registered."
      },
      "WorkflowStatusChange(uint8,uint8)": {
        "notice": "This event is emitted when a voter is registered."
      }
    },
    "kind": "user",
    "methods": {
      "addProposal(string)": {
        "notice": "Add a proposal"
      },
      "addVoter(address)": {
        "notice": "Add a voter in the whitelist"
      },
      "endProposalsRegistering()": {
        "notice": "The contract owner stops the proposals registering session"
      },
      "endVotingSession()": {
        "notice": "The contract owner stops  the voting session"
      },
      "getOneProposal(uint256)": {
        "notice": "Return a proposal by id"
      },
      "getProposalsArrayCount()": {
        "notice": "Return the count of proposals"
      },
      "getVoter(address)": {
        "notice": "Return a voter by a specific address"
      },
      "proposalsArray(uint256)": {
        "notice": "List of proposals"
      },
      "setVote(uint256)": {
        "notice": "Vote for a proposal"
      },
      "startProposalsRegistering()": {
        "notice": "The contract owner starts the proposals registering session"
      },
      "startVotingSession()": {
        "notice": "The contract owner starts the voting session"
      },
      "tallyVotes()": {
        "notice": "Count the votes - Finalise the votes"
      },
      "winningProposalID()": {
        "notice": "Index of the winning proposal"
      },
      "workflowStatus()": {
        "notice": "Current status of the workflow"
      }
    },
    "notice": "You can use this contract for setting up a proposals voting system",
    "version": 1
  }
}